S01100002E2E2F50726F746575732E73313966
S32D0000C0000000002061C2000015C300001BC3000021C3000027C300002DC300000000000000000000000000005B
S32D0000C0280000000033C3000039C30000000000003FC3000045C3000045D7000051D700005DD7000069D7000036
S32D0000C05075D7000081D700008DD7000099D70000A5D70000B1D70000BDD70000C9D70000D5D70000E1D70000AE
S32D0000C078EDD70000F9D7000005D8000011D800001DD8000029D8000035D8000041D800004DD8000059D80000CE
S32D0000C0A065D8000071D800007DD8000089D8000095D80000A1D80000ADD80000B9D80000C5D80000D1D80000F4
S32D0000C0C8DDD80000E9D80000F5D8000001D900000DD9000019D9000025D9000031D900003DD9000049D9000015
S32D0000C0F055D90000691D010061D900006DD9000079D9000085D9000091D900009DD90000A9D90000B5D900004D
S32D0000C118C1D90000CDD90000D9D90000E5D90000F1D90000FDD9000009DA000015DA000021DA00002DDA0000D5
S32D0000C14039DA000045DA000051DA00005DDA00002902010069DA000075DA000081DA00008DDA000099DA00004A
S32D0000C168A5DA0000B1DA0000BDDA0000C9DA0000D5DA0000E1DA0000EDDA0000F9DA000005DB000011DB000095
S32D0000C1901DDB000029DB000035DB00001DFE0000E5FC000081FD0000C9D40000BDFE000041DB00004DDB00005F
S32D0000C1B859DB0000E099010000000020D0130000E09901000000FF1F00000000D0130020280700000000FF1FC0
S32D0000C1E00000000080B489B000AFF860B9607A60BB68FB61FB68BB6100237B610AE0BB691A1DBA611A68FB6987
S32D0000C208191DF9611A607B6904337B617A697B689A42F0D300BF00BF2437BD4680BC704780B485B000AF7860E3
S32D0000C23039607B68FB600023BB6007E0FB681A1DFA6000221A60BB680433BB60BA683B689A42F3D300BF00BFFA
S32D0000C2581437BD4680BC704780B586B000AF72B6234B4CF220521A80214B4DF628121A80204B4FF4E9721A8057
S32D0000C2801F4B7B6113E07B691A1D7A611B687B607B691A1D7A611B68FB607B691A1D7A611B68BB60BA68F96818
S32D0000C2A87868FFF79BFF7B69144A9342E7D30DE07B691A1D7A611B68FB607B691A1D7A611B68BB60B968F86851
S32D0000C2D0FFF7AAFF7B690C4A9342EDD30B4B3B610B4A3B691A6008F0E9F862B601F0B4F901F0DAF8FEE700BF77
S32D0000C2F80E20054000200540BCC10000D4C10000E4C1000008ED00E000C0000080B400AFFEE780B400AFFEE764
S32D0000C32080B400AFFEE780B400AFFEE780B400AFFEE780B400AFFEE780B400AFFEE780B400AFFEE780B400AF5C
S32D0000C348FEE780B400AFFEE7FFFFFFFFFFFFFFFFFFFFFFFFFFFFFFFFFFFFFFFFFFFFFFFFFFFFFFFFFFFFFFFF3A
S32D0000C370FFFFFFFFFFFFFFFFFFFFFFFFFFFFFFFFFFFFFFFFFFFFFFFFFFFFFFFFFFFFFFFFFFFFFFFFFFFFFFFFC7
S32D0000C398FFFFFFFFFFFFFFFFFFFFFFFFFFFFFFFFFFFFFFFFFFFFFFFFFFFFFFFFFFFFFFFFFFFFFFFFFFFFFFFF9F
S32D0000C3C0FFFFFFFFFFFFFFFFFFFFFFFFFFFFFFFFFFFFFFFFFFFFFFFFFFFFFFFFFFFFFFFFFFFFFFFFFFFFFFFF77
S32D0000C3E8FFFFFFFFFFFFFFFFFFFFFFFFFFFFFFFFFFFFFFFFFFFFFFFFFFFFFFFFFFFFFFFFFFFFFFFFFEFFFFFF50
S32D0000C44008B5034B1BB103490348AFF3008008BD00000000D013002010C4000080B582B000AF78607B682D4A5A
S32D0000C4680021184601F07CFB7B680833294A0121184601F075FB7B681033264A0221184601F06EFB7B681833AE
S32D0000C4900021184603F0C8FA7B6819330121184603F0C2FA7B681A330221184603F0BCFA7B68443318211846A1
S32D0000C4B803F070FD7B684C330721184604F060F87B684FF00002DA617B684FF000025A627B684FF000021A62E3
S32D0000C4E07B6800229A637B680022DA637B6800221A647B684FF000025A637B68084A9A627B68084ADA627B6801
S32D0000C508074A1A637B68074A9A647B6818460837BD4680BD000010416666E63ECDCC4C3DCDCC4C3E33335340C6
S32D0000C53080B582B000AF78607B684FF00001184601F07AFB7B6808334FF00001184601F073FB7B6810334FF088
S32D0000C5580001184601F06CFB00BF0837BD4680BD80B582B000AF786003F02CFA02460B461046194606F0C6FAB5
S32D0000C58002467B68DA6103F021FA02460B461046194606F0BBFA02467B685A627B684FF000021A627B68002294
S32D0000C5A89A637B680022DA637B6800221A647B684FF000025A637B681833184603F0D8FC7B681933184603F0EF
S32D0000C5D0D3FC7B681A33184603F0CEFC7B684433184603F0EDFC02467B689A6404A1D1E9000103F0C5F900BF96
S32D0000C5F80837BD4680BD00BF9A9999999999A93FB0B58CB000AFF860B9607A607B68002B0AD1FB6818331846C8
S32D0000C62003F098FC0246FB689B6BD31AFB6217E07B68012B0AD1FB681933184603F08AFC0246FB68DB6BD31A25
S32D0000C648FB6209E0FB681A33184603F07FFC0246FB681B6CD31AFB6203F0B4F904460D46FB68DB69184605F04F
S32D0000C670FDFE02460B462046294605F097FD02460B461046194606F041FA0346BB62F86A06F046FB0346B96AC0
S32D0000C698184606F049FC0346184605F0E3FE5CA3D3E9002305F036FF02460B461046194606F028FA03467B62CA
S32D0000C6C0796AB86806F076FA03463B62FB685B6B396A184606F070FA03461A46FB685A63FB689B6A1946386A41
S32D0000C6E806F06EFB0346FB61FB685A6BFB68DB6A1946104606F064FB0346BB61FB681B6A1946386A06F052FAB6
S32D0000C71003461A46FB681B6B1946104606F054FB03467B61FB683A6A1A6203F04FF902460B461046194606F048
S32D0000C738E9F90246FB68DA61FB681833184603F005FC0246FB689A63FB681933184603F0FDFB0246FB68DA6383
S32D0000C760FB681A33184603F0F5FB0246FB681A643C2300222A492B4804F022FB3C23C822796A284804F05CFB32
S32D0000C788502300222649254804F016FB5023C822396A224804F050FB6423002221491F4804F00AFBFB68DA694B
S32D0000C7B0FB685B6A1946104606F0FCF9034619466423C822174804F03BFB8C2300221849144804F0F5FA8C23D1
S32D0000C7D8C822F969114804F02FFBFB68996C1423C8220E4804F028FBF969B86806F0E0F90346B969184606F06A
S32D0000C800DBF903467969184606F0D6F9034618463037BD46B0BD00BF90AAB253F65A993FC8920100C8160020EB
S32D0000C828D4920100E0920100EC92010000000000F0B58BB000AFF860B9607A603B60F868FFF78EFEBE4804F038
S32D0000C8505EFA7B68002B40F09B806AE00122B968F868FFF7D1FE034683F00044386C06F057FA0346194620465D
S32D0000C87806F0A6FA03467B610222B968F868FFF7BFFE0446386C06F047FA03461946204606F096FA03463B61E1
S32D0000C8A0FB6803F10804786905F0E0FDA0A3D3E9002305F05DFF02460B46104619464FF00002A24B05F02AFE48
S32D0000C8C802460B461046194606F01CF903461946204601F0ADF9FB6803F11004386905F0C1FD91A3D3E9002372
S32D0000C8F005F03EFF02460B46104619464FF00002924B05F00BFE02460B461046194606F0FDF803461946204637
S32D0000C91801F08EF97B6C012B02D1F86800F0C8FC83A1D1E9000103F027F8FB681933184603F00CFB0446FB68DA
S32D0000C9401A33184603F006FB03462344DA0F13445B10184605F078FD04460D46386805F085FD77A3D3E900235A
S32D0000C96805F0D8FD02460B4601210E462046294606F042F80346002B01D100231E46F3B2002B7FF467AF7CE140
S32D0000C9907B68012B40F04B819BE00022B968F868FFF732FE0446386C06F0BAF903461946204606F009FA034643
S32D0000C9B8FB610222B968F868FFF722FE034683F00044386C06F0A8F903461946204606F0F7F90346BB61FC6842
S32D0000C9E0F86905F043FD52A3D3E9002305F0C0FE02460B46104619464FF00002534B05F08DFD02460B46104671
S32D0000CA08194606F07FF803461946204601F010F9FB6803F11004B86905F024FD42A3D3E9002305F0A1FE0246EA
S32D0000CA300B46104619464FF00002444B05F06EFD02460B461046194606F060F803461946204601F0F1F80023FB
S32D0000CA5800223D493A4804F0AFF9FB681833184603F074FA01460023C822354804F0C8F91423002235493248A6
S32D0000CA8004F09EF9FB681933184603F063FA01461423C8222C4804F0B7F9282300222E49294804F08DF9FB68EE
S32D0000CAA81A33184603F052FA01462823C822244804F0A6F97B6C012B02D1F86800F0F8FB1BA1D1E9000102F069
S32D0000CAD057FFFB681833184603F03CFA0446FB681A33184603F036FA03462344DA0F13445B10184605F0A8FCE0
S32D0000CAF804460D46386805F0B5FC0FA3D3E9002305F008FD02460B4601210E462046294605F072FF0346002BE4
S32D0000CB2001D100231E46F3B2002B7FF436AFACE03333333333B33E409A9999999999A93F295C8FC2F588414057
S32D0000CB48C816002000005940F0920100FC920100089301000022B968F868FFF751FD034683F00044386C06F0F9
S32D0000CB70D7F803461946204606F026F903467B620122B968F868FFF73FFD0446386C06F0C7F8034619462046F8
S32D0000CB9806F016F903463B62FC68786A05F062FC3BA3D3E9002305F0DFFD02460B46104619464FF000023C4B47
S32D0000CBC005F0ACFC02460B461046194605F09EFF03461946204601F02FF8FB6803F10804386A05F043FC2CA39C
S32D0000CBE8D3E9002305F0C0FD02460B46104619464FF000022C4B05F08DFC02460B461046194605F07FFF034600
S32D0000CC101946204601F010F87B6C012B02D1F86800F04AFB1EA1D1E9000102F0A9FEFB681833184603F08EF924
S32D0000CC380446FB681933184603F088F903462344DA0F13445B10184605F0FAFB04460D46386805F007FC12A376
S32D0000CC60D3E9002305F05AFC02460B4601210E462046294605F0C4FE0346002B01D100231E46F3B2002B7FF4D1
S32D0000CC8869AFF868FFF750FC00BF2C37BD46F0BD3333333333B33E409A9999999999A93F295C8FC2F58841406F
S32D0000CCB00000594000000000F0B58FB000AFF860B9607A603B60F868FFF74EFC704804F01EF87B68002B40F0A4
S32D0000CCD8CA80A3E00022B968F868FFF791FC034683F00044386D06F017F803461946204606F066F80346FB618A
S32D0000CD004FF08041B86806F013F9034601221946F868FFF779FC0446386D06F001F803461946204606F050F823
S32D0000CD280346BB614FF08041B86806F0FDF8034602221946F868FFF763FC0446386D05F0EBFF03461946204610
S32D0000CD5006F03AF803467B61FC68F86905F086FB45A3D3E9002305F003FD02460B46104619464FF00002474B50
S32D0000CD7805F0D0FB02460B461046194605F0C2FE03461946204600F053FFFB6803F10804B86905F067FB36A3C6
S32D0000CDA0D3E9002305F0E4FC02460B46104619464FF00002374B05F0B1FB02460B461046194605F0A3FE0346D2
S32D0000CDC81946204600F034FFFB6803F11004786905F048FB26A3D3E9002305F0C5FC02460B46104619464FF0E6
S32D0000CDF00002284B05F092FB02460B461046194605F084FE03461946204600F015FF7B6D012B02D1F86800F010
S32D0000CE184FFA19A1D1E9000102F0AEFDFB681833184603F093F80346184605F009FB04460D46386805F016FB24
S32D0000CE4011A3D3E9002305F069FB02460B4601210E462046294605F0D3FD0346002B01D100231E46F3B2002B92
S32D0000CE687FF438AFA5E17B68012B40F07E81B3E03333333333B33E409A9999999999A93FC520B0726831444018
S32D0000CE90C8160020000059404FF08041B86806F047F8034600221946F868FFF7ADFB0446386D05F035FF03465F
S32D0000CEB81946204605F084FF0346BB620122B968F868FFF79DFB034683F00044386D05F023FF034619462046AD
S32D0000CEE005F072FF03467B624FF08041B86806F01FF8034602221946F868FFF785FB0446386D05F00DFF034690
S32D0000CF081946204605F05CFF03463B62FC68B86A05F0A8FAAAA3D3E9002305F025FC02460B46104619464FF014
S32D0000CF300002AB4B05F0F2FA02460B461046194605F0E4FD03461946204600F075FEFB6803F10804786A05F02B
S32D0000CF5889FA9BA3D3E9002305F006FC02460B46104619464FF000029B4B05F0D3FA02460B461046194605F09A
S32D0000CF80C5FD03461946204600F056FEFB6803F11004386A05F06AFA8BA3D3E9002305F0E7FB02460B46104636
S32D0000CFA819464FF000028C4B05F0B4FA02460B461046194605F0A6FD03461946204600F037FE7B6D012B02D141
S32D0000CFD0F86800F071F97EA1D1E9000102F0D0FCFB681933184602F0B5FF0346184605F02BFA04460D46386830
S32D0000CFF805F038FA76A3D3E9002305F08BFA02460B4601210E462046294605F0F5FC0346002B01D100231E46DB
S32D0000D020F3B2002B7FF438AFC7E04FF08041B86805F07EFF034600221946F868FFF7E4FA0446386D05F06CFE33
S32D0000D04803461946204605F0BBFE03467B634FF08041B86805F068FF034601221946F868FFF7CEFA0446386D83
S32D0000D07005F056FE03461946204605F0A5FE03463B630222B968F868FFF7BEFA034683F00044386D05F044FE8D
S32D0000D09803461946204605F093FE0346FB62FC68786B05F0DFF946A3D3E9002305F05CFB02460B4610461946BA
S32D0000D0C04FF00002464B05F029FA02460B461046194605F01BFD03461946204600F0ACFDFB6803F10804386B50
S32D0000D0E805F0C0F936A3D3E9002305F03DFB02460B46104619464FF00002374B05F00AFA02460B46104619462F
S32D0000D11005F0FCFC03461946204600F08DFDFB6803F11004F86A05F0A1F927A3D3E9002305F01EFB02460B46D0
S32D0000D138104619464FF00002274B05F0EBF902460B461046194605F0DDFC03461946204600F06EFD7B6D012BEF
S32D0000D16002D1F86800F0A8F819A1D1E9000102F007FCFB681A33184602F0ECFE0346184605F062F904460D46F6
S32D0000D188386805F06FF912A3D3E9002305F0C2F902460B4601210E462046294605F02CFC0346002B01D10023CE
S32D0000D1B01E46F3B2002B7FF438AFF868FFF7B8F900BF3C37BD46F0BD3333333333B33E409A9999999999A93F2B
S32D0000D1D8C520B072683144400000594080B582B000AF786039607B683968184600F020FD7B68083339681846D9
S32D0000D20000F01AFD7B6810333968184600F014FD00BF0837BD4680BD90B583B000AF78607B684433184602F0EC
S32D0000D228CBFE0346184605F01DF901231C461EA3D3E9002305F0E0FB0346002B01D100231C46E3B2002B01D00B
S32D0000D250002326E07B684433184602F0B1FE0346184605F003F912A3D3E9002305F0E6FB0346002B0FD07B68F6
S32D0000D2784433184602F0A0FE03464FF07F51184605F03CFF0346002B01D0012300E00023002B01D0012300E0D1
S32D0000D2A0022318460C37BD4690BD00BFAFF30080333333333333D33F90B583B000AF78607B684433184602F07C
S32D0000D2C87BFE02467B689B6C01210C461946104605F014FF0346002B01D100231C46E3B2002B07D07B684433A0
S32D0000D2F0184602F065FE02467B689A6400BF0C37BD4690BD80B582B000AF786000BF7868FFF782FF0346022B68
S32D0000D31805D07868FFF77CFF0346012B01D1012300E00023002BEED100BF00BF0837BD4680BD80B582B000AF56
S32D0000D34078607B681846FFF789F87B6858330721184603F019F97B6864330621184603F013F97B6818460837B8
S32D0000D368BD4680BD0000000080B584B002AF78607B681846FFF7C2FF786800230193012300934FF081430022FA
S32D0000D3903F49FFF751FA7B683E491846FFF722FF35A1D1E9000102F0EBFA7B681846FFF7BFF8786800230193DA
S32D0000D3B8012300934FF0844300223549FFF738FA7B6832491846FFF709FF2BA1D1E9000102F0D2FA7B68184682
S32D0000D3E0FFF7A6F8786800230193012300932A4B02222A49FFF720FA7868002301934FF0FF330093264B0222F1
S32D0000D4082449FFF715FA7B6820491846FFF7E6FE1BA1D1E9000102F0AFFA7B681846FFF783F8786800230193A5
S32D0000D43001230093164B00221849FFF7FDF97868002301934FF0FF330093164B00221349FFF732FC78680023A6
S32D0000D4580193012300934FF0844300220D49FFF7E7F900BF0837BD4680BD00BFAFF300809A9999999999D93F39
S32D0000D4809A9999999999C93FCDCCCCCCCCCCF43F0000A0400000F041000020410000E0400000884100007041D7
S32D0000D4A880B59CB000AF3B461846FFF742FF3B461846FFF759FF002318467037BD4680BD80B500AF0F4BD3F872
S32D0000D4D0A03003F48053002B14BF01230023DBB2002B10D0094BD3F8A030084A23F48053C2F8A030064804F0C0
S32D0000D4F8BBFD064B1B68054A23F40053136000BF80BD00BF00C0044050170020C0F00F4080B400AF124B4FF486
S32D0000D52080725A63114B5B69104A43F4005353610E4B1B680D4A43F4005313600A4B0C4A1A630C4BD3F8883143
S32D0000D5480A4A43F08063C2F88831084B9B68074A43F08063936000BFBD4680BC704700BF00C00440C0F00F40B1
S32D0000D57003010A0000E100E080B400AF334B00225A70324B98221A7000BF304B9B79DBB203F01003002B14BFD1
S32D0000D59801230023DBB2002BF3D100BF294B9B79DBB29B08DBB203F00303022B14BF01230023DBB2002BF1D1E4
S32D0000D5C0224B18221A71214B00225A71204B03F580531A461F4B53641C4B54225A7100BF1A4B9B79DBB203F09B
S32D0000D5E82003002B0CBF01230023DBB2002BF3D100BF144B9B79DBB203F04003002B0CBF01230023DBB2002B4F
S32D0000D610F3D10E4B1B78DBB20C4A03F03F03DBB2137000BF094B9B79DBB29B08DBB203F00303032B14BF012312
S32D0000D6380023DBB2002BF1D100231846BD4680BC704700BF00400640007004400000130180B500AF314B03F54B
S32D0000D66080539B6B2F4A43F4785302F580529363FFF752FFFFF780FF2B4B58221A602A4B1B684FF47A7202FB3F
S32D0000D68803F3284A1360274B1B681A46234B03F580535B6C1B0E03F00F030133B2FBF3F31A46214B1A601D4BA1
S32D0000D6B003F58053DB6B1B4A43F0225302F58052D363184B03F580531B6B164A43F0006302F580521363174BE4
S32D0000D6D84FF480721A61642002F024F8134B5B69124A23F010035361104B00221A600F4B10225A610E4803F003
S32D0000D7008FF902F045FD02F0A3FD0C4802F070F80B4804F001FD4FF4FA6002F01BF900BF80BD00BF00700440A8
S32D0000D72814160020101600201816002000D00340C81600200C160020C017002080B500AFFEF7FFFD00BF80BDDA
S32D0000D75080B500AFFEF7F9FD00BF80BD80B500AFFEF7F3FD00BF80BD80B500AFFEF7EDFD00BF80BD80B500AF78
S32D0000D778FEF7E7FD00BF80BD80B500AFFEF7E1FD00BF80BD80B500AFFEF7DBFD00BF80BD80B500AFFEF7D5FDA3
S32D0000D7A000BF80BD80B500AFFEF7CFFD00BF80BD80B500AFFEF7C9FD00BF80BD80B500AFFEF7C3FD00BF80BD8E
S32D0000D7C880B500AFFEF7BDFD00BF80BD80B500AFFEF7B7FD00BF80BD80B500AFFEF7B1FD00BF80BD80B500AFB4
S32D0000D7F0FEF7ABFD00BF80BD80B500AFFEF7A5FD00BF80BD80B500AFFEF79FFD00BF80BD80B500AFFEF799FD1B
S32D0000D81800BF80BD80B500AFFEF793FD00BF80BD80B500AFFEF78DFD00BF80BD80B500AFFEF787FD00BF80BDC9
S32D0000D84080B500AFFEF781FD00BF80BD80B500AFFEF77BFD00BF80BD80B500AFFEF775FD00BF80BD80B500AFEF
S32D0000D868FEF76FFD00BF80BD80B500AFFEF769FD00BF80BD80B500AFFEF763FD00BF80BD80B500AFFEF75DFD92
S32D0000D89000BF80BD80B500AFFEF757FD00BF80BD80B500AFFEF751FD00BF80BD80B500AFFEF74BFD00BF80BD05
S32D0000D8B880B500AFFEF745FD00BF80BD80B500AFFEF73FFD00BF80BD80B500AFFEF739FD00BF80BD80B500AF2B
S32D0000D8E0FEF733FD00BF80BD80B500AFFEF72DFD00BF80BD80B500AFFEF727FD00BF80BD80B500AFFEF721FD0A
S32D0000D90800BF80BD80B500AFFEF71BFD00BF80BD80B500AFFEF715FD00BF80BD80B500AFFEF70FFD00BF80BD40
S32D0000D93080B500AFFEF709FD00BF80BD80B500AFFEF703FD00BF80BD80B500AFFEF7FDFC00BF80BD80B500AF67
S32D0000D958FEF7F7FC00BF80BD80B500AFFEF7F1FC00BF80BD80B500AFFEF7EBFC00BF80BD80B500AFFEF7E5FC85
S32D0000D98000BF80BD80B500AFFEF7DFFC00BF80BD80B500AFFEF7D9FC00BF80BD80B500AFFEF7D3FC00BF80BD7F
S32D0000D9A880B500AFFEF7CDFC00BF80BD80B500AFFEF7C7FC00BF80BD80B500AFFEF7C1FC00BF80BD80B500AFA5
S32D0000D9D0FEF7BBFC00BF80BD80B500AFFEF7B5FC00BF80BD80B500AFFEF7AFFC00BF80BD80B500AFFEF7A9FCFD
S32D0000D9F800BF80BD80B500AFFEF7A3FC00BF80BD80B500AFFEF79DFC00BF80BD80B500AFFEF797FC00BF80BDBB
S32D0000DA2080B500AFFEF791FC00BF80BD80B500AFFEF78BFC00BF80BD80B500AFFEF785FC00BF80BD80B500AFE0
S32D0000DA48FEF77FFC00BF80BD80B500AFFEF779FC00BF80BD80B500AFFEF773FC00BF80BD80B500AFFEF76DFC74
S32D0000DA7000BF80BD80B500AFFEF767FC00BF80BD80B500AFFEF761FC00BF80BD80B500AFFEF75BFC00BF80BDF6
S32D0000DA9880B500AFFEF755FC00BF80BD80B500AFFEF74FFC00BF80BD80B500AFFEF749FC00BF80BD80B500AF1C
S32D0000DAC0FEF743FC00BF80BD80B500AFFEF73DFC00BF80BD80B500AFFEF737FC00BF80BD80B500AFFEF731FCEC
S32D0000DAE800BF80BD80B500AFFEF72BFC00BF80BD80B500AFFEF725FC00BF80BD80B500AFFEF71FFC00BF80BD32
S32D0000DB1080B500AFFEF719FC00BF80BD80B500AFFEF713FC00BF80BD80B500AFFEF70DFC00BF80BD80B500AF57
S32D0000DB38FEF707FC00BF80BD80B500AFFEF701FC00BF80BD80B500AFFEF7FBFB00BF80BD80B500AFFEF7F5FB65
S32D0000DB6000BF80BD0000000080B584B000AFF8600B467A60FB72FB68FA7A1A71FB6800225A711749786805F0AC
S32D0000DB88DBFA0346002B02D0134B7B600AE04FF07E51786805F0BCFA0346002B02D04FF07E537B60786804F093
S32D0000DBB05DFC09A3D3E9002304F0B0FC02460B461046194604F0A2FF0246FB681A60FB6818461037BD4680BD73
S32D0000DBD8ABAAAAAAAAAA20400000404180B584B000AF786039603B687F2B02DD7F23FB7308E03B6813F1800F5E
S32D0000DC0002DA8023FB7301E03B68FB737B685B79FA7B9A4209D07B68FA7B5A717B681979FA7B1E23034801F0AC
S32D0000DC281DFE00BF1037BD4680BD00BF0C160020B0B584B000AF786039603749386805F05DFA0346002B02D001
S32D0000DC50334B3B6008E03349386805F071FA0346002B01D02F4B3B60386804F0FFFB04460D467B681B681846E0
S32D0000DC7804F0F8FB4FF00002294B04F075FD02460B462046294604F045FC02460B461046194604F037FF034618
S32D0000DCA03B604FF00001386805F040FA0346002B10D0386804F0DAFB17A3D3E9002304F02DFC02460B4610464A
S32D0000DCC8194604F0D7FE0346FB6018E0386804F0C9FB4FF00002134B04F01CFC02460B46104619464FF00002D8
S32D0000DCF00D4B04F03DFD02460B461046194604F0BDFE0346FB60F9687868FFF76BFF00BF1037BD46B0BD00BF09
S32D0000DD1852B81E85EB51F43F0000C8C20000C842000059400000604080B483B000AF03460A46FB711346BB7154
S32D0000DD40BB79002B03D1134B00221A7002E0114B01221A703823FB710E4B1A78FB791343FB710D4B9B78DBB2AD
S32D0000DD680B4A43F01003DBB29370094B9B78DBB2074A43F02003DBB29370054AFB79137100BF0C37BD4680BCAF
S32D0000DD90704700BFE81300200060064080B483B000AF01237B6003E000BF7B6801337B607B68312BF8DD00BFB2
S32D0000DDB800BF0C37BD4680BC7047000080B582B000AF03460A46FB711346BB71134B1B7800211846FFF7A8FF98
S32D0000DDE000F024F8104AFB79137100F01FF80E4ABB79137100F01AF80B4B9B78DBB20A4A23F02003DBB293708E
S32D0000DE08074B9B78DBB2064A23F01003DBB29370FFF7C0FF00BF0837BD4680BDE91300200060064080B483B0D8
S32D0000DE3000AF174B1B78002B24D100237B600CE07B6842F21072934203DD114B01221A700FE07B6801337B60DE
S32D0000DE5800BF0E4BDB78DBB203F00203002B0CBF01230023DBB2002BE6D1084BDB78DBB2064A43F00203DBB2B8
S32D0000DE80D37000E000BF0C37BD4680BC704700BFEA1300200060064080B582B000AF0346FB71FB79184600F04A
S32D0000DEA83BF800BF0837BD4680BD80B582B000AF03460A46FB711346BB7100F011F8FB795B00DBB21846FFF792
S32D0000DED0E3FFBB791846FFF7DFFF00F013F800BF0837BD4680BD000080B400AF044B9B68034A43F48013936064
S32D0000DEF800BFBD4680BC704740F00F4080B400AF044B5B68034A43F48013536000BFBD4680BC704740F00F40D5
S32D0000DF2080B485B000AF0346FB710023BB7302E0FB7B0133FB73144BDB6A03F00043012B0CBF01230023DBB216
S32D0000DF48002BF1D10E4BDB6A0D4A43F00043D3620B4AFB79536300BF094BDB6A03F40033002B0CBF01230023E0
S32D0000DF70DBB2002BF4D1044B9B6BBB73BB7B18461437BD4680BC704700C00A400000000080B582B000AF204B23
S32D0000DF9803F580531B6B1E4A43F4805302F5805213631C4B4FF480721A651B4B5B691A4A43F480135361FFF73C
S32D0000DFC0A1FF164B4FF400725A65144B4FF400729A65124B4FF40072DA65124B124A1A60104B124ADA60002313
S32D0000DFE87B6005E0FF20FFF753FF7B6801337B607B68092BF6DD04A1D1E9000101F0BCFC00BF0837BD4680BDC1
S32D0000E0109A9999999999B93F0070044000A0044040F00F4000C00A40000C00800500003E90B486B000AFF860E2
S32D0000E038B9607A60FB68534A93420AD1524B03F580535B6B504A43F4806302F58052536345E0FB684D4A9342C2
S32D0000E0600AD14B4B03F580535B6B494A43F4006302F58052536336E0FB68474A93420AD1434B03F580535B6B0B
S32D0000E088414A43F4805302F58052536327E0FB68404A93420AD13C4B03F580535B6B3A4A43F4005302F58052C3
S32D0000E0B0536318E0FB683A4A93420AD1344B03F580539B6A324A43F4806302F58052936209E02F4B03F580532C
S32D0000E0D89B6A2D4A43F4006302F580529362FB68DB78DBB223F00C03DAB2FB68DA70FB6800229A70BB684FF4B3
S32D0000E1007A7203FB02F27B681B0192FBF3F39CB2FB681B78DBB223F01F03FB75230A9BB2DBB203F01F03DAB283
S32D0000E128FB7D1343DAB2FB681A70E2B2FB685A70BB684FF4FA4203FB02F27B681B0192FBF3F39AB263019BB2BE
S32D0000E150D31A9CB2FB689B7ADBB223F01F03FB75E3B203F01F03DAB2FB7D1343DAB2FB689A72FB68DB78DBB27A
S32D0000E17843F00C03DAB2FB68DA7000BF1837BD4690BC704700A006400070044000B0064000C0064000D006403E
S32D0000E1A000A00E4080B483B000AF786000BF7B681B79DBB203F02003002B0CBF01230023DBB2002BF3D17B6800
S32D0000E1C8DB79DBB218460C37BD4680BC704780B483B000AF78600B46FB7000BF7B681B79DBB25BB2DB43DBB28C
S32D0000E1F0DB09DBB2002BF5D17B68FA78DA7100BF0C37BD4680BC704780B487B000AFF860B9607A60FB687B6163
S32D0000E21806E0BB68D9B27B695A1C7A610A461A707B685A1E7A60002B14BF01230023DBB2002BEED100BF00BFC6
S32D0000E2401C37BD4680BC704780B584B000AF786039607B681B6BFB60FA683B689A4252D07B681B79002B35D070
S32D0000E2687B6858787B6803F134010123FA6801F0F7F80346002B14BF01230023DBB2002B01D001233CE07B6829
S32D0000E29000221A717B685A6A7B681B6A1344FA689A4217D27B68DB78FB7210E07B681B6AFA681344FB607B6834
S32D0000E2B858787B6803F134010123FA6801F0D0F8FB7A013BFB72FB7A012BEBD83B68002B15D07B6858787B6852
S32D0000E2E003F1340101233A6800F0D8FF0346002B14BF01230023DBB2002B01D0012303E07B683A681A63002317
S32D0000E30818461037BD4680BD80B584B000AF786000217868FFF794FF0346FB73FB7B002B40F093807B681B7877
S32D0000E330032B7DD17B685B79002B79D07B6800221A637B6834334FF4007200211846FFF75BFF7B68552283F8F3
S32D0000E35832227B68AA2283F833227B68522283F834207B68522283F835207B68612283F836207B68412283F87F
S32D0000E38037207B68722283F818227B68722283F819227B68412283F81A227B68612283F81B227B681B69DAB2B1
S32D0000E3A87B6883F81C227B681B699BB21B0A9BB2DAB27B6883F81D227B681B691B0CDAB27B6883F81E227B68C1
S32D0000E3D01B691B0EDAB27B6883F81F227B68DB68DAB27B6883F820227B68DB689BB21B0A9BB2DAB27B6883F826
S32D0000E3F821227B68DB681B0CDAB27B6883F822227B68DB681B0EDAB27B6883F823227B6858787B6803F13401FC
S32D0000E4207B685A69012301F01FF87B6800225A717B685B7800220021184601F0E1F80346002B14BF012300237D
S32D0000E448DBB2002B01D00123FB73FB7B18461037BD4680BD80B582B000AF78600B467B807B68002B08D07B682D
S32D0000E4701B78002B04D07B68DB887A889A4201D0092311E07B685B78184601F03BF9034603F00103002B14BF63
S32D0000E49801230023DBB2002B01D0032300E0002318460837BD4680BD80B586B000AF78607B681A687B689B8823
S32D0000E4C019461046FFF7CAFF0346FB75FB7D002B40F0AC807B689B7903F02003002B00F0A5807B689B7903F0CB
S32D0000E4E84003002B1BD07B681B6858787B6803F128017B689A69012300F0B2FF0346002B14BF01230023DBB2B1
S32D0000E510002B01D001238AE07B689B7923F04003DAB27B689A717B681A687B68DB6919461046FFF789FE034685
S32D0000E538FB75FB7D002B75D17B681B6A3B613B690B331A783B690B3342F02002D2B21A707B68DA683B691C3388
S32D0000E560D2B21A707B68DB689BB21B0A9AB23B691D33D2B21A707B68DB681A0C3B691E33D2B21A707B68DB6824
S32D0000E5881A0E3B691F33D2B21A707B681A693B691A33D2B21A707B681B699BB21B0A9AB23B691B33D2B21A70AF
S32D0000E5B07B681B691A0C3B691433D2B21A707B681B691B0C9BB21B0A9AB23B691533D2B21A700023FB603B694F
S32D0000E5D81633FA68D2B21A70FB689BB21B0A9AB23B691733D2B21A70FB681A0C3B691833D2B21A70FB681A0E2E
S32D0000E6003B691933D2B21A707B689B7923F02003DAB27B689A717B681B6801221A717B681B681846FFF774FE07
S32D0000E6280346FB75FB7D18461837BD4680BD80B584B000AF78607868FFF736FF0346FB73FB7B002B02D17B689D
S32D0000E65000221A60FB7B18461037BD4680BD000080B588B000AF7860396080233B610F23FB604FF0FF337B61FF
S32D0000E6780223FB6122E00123BB6119E0FB69BA6902FB03F33A6803FB02F27B68D31ABB60BB68002B09DBBB686A
S32D0000E6A07A699A4205D9BB687B61FB693B61BB69FB60BB690133BB61BB69102BE2D9FB695B00FB61FB69B3F57C
S32D0000E6C8807FD8D91D4BDB6A1C4A23F00803D3621A4BDB6A23F47F2323F47F63BB613B695B081B029AB2FB68C3
S32D0000E6F0013B1B01DBB21A43BB691343114A43F46023D36202E00A2001F024F90D4B5B6A03F00803002B0CBFCB
S32D0000E71801230023DBB2002BF1D1084BDB6A074A43F00803D362054B1B6B044A43F48013136300BF2037BD4639
S32D0000E74080BD00BF00100B4080B582B000AF786039607B6800221A60414B424ADA6200BF3F4BDB6A03F0807386
S32D0000E768002B14BF01230023DBB2002BF4D13A4B0022C3F8C020384B4FF481325A60364B28229A62344B4FF0C7
S32D0000E79001125A643B689B6833491846FFF760FF00BF2F4B5B6A03F00303002B14BF01230023DBB2002BF4D1FC
S32D0000E7B82C4B40F243421A602A4B40F243425A60284B4FF488629A60264B40F24342DA60244B40F243421A6108
S32D0000E7E0224B40F243425A61214B03F580531B6B1F4A43F4003302F580521363184B4FF6FF721A63164B1B4A01
S32D0000E8085A63154BDB6A144A43F00063D36200BF114BDB6A03F00063002B14BF01230023DBB2002BF4D10C4B88
S32D0000E8305B6A03F48033002B14BF01230023DBB2002B02D07B6801221A60054B1B6B044A43F080031363002389
S32D0000E85818460837BD4680BD00100B400080000160CC050000D0044000700440B3007F0080B400AF064B5A6AB6
S32D0000E88040F207331340002B14BF01230023DBB21846BD4680BC704700100B4080B485B000AF7860064B1B6B63
S32D0000E8A87A681340FB60FB68002BF7D0FB6818461437BD4680BC704700100B4080B584B000AF78607B681B789A
S32D0000E8D003F03F03764A52F82330FB60FB68002B05D17B681B78002B01D00123DCE0714B1B6B704A43F08003C5
S32D0000E8F8136300BF6D4B5B6A03F00103002B14BF01230023DBB2002BF4D1684A7B685B689360FB6823F440037F
S32D0000E920FB607B685B789B0503F44003FA681343FB607B685B78022B03D1FB6843F40013FB607B685B78042B27
S32D0000E94816D1FB6803F44033B3F5003F08D1FB6823F44033FB60FB6843F44033FB6007E0FB6823F44033FB604E
S32D0000E970FB6843F40033FB604E4B5B684D4A9BB253607B68DB68002B2AD0FB6803F44033B3F5403F03D0FB68E9
S32D0000E99843F40013FB607B681B7A002B03D0FB6843F01003FB607B68DB68012B03D9FB6843F02003FB607B680D
S32D0000E9C0DB68B3F1FF3F0BD03A4B5A687B68DB681B04384913434B60FB6843F00203FB60344B00221A60334A8D
S32D0000E9E8FB68D3603248FFF755FF0346012B14BF01230023DBB2002B09D02C4B1B6B2B4A43F4702343F0010314
S32D0000EA101363012348E0274B1B6B03F08003002B14BF01230023DBB2002B07D0214B1B6B204A43F001131363BB
S32D0000EA38012335E01D4B1B6B03F48033002B14BF01230023DBB2002B08D0184B1B6B174A43F0011313634FF0C4
S32D0000EA60FF3321E0FB6803F44033002B15D0114B1A697B681A61FB6803F44033B3F5803F0BD10C4B5A697B682E
S32D0000EA885A610A4B9A697B689A61084BDA697B68DA61064B1B6B054A43F001031363002318461037BD4680BDE0
S32D0000EAB02093010000100B4001000E0080B592B000AF7860396000237B643B68BB63994B7B637B6B002B02D11A
S32D0000EAD840F601235FE3964B3B633B6B002B02D140F60B2357E33B6B1B68FB62FB6A002B02D140F60B234EE335
S32D0000EB007B6841F20932934200F23F837B68B3F5985F08D87B68032B00F01A837B68092B00F0098331E37B6883
S32D0000EB28A3F59853013B082B00F22B8301A252F823F000BF61EB00004DEE0000A9F0000063EE0000A1EE00006E
S32D0000EB50C7EF00000FF0000051EF00006BEF00007649786BFFF7F0FD78647B6C002B40F01083002387F84330FD
S32D0000EB78002387F82B30002387F82A30002387F82930002387F84230002387F8283000233B7200237B7200236A
S32D0000EBA0FB6000233B7400237B6107F108031846FFF788FE0346002B14BF01230023DBB2002B02D001237B6423
S32D0000EBC8E8E240F24C4000F0C1FE08233B7200237B724FF4D573FB6000233B7400237B6107F108031846FFF7F2
S32D0000EBF069FEF863FB6B002B09D1BA69FB689A4202D001237B64C9E2012387F84230012387F8283097F82830F1
S32D0000EC18002B00F0A58037233B7200237B720023FB6000233B7400237B6107F108031846FFF744FEF863FB6BCE
S32D0000EC40002B02D001237B64A8E269233B7200237B720023FB6000233B7400237B6107F108031846FFF72EFE01
S32D0000EC680346002B14BF01230023DBB2002B02D001237B648EE2BB6903F44013002B6FD00023FB630A2000F080
S32D0000EC9061FEFB6B0133FB6337233B7200237B720023FB6000233B7400237B6107F108031846FFF707FE0346F4
S32D0000ECB8002B14BF01230023DBB2002B02D001237B6427E069233B7200237B7297F84230002B02D0184BFB6050
S32D0000ECE002E04FF44013FB6000233B7400237B6107F108031846FFF7E5FD0346002B14BF01230023DBB2002BE3
S32D0000ED0802D001237B6405E0BB69002B02DBFB6B632BB7D97B6C002B40F03982FB6B632B0CD9002387F8423089
S32D0000ED301AE000BF00140020041600201493010000003040012387F8433097F84230002B0AD0002387F8423046
S32D0000ED58BB6903F08043002B02D0012387F8423097F82A30002B02D07B6B07221A6097F82930002B02D07B6B67
S32D0000ED8008221A6097F82B30002B02D07B6B04221A6097F84330002B09D07B6B02221A6097F84230002B02D0CC
S32D0000EDA87B6B03221A6097F82B30002B0DD097F84330002B09D07B6B05221A6097F84230002B02D07B6B06222D
S32D0000EDD01A60924B00221A60904B00225A608F4B00229A608D4B0022DA608C4B00221A618A4B00225A61FB6AB6
S32D0000EDF89A68FB6A5B6819461046FFF72DFC854B40F243421A60834B40F243425A60814B4FF488629A607F4BF2
S32D0000EE2040F24342DA607D4B40F243421A617B4B40F243425A617A4B03F580531B6B784A43F4003302F5805296
S32D0000EE481363A7E1B86BFFF739FDF863FB6B002B00F09F8102237B649BE1BB6B002B02D10C237B6496E16D4B72
S32D0000EE70DB6A1B0A5B0003F4FF73FB63694BDB6A1B0903F00F035A1CFB6B02FB03F3FB63FB6A9A68FB6BB2FB1F
S32D0000EE98F3F2BB6B1A607DE1BB6B002B02D10C237B6477E1BB6B1B68002B02D10C237B6470E1FFF7DDFC0346C1
S32D0000EEC0002B0CBF01230023DBB2002B3CD0534B00221A60514B00225A60504B00229A604E4B0022DA604D4B2D
S32D0000EEE800221A614B4B00225A61FB6A9A68BB6B1B6819461046FFF7AFFB464B40F243421A60444B40F243427F
S32D0000EF105A60424B4FF488629A60404B40F24342DA603E4B40F243421A613C4B40F243425A613B4B03F58053E4
S32D0000EF381B6B394A43F4003302F58052136329E140F60A237B6425E1BB6B002B02D10C237B641FE1314B5B6836
S32D0000EF60C3F30C02BB6B1A6018E1BB6B002B02D10C237B6412E1FFF77FFC0346002B0CBF01230023DBB2002B52
S32D0000EF8819D0BB6B1B68B3F5805F02D30C237B6400E1224B5B68214A23F4FF5323F01F0353601E4B5A68BB6B41
S32D0000EFB01B68C3F30C031B4913434B60EEE040F60A237B64EAE0BB6B002B02D10C237B64E4E0144B9B6A5B08EF
S32D0000EFD803F00303FB63FB6B002B03D1BB6B00221A60D7E0FB6B012B03D1BB6B01221A60D0E0FB6B102B03D188
S32D0000F000BB6B02221A60C9E005237B64C6E0BB6B002B09D10C237B64C0E000BF00D004400070044000100B400D
S32D0000F028FFF726FC0346002B0CBF01230023DBB2002B31D0BB6B1B68002B0AD1584B9B6A574A23F0060393625A
S32D0000F050554B554A9B6A9362A0E0BB6B1B68012B0CD1514B9B6A504A23F0060393624E4B9B6A4D4A43F002036E
S32D0000F07893628FE0BB6B1B68022B0AD1484B9B6A474A23F006039362454B454A9B6A936280E005237B647DE03E
S32D0000F0A040F60A237B6479E0BB6B002B02D10C237B6473E03C4BDB6A3B4A43F00063D36200BF394BDB6A03F08B
S32D0000F0C80063002B14BF01230023DBB2002BF4D1334B1B6B03F08003002B14BF01230023DBB2002B08D02E4B2D
S32D0000F0F01B6B2D4A43F0800313637B6B00221A60294B5B6A03F48033002B14BF01230023DBB2002B07D07B6BAA
S32D0000F1181B68002B06D17B6B01221A6002E07B6B00221A607B6B1A68BB6B1A6032E0BB6B1C221A60BB6B043308
S32D0000F14004221A60BB6B08334FF41E721A6025E00220FFF7A3FB144B1B6B03F4E003002B14BF01230023DBB207
S32D0000F168002B07D00E4B1B6B0D4A43F4E003136304237B640A4B1B6B094A43F03203136308E040F609237B6476
S32D0000F19004E000BF02E000BF00E000BF7B6C18464837BD4680BD00BF00100B4080B489B000AF786039607B68E0
S32D0000F1B87B61364B3B613B69002B01D100235FE03B691B68022B0BD03B691B68032B07D03B691B68072B03D0A6
S32D0000F1E03B691B68082B0BD100BF2B4B5B6A03F00403002B14BF01230023DBB2002BF4D13B68FB613CE0FB6996
S32D0000F208B3F5007F28BF4FF40073FB60FB6803339B08BB6129E01E4B1B6B03F4E003002B14BF01230023DBB2BD
S32D0000F230002B09D0184B1B6B174A43F4E00343F02003136300231FE000BF134B5B6A03F40063002B0CBF012304
S32D0000F2580023DBB2002BF4D10D4B1A6A7B69191D79611A60BB69013BBB61BB69002BD2D1FA69FB68D31AFB6121
S32D0000F280FB69002BBFD1012318462437BD4680BC704700BF0014002000100B4080B58EB000AFB9607A601A46AB
S32D0000F2A80346FB731346BB73414B7B63FB7B002B02D1BB7B002B01D1042375E03D4B1B78DBB203F00103002BA3
S32D0000F2D014BF01230023DBB2002B01D0032367E0BB68002B01D1002362E07B6B1B7B002B02D17B685B027B60E6
S32D0000F2F8BB7B012B28D111233B7500237B757B68BB6101233B77BB7B3B6207F11403194641F20230FFF7CEFB5C
S32D0000F3200346002B0CBF01230023DBB2002B38D04FF40071B868FFF739FF0346002B14BF01230023DBB2002B31
S32D0000F3482BD00023BB7328E012233B7500237B757B68BB6101233B77BB7B3B6207F11403194641F20230FFF7DA
S32D0000F370A5FB0346002B0CBF01230023DBB2002B0FD0BB7B5B021946B868FFF70FFF0346002B14BF012300230E
S32D0000F398DBB2002B01D00023BB73BB7B002B01D0012300E0002300BF18463837BD4680BDEC1300200400002005
S32D0000F3C080B487B000AF786039607B68FB603B687B613DE07B69B3F5007F28BF4FF400733B617A693B69D31A02
S32D0000F3E87B613B6903339B083B612AE01B4B1B6B03F4E003002B14BF01230023DBB2002B0AD0164B1B6B154A15
S32D0000F41043F4E00343F0100313634FF0FF331BE000BF104B5B6A03F48063002B0CBF01230023DBB2002BF4D119
S32D0000F438FB681A1DFA60094A1B6813623B69013B3B613B69002BD1D17B69002BBED1012318461C37BD4680BCC8
S32D0000F460704700BF00100B4080B58EB000AFB9607A601A460346FB731346BB735D4B7B63FB7B002B02D1BB7BCA
S32D0000F488002B01D10423ACE0594B1B78DBB203F00103002B14BF01230023DBB2002B01D003239EE0524B1B7849
S32D0000F4B0DBB203F00403002B14BF01230023DBB2002B01D0022390E0BB68002B01D100238BE07B6B1B7B002BEF
S32D0000F4D802D17B685B027B60BB7B012B28D118233B7500237B757B68BB6100233B77BB7B3B6207F114031946AA
S32D0000F50041F20230FFF7DAFA0346002B0CBF01230023DBB2002B38D04FF40071B868FFF74FFF0346002B14BF09
S32D0000F52801230023DBB2002B2BD00023BB7328E019233B7500237B757B68BB6100233B77BB7B3B6207F11403AD
S32D0000F550194641F20230FFF7B1FA0346002B0CBF01230023DBB2002B0FD0BB7B5B021946B868FFF725FF034696
S32D0000F578002B14BF01230023DBB2002B01D00023BB730D233B7500237B757B6B1B69BB6100233B7700233B6238
S32D0000F5A007F11403194641F20230FFF787FA0346002B14BF01230023DBB2002B01D0012313E07A6A0D4B134036
S32D0000F5C8002B01D001230CE07B6A03F4F853B3F5106FD6D1BB7B002B01D0012300E0002300BF18463837BD462C
S32D0000F5F080BD00BFEC130020040000200880D9FF80B58CB000AF03463A60FB710B46BB713A4BBB62FB79002B21
S32D0000F61801D0042369E0012387F82F30364B1B78DBB203F00103002B14BF01230023DBB2002B01D0032358E0BD
S32D0000F640BB79032B50D801A252F823F05DF6000065F6000075F6000085F60000002387F82F3044E0BB6A9A6832
S32D0000F6683B681A60002387F82F303CE03B684FF400721A80002387F82F3034E009233B7200237B72BB6A1B69A1
S32D0000F690FB6000233B7400237B6107F10803194641F20230FFF70AFA0346002B14BF01230023DBB2002B01D048
S32D0000F6B801231AE07B6A03F44003002B0CD13B6A9B0C03F07F035A1C7B6A1B0A03F00303013B9A403B681A6072
S32D0000F6E0002387F82F3002E0042387F82F3097F82F3018463037BD4680BD00BFEC1300200400002080B483B0B8
S32D0000F70800AF0346FB71FB79002B01D0012302E0034B1B78DBB218460C37BD4680BC70470400002080B483B069
S32D0000F73000AF7860164B03F580539B6B144A43F0010302F580529363124A7B689360114B05225A600F4B1B6852
S32D0000F7580E4A43F00103136000BF0C4B1B6803F08003002B0CBF01230023DBB2002BF4D1064B1B68054A23F082
S32D0000F7800103136000BF0C37BD4680BC704700BF007004400000044080B582B000AF786039607B68012B07D1C7
S32D0000F7A83B684FF6FF72934202D1034800F00EF800BF0837BD4680BD0C16002080B500AF4FF6FF710120FFF7C1
S32D0000F7D0E3FF80BD80B483B000AF78607B6800221A707B6818460C37BD4680BC7047000080B582B000AF786007
S32D0000F7F87B681B7883F00103DBB2002B21D0134B03F580531A464FF400639362104B4FF440721A620E4B4FF4C1
S32D0000F82040725A620D4B1B68DA0F13445B104FF4614219460A48FEF7FBFB642000F08AF87B6801221A7001239A
S32D0000F84800E0002318460837BD4680BD0070044000D004401016002000B00E4080B582B000AF78600846114613
S32D0000F8701A460346FB700B46BB7013467B707F210E48FEF7A8FC08210C48FEF7A4FCFB7819460A48FEF79FFC41
S32D0000F898BB7819460748FEF79AFC7B7819460548FEF795FCFF210348FEF791FC00BF0837BD4680BD00B00E4088
S32D0000F8C080B487B000AFF860B9607A60FB681F4AA2FB03239B09BA6813447B61FB681B4AA2FB031292094FF4D5
S32D0000F8E87A7101FB02F29B1AFB60FB68DB03154AA2FB03239B097A6813443B613B69DB0B7A6913447B613B69E7
S32D0000F910C3F30E033B6100BF0D4B1B687A699A4209D80B4B1B687A699A4206D1084B5B683A699A4201D901232A
S32D0000F93800E00023002BEBD100BF00BF1C37BD4680BC7047D34D621000D0034080B584B000AF7860074B1B6886
S32D0000F960FB60064B5B68BB607B68BA68F9681846FFF7A6FF00BF1037BD4680BD00D0034080B584B000AFC7E96F
S32D0000F98800010E4B1B68FB600C4B5B68BB604FF000020B4BD7E9000102F0BCFD02460B461046194603F08EF81A
S32D0000F9B00346BA68F9681846FFF782FF00BF1037BD4680BD00D0034000408F4080B584B000AF134B1B68FB60CC
S32D0000F9D8114B5B68BB60F86802F022FD02460B46C7E90023B86802F01BFD4FF000020B4B02F0BAFE02460B46E6
S32D0000FA00D7E9000102F0D4FB02460B46C7E90023D7E90023104619461037BD4680BD00BF00D003400000E040D9
S32D0000FA2880B584B000AF78600B46FB700B23FB73FA7BFB781946786800F07CF87B6818461037BD4680BD000015
S32D0000FA5080B485B000AF78607B68103B002B00DA1F335B11FB60FB68022B43D0FB68022B5DDCFB68002B03D07F
S32D0000FA78FB68012B1DD056E02D4BD3F880317A68103A02F01F02012101FA02F21146284A0B43C2F88031264B77
S32D0000FAA01B687A68103A02F01F02012101FA02F21146214A0B43136039E01F4BD3F884317A68103A02F01F02A0
S32D0000FAC8012101FA02F21146194A0B43C2F88431174B5B687A68103A02F01F02012101FA02F21146124A0B4312
S32D0000FAF053601CE0104BD3F888317A68103A02F01F02012101FA02F211460B4A0B43C2F88831094B9B687A6864
S32D0000FB18103A02F01F02012101FA02F21146044A0B43936000BF00BF1437BD4680BC704700E100E080B584B082
S32D0000FB4000AF78600B46FB701346BB707B68FA781A70BB78FB737B681B781A46574B9B5C042B00F2A68001A2F7
S32D0000FB6852F823F081FB0000CDFB000019FC0000B1FC000065FC0000FB7B1B0403F470234D497A681278104634
S32D0000FB904C4A52F8202043F4897343F0010341F82230494B5A697B681B781946454B53F8213003F01F030121A3
S32D0000FBB801FA03F3DB43424913404B616720FFF743FF72E0FB7B1B0403F470233D497A6812781046394A52F841
S32D0000FBE0202043F4897343F0010341F82230384B5A697B681B781946324B53F8213003F01F03012101FA03F366
S32D0000FC08DB43314913404B616820FFF71DFF4CE0FB7B1B0403F470232C497A6812781046264A52F8202043F4EA
S32D0000FC30897343F0010341F82230274B5A697B681B7819461F4B53F8213003F01F03012101FA03F3DB43204929
S32D0000FC5813404B616920FFF7F7FE26E0FB7B1B0403F470231B497A6812781046134A52F8202043F4897343F073
S32D0000FC80010341F82230164B5A697B681B7819460C4B53F8213003F01F03012101FA03F3DB430F4913404B613E
S32D0000FCA86B20FFF7D1FE00E000BF00BF1037BD4680BD00BF20940100009004406494010000F00F4000A0044095
S32D0000FCD040F00F4000B0044080F00F4000D0044000F10F40B0B48BB000AF224B3C1D1D460FCD0FC495E80F00CE
S32D0000FCF884E80F0000237B622FE01D4BD3F8A0207B6A9B0028333B4453F8243C012101FA03F31340002B14BFF8
S32D0000FD2001230023DBB2002B18D0144A7B6A52F823305A1C11497B6A41F823200E4BD3F8A0207B6A9B002833FE
S32D0000FD483B4453F8243C012101FA03F308491340C1F8A0307B6A01337B627B6A072BCCDD00BF00BF2C37BD4689
S32D0000FD70B0BC70476895010000A004403C160020B0B489B000AF224B3C1D1D460FCD0FC495E8030084E80300DB
S32D0000FD980023FB612FE01D4BD3F8A020FB699B0020333B4453F81C3C012101FA03F31340002B14BF012300239D
S32D0000FDC0DBB2002B18D0FB690833134A52F823200132114941F823200E4BD3F8A020FB699B0020333B4453F8E3
S32D0000FDE81C3C012101FA03F308491340C1F8A030FB690133FB61FB69052BCCDD00BF00BF2437BD46B0BC704725
S32D0000FE108895010000B004403C160020B0B48DB000AF234B3C461D460FCD0FC40FCD0FC495E8070084E8070048
S32D0000FE380023FB622FE01D4BD3F8A020FB6A9B0030333B4453F8303C012101FA03F31340002B14BF01230023D6
S32D0000FE60DBB2002B18D0FB6A0E33134A52F823200132114941F823200E4BD3F8A020FB6A9B0030333B4453F82A
S32D0000FE88303C012101FA03F308491340C1F8A030FB6A0133FB62FB6A0A2BCCDD00BF00BF3437BD46B0BC704758
S32D0000FEB0A0950100009004403C160020B0B487B000AF214B3C461D460FCD0FC42B68236000237B612FE01D4BD2
S32D0000FED8D3F8A0207B699B0018333B4453F8183C012101FA03F31340002B14BF01230023DBB2002B18D07B695A
S32D0000FF001933134A52F823200132114941F823200E4BD3F8A0207B699B0018333B4453F8183C012101FA03F3B5
S32D0000FF2808491340C1F8A0307B6901337B617B69042BCCDD00BF00BF1C37BD46B0BC7047CC95010000D0044061
S32D0000FF503C16002080B483B000AF78607B681B781A46044B53F8223018460C37BD4680BC704700BF3C16002099
S32D0000FF7880B483B000AF78607B681B781946044B002243F8212000BF0C37BD4680BC70473C16002080B483B0DA
S32D0000FFA000AF78600B46FB707B68FA781A707B6818460C37BD4680BC704700000000000080B586B000AF7860A5
S32D0000FFC87B681B781A463E4B53F822303B617B681B781A463B4B9B5CFB733B69DBB203F01F03DAB2384B1A72D1
S32D0000FFF03B69DBB203F01F03DAB2354B5A72354B1022C3F88820FB7B002B13D13049324800F05CFA00BF304BB8
S32D000100181B6803F08003802B14BF01230023DBB2002BF4D12A4B1B697B6112E02649294800F048FA00BF274B74
S32D000100401B6803F08003802B14BF01230023DBB2002BF4D1214B1B697B611E4BD3F888311C4A43F01003C2F837
S32D0001006888311A4B9B68194A43F0100393607B699BB2184602F0D4F90DA3D3E9002302F049FA02460B461046AB
S32D0001009019460BA3D3E9002302F06AFB02460B461046194602F032FD0346BB60BB6818461837BD4680BD00BF5C
S32D000100B8A4703D0AD7A30A4000000000E0FFEF40E4940100409401001C16002000E100E000B0034000B00B409D
S32D000100E080B586B000AF78607B681B781A46234B53F822303B617B681B781A46204B9B5CFB733B69DBB203F0B8
S32D000101081F03DAB21D4B1A723B69DBB203F01F03DAB21A4B5A72FB7B002B13D11749184800F0D0F900BF164B05
S32D000101301B6803F08003802B14BF01230023DBB2002BF4D1104B1B697B6112E00D490F4800F0BCF900BF0D4B4F
S32D000101581B6803F08003802B14BF01230023DBB2002BF4D1074B1B697B617B6918461837BD4680BDE494010041
S32D00010180409401002C16002000B0034000B00B4098B500AF204B5C221A701F4B10225A701D4B41F234225A808B
S32D000101A81B4B45F278629A80194B10229A71184B0722DA71164B4FF4C022DA60144B1F221A72134B1F225A72C8
S32D000101D01149124800F07AF90F49114800F076F90F4800F0D4F80D4800F0D1F80A490C4800F06CF9084909481A
S32D000101F800F068F9094A064B14460FCB84E80F00064B5C221A70054B0422DA7100BF98BD1C16002000B00340C1
S32D0001022000B00B402C16002080B500AF064B1B680133054A136000F03DF8044B0122C3F80C2100BF80BD00BF6A
S32D00010248C01600200070034080B500AF0C4B01221A600C4800F01AF8094B0322C3F80821094BD3F88831084A29
S32D0001027043F01003C2F88831054B9B68044A43F01003936000BF80BD00700340A086010000E100E080B483B0CE
S32D0001029800AF7860044A7B68C2F8003100BF0C37BD4680BC704700BF0070034080B584B000AF184B1B68FB60D1
S32D000102C023E0FB685B78FB71FB689B68184600F027F80346BB71BB79002B13D0FB685B68012B0FDDFB689B683C
S32D000102E81B69BB6007E0BB685B685A1CBB685A60BB681B69BB60BB68002BF4D1FB68DB68FB60FB68002BD8D11B
S32D0001031000BF00BF1037BD4680BD00BFBC16002080B584B000AF78607868FFF7D9FEF8607B689B695B78FB72EC
S32D00010338FB7A002B0FD17B68DB68FA689A420ADD7B689B6901225A707B685B685A1C7B685A60012313E0FB7AB2
S32D00010360012B0FD17B689B68FA689A420ADA7B689B6900225A707B685B685A1C7B685A60012300E00023184649
S32D000103881037BD4680BD80B485B000AF78607B681B6A23F040027B681A627B685B6A23F00B027B685A627B6869
S32D000103B05B6A43F007027B685A627B685B6A43F080027B685A6200BF7B681B6803F08003002B0CBF01230023AA
S32D000103D8DBB2002BF4D17B685B6A03F04003402B0CBF01230023DBB2002B01D0012364E00023FB817B68DB6C64
S32D00010400FB817B689B6C9AB2FB891344FB817B685B6C9AB2FB891344FB817B681B6C9AB2FB891344FB817B6887
S32D00010428DB6B9AB2FB891344FB817B689B6B9AB2FB891344FB81FB895B08FB81FB896FEA43436FEA5343FB81FF
S32D00010450FA897B68DA620023FB817B68DB6EFB817B689B6E9AB2FB891344FB817B685B6E9AB2FB891344FB81B6
S32D000104787B681B6E9AB2FB891344FB817B68DB6D9AB2FB891344FB817B689B6D9AB2FB891344FB81FB895B0803
S32D000104A0FB81FB896FEA43436FEA5343FB81FA897B681A637B685B6A23F080027B685A62002318461437BD4655
S32D000104C880BC704780B483B000AF786039603B681B781A467B689A603B685B781A467B68DA603B685B881A463F
S32D000104F07B689A613B689B881A467B68DA613B689B791A467B681A623B68DB791A467B685A623B68DA687B6887
S32D000105181A653B681B7A1A467B681A603B685B7A1A467B685A6000BF0C37BD4680BC704780B483B000AF7860E5
S32D000105407B6818460C37BD4680BC704780B582B000AF786039607B68012B07D13B684FF6FF72934202D1034858
S32D00010568FFF7E6FF00BF0837BD4680BDC416002080B500AF4FF6FF710120FFF7E3FF80BD80B483B000AF786094
S32D000105900B46FB707B68FA781A707B684FF4FA725A807B6840F6C4129A807B68034A9A607B6818460C37BD467B
S32D000105B880BC7047000080BF80B582B000AF7860B84B4FF48072DA60B74B4FF480729A64B54B4FF480721A649A
S32D000105E0B34B4FF480725A64B14B4FF48072DA60B04B5B69AF4A43F008035361AE4B5B69AD4A43F480235361A4
S32D00010608AB4B5B69AA4A43F480335361A84B5B69A74A43F400335361A54B1B68A44A43F008031360A24B5B69EE
S32D00010630A14A43F0080353619E4B1B689D4A43F0080313609A4B4FF480725A62984B4FF480721A62954B4FF42D
S32D0001065880721A61934B4FF480725A61914B4FF480729A618F4B4FF48072DA618D4B4FF480721A638B4B4FF43F
S32D0001068080725A63894B4FF480729A63874B4FF48072DA63854B4FF480721A64834B4FF480725A64814B4FF4FF
S32D000106A880729A647F4B4FF48072DA64814B4FF480721A607F4B4FF480729A607D4B4FF48072DA607B4B4FF442
S32D000106D080721A61784B5B69774A43F440735361744B5B69734A43F47F2343F0F0035361734B5B69724A43F044
S32D000106F81D035361E221786800F038FC1D21786800F0DAFC0221786800F0D6FC0421786800F0D2FCE0217868AB
S32D0001072000F028FC0121786800F0CAFC6420FFF711F9E021786800F01DFC0321786800F0BFFC0121786800F0CF
S32D0001074815FC0120FFF702F9E621786800F00EFC0121786800F0B0FCA021786800F0ACFCFF21786800F0A8FC13
S32D00010770B021786800F0FEFB1C21786800F0A0FC0F21786800F09CFC0121786800F098FC3F21786800F094FC39
S32D000107980021786800F090FCEF21786800F08CFC0021786800F088FCB421786800F0DEFB0121786800F080FCEC
S32D000107C09921786800F07CFC0021786800F078FC4521786800F074FC0221786800F070FC0021786800F06CFC45
S32D000107E80021786800F068FC0021786800F064FCB621786800F0BAFB0121786800F05CFC0921786800F058FC48
S32D000108100021786800F054FC0E21786800F050FC0221786800F04CFC0021786800F048FC0021786800F044FC8C
S32D00010838BA21786800F09AFB0F21786800F03CFC6420FFF783F83A21786800F08FFB6021786800F031FC2A21A6
S32D00010860786800F087FB0021786800F029FC0021786800F025FC0121786800F021FC3F21786800F01DFC2B214B
S32D00010888786800F073FB0021786800F015FC0021786800F011FC0021786800F00DFCEF2178680BE000B004403A
S32D000108B000A0044080F00F4040F00F4000C00440C0F00F4000F0FCFB3621786800F052FB0021786800F0F4FBB9
S32D000108D8F021786800F04AFB0421786800F0ECFBB821786800F042FB0F21786800F0E4FB0121786800F0E0FB5D
S32D00010900314B1B68304A43F0080313606420FFF721F83621786800F02DFB0021786800F0CFFBF021786800F020
S32D0001092825FB0421786800F0C7FB0121786800F0C0F91E226F21786800F082F8AF225621786800F0DDF80021F6
S32D00010950786800F00EFA012301221C49786800F02FFA2921786800F005FB6420FEF7F2FFBE21786800F0FEFAD0
S32D000109780E21786800F0A0FBF021786800F09CFB0121786800F098FB0021786800F094FB0021786800F090FBBD
S32D000109A00F21786800F08CFB786800F0A5FA0121786800F0DEF90021786800F0B3F900BF0837BD4680BD00BFCF
S32D000109C840F00F40E095010080B582B000AF78607B680022DA617B6801221A627B680E225A607B681A229A6075
S32D000109F07B6800225A617B6800229A617B684FF4A072DA607B68F0221A617B6800221A70786800F049FF7B68AC
S32D00010A1818460837BD4680BD80B582B000AF7860064B1B78002B05D1044B01221A707868FFF7C2FD00BF083770
S32D00010A40BD4680BD0C17002080B58AB002AFF860B9607A607E23009362237A68B968F86800F09DFC40F24E7301
S32D00010A683B610023FB613FE00023BB6131E0FB690133224AD35C002B06D1FF23FB75FF23BB75FF237B7512E0B8
S32D00010A90FB6901331B4AD35C012B06D1D423FB750023BB7526237B7505E0B523FB75BA23BB75B0237B757B7D20
S32D00010AB8BA7DF97DF86800F0D7F80246FB68DA61F86800F0EDFEF86800F026FEBB690133BB610A4AFB6913442B
S32D00010AE01B781A46BB699342C5DBFB690233FB61FA693B699A42BBDB00BF00BF2037BD4680BD00BF08000020F1
S32D00010B0880B58AB002AFF860B9607A602723009395237A68B968F86800F03DFC40F2E6333B610023FB613FE0AD
S32D00010B300023BB6131E0FB690133224AD35C002B06D1FF23FB75FF23BB75FF237B7512E0FB6901331B4AD35CFD
S32D00010B58012B06D10023FB750023BB7500237B7505E0D423FB750023BB7526237B757B7DBA7DF97DF86800F0A5
S32D00010B8077F80246FB68DA61F86800F08DFEF86800F0C6FDBB690133BB610A4AFB6913441B781A46BB69934294
S32D00010BA8C5DBFB690233FB61FA693B699A42BBDB00BF00BF2037BD4680BD00BF5807002080B485B000AF7860CD
S32D00010BD00B46FB70FB78062B29D801A252F823F0050C0100FD0B01000B0C0100130C01001B0C0100210C0100EC
S32D00010BF8290C01006FF07F43FB6014E00023FB6011E04FF47F03FB600DE04FF47F43FB6009E0FF23FB6006E000
S32D00010C204FF41903FB6002E0044BFB6000BFFB6818461437BD4680BC704700BF9999990080B584B000AF786024
S32D00010C4839603B681B0CFB733B681B0ABB733B687B737B7BBA7BF97B786800F005F8034618461037BD4680BD8B
S32D00010C7080B487B000AF7860084611461A460346FB700B46BB7013467B70FB789B08DBB27B61BB789B08DBB208
S32D00010C983B617B789B08DBB2FB607B691A033B699B011A43FB68134318461C37BD4680BC704780B582B000AFFF
S32D00010CC078600B46FB70FB7819467868FFF77CFF03461946786800F004F800BF0837BD4680BD80B582B000AF86
S32D00010CE87860396039687868FFF7A6FF02467B681A62786800F0D4FD786800F075FA00BF0837BD4680BD80B556
S32D00010D1082B000AF7860786800F06AFA00BF0837BD4680BD80B582B000AF78600B46FB70FB7819467868FFF737
S32D00010D3847FF03461946786800F004F800BF0837BD4680BD80B582B000AF7860396039687868FFF771FF0246DE
S32D00010D607B681A62786800F09FFD00BF0837BD4680BD80B582B000AF78600B46FB70FB7819467868FFF720FFEA
S32D00010D8803461946786800F004F800BF0837BD4680BD80B582B000AF7860396039687868FFF74AFF02467B6818
S32D00010DB0DA61786800F078FD00BF0837BD4680BD80B586B000AFF860B9607A603B6000237B610EE07B69BA6863
S32D00010DD813441B783A687968F86800F05BFB7B680C337B607B6901337B617B69BA6813441B78002BEAD100BF53
S32D00010E0000BF1837BD4680BD80B592B000AFF860B9607A603B6007F11403BA680749184603F0ACF807F11401E6
S32D00010E283B687A68F868FFF7C7FF00BF4837BD4680BD00BFEC95010080B594B000AFF860B9607A603B60B8680D
S32D00010E5002F080F90346BB64B86C01F061FF03461946B86801F0A6FE03461F49184601F0ABFF0346184602F08B
S32D00010E786DF90346FB644FF00001B86802F03EF90346002B02D0FB6C5B42FB644FF00001B86802F033F9034644
S32D00010EA0002B0ED01149B86802F04AF90346002B07D007F11400FB6CBA6C0D4903F05EF806E007F11400FB6C8F
S32D00010EC8BA6C0A4903F056F807F114013B687A68F868FFF771FF00BF5037BD4680BD00BF00007A44000080BFA7
S32D00010EF0F0950100FC95010080B582B000AF7860FDF746F867210120FCF7D3FF00210220FCF7CFFFA021032045
S32D00010F18FCF7CBFF50210420FCF7C7FF20210520FCF7C3FF20210620FCF7BFFF77210720FCF7BBFF00210820B7
S32D00010F40FCF7B7FF00210920FCF7B3FF00210A20FCF7AFFF04210B20FCF7ABFF7B684FF0FF32DA637B684FF05F
S32D00010F68FF321A6400BF0837BD4680BD80B483B000AF78600B46FB704D4B1B684C4A23F0080313604B4B1B6868
S32D00010F904A4A23F480231360484B1B68474A43F480331360454B1B68444A23F440731360414B1B68404A23F4DF
S32D00010FB8435323F0300313603E4B1A68FB785B0203F400733B4913430B603A4B1A68FB785B101B0203F4807345
S32D00010FE0364913430B60344B1A68FB789B101B0103F01003304913430B602F4B1A68FB78DB105B0103F020035B
S32D000110082B4913430B602A4B1A68FB781B119B0103F04003264913430B60254B1A68FB785B11DB01DBB2224947
S32D0001103013430B60204B1A68FB789B111B0303F480531D4913430B601B4B1A6897F90330DB115BB25B0303F4BC
S32D000110580053174913430B60164B1B68154A23F400331360134B1B68124A43F4003313600F4B1B680E4A43F073
S32D00011080080313600D4B1B680C4A43F440731360094B1B68084A43F4435343F030031360064B1B68054A43F40C
S32D000110A88023136000BF0C37BD4680BC704700BF80F00F4040F00F4080B483B000AF78600B46FB70464B1B6850
S32D000110D0454A23F008031360444B1B68434A43F480331360414B1B68404A43F4802313603E4B1B683D4A23F445
S32D000110F8407313603A4B1B68394A23F4435323F030031360374B1A68FB785B0203F40073344913430B60334BB8
S32D000111201A68FB785B101B0203F480732F4913430B602D4B1A68FB789B101B0103F01003294913430B60284B20
S32D000111481A68FB78DB105B0103F02003244913430B60234B1A68FB781B119B0103F040031F4913430B601E4B05
S32D000111701A68FB785B11DB01DBB21B4913430B60194B1A68FB789B111B0303F48053164913430B60144B1A6873
S32D0001119897F90330DB115BB25B0303F40053104913430B600F4B1B680E4A23F4003313600C4B1B680B4A43F452
S32D000111C000331360084B1B68074A43F008031360064B1B68054A23F48023136000BF0C37BD4680BC704700BF7B
S32D000111E880F00F4040F00F4080B586B000AF78607B6800225A617B6800229A617B681B6AFB60FB68FB72FB68F2
S32D000112101B0ABB72FB681B0CDBB203F003037B722A217868FFF7A6FE00217868FFF748FF00217868FFF744FF23
S32D0001123801217868FFF740FF3F217868FFF73CFF2B217868FFF792FE00217868FFF734FF00217868FFF730FFDD
S32D0001126000217868FFF72CFFEF217868FFF728FF2C217868FFF77EFE314B1B68304A23F4407313602F4B1B68DE
S32D000112882E4A23F47F2323F0F00313602C4B1B682B4A23F01D031360274B1A687B681B6B254913430B60254B7C
S32D000112B01A687B685B6B234913430B60224B1A687B689B6B204913430B601E4B1B681D4A23F0080313601A4B6C
S32D000112D81B68194A43F48023136000237B6118E000233B610EE0144B1B68134A23F400331360114B1B68104ADB
S32D0001130043F4003313603B6901333B613B69B3F5A07FECD37B6901337B617B69EF2BE3D9084B1B68074A43F03B
S32D0001132808031360044B1B68034A23F48023136000BF1837BD4680BD40F00F4080F00F40C0F00F4080B483B0DA
S32D0001135000AF78607B689B69002B07DD7B685B695A1C7B685A617B6800229A6100BF0C37BD4680BC704780B509
S32D0001137882B000AF78607B685A697B685B689A4205DB7B6800225A617868FFF72DFF00BF0837BD4680BD80B550
S32D000113A088B000AFF860B9607A603B60FB681B78022B03D0FB681B78032B11D17B68FB61BA6AFB691344013BFB
S32D000113C8BB61FB68DA68BB68D31A3B613B683A69D31A01337B610DE0BB68FB613A68FB691344013BBB617B6842
S32D000113F07B61BA6A7B691344013B3B612A21F868FFF7B8FDFB691B0ADBB203F00F03DBB21946F868FFF754FEB6
S32D00011418FB69DBB21946F868FFF74EFEBB691B0ADBB203F00F03DBB21946F868FFF744FEBB69DBB21946F868E4
S32D00011440FFF73EFE2B21F868FFF794FD7B691B0ADBB203F00F03DBB21946F868FFF730FE7B69DBB21946F868DD
S32D00011468FFF72AFE3B691B0ADBB203F00F03DBB21946F868FFF720FE3B69DBB21946F868FFF71AFE2C21F868D1
S32D00011490FFF770FD00BF2037BD4680BD80B58EB002AFF860B9607A60FB70FB780A2B06D1F868FFF760FFF86806
S32D000114B8FFF748FFF2E0FB787D2B02D8FB781F2B01D82023FB70FB78203BFB70112300930C237A68B968F8682B
S32D000114E0FFF75DFFFA7813469B0013446F4AD35C3B75FA7813469B00134401336B4AD35C7B75FA7813469B000B
S32D0001150813440233674AD35CBB75FA7813469B0013440333634AD35CFB75FA7813469B00134404335F4AD35C0D
S32D000115303B760023BB629FE0F86800F053F9F86800F0B6F8002387F82F3000237B6234E007F114027B6A134423
S32D000115581B7803F00103002B14BF01230023BB76BB7E002B11D097F82F3083F00103DBB2002B03D0F86800F0DF
S32D00011580CFF802E0F86800F093F8F86800F090F80DE097F82F30002B03D0F86800F022F902E0F86800F084F8EE
S32D000115A8F86800F081F8BB7E87F82F307B6A01337B627B6A042BC7DD97F82F30002B03D0F86800F00BF902E064
S32D000115D0F86800F06DF8F86800F06AF8002387F82F3000233B6241E007F114023B6A13441B7803F00103002BE4
S32D000115F814BF01230023FB76FB7E002B11D097F82F3083F00103DBB2002B03D0F86800F083F802E0F86800F0C7
S32D0001162047F8F86800F044F80DE097F82F30002B03D0F86800F0D6F802E0F86800F038F8F86800F035F8FB7E81
S32D0001164887F82F3007F114023B6A13441B785B08D9B207F114023B6A13440A461A703B6A01333B623B6A042BDC
S32D00011670BADDBB6A0133BB62BB6A062B7FF75CAFF86800F0AFF8002387F82F300123FB6105E0F86800F00CF8B6
S32D00011698FB690133FB61FB69232BF6DD3037BD4680BD00BF400B002080B483B000AF7860174B1B68164A43F46F
S32D000116C080331360154B1B68144A23F008031360114B1B68104A43F4802313600E4B1B680D4A23F4003313608D
S32D000116E80B4B1B680A4A43F400331360094B1B68084A43F008031360054B1B68044A23F48023136000BF0C379F
S32D00011710BD4680BC704700BF40F00F4080F00F4080B483B000AF78602B4B1B682A4A43F480331360294B1B6808
S32D00011738284A23F008031360254B1B68244A43F480231360224B1B68214A23F440731360204B1B681F4A23F4CB
S32D000117607F2323F0F00313601D4B1B681C4A23F01D031360184B1A687B685B6A164913430B60164B1A687B68D5
S32D000117889B6A144913430B60134B1A687B68DB6A114913430B600E4B1B680D4A23F4003313600B4B1B680A4ACF
S32D000117B043F400331360094B1B68084A43F008031360054B1B68044A23F48023136000BF0C37BD4680BC70470D
S32D000117D840F00F4080F00F40C0F00F4080B483B000AF78602B4B1B682A4A43F480331360294B1B68284A23F071
S32D0001180008031360254B1B68244A43F480231360224B1B68214A23F440731360204B1B681F4A23F47F2323F0D2
S32D00011828F00313601D4B1B681C4A23F01D031360184B1A687B681B6B164913430B60164B1A687B685B6B1449DD
S32D0001185013430B60134B1A687B689B6B114913430B600E4B1B680D4A23F4003313600B4B1B680A4A43F400333D
S32D000118781360094B1B68084A43F008031360054B1B68044A23F48023136000BF0C37BD4680BC704740F00F402F
S32D000118A080F00F40C0F00F4080B485B000AF78607B681B6AFB60FB68FB72FB681B0ABB72FB681B0CDBB203F019
S32D000118C803037B727B6800225A627B6800229A627B680022DA627B6800221A637B6800225A637B6800229A63B5
S32D000118F07B681A6BFB7A5B0203F400731A437B681A637B681A6BFB7A5B101B0203F480731A437B681A637B6879
S32D000119185A6BFB7A9B101B0103F010031A437B685A637B685A6BFB7ADB105B0103F020031A437B685A637B6842
S32D000119405A6BFB7A1B119B0103F040031A437B685A637B685A6BFB7A5B11DB01DBB21A437B685A637B685A6BAC
S32D00011968FB7A9B111B0303F480531A437B685A637B685A6B97F90B30DB115BB25B0303F400531A437B685A6339
S32D000119907B685A6BBB7A9B0303F480431A437B685A637B685A6BBB7A5B10DB039BB21A437B685A637B685A6BDE
S32D000119B8BB7A9B101B0403F480331A437B685A637B685A6BBB7ADB105B0403F400331A437B685A637B685A6B64
S32D000119E0BB7A1B119B0403F480231A437B685A637B685A6BBB7A5B11DB0403F400231A437B685A637B689A6B1A
S32D00011A08BB7A9B1103F001031A437B689A637B689A6B97F90A30DB115BB29B0003F004031A437B689A637B683A
S32D00011A309A6B7B7ADB0003F008031A437B689A637B689A6B7B7A5B101B0103F010031A437B689A637B68DB69A9
S32D00011A58FB60FB68FB72FB681B0ABB72FB681B0CDBB203F003037B727B685A6AFB7A5B0203F400731A437B685F
S32D00011A805A627B685A6AFB7A5B101B0203F480731A437B685A627B689A6AFB7A9B101B0103F010031A437B6888
S32D00011AA89A627B689A6AFB7ADB105B0103F020031A437B689A627B689A6AFB7A1B119B0103F040031A437B6884
S32D00011AD09A627B689A6AFB7A5B11DB01DBB21A437B689A627B689A6AFB7A9B111B0303F480531A437B689A6252
S32D00011AF87B689A6A97F90B30DB115BB25B0303F400531A437B689A627B689A6ABB7A9B0303F480431A437B687C
S32D00011B209A627B689A6ABB7A5B10DB039BB21A437B689A627B689A6ABB7A9B101B0403F480331A437B689A62E0
S32D00011B487B689A6ABB7ADB105B0403F400331A437B689A627B689A6ABB7A1B119B0403F480231A437B689A62E5
S32D00011B707B689A6ABB7A5B11DB0403F400231A437B689A627B68DA6ABB7A9B1103F001031A437B68DA627B682B
S32D00011B98DA6A97F90A30DB115BB29B0003F004031A437B68DA627B68DA6A7B7ADB0003F008031A437B68DA6295
S32D00011BC07B68DA6A7B7A5B101B0103F010031A437B68DA6200BF1437BD4680BC7047000080B582B000AF7860E3
S32D00011BE839607B68012B07D13B684FF6FF72934202D10348FEF7E8FE00BF0837BD4680BDC816002080B500AF07
S32D00011C104FF6FF710120FFF7E3FF80BD80B582B000AF7860164B03F580535B6B144A43F0400302F58052536387
S32D00011C38124B4FF400725A62104B4FF400721A620F4B14225A700E4B1B7ADBB20C4A43F00103DBB213720A4B5A
S32D00011C6080229A7002212B20FCF7ACF83D212A20FCF7A8F87B6818460837BD4680BD00BF0070044000C0044032
S32D00011C880060064080B582B000AF786039607B68012B07D13B684FF6FF72934202D10348FFF7B8FF00BF083722
S32D00011CB0BD4680BD1017002080B500AF4FF6FF710120FFF7E3FF80BD80B582B000AF78600B46FB707B68FA78B0
S32D00011CD811461846FEF75EF97B6818460837BD4680BD000080B582B000AF786039607B68012B08D13B684FF6C5
S32D00011D00FF72934203D120210348FFF7DDFF00BF0837BD4680BD00BF1417002080B500AF4FF6FF710120FFF744
S32D00011D28E1FF80BD80B483B000AF78607B6800221A707B6818460C37BD4680BC7047000080B483B000AF78608A
S32D00011D503960044A3B68136000BF0C37BD4680BC704700BF1817002080B582B000AF3248FCF718FA0346FB7117
S32D00011D78304AFB791370304B01221A702F4B1B78022B33D0022B4FDC002B02D0012B14D04AE0FB79FF2B44D124
S32D00011DA0284B01221A70284B00221A70F979264B1B785A1CD0B2244A10701A46234B995433E0F979204B1B783B
S32D00011DC85A1CD0B21E4A10701A461E4B99541C4B1B780D2B27D11C4B1B68194A1278114618489847154B02223B
S32D00011DF01A701CE0FB79FF2B10D1124B01221A70114B00221A70F9790F4B1B785A1CD0B20D4A10701A460D4BC7
S32D00011E18995409E00A4B00221A70084B00221A7002E000BF00E000BF00BF0837BD4680BD00A006402F170020FB
S32D00011E402E1700202D1700202C1700201C1700201817002080B582B000AF78607B681846FFF764FF7B681149E0
S32D00011E681846FFF76DFF7B684FF0FF325A600E4B4FF000021A600D4B4FF000021A600C4B4FF000021A600B4BEF
S32D00011E9000221A600A4B00221A700A4B00221A707B6818460837BD4680BD00BFC91E01003C1700204017002034
S32D00011EB844170020481700204C1700204D17002080B582B000AF78600B46FB70424B1B78002B7DD07B680133A1
S32D00011EE01B781B027A68023212781344184600F017FF03463B49184601F01AF803463A49184600F057FE0346E2
S32D00011F081A46384B1A607B6803331B781B027A68043212781344184600F0FEFE03462F49184601F001F80346EF
S32D00011F302D49184600F03EFE03461A462C4B1A607B6805331B781B027A68063212781344184600F0E5FE0346A8
S32D00011F582249184600F0E8FF03462149184600F025FE03461A46214B1A607B6807331B781A067B6808331B7886
S32D00011F801B041A437B6809331B781B0213437A680A32127813431A46174B1A607B68DA7A164B1A707B680C3313
S32D00011FA81B78AA2B0CBF01230023DAB2124B1A70124B01221A70104B1B78002B08D0104800F052F80F4B1B68B3
S32D00011FD00E4A23F40053136000BF0837BD4680BD38170020000020410000C8443C17002040170020441700202E
S32D00011FF8481700204C1700204D1700204E17002050170020C0F00F4080B582B000AF786039607B68012B07D1BB
S32D000120203B684FF6FF72934202D10348FFF712FF00BF0837BD4680BD3017002080B500AF4FF6FF710120FFF7E9
S32D00012048E3FF80BD80B483B000AF7860054B00221A60044B00225A607B6818460C37BD4680BC70475017002044
S32D0001207080B584B000AF7860154B1B68002B21D00023FB6013E0134AFB6852F82330002B0AD0104AFB6852F878
S32D0001209823301846FCF7CBFA03461A460C4B1A70FB680133FB60084B5B68FA689A42E6DB054B00225A60044BA4
S32D000120C000221A60044B1B7818461037BD4680BD501700205C1700205817002080B582B000AF786039607B687B
S32D000120E8012B07D13B684FF6FF72934202D10348FFF7A8FF00BF0837BD4680BD5017002080B500AF4FF6FF717E
S32D000121100120FFF7E3FF80BD80B483B000AF78600A4B03F580531B6B084A43F0010302F580521363064B5B68FA
S32D00012138054A43F03203536000BF0C37BD4680BC704700BF0070044000000A4038B5084C4FF41E652846E5609F
S32D0001216001F02CF8A06010B9E060606038BD0023606005604360F9E7C417002070470000024A0349034800F02D
S32D0001218807B800BF000000207D210100D41700200B460146184601F079BC000081F0004102E000BF83F00043BB
S32D000121B030B54FEA41044FEA430594EA050F08BF90EA020F1FBF54EA000C55EA020C7FEA645C7FEA655C00F080
S32D000121D8E2804FEA5454D4EB5555B8BF6D420CDD2C4480EA020281EA030382EA000083EA010180EA020281EA1A
S32D000122000303362D88BF30BD11F0004F4FEA01314FF4801C4CEA113102D0404261EB410113F0004F4FEA03335D
S32D000122284CEA133302D0524263EB430394EA050F00F0A780A4F10104D5F1200E0DDB02FA0EFC22FA05F2801841
S32D0001225041F1000103FA0EF2801843FA05F359410EE0A5F120050EF1200E012A03FA0EFC28BF4CF0020C43FA52
S32D0001227805F3C01851EBE37101F0004507D54FF0000EDCF1000C7EEB00006EEB0101B1F5801F1BD3B1F5001FE3
S32D000122A00CD349085FEA30004FEA3C0C04F101044FEA445212F5800F80F09A80BCF1004F08BF5FEA500C50F153
S32D000122C8000041EB045141EA050130BD5FEA4C0C404141EB0101013C28BFB1F5801FE9D291F0000F04BF01463A
S32D000122F00020B1FA81F308BF2033A3F10B03B3F120020CDA0C3208DD02F1140CC2F10C0201FA0CF021FA02F11C
S32D000123180CE002F11402D8BFC2F1200C01FA02F120FA0CFCDCBF41EA0C019040E41AA2BF01EB0451294330BD7F
S32D000123406FEA04041F3C1CDA0C340EDC04F11404C4F1200220FA04F001FA02F340EA030021FA04F345EA03013E
S32D0001236830BDC4F10C04C4F1200220FA02F001FA04F340EA0300294630BD21FA04F0294630BD94F0000F83F4C1
S32D00012390801306BF81F480110134013D4EE77FEA645C18BF7FEA655C29D094EA050F08BF90EA020F05D054EAFE
S32D000123B8000C04BF1946104630BD91EA030F1EBF0021002030BD5FEA545C05D14000494128BF41F0004130BD0E
S32D000123E014F580043CBF01F5801130BD01F0004545F0FE4141F470014FF0000030BD7FEA645C1ABF194610469F
S32D000124087FEA655C1CBF0B46024650EA013406BF52EA033591EA030F41F4002130BD00BF90F0000F04BF00215D
S32D00012430704730B54FF4806404F132044FF000054FF0000150E700BF90F0000F04BF0021704730B54FF48064DF
S32D0001245804F1320410F0004548BF40424FF000013EE700BF42004FEAE2014FEA31014FEA02701FBF12F07F4322
S32D0001248093F07F4F81F06051704732F07F4208BF704793F07F4F04BF41F40021704730B54FF4607401F000454F
S32D000124A821F000411CE700BF50EA010208BF704730B54FF000050AE050EA010208BF704730B511F0004502D566
S32D000124D0404261EB41014FF4806404F132045FEA915C3FF4D8AE4FF003025FEADC0C18BF03325FEADC0C18BF03
S32D000124F8033202EBDC02C2F1200300FA03FC20FA02F001FA03FE40EA0E0021FA02F11444BDE600BF70B54FF07A
S32D00012520FF0C4CF4E06C1CEA11541DBF1CEA135594EA0C0F95EA0C0F00F0DEF82C4481EA030621EA4C5123EAAE
S32D000125484C5350EA013518BF52EA033541F4801143F4801338D0A0FB02CE4FF00005E1FB02E506F00042E0FBED
S32D0001257003E54FF00006E1FB03569CF0000F18BF4EF0010EA4F1FF04B6F5007F64F5407404D25FEA4E0E6D4123
S32D0001259846EB060642EAC62141EA55514FEAC52040EA5E504FEACE2EB4F1FD0C88BFBCF5E06F1ED8BEF1004FDF
S32D000125C008BF5FEA500E50F1000041EB045170BD06F0004646EA010140EA020081EA0301B4EB5C04C2BFD4EB47
S32D000125E80C0541EA045170BD41F480114FF0000E013C00F3AB8014F1360FDEBF002001F0004170BDC4F1000479
S32D00012610203C35DA0C341BDC04F11404C4F1200500FA05F320FA04F001FA05F240EA020001F0004221F000416F
S32D0001263810EBD37021FA04F642EB06015EEA430E08BF20EAD37070BDC4F10C04C4F1200500FA04F320FA05F073
S32D0001266001FA04F240EA020001F0004110EBD37041F100015EEA430E08BF20EAD37070BDC4F1200500FA05F2E6
S32D000126884EEA020E20FA04F301FA05F243EA020321FA04F001F0004121FA04F220EA020000EBD3705EEA430E81
S32D000126B008BF20EAD37070BD94F0000F0FD101F00046400041EB010111F4801F08BF013CF7D041EA060195F07C
S32D000126D8000F18BF704703F00046520043EB030313F4801F08BF013DF7D043EA0603704794EA0C0F0CEA135521
S32D0001270018BF95EA0C0F0CD050EA410618BF52EA4306D1D181EA030101F000414FF0000070BD50EA410606BF8B
S32D000127281046194652EA430619D094EA0C0F02D150EA013613D195EA0C0F05D152EA03361CBF104619460AD14E
S32D0001275081EA030101F0004141F0FE4141F470014FF0000070BD41F0FE4141F4780170BD70B54FF0FF0C4CF43D
S32D00012778E06C1CEA11541DBF1CEA135594EA0C0F95EA0C0F00F0A7F8A4EB050481EA030E52EA03354FEA01317C
S32D000127A000F088804FEA03334FF0805545EA131343EA12634FEA022245EA111545EA10654FEA00260EF00041A4
S32D000127C89D4208BF964244F1FD0404F5407402D25B084FEA3202B61A65EB03055B084FEA32024FF480104FF4CF
S32D000127F0002CB6EB020E75EB030E22BFB61A754640EA0C005B084FEA3202B6EB020E75EB030E22BFB61A75466C
S32D0001281840EA5C005B084FEA3202B6EB020E75EB030E22BFB61A754640EA9C005B084FEA3202B6EB020E75EB06
S32D00012840030E22BFB61A754640EADC0055EA060E18D04FEA051545EA16754FEA06164FEAC30343EA52734FEA1F
S32D00012868C2025FEA1C1CC0D111F4801F0BD141EA00014FF000004FF0004CB6E711F4801F04BF01430020B4F1E8
S32D00012890FD0C88BFBCF5E06F3FF6AFAEB5EB030C04BFB6EB020C5FEA500C50F1000041EB045170BD0EF0004E36
S32D000128B84EEA113114EB5C04C2BFD4EB0C0541EA045170BD41F480114FF0000E013C90E645EA060E8DE60CEAA8
S32D000128E0135594EA0C0F08BF95EA0C0F3FF43BAF94EA0C0F0AD150EA01347FF434AF95EA0C0F7FF425AF1046DA
S32D0001290819462CE795EA0C0F06D152EA03353FF4FDAE1046194622E750EA410618BF52EA43067FF4C5AE50EAB0
S32D0001293041047FF40DAF52EA43057FF4EBAE12E74FF0FF3C06E000BF4FF0010C02E000BF4FF0010C4DF804CD0D
