S01100002E2E2F50726F746575732E73313966
S32D0000C0000000002061C2000015C300001BC3000021C3000027C300002DC300000000000000000000000000005B
S32D0000C0280000000033C3000039C30000000000003FC3000045C3000001C800000DC8000019C8000025C8000082
S32D0000C05031C800003DC8000049C8000055C8000061C800006DC8000079C8000085C8000091C800009DC80000EC
S32D0000C078A9C80000B5C80000C1C80000CDC80000D9C80000E5C80000F1C80000FDC8000009C9000015C9000012
S32D0000C0A021C900002DC9000039C9000045C9000051C900005DC9000069C9000075C9000081C900008DC9000032
S32D0000C0C899C90000A5C90000B1C90000BDC90000C9C90000D5C90000E1C90000EDC90000F9C9000005CA000059
S32D0000C0F011CA0000B11601001DCA000029CA000035CA000041CA00004DCA000059CA000065CA000071CA0000F7
S32D0000C1187DCA000089CA000095CA0000A1CA0000ADCA0000B9CA0000C5CA0000D1CA0000DDCA0000E9CA000017
S32D0000C140F5CA000001CB00000DCB000019CB000011F0000025CB000031CB00003DCB000049CB000055CB000061
S32D0000C16861CB00006DCB000079CB000085CB000091CB00009DCB0000A9CB0000B5CB0000C1CB0000CDCB0000D5
S32D0000C190D9CB0000E5CB0000F1CB00004DED000015EC0000B1EC000085C50000EDED0000FDCB000009CC0000D8
S32D0000C1B815CC000050A2010000000020D013000050A201000000FF1F00000000D0130020280700000000FF1F21
S32D0000C1E00000000080B489B000AFF860B9607A60BB68FB61FB68BB6100237B610AE0BB691A1DBA611A68FB6987
S32D0000C208191DF9611A607B6904337B617A697B689A42F0D300BF00BF2437BD4680BC704780B485B000AF7860E3
S32D0000C23039607B68FB600023BB6007E0FB681A1DFA6000221A60BB680433BB60BA683B689A42F3D300BF00BFFA
S32D0000C2581437BD4680BC704780B586B000AF72B6234B4CF220521A80214B4DF628121A80204B4FF4E9721A8057
S32D0000C2801F4B7B6113E07B691A1D7A611B687B607B691A1D7A611B68FB607B691A1D7A611B68BB60BA68F96818
S32D0000C2A87868FFF79BFF7B69144A9342E7D30DE07B691A1D7A611B68FB607B691A1D7A611B68BB60B968F86851
S32D0000C2D0FFF7AAFF7B690C4A9342EDD30B4B3B610B4A3B691A6008F035FB62B600F012FA00F032F9FEE700BF72
S32D0000C2F80E20054000200540BCC10000D4C10000E4C1000008ED00E000C0000080B400AFFEE780B400AFFEE764
S32D0000C32080B400AFFEE780B400AFFEE780B400AFFEE780B400AFFEE780B400AFFEE780B400AFFEE780B400AF5C
S32D0000C348FEE780B400AFFEE7FFFFFFFFFFFFFFFFFFFFFFFFFFFFFFFFFFFFFFFFFFFFFFFFFFFFFFFFFFFFFFFF3A
S32D0000C370FFFFFFFFFFFFFFFFFFFFFFFFFFFFFFFFFFFFFFFFFFFFFFFFFFFFFFFFFFFFFFFFFFFFFFFFFFFFFFFFC7
S32D0000C398FFFFFFFFFFFFFFFFFFFFFFFFFFFFFFFFFFFFFFFFFFFFFFFFFFFFFFFFFFFFFFFFFFFFFFFFFFFFFFFF9F
S32D0000C3C0FFFFFFFFFFFFFFFFFFFFFFFFFFFFFFFFFFFFFFFFFFFFFFFFFFFFFFFFFFFFFFFFFFFFFFFFFFFFFFFF77
S32D0000C3E8FFFFFFFFFFFFFFFFFFFFFFFFFFFFFFFFFFFFFFFFFFFFFFFFFFFFFFFFFFFFFFFFFFFFFFFFFEFFFFFF50
S32D0000C44008B5034B1BB103490348AFF3008008BD00000000D013002010C4000080B582B000AF78607B68184A6F
S32D0000C4680021184600F0D8FB7B680833144A0121184600F0D1FB7B681033114A0221184600F0CAFB7B681833C7
S32D0000C4900021184602F060FA7B6819330121184602F05AFA7B681A330221184602F054FA7B681B331821184605
S32D0000C4B802F0F6FC7B6818460837BD4680BD00BF000010410000000080B582B000AF78600021114803F0D9FA74
S32D0000C4E07B681933184602F0CDFC0146002300220B4803F061FB7B681A33184602F0C2FC01461423002206488C
S32D0000C50803F056FB02A1D1E9000102F0DFF9E3E79A9999999999C93FC816002080B582B000AF78607B68184603
S32D0000C530FFF794FF7B6818460837BD4680BD80B582B000AF78607B681846FFF7C1FF00BF0837BD4680BD000071
S32D0000C55880B588B000AF084805F0B0FC3B1D1846FFF7DCFF3B1D1846FFF7E5FF002318462037BD4680BD00BFBA
S32D0000C5803017002080B500AF0F4BD3F8A03003F48053002B14BF01230023DBB2002B10D0094BD3F8A030084A65
S32D0000C5A823F48053C2F8A030064805F0A9FF064B1B68054A23F40053136000BF80BD00BF00C0044050170020C0
S32D0000C5D0C0F00F4080B400AF124B4FF480725A63114B5B69104A43F4005353610E4B1B680D4A43F40053136024
S32D0000C5F80A4B0C4A1A630C4BD3F888310A4A43F08063C2F88831084B9B68074A43F08063936000BFBD4680BC87
S32D0000C620704700BF00C00440C0F00F4003010A0000E100E080B400AF334B00225A70324B98221A7000BF304B5C
S32D0000C6489B79DBB203F01003002B14BF01230023DBB2002BF3D100BF294B9B79DBB29B08DBB203F00303022B32
S32D0000C67014BF01230023DBB2002BF1D1224B18221A71214B00225A71204B03F580531A461F4B53641C4B5422E9
S32D0000C6985A7100BF1A4B9B79DBB203F02003002B0CBF01230023DBB2002BF3D100BF144B9B79DBB203F0400320
S32D0000C6C0002B0CBF01230023DBB2002BF3D10E4B1B78DBB20C4A03F03F03DBB2137000BF094B9B79DBB29B0828
S32D0000C6E8DBB203F00303032B14BF01230023DBB2002BF1D100231846BD4680BC704700BF00400640007004406C
S32D0000C7100000130180B500AF314B03F580539B6B2F4A43F4785302F580529363FFF752FFFFF780FF2B4B5822D0
S32D0000C7381A602A4B1B684FF47A7202FB03F3284A1360274B1B681A46234B03F580535B6C1B0E03F00F030133A3
S32D0000C760B2FBF3F31A46214B1A601D4B03F58053DB6B1B4A43F0225302F58052D363184B03F580531B6B164A39
S32D0000C78843F0006302F580521363174B4FF480721A61642001F09EFF134B5B69124A23F010035361104B0022B5
S32D0000C7B01A600F4B10225A610E4803F009F802F0DBFB02F039FC0C4801F0EAFF0B4805F0EFFE4FF4FA6002F06F
S32D0000C7D867F800BF80BD00BF0070044014160020101600201816002000D00340C81600200C160020C01700203D
S32D0000C80080B500AFFFF7A1FD00BF80BD80B500AFFFF79BFD00BF80BD80B500AFFFF795FD00BF80BD80B500AFDC
S32D0000C828FFF78FFD00BF80BD80B500AFFFF789FD00BF80BD80B500AFFFF783FD00BF80BD80B500AFFFF77DFD5E
S32D0000C85000BF80BD80B500AFFFF777FD00BF80BD80B500AFFFF771FD00BF80BD80B500AFFFF76BFD00BF80BDF2
S32D0000C87880B500AFFFF765FD00BF80BD80B500AFFFF75FFD00BF80BD80B500AFFFF759FD00BF80BD80B500AF18
S32D0000C8A0FFF753FD00BF80BD80B500AFFFF74DFD00BF80BD80B500AFFFF747FD00BF80BD80B500AFFFF741FDD6
S32D0000C8C800BF80BD80B500AFFFF73BFD00BF80BD80B500AFFFF735FD00BF80BD80B500AFFFF72FFD00BF80BD2E
S32D0000C8F080B500AFFFF729FD00BF80BD80B500AFFFF723FD00BF80BD80B500AFFFF71DFD00BF80BD80B500AF54
S32D0000C918FFF717FD00BF80BD80B500AFFFF711FD00BF80BD80B500AFFFF70BFD00BF80BD80B500AFFFF705FD4D
S32D0000C94000BF80BD80B500AFFFF7FFFC00BF80BD80B500AFFFF7F9FC00BF80BD80B500AFFFF7F3FC00BF80BD6C
S32D0000C96880B500AFFFF7EDFC00BF80BD80B500AFFFF7E7FC00BF80BD80B500AFFFF7E1FC00BF80BD80B500AF92
S32D0000C990FFF7DBFC00BF80BD80B500AFFFF7D5FC00BF80BD80B500AFFFF7CFFC00BF80BD80B500AFFFF7C9FCC9
S32D0000C9B800BF80BD80B500AFFFF7C3FC00BF80BD80B500AFFFF7BDFC00BF80BD80B500AFFFF7B7FC00BF80BDA8
S32D0000C9E080B500AFFFF7B1FC00BF80BD80B500AFFFF7ABFC00BF80BD80B500AFFFF7A5FC00BF80BD80B500AFCE
S32D0000CA08FFF79FFC00BF80BD80B500AFFFF799FC00BF80BD80B500AFFFF793FC00BF80BD80B500AFFFF78DFC40
S32D0000CA3000BF80BD80B500AFFFF787FC00BF80BD80B500AFFFF781FC00BF80BD80B500AFFFF77BFC00BF80BDE3
S32D0000CA5880B500AFFFF775FC00BF80BD80B500AFFFF76FFC00BF80BD80B500AFFFF769FC00BF80BD80B500AF09
S32D0000CA80FFF763FC00BF80BD80B500AFFFF75DFC00BF80BD80B500AFFFF757FC00BF80BD80B500AFFFF751FCB8
S32D0000CAA800BF80BD80B500AFFFF74BFC00BF80BD80B500AFFFF745FC00BF80BD80B500AFFFF73FFC00BF80BD1F
S32D0000CAD080B500AFFFF739FC00BF80BD80B500AFFFF733FC00BF80BD80B500AFFFF72DFC00BF80BD80B500AF45
S32D0000CAF8FFF727FC00BF80BD80B500AFFFF721FC00BF80BD80B500AFFFF71BFC00BF80BD80B500AFFFF715FC30
S32D0000CB2000BF80BD80B500AFFFF70FFC00BF80BD80B500AFFFF709FC00BF80BD80B500AFFFF703FC00BF80BD5A
S32D0000CB4880B500AFFFF7FDFB00BF80BD80B500AFFFF7F7FB00BF80BD80B500AFFFF7F1FB00BF80BD80B500AF83
S32D0000CB70FFF7EBFB00BF80BD80B500AFFFF7E5FB00BF80BD80B500AFFFF7DFFB00BF80BD80B500AFFFF7D9FBAB
S32D0000CB9800BF80BD80B500AFFFF7D3FB00BF80BD80B500AFFFF7CDFB00BF80BD80B500AFFFF7C7FB00BF80BD99
S32D0000CBC080B500AFFFF7C1FB00BF80BD80B500AFFFF7BBFB00BF80BD80B500AFFFF7B5FB00BF80BD80B500AFBF
S32D0000CBE8FFF7AFFB00BF80BD80B500AFFFF7A9FB00BF80BD80B500AFFFF7A3FB00BF80BD80B500AFFFF79DFB23
S32D0000CC1000BF80BD80B500AFFFF797FB00BF80BD80B584B000AFF8600B467A60FB72FB68FA7A1A71FB680022A3
S32D0000CC385A711749786806F0CBFC0346002B02D0134B7B600AE04FF07E51786806F0ACFC0346002B02D04FF08C
S32D0000CC607E537B60786805F04DFE09A3D3E9002305F0A0FE02460B461046194606F092F90246FB681A60FB6865
S32D0000CC8818461037BD4680BDABAAAAAAAAAA20400000404180B483B000AF03460A46FB711346BB71BB79002BBC
S32D0000CCB003D1134B00221A7002E0114B01221A703823FB710E4B1A78FB791343FB710D4B9B78DBB20B4A43F025
S32D0000CCD81003DBB29370094B9B78DBB2074A43F02003DBB29370054AFB79137100BF0C37BD4680BC704700BF62
S32D0000CD00E81300200060064080B483B000AF01237B6003E000BF7B6801337B607B68312BF8DD00BF00BF0C37C6
S32D0000CD28BD4680BC7047000080B582B000AF03460A46FB711346BB71134B1B7800211846FFF7A8FF00F024F82E
S32D0000CD50104AFB79137100F01FF80E4ABB79137100F01AF80B4B9B78DBB20A4A23F02003DBB29370074B9B78D5
S32D0000CD78DBB2064A23F01003DBB29370FFF7C0FF00BF0837BD4680BDE91300200060064080B483B000AF174BCD
S32D0000CDA01B78002B24D100237B600CE07B6842F21072934203DD114B01221A700FE07B6801337B6000BF0E4B78
S32D0000CDC8DB78DBB203F00203002B0CBF01230023DBB2002BE6D1084BDB78DBB2064A43F00203DBB2D37000E04E
S32D0000CDF000BF0C37BD4680BC704700BFEA1300200060064080B582B000AF0346FB71FB79184600F05FF800BFF8
S32D0000CE180837BD4680BD80B582B000AF03460A46FB711346BB7100F035F8FB795B00DBB21846FFF7E3FFBB79EA
S32D0000CE401846FFF7DFFF00F037F800BF0837BD4680BD80B500AFFF2000F03CF80346184680BD80B584B000AF12
S32D0000CE680346FB7100F016F8FB795B005BB243F001035BB2DBB21846FFF7C0FFFFF7E5FF0346FB7300F014F89C
S32D0000CE90FB7B18461037BD4680BD000080B400AF044B9B68034A43F48013936000BFBD4680BC704740F00F40A6
S32D0000CEB880B400AF044B5B68034A43F48013536000BFBD4680BC704740F00F4080B485B000AF0346FB71002369
S32D0000CEE0BB7302E0FB7B0133FB73144BDB6A03F00043012B0CBF01230023DBB2002BF1D10E4BDB6A0D4A43F042
S32D0000CF080043D3620B4AFB79536300BF094BDB6A03F40033002B0CBF01230023DBB2002BF4D1044B9B6BBB7345
S32D0000CF30BB7B18461437BD4680BC704700C00A4080B582B000AF204B03F580531B6B1E4A43F4805302F58052E7
S32D0000CF5813631C4B4FF480721A651B4B5B691A4A43F480135361FFF7A3FF164B4FF400725A65144B4FF400728D
S32D0000CF809A65124B4FF40072DA65124B124A1A60104B124ADA6000237B6005E0FF20FFF731FF7B6801337B60F5
S32D0000CFA87B68092BF6DD04A1D1E9000101F08EFC00BF0837BD4680BD9A9999999999B93F0070044000A0044031
S32D0000CFD040F00F4000C00A40000C00800500003E90B486B000AFF860B9607A60FB68534A93420AD1524B03F522
S32D0000CFF880535B6B504A43F4806302F58052536345E0FB684D4A93420AD14B4B03F580535B6B494A43F400631C
S32D0000D02002F58052536336E0FB68474A93420AD1434B03F580535B6B414A43F4805302F58052536327E0FB680C
S32D0000D048404A93420AD13C4B03F580535B6B3A4A43F4005302F58052536318E0FB683A4A93420AD1344B03F5D5
S32D0000D07080539B6A324A43F4806302F58052936209E02F4B03F580539B6A2D4A43F4006302F580529362FB6801
S32D0000D098DB78DBB223F00C03DAB2FB68DA70FB6800229A70BB684FF47A7203FB02F27B681B0192FBF3F39CB29C
S32D0000D0C0FB681B78DBB223F01F03FB75230A9BB2DBB203F01F03DAB2FB7D1343DAB2FB681A70E2B2FB685A706A
S32D0000D0E8BB684FF4FA4203FB02F27B681B0192FBF3F39AB263019BB2D31A9CB2FB689B7ADBB223F01F03FB7532
S32D0000D110E3B203F01F03DAB2FB7D1343DAB2FB689A72FB68DB78DBB243F00C03DAB2FB68DA7000BF1837BD4623
S32D0000D13890BC704700A006400070044000B0064000C0064000D0064000A00E4080B483B000AF786000BF7B689C
S32D0000D1601B79DBB203F02003002B0CBF01230023DBB2002BF3D17B68DB79DBB218460C37BD4680BC704780B422
S32D0000D18883B000AF78600B46FB7000BF7B681B79DBB25BB2DB43DBB2DB09DBB2002BF5D17B68FA78DA7100BFC7
S32D0000D1B00C37BD4680BC704780B487B000AFF860B9607A60FB687B6106E0BB68D9B27B695A1C7A610A461A70D1
S32D0000D1D87B685A1E7A60002B14BF01230023DBB2002BEED100BF00BF1C37BD4680BC704780B584B000AF786081
S32D0000D20039607B681B6BFB60FA683B689A4252D07B681B79002B35D07B6858787B6803F134010123FA6801F0C3
S32D0000D228F7F80346002B14BF01230023DBB2002B01D001233CE07B6800221A717B685A6A7B681B6A1344FA683A
S32D0000D2509A4217D27B68DB78FB7210E07B681B6AFA681344FB607B6858787B6803F134010123FA6801F0D0F8DE
S32D0000D278FB7A013BFB72FB7A012BEBD83B68002B15D07B6858787B6803F1340101233A6800F0D8FF0346002B93
S32D0000D2A014BF01230023DBB2002B01D0012303E07B683A681A63002318461037BD4680BD80B584B000AF7860BC
S32D0000D2C800217868FFF794FF0346FB73FB7B002B40F093807B681B78032B7DD17B685B79002B79D07B680022F1
S32D0000D2F01A637B6834334FF4007200211846FFF75BFF7B68552283F832227B68AA2283F833227B68522283F84B
S32D0000D31834207B68522283F835207B68612283F836207B68412283F837207B68722283F818227B68722283F8FF
S32D0000D34019227B68412283F81A227B68612283F81B227B681B69DAB27B6883F81C227B681B699BB21B0A9BB2B4
S32D0000D368DAB27B6883F81D227B681B691B0CDAB27B6883F81E227B681B691B0EDAB27B6883F81F227B68DB68D5
S32D0000D390DAB27B6883F820227B68DB689BB21B0A9BB2DAB27B6883F821227B68DB681B0CDAB27B6883F82222B6
S32D0000D3B87B68DB681B0EDAB27B6883F823227B6858787B6803F134017B685A69012301F01FF87B6800225A7168
S32D0000D3E07B685B7800220021184601F0E1F80346002B14BF01230023DBB2002B01D00123FB73FB7B184610373A
S32D0000D408BD4680BD80B582B000AF78600B467B807B68002B08D07B681B78002B04D07B68DB887A889A4201D02C
S32D0000D430092311E07B685B78184601F03BF9034603F00103002B14BF01230023DBB2002B01D0032300E0002341
S32D0000D45818460837BD4680BD80B586B000AF78607B681A687B689B8819461046FFF7CAFF0346FB75FB7D002B9C
S32D0000D48040F0AC807B689B7903F02003002B00F0A5807B689B7903F04003002B1BD07B681B6858787B6803F185
S32D0000D4A828017B689A69012300F0B2FF0346002B14BF01230023DBB2002B01D001238AE07B689B7923F0400390
S32D0000D4D0DAB27B689A717B681A687B68DB6919461046FFF789FE0346FB75FB7D002B75D17B681B6A3B613B69AC
S32D0000D4F80B331A783B690B3342F02002D2B21A707B68DA683B691C33D2B21A707B68DB689BB21B0A9AB23B6944
S32D0000D5201D33D2B21A707B68DB681A0C3B691E33D2B21A707B68DB681A0E3B691F33D2B21A707B681A693B69D4
S32D0000D5481A33D2B21A707B681B699BB21B0A9AB23B691B33D2B21A707B681B691A0C3B691433D2B21A707B68CC
S32D0000D5701B691B0C9BB21B0A9AB23B691533D2B21A700023FB603B691633FA68D2B21A70FB689BB21B0A9AB22E
S32D0000D5983B691733D2B21A70FB681A0C3B691833D2B21A70FB681A0E3B691933D2B21A707B689B7923F020032D
S32D0000D5C0DAB27B689A717B681B6801221A717B681B681846FFF774FE0346FB75FB7D18461837BD4680BD80B530
S32D0000D5E884B000AF78607868FFF736FF0346FB73FB7B002B02D17B6800221A60FB7B18461037BD4680BD00004A
S32D0000D61080B588B000AF7860396080233B610F23FB604FF0FF337B610223FB6122E00123BB6119E0FB69BA6903
S32D0000D63802FB03F33A6803FB02F27B68D31ABB60BB68002B09DBBB687A699A4205D9BB687B61FB693B61BB693D
S32D0000D660FB60BB690133BB61BB69102BE2D9FB695B00FB61FB69B3F5807FD8D91D4BDB6A1C4A23F00803D36276
S32D0000D6881A4BDB6A23F47F2323F47F63BB613B695B081B029AB2FB68013B1B01DBB21A43BB691343114A43F4DB
S32D0000D6B06023D36202E00A2001F0F6F80D4B5B6A03F00803002B0CBF01230023DBB2002BF1D1084BDB6A074AEE
S32D0000D6D843F00803D362054B1B6B044A43F48013136300BF2037BD4680BD00BF00100B4080B582B000AF7860EF
S32D0000D70039607B6800221A60414B424ADA6200BF3F4BDB6A03F08073002B14BF01230023DBB2002BF4D13A4BD4
S32D0000D7280022C3F8C020384B4FF481325A60364B28229A62344B4FF001125A643B689B6833491846FFF760FFB8
S32D0000D75000BF2F4B5B6A03F00303002B14BF01230023DBB2002BF4D12C4B40F243421A602A4B40F243425A6064
S32D0000D778284B4FF488629A60264B40F24342DA60244B40F243421A61224B40F243425A61214B03F580531B6B4A
S32D0000D7A01F4A43F4003302F580521363184B4FF6FF721A63164B1B4A5A63154BDB6A144A43F00063D36200BFA3
S32D0000D7C8114BDB6A03F00063002B14BF01230023DBB2002BF4D10C4B5B6A03F48033002B14BF01230023DBB2E2
S32D0000D7F0002B02D07B6801221A60054B1B6B044A43F080031363002318460837BD4680BD00100B400080000162
S32D0000D81860CC050000D0044000700440B3007F0080B400AF064B5A6A40F207331340002B14BF01230023DBB22E
S32D0000D8401846BD4680BC704700100B4080B485B000AF7860064B1B6B7A681340FB60FB68002BF7D0FB6818469E
S32D0000D8681437BD4680BC704700100B4080B584B000AF78607B681B7803F03F03764A52F82330FB60FB68002B15
S32D0000D89005D17B681B78002B01D00123DCE0714B1B6B704A43F08003136300BF6D4B5B6A03F00103002B14BFE9
S32D0000D8B801230023DBB2002BF4D1684A7B685B689360FB6823F44003FB607B685B789B0503F44003FA681343D3
S32D0000D8E0FB607B685B78022B03D1FB6843F40013FB607B685B78042B16D1FB6803F44033B3F5003F08D1FB6844
S32D0000D90823F44033FB60FB6843F44033FB6007E0FB6823F44033FB60FB6843F40033FB604E4B5B684D4A9BB20D
S32D0000D93053607B68DB68002B2AD0FB6803F44033B3F5403F03D0FB6843F40013FB607B681B7A002B03D0FB6823
S32D0000D95843F01003FB607B68DB68012B03D9FB6843F02003FB607B68DB68B3F1FF3F0BD03A4B5A687B68DB686E
S32D0000D9801B04384913434B60FB6843F00203FB60344B00221A60334AFB68D3603248FFF755FF0346012B14BFA8
S32D0000D9A801230023DBB2002B09D02C4B1B6B2B4A43F4702343F001031363012348E0274B1B6B03F08003002BAB
S32D0000D9D014BF01230023DBB2002B07D0214B1B6B204A43F001131363012335E01D4B1B6B03F48033002B14BF98
S32D0000D9F801230023DBB2002B08D0184B1B6B174A43F0011313634FF0FF3321E0FB6803F44033002B15D0114B78
S32D0000DA201A697B681A61FB6803F44033B3F5803F0BD10C4B5A697B685A610A4B9A697B689A61084BDA697B6880
S32D0000DA48DA61064B1B6B054A43F001031363002318461037BD4680BD5498010000100B4001000E0080B592B0CC
S32D0000DA7000AF7860396000237B643B68BB63994B7B637B6B002B02D140F601235FE3964B3B633B6B002B02D140
S32D0000DA9840F60B2357E33B6B1B68FB62FB6A002B02D140F60B234EE37B6841F20932934200F23F837B68B3F5DF
S32D0000DAC0985F08D87B68032B00F01A837B68092B00F0098331E37B68A3F59853013B082B00F22B8301A252F8BA
S32D0000DAE823F000BF11DB0000FDDD000059E0000013DE000051DE000077DF0000BFDF000001DF00001BDF000051
S32D0000DB107649786BFFF7F0FD78647B6C002B40F01083002387F84330002387F82B30002387F82A30002387F801
S32D0000DB382930002387F84230002387F8283000233B7200237B720023FB6000233B7400237B6107F108031846C8
S32D0000DB60FFF788FE0346002B14BF01230023DBB2002B02D001237B64E8E240F24C4000F093FE08233B720023FC
S32D0000DB887B724FF4D573FB6000233B7400237B6107F108031846FFF769FEF863FB6B002B09D1BA69FB689A42E5
S32D0000DBB002D001237B64C9E2012387F84230012387F8283097F82830002B00F0A58037233B7200237B72002356
S32D0000DBD8FB6000233B7400237B6107F108031846FFF744FEF863FB6B002B02D001237B64A8E269233B720023B3
S32D0000DC007B720023FB6000233B7400237B6107F108031846FFF72EFE0346002B14BF01230023DBB2002B02D01F
S32D0000DC2801237B648EE2BB6903F44013002B6FD00023FB630A2000F033FEFB6B0133FB6337233B7200237B72A8
S32D0000DC500023FB6000233B7400237B6107F108031846FFF707FE0346002B14BF01230023DBB2002B02D00123BF
S32D0000DC787B6427E069233B7200237B7297F84230002B02D0184BFB6002E04FF44013FB6000233B7400237B61EF
S32D0000DCA007F108031846FFF7E5FD0346002B14BF01230023DBB2002B02D001237B6405E0BB69002B02DBFB6B8B
S32D0000DCC8632BB7D97B6C002B40F03982FB6B632B0CD9002387F842301AE000BF0014002004160020489801001E
S32D0000DCF000003040012387F8433097F84230002B0AD0002387F84230BB6903F08043002B02D0012387F842307A
S32D0000DD1897F82A30002B02D07B6B07221A6097F82930002B02D07B6B08221A6097F82B30002B02D07B6B04220C
S32D0000DD401A6097F84330002B09D07B6B02221A6097F84230002B02D07B6B03221A6097F82B30002B0DD097F8AD
S32D0000DD684330002B09D07B6B05221A6097F84230002B02D07B6B06221A60924B00221A60904B00225A608F4BFF
S32D0000DD9000229A608D4B0022DA608C4B00221A618A4B00225A61FB6A9A68FB6A5B6819461046FFF72DFC854BBC
S32D0000DDB840F243421A60834B40F243425A60814B4FF488629A607F4B40F24342DA607D4B40F243421A617B4B5F
S32D0000DDE040F243425A617A4B03F580531B6B784A43F4003302F580521363A7E1B86BFFF739FDF863FB6B002B5F
S32D0000DE0800F09F8102237B649BE1BB6B002B02D10C237B6496E16D4BDB6A1B0A5B0003F4FF73FB63694BDB6A76
S32D0000DE301B0903F00F035A1CFB6B02FB03F3FB63FB6A9A68FB6BB2FBF3F2BB6B1A607DE1BB6B002B02D10C23BE
S32D0000DE587B6477E1BB6B1B68002B02D10C237B6470E1FFF7DDFC0346002B0CBF01230023DBB2002B3CD0534BA8
S32D0000DE8000221A60514B00225A60504B00229A604E4B0022DA604D4B00221A614B4B00225A61FB6A9A68BB6B7F
S32D0000DEA81B6819461046FFF7AFFB464B40F243421A60444B40F243425A60424B4FF488629A60404B40F24342BC
S32D0000DED0DA603E4B40F243421A613C4B40F243425A613B4B03F580531B6B394A43F4003302F58052136329E129
S32D0000DEF840F60A237B6425E1BB6B002B02D10C237B641FE1314B5B68C3F30C02BB6B1A6018E1BB6B002B02D1C2
S32D0000DF200C237B6412E1FFF77FFC0346002B0CBF01230023DBB2002B19D0BB6B1B68B3F5805F02D30C237B6427
S32D0000DF4800E1224B5B68214A23F4FF5323F01F0353601E4B5A68BB6B1B68C3F30C031B4913434B60EEE040F6DC
S32D0000DF700A237B64EAE0BB6B002B02D10C237B64E4E0144B9B6A5B0803F00303FB63FB6B002B03D1BB6B0022EC
S32D0000DF981A60D7E0FB6B012B03D1BB6B01221A60D0E0FB6B102B03D1BB6B02221A60C9E005237B64C6E0BB6B9C
S32D0000DFC0002B09D10C237B64C0E000BF00D004400070044000100B40FFF726FC0346002B0CBF01230023DBB273
S32D0000DFE8002B31D0BB6B1B68002B0AD1584B9B6A574A23F006039362554B554A9B6A9362A0E0BB6B1B68012B48
S32D0000E0100CD1514B9B6A504A23F0060393624E4B9B6A4D4A43F0020393628FE0BB6B1B68022B0AD1484B9B6A9F
S32D0000E038474A23F006039362454B454A9B6A936280E005237B647DE040F60A237B6479E0BB6B002B02D10C234D
S32D0000E0607B6473E03C4BDB6A3B4A43F00063D36200BF394BDB6A03F00063002B14BF01230023DBB2002BF4D1A4
S32D0000E088334B1B6B03F08003002B14BF01230023DBB2002B08D02E4B1B6B2D4A43F0800313637B6B00221A60F7
S32D0000E0B0294B5B6A03F48033002B14BF01230023DBB2002B07D07B6B1B68002B06D17B6B01221A6002E07B6BD5
S32D0000E0D800221A607B6B1A68BB6B1A6032E0BB6B1C221A60BB6B043304221A60BB6B08334FF41E721A6025E0D6
S32D0000E1000220FFF7A3FB144B1B6B03F4E003002B14BF01230023DBB2002B07D00E4B1B6B0D4A43F4E0031363E2
S32D0000E12804237B640A4B1B6B094A43F03203136308E040F609237B6404E000BF02E000BF00E000BF7B6C184666
S32D0000E1504837BD4680BD00BF00100B4080B489B000AF786039607B687B61364B3B613B69002B01D100235FE05C
S32D0000E1783B691B68022B0BD03B691B68032B07D03B691B68072B03D03B691B68082B0BD100BF2B4B5B6A03F0CF
S32D0000E1A00403002B14BF01230023DBB2002BF4D13B68FB613CE0FB69B3F5007F28BF4FF40073FB60FB68033351
S32D0000E1C89B08BB6129E01E4B1B6B03F4E003002B14BF01230023DBB2002B09D0184B1B6B174A43F4E00343F02B
S32D0000E1F02003136300231FE000BF134B5B6A03F40063002B0CBF01230023DBB2002BF4D10D4B1A6A7B69191D5A
S32D0000E21879611A60BB69013BBB61BB69002BD2D1FA69FB68D31AFB61FB69002BBFD1012318462437BD4680BCCC
S32D0000E240704700BF0014002000100B4080B58EB000AFB9607A601A460346FB731346BB73414B7B63FB7B002BED
S32D0000E26802D1BB7B002B01D1042375E03D4B1B78DBB203F00103002B14BF01230023DBB2002B01D0032367E02C
S32D0000E290BB68002B01D1002362E07B6B1B7B002B02D17B685B027B60BB7B012B28D111233B7500237B757B6811
S32D0000E2B8BB6101233B77BB7B3B6207F11403194641F20230FFF7CEFB0346002B0CBF01230023DBB2002B38D09B
S32D0000E2E04FF40071B868FFF739FF0346002B14BF01230023DBB2002B2BD00023BB7328E012233B7500237B757C
S32D0000E3087B68BB6101233B77BB7B3B6207F11403194641F20230FFF7A5FB0346002B0CBF01230023DBB2002B98
S32D0000E3300FD0BB7B5B021946B868FFF70FFF0346002B14BF01230023DBB2002B01D00023BB73BB7B002B01D030
S32D0000E358012300E0002300BF18463837BD4680BDEC1300200400002080B487B000AF786039607B68FB603B68F5
S32D0000E3807B613DE07B69B3F5007F28BF4FF400733B617A693B69D31A7B613B6903339B083B612AE01B4B1B6BD3
S32D0000E3A803F4E003002B14BF01230023DBB2002B0AD0164B1B6B154A43F4E00343F0100313634FF0FF331BE00E
S32D0000E3D000BF104B5B6A03F48063002B0CBF01230023DBB2002BF4D1FB681A1DFA60094A1B6813623B69013B8D
S32D0000E3F83B613B69002BD1D17B69002BBED1012318461C37BD4680BC704700BF00100B4080B58EB000AFB9602C
S32D0000E4207A601A460346FB731346BB735D4B7B63FB7B002B02D1BB7B002B01D10423ACE0594B1B78DBB203F0BF
S32D0000E4480103002B14BF01230023DBB2002B01D003239EE0524B1B78DBB203F00403002B14BF01230023DBB2A7
S32D0000E470002B01D0022390E0BB68002B01D100238BE07B6B1B7B002B02D17B685B027B60BB7B012B28D1182314
S32D0000E4983B7500237B757B68BB6100233B77BB7B3B6207F11403194641F20230FFF7DAFA0346002B0CBF0123EC
S32D0000E4C00023DBB2002B38D04FF40071B868FFF74FFF0346002B14BF01230023DBB2002B2BD00023BB7328E099
S32D0000E4E819233B7500237B757B68BB6100233B77BB7B3B6207F11403194641F20230FFF7B1FA0346002B0CBFAD
S32D0000E51001230023DBB2002B0FD0BB7B5B021946B868FFF725FF0346002B14BF01230023DBB2002B01D0002399
S32D0000E538BB730D233B7500237B757B6B1B69BB6100233B7700233B6207F11403194641F20230FFF787FA0346E6
S32D0000E560002B14BF01230023DBB2002B01D0012313E07A6A0D4B1340002B01D001230CE07B6A03F4F853B3F53E
S32D0000E588106FD6D1BB7B002B01D0012300E0002300BF18463837BD4680BD00BFEC130020040000200880D9FFB8
S32D0000E5B080B58CB000AF03463A60FB710B46BB713A4BBB62FB79002B01D0042369E0012387F82F30364B1B78B9
S32D0000E5D8DBB203F00103002B14BF01230023DBB2002B01D0032358E0BB79032B50D801A252F823F00DE60000E8
S32D0000E60015E6000025E6000035E60000002387F82F3044E0BB6A9A683B681A60002387F82F303CE03B684FF45F
S32D0000E62800721A80002387F82F3034E009233B7200237B72BB6A1B69FB6000233B7400237B6107F10803194683
S32D0000E65041F20230FFF70AFA0346002B14BF01230023DBB2002B01D001231AE07B6A03F44003002B0CD13B6A3C
S32D0000E6789B0C03F07F035A1C7B6A1B0A03F00303013B9A403B681A60002387F82F3002E0042387F82F3097F835
S32D0000E6A02F3018463037BD4680BD00BFEC1300200400002080B483B000AF0346FB71FB79002B01D0012302E0A5
S32D0000E6C8034B1B78DBB218460C37BD4680BC70470400002080B483B000AF7860164B03F580539B6B144A43F04A
S32D0000E6F0010302F580529363124A7B689360114B05225A600F4B1B680E4A43F00103136000BF0C4B1B6803F05F
S32D0000E7188003002B0CBF01230023DBB2002BF4D1064B1B68054A23F00103136000BF0C37BD4680BC704700BF32
S32D0000E740007004400000044080B582B000AF786039607B68012B07D13B684FF6FF72934202D1034800F00EF803
S32D0000E76800BF0837BD4680BD0C16002080B500AF4FF6FF710120FFF7E3FF80BD80B483B000AF78607B68002241
S32D0000E7901A707B6818460C37BD4680BC7047000080B582B000AF78607B681B7883F00103DBB2002B21D0134B75
S32D0000E7B803F580531A464FF400639362104B4FF440721A620E4B4FF440725A620D4B1B68DA0F13445B104FF4CE
S32D0000E7E0614219460A48FEF7FBFB642000F05CF87B6801221A70012300E0002318460837BD4680BD00700440BC
S32D0000E80800D004401016002000B00E4080B487B000AFF860B9607A60FB681F4AA2FB03239B09BA6813447B619D
S32D0000E830FB681B4AA2FB031292094FF47A7101FB02F29B1AFB60FB68DB03154AA2FB03239B097A6813443B619B
S32D0000E8583B69DB0B7A6913447B613B69C3F30E033B6100BF0D4B1B687A699A4209D80B4B1B687A699A4206D142
S32D0000E880084B5B683A699A4201D9012300E00023002BEBD100BF00BF1C37BD4680BC7047D34D621000D0034081
S32D0000E8A880B584B000AF7860074B1B68FB60064B5B68BB607B68BA68F9681846FFF7A6FF00BF1037BD4680BD4E
S32D0000E8D000D0034080B584B000AFC7E900010E4B1B68FB600C4B5B68BB604FF000020B4BD7E9000104F05EF830
S32D0000E8F802460B461046194604F030FB0346BA68F9681846FFF782FF00BF1037BD4680BD00D0034000408F407C
S32D0000E92080B483B000AF0B4B1B684FF47A7202FB03F37B60074B5B684FF47A7202FB03F3DB0B7A6813447B60AC
S32D0000E9487B6818460C37BD4680BC704700D0034080B584B000AF78600B46FB700B23FB73FA7BFB7819467868A5
S32D0000E97000F07CF87B6818461037BD4680BD000080B485B000AF78607B68103B002B00DA1F335B11FB60FB68AE
S32D0000E998022B43D0FB68022B5DDCFB68002B03D0FB68012B1DD056E02D4BD3F880317A68103A02F01F020121E0
S32D0000E9C001FA02F21146284A0B43C2F88031264B1B687A68103A02F01F02012101FA02F21146214A0B431360F1
S32D0000E9E839E01F4BD3F884317A68103A02F01F02012101FA02F21146194A0B43C2F88431174B5B687A68103AE6
S32D0000EA1002F01F02012101FA02F21146124A0B4353601CE0104BD3F888317A68103A02F01F02012101FA02F2D5
S32D0000EA3811460B4A0B43C2F88831094B9B687A68103A02F01F02012101FA02F21146044A0B43936000BF00BF38
S32D0000EA601437BD4680BC704700E100E080B584B000AF78600B46FB701346BB707B68FA781A70BB78FB737B68F3
S32D0000EA881B781A46574B9B5C042B00F2A68001A252F823F0B1EA0000FDEA000049EB0000E1EB000095EB00008B
S32D0000EAB0FB7B1B0403F470234D497A68127810464C4A52F8202043F4897343F0010341F82230494B5A697B6872
S32D0000EAD81B781946454B53F8213003F01F03012101FA03F3DB43424913404B616720FFF743FF72E0FB7B1B047C
S32D0000EB0003F470233D497A6812781046394A52F8202043F4897343F0010341F82230384B5A697B681B781946F8
S32D0000EB28324B53F8213003F01F03012101FA03F3DB43314913404B616820FFF71DFF4CE0FB7B1B0403F4702302
S32D0000EB502C497A6812781046264A52F8202043F4897343F0010341F82230274B5A697B681B7819461F4B53F8B2
S32D0000EB78213003F01F03012101FA03F3DB43204913404B616920FFF7F7FE26E0FB7B1B0403F470231B497A6891
S32D0000EBA012781046134A52F8202043F4897343F0010341F82230164B5A697B681B7819460C4B53F8213003F0AC
S32D0000EBC81F03012101FA03F3DB430F4913404B616B20FFF7D1FE00E000BF00BF1037BD4680BD00BF5499010093
S32D0000EBF0009004409899010000F00F4000A0044040F00F4000B0044080F00F4000D0044000F10F40B0B48BB0A9
S32D0000EC1800AF224B3C1D1D460FCD0FC495E80F0084E80F0000237B622FE01D4BD3F8A0207B6A9B0028333B44E4
S32D0000EC4053F8243C012101FA03F31340002B14BF01230023DBB2002B18D0144A7B6A52F823305A1C11497B6A1B
S32D0000EC6841F823200E4BD3F8A0207B6A9B0028333B4453F8243C012101FA03F308491340C1F8A0307B6A0133C0
S32D0000EC907B627B6A072BCCDD00BF00BF2C37BD46B0BC70479C9A010000A004403C160020B0B489B000AF224B6C
S32D0000ECB83C1D1D460FCD0FC495E8030084E803000023FB612FE01D4BD3F8A020FB699B0020333B4453F81C3CDF
S32D0000ECE0012101FA03F31340002B14BF01230023DBB2002B18D0FB690833134A52F823200132114941F8232029
S32D0000ED080E4BD3F8A020FB699B0020333B4453F81C3C012101FA03F308491340C1F8A030FB690133FB61FB69ED
S32D0000ED30052BCCDD00BF00BF2437BD46B0BC7047BC9A010000B004403C160020B0B48DB000AF234B3C461D467D
S32D0000ED580FCD0FC40FCD0FC495E8070084E807000023FB622FE01D4BD3F8A020FB6A9B0030333B4453F8303C1D
S32D0000ED80012101FA03F31340002B14BF01230023DBB2002B18D0FB6A0E33134A52F823200132114941F8232081
S32D0000EDA80E4BD3F8A020FB6A9B0030333B4453F8303C012101FA03F308491340C1F8A030FB6A0133FB62FB6A25
S32D0000EDD00A2BCCDD00BF00BF3437BD46B0BC7047D49A0100009004403C160020B0B487B000AF214B3C461D46D8
S32D0000EDF80FCD0FC42B68236000237B612FE01D4BD3F8A0207B699B0018333B4453F8183C012101FA03F31340D9
S32D0000EE20002B14BF01230023DBB2002B18D07B691933134A52F823200132114941F823200E4BD3F8A0207B69F4
S32D0000EE489B0018333B4453F8183C012101FA03F308491340C1F8A0307B6901337B617B69042BCCDD00BF00BF2A
S32D0000EE701C37BD46B0BC7047009B010000D004403C16002080B483B000AF78607B681B781A46044B53F8223029
S32D0000EE9818460C37BD4680BC704700BF3C16002080B483B000AF78600B46FB707B68FA781A707B6818460C3777
S32D0000EEC0BD4680BC7047000080B586B000AF78607B681B781A46234B53F822303B617B681B781A46204B9B5C87
S32D0000EEE8FB733B69DBB203F01F03DAB21D4B1A723B69DBB203F01F03DAB21A4B5A72FB7B002B13D11749184880
S32D0000EF1000F0D0F900BF164B1B6803F08003802B14BF01230023DBB2002BF4D1104B1B697B6112E00D490F4865
S32D0000EF3800F0BCF900BF0D4B1B6803F08003802B14BF01230023DBB2002BF4D1074B1B697B617B691846183771
S32D0000EF60BD4680BD189A0100749901002C16002000B0034000B00B4098B500AF204B5C221A701F4B10225A705D
S32D0000EF881D4B41F234225A801B4B45F278629A80194B10229A71184B0722DA71164B4FF4C022DA60144B1F2227
S32D0000EFB01A72134B1F225A721149124800F07AF90F49114800F076F90F4800F0D4F80D4800F0D1F80A490C484D
S32D0000EFD800F06CF90849094800F068F9094A064B14460FCB84E80F00064B5C221A70054B0422DA7100BF98BD42
S32D0000F0001C16002000B0034000B00B402C16002080B500AF064B1B680133054A136000F03DF8044B0122C3F840
S32D0000F0280C2100BF80BD00BFC01600200070034080B500AF0C4B01221A600C4800F01AF8094B0322C3F808219E
S32D0000F050094BD3F88831084A43F01003C2F88831054B9B68044A43F01003936000BF80BD00700340A0860100FF
S32D0000F07800E100E080B483B000AF7860044A7B68C2F8003100BF0C37BD4680BC704700BF0070034080B584B0CC
S32D0000F0A000AF184B1B68FB6023E0FB685B78FB71FB689B68184600F027F80346BB71BB79002B13D0FB685B68FD
S32D0000F0C8012B0FDDFB689B681B69BB6007E0BB685B685A1CBB685A60BB681B69BB60BB68002BF4D1FB68DB6862
S32D0000F0F0FB60FB68002BD8D100BF00BF1037BD4680BD00BFBC16002080B584B000AF78607868FFF7D9FEF860B5
S32D0000F1187B689B695B78FB72FB7A002B0FD17B68DB68FA689A420ADD7B689B6901225A707B685B685A1C7B6804
S32D0000F1405A60012313E0FB7A012B0FD17B689B68FA689A420ADA7B689B6900225A707B685B685A1C7B685A60BB
S32D0000F168012300E0002318461037BD4680BD80B485B000AF78607B681B6A23F040027B681A627B685B6A23F0A6
S32D0000F1900B027B685A627B685B6A43F007027B685A627B685B6A43F080027B685A6200BF7B681B6803F080038B
S32D0000F1B8002B0CBF01230023DBB2002BF4D17B685B6A03F04003402B0CBF01230023DBB2002B01D0012364E023
S32D0000F1E00023FB817B68DB6CFB817B689B6C9AB2FB891344FB817B685B6C9AB2FB891344FB817B681B6C9AB22C
S32D0000F208FB891344FB817B68DB6B9AB2FB891344FB817B689B6B9AB2FB891344FB81FB895B08FB81FB896FEAE9
S32D0000F23043436FEA5343FB81FA897B68DA620023FB817B68DB6EFB817B689B6E9AB2FB891344FB817B685B6E9B
S32D0000F2589AB2FB891344FB817B681B6E9AB2FB891344FB817B68DB6D9AB2FB891344FB817B689B6D9AB2FB894D
S32D0000F2801344FB81FB895B08FB81FB896FEA43436FEA5343FB81FA897B681A637B685B6A23F080027B685A629D
S32D0000F2A8002318461437BD4680BC704780B483B000AF786039603B681B781A467B689A603B685B781A467B68C3
S32D0000F2D0DA603B685B881A467B689A613B689B881A467B68DA613B689B791A467B681A623B68DB791A467B681E
S32D0000F2F85A623B68DA687B681A653B681B7A1A467B681A603B685B7A1A467B685A6000BF0C37BD4680BC704783
S32D0000F32080B483B000AF78607B6818460C37BD4680BC704780B582B000AF786039607B68012B07D13B684FF601
S32D0000F348FF72934202D10348FFF7E6FF00BF0837BD4680BDC416002080B500AF4FF6FF710120FFF7E3FF80BD51
S32D0000F37080B582B000AF7860B84B4FF48072DA60B74B4FF480729A64B54B4FF480721A64B34B4FF480725A6436
S32D0000F398B14B4FF48072DA60B04B5B69AF4A43F008035361AE4B5B69AD4A43F480235361AB4B5B69AA4A43F40B
S32D0000F3C080335361A84B5B69A74A43F400335361A54B1B68A44A43F008031360A24B5B69A14A43F00803536152
S32D0000F3E89E4B1B689D4A43F0080313609A4B4FF480725A62984B4FF480721A62954B4FF480721A61934B4FF4D8
S32D0000F41080725A61914B4FF480729A618F4B4FF48072DA618D4B4FF480721A638B4B4FF480725A63894B4FF462
S32D0000F43880729A63874B4FF48072DA63854B4FF480721A64834B4FF480725A64814B4FF480729A647F4B4FF423
S32D0000F4608072DA64814B4FF480721A607F4B4FF480729A607D4B4FF48072DA607B4B4FF480721A61784B5B69A6
S32D0000F488774A43F440735361744B5B69734A43F47F2343F0F0035361734B5B69724A43F01D035361E2217868DC
S32D0000F4B000F052FD1D21786800F0F4FD0221786800F0F0FD0421786800F0ECFDE021786800F042FD0121786820
S32D0000F4D800F0E4FD6420FFF7E3F9E021786800F037FD0321786800F0D9FD0121786800F02FFD0120FFF7D4F90E
S32D0000F500E621786800F028FD0121786800F0CAFDA021786800F0C6FDFF21786800F0C2FDB021786800F018FD6F
S32D0000F5281C21786800F0BAFD0F21786800F0B6FD0121786800F0B2FD3F21786800F0AEFD0021786800F0AAFD2A
S32D0000F550EF21786800F0A6FD0021786800F0A2FDB421786800F0F8FC0121786800F09AFD9921786800F096FD3B
S32D0000F5780021786800F092FD4521786800F08EFD0221786800F08AFD0021786800F086FD0021786800F082FDC6
S32D0000F5A00021786800F07EFDB621786800F0D4FC0121786800F076FD0921786800F072FD0021786800F06EFD30
S32D0000F5C80E21786800F06AFD0221786800F066FD0021786800F062FD0021786800F05EFDBA21786800F0B4FC62
S32D0000F5F00F21786800F056FD6420FFF755F93A21786800F0A9FC6021786800F04BFD2A21786800F0A1FC002190
S32D0000F618786800F043FD0021786800F03FFD0121786800F03BFD3F21786800F037FD2B21786800F08DFC002133
S32D0000F640786800F02FFD0021786800F02BFD0021786800F027FDEF2178680BE000B0044000A0044080F00F4000
S32D0000F66840F00F4000C00440C0F00F4000F016FD3621786800F06CFC0021786800F00EFDF021786800F064FC23
S32D0000F6900421786800F006FDB821786800F05CFC0F21786800F0FEFC0121786800F0FAFC314B1B68304A43F0C5
S32D0000F6B8080313606420FFF7F3F83621786800F047FC0021786800F0E9FCF021786800F03FFC0421786800F0F0
S32D0000F6E0E1FC0121786800F0C0F91E226F21786800F082F8AF225621786800F0DDF80021786800F00EFA012350
S32D0000F70801221C49786800F02FFA2921786800F01FFC6420FFF7C4F8BE21786800F018FC0E21786800F0BAFC6F
S32D0000F730F021786800F0B6FC0121786800F0B2FC0021786800F0AEFC0021786800F0AAFC0F21786800F0A6FCA4
S32D0000F758786800F049FA0121786800F0DEF90021786800F0B3F900BF0837BD4680BD00BF40F00F40149B0100DE
S32D0000F78080B582B000AF78607B680022DA617B6801221A627B680E225A607B681A229A607B6800225A617B6822
S32D0000F7A800229A617B684FF4A072DA607B68F0221A617B6800221A70786801F0A3F97B6818460837BD4680BD78
S32D0000F7D080B582B000AF7860064B1B78002B05D1044B01221A707868FFF7C2FD00BF0837BD4680BD0C17002026
S32D0000F7F880B58AB002AFF860B9607A607E23009362237A68B968F86800F037FE40F24E733B610023FB613FE00A
S32D0000F8200023BB6131E0FB690133224AD35C002B06D1FF23FB75FF23BB75FF237B7512E0FB6901331B4AD35C21
S32D0000F848012B06D1D423FB750023BB7526237B7505E0B523FB75BA23BB75B0237B757B7DBA7DF97DF86800F0AA
S32D0000F870D7F80246FB68DA61F86801F047F9F86801F080F8BB690133BB610A4AFB6913441B781A46BB699342EC
S32D0000F898C5DBFB690233FB61FA693B699A42BBDB00BF00BF2037BD4680BD00BF0800002080B58AB002AFF860C0
S32D0000F8C0B9607A602723009395237A68B968F86800F0D7FD40F2E6333B610023FB613FE00023BB6131E0FB6932
S32D0000F8E80133224AD35C002B06D1FF23FB75FF23BB75FF237B7512E0FB6901331B4AD35C012B06D10023FB7577
S32D0000F9100023BB7500237B7505E0D423FB750023BB7526237B757B7DBA7DF97DF86800F077F80246FB68DA6141
S32D0000F938F86801F0E7F8F86801F020F8BB690133BB610A4AFB6913441B781A46BB699342C5DBFB690233FB6104
S32D0000F960FA693B699A42BBDB00BF00BF2037BD4680BD00BF5807002080B485B000AF78600B46FB70FB78062B5D
S32D0000F98829D801A252F823F0B5F90000ADF90000BBF90000C3F90000CBF90000D1F90000D9F900006FF07F430B
S32D0000F9B0FB6014E00023FB6011E04FF47F03FB600DE04FF47F43FB6009E0FF23FB6006E04FF41903FB6002E016
S32D0000F9D8044BFB6000BFFB6818461437BD4680BC704700BF9999990080B584B000AF786039603B681B0CFB734B
S32D0000FA003B681B0ABB733B687B737B7BBA7BF97B786800F005F8034618461037BD4680BD80B487B000AF7860C5
S32D0000FA28084611461A460346FB700B46BB7013467B70FB789B08DBB27B61BB789B08DBB23B617B789B08DBB296
S32D0000FA50FB607B691A033B699B011A43FB68134318461C37BD4680BC704780B582B000AF78600B46FB70FB7812
S32D0000FA7819467868FFF77CFF03461946786800F004F800BF0837BD4680BD80B582B000AF7860396039687868F6
S32D0000FAA0FFF7A6FF02467B681A62786801F02EF8786800F08FFB00BF0837BD4680BD80B582B000AF7860786899
S32D0000FAC800F084FB00BF0837BD4680BD80B582B000AF78600B46FB70FB7819467868FFF747FF03461946786843
S32D0000FAF000F004F800BF0837BD4680BD80B582B000AF7860396039687868FFF771FF02467B681A62786800F0D9
S32D0000FB18F9FF00BF0837BD4680BD80B582B000AF78600B46FB70FB7819467868FFF720FF03461946786800F0A0
S32D0000FB4004F800BF0837BD4680BD80B582B000AF7860396039687868FFF74AFF02467B68DA61786800F0D2FF0F
S32D0000FB6800BF0837BD4680BD80B586B000AFF860B9607A603B6000237B610EE07B69BA6813441B783A687968D1
S32D0000FB90F86800F0B5FD7B680C337B607B6901337B617B69BA6813441B78002BEAD100BF00BF1837BD4680BD71
S32D0000FBB880B592B000AFF860B9607A603B6007F11403BA680749184604F020FC07F114013B687A68F868FFF73C
S32D0000FBE0C7FF00BF4837BD4680BD00BF209B010080B582B000AF7860FDF7A2F967210120FDF70DF900210220D5
S32D0000FC08FDF709F9A0210320FDF705F950210420FDF701F920210520FDF7FDF820210620FDF7F9F87721072025
S32D0000FC30FDF7F5F800210820FDF7F1F800210920FDF7EDF800210A20FDF7E9F804210B20FDF7E5F87B684FF019
S32D0000FC58FF32DA637B684FF0FF321A6400BF0837BD4680BD0000000080B586B000AFF860B9607A600020FDF788
S32D0000FC80F0F80346FB75FB7D03F00203002B00F0CC80FDF703F9E020FDF7B4F80220FEF703FEFDF709F901201F
S32D0000FCA8FEF7FEFDFDF7F6F8A520FDF7A7F80120FEF7F6FDFDF7C9F803461B02BB82FDF7C4F803461A46BB8A05
S32D0000FCD01343BB82FDF7BDF803461B027B82FDF7B8F803461A467B8A13437B82BB8A1B09BB827B8A1B097B82F6
S32D0000FCF8FDF7DEF8FB68DB6BB3F1FF3F34D1FB681B6CB3F1FF3F2FD1BA8AFB68DA637A8AFB681A647B8AC3F532
S32D0000FD207F630F337B82BB8A184602F0D9FD48A3D3E9002302F03EFE02460B461046194603F030F90246BB685C
S32D0000FD481A607B8A184602F0C7FD41A3D3E9002302F02CFE02460B461046194603F01EF902467B681A605AE0E4
S32D0000FD70FB68DA6BBB8AD31A1946F86800F072F80346632B0CDCFB681A6C7B8AD31A1946F86800F067F8034681
S32D0000FD98632B01DC012300E00023002B2FD0BA8AFB68DA637A8AFB681A647B8AC3F57F630F337B82BB8A184637
S32D0000FDC002F08EFD22A3D3E9002302F0F3FD02460B461046194603F0E5F80246BB681A607B8A184602F07CFD41
S32D0000FDE81BA3D3E9002302F0E1FD02460B461046194603F0D3F802467B681A600FE0BB68154A1A607B68144AA3
S32D0000FE101A60FB684FF0FF32DA63FB684FF0FF321A64002310E001230EE0BB680C4A1A607B680B4A1A60FB68BC
S32D0000FE384FF0FF32DA63FB684FF0FF321A64002318461837BD4680BD144001144001B43F1EE0011EE001AE3F06
S32D0000FE60000080BF80B483B000AF786039603B68002B02DA3B685B423B603B6818460C37BD4680BC704780B5BA
S32D0000FE8884B000AF786039600023FB60786800F060FA11E07B6859697B689869FB683A6813441B7802467868BF
S32D0000FEB000F00CFC786800F064FAFB680133FB60FB683A6813441B78002BE7D100BF00BF1037BD4680BD80B500
S32D0000FED882B000AF78600B46FB70786800F039FA7B6859697B689A69FB78786800F0EAFB786800F042FA00BF06
S32D0000FF000837BD4680BD80B582B000AF78603960786800F022FA39687868FFF7B4FF786800F006FA00BF0837E9
S32D0000FF28BD4680BD80B582B000AF78600B46FB70786800F00EFAFB7819467868FFF7C7FF786800F0F1F900BF02
S32D0000FF500837BD4680BD000080B483B000AF78600B46FB704D4B1B684C4A23F0080313604B4B1B684A4A23F454
S32D0000FF7880231360484B1B68474A43F480331360454B1B68444A23F440731360414B1B68404A23F4435323F00A
S32D0000FFA0300313603E4B1A68FB785B0203F400733B4913430B603A4B1A68FB785B101B0203F480733649134342
S32D0000FFC80B60344B1A68FB789B101B0103F01003304913430B602F4B1A68FB78DB105B0103F020032B4913438F
S32D0000FFF00B602A4B1A68FB781B119B0103F04003264913430B60254B1A68FB785B11DB01DBB2224913430B607A
S32D00010018204B1A68FB789B111B0303F480531D4913430B601B4B1A6897F90330DB115BB25B0303F400531749F2
S32D0001004013430B60164B1B68154A23F400331360134B1B68124A43F4003313600F4B1B680E4A43F008031360D0
S32D000100680D4B1B680C4A43F440731360094B1B68084A43F4435343F030031360064B1B68054A43F4802313609C
S32D0001009000BF0C37BD4680BC704700BF80F00F4040F00F4080B483B000AF78600B46FB70464B1B68454A23F0EC
S32D000100B808031360444B1B68434A43F480331360414B1B68404A43F4802313603E4B1B683D4A23F440731360E9
S32D000100E03A4B1B68394A23F4435323F030031360374B1A68FB785B0203F40073344913430B60334B1A68FB7811
S32D000101085B101B0203F480732F4913430B602D4B1A68FB789B101B0103F01003294913430B60284B1A68FB7848
S32D00010130DB105B0103F02003244913430B60234B1A68FB781B119B0103F040031F4913430B601E4B1A68FB782D
S32D000101585B11DB01DBB21B4913430B60194B1A68FB789B111B0303F48053164913430B60144B1A6897F90330CD
S32D00010180DB115BB25B0303F40053104913430B600F4B1B680E4A23F4003313600C4B1B680B4A43F40033136097
S32D000101A8084B1B68074A43F008031360064B1B68054A23F48023136000BF0C37BD4680BC704700BF80F00F408A
S32D000101D040F00F4080B586B000AF78607B6800225A617B6800229A617B681B6AFB60FB68FB72FB681B0ABB7287
S32D000101F8FB681B0CDBB203F003037B722A217868FFF7A6FE00217868FFF748FF00217868FFF744FF012178689C
S32D00010220FFF740FF3F217868FFF73CFF2B217868FFF792FE00217868FFF734FF00217868FFF730FF0021786806
S32D00010248FFF72CFFEF217868FFF728FF2C217868FFF77EFE314B1B68304A23F4407313602F4B1B682E4A23F478
S32D000102707F2323F0F00313602C4B1B682B4A23F01D031360274B1A687B681B6B254913430B60254B1A687B68CE
S32D000102985B6B234913430B60224B1A687B689B6B204913430B601E4B1B681D4A23F0080313601A4B1B68194A13
S32D000102C043F48023136000237B6118E000233B610EE0144B1B68134A23F400331360114B1B68104A43F400337F
S32D000102E813603B6901333B613B69B3F5A07FECD37B6901337B617B69EF2BE3D9084B1B68074A43F00803136050
S32D00010310044B1B68034A23F48023136000BF1837BD4680BD40F00F4080F00F40C0F00F4080B483B000AF7860F9
S32D000103387B689B69002B07DD7B685B695A1C7B685A617B6800229A6100BF0C37BD4680BC704780B582B000AFD7
S32D0001036078607B685A697B685B689A4205DB7B6800225A617868FFF72DFF00BF0837BD4680BD80B582B000AF78
S32D0001038878607B689B695A1C7B689A617B689A697B689B689A4205D17868FFF7C5FF7868FFF7D7FF00BF083771
S32D000103B0BD4680BD80B586B002AFF860B9607A600123009301237A68B968F86800F059F8F86800F0D7FA00BF18
S32D000103D81037BD4680BD80B485B000AF786039607B681B68FB603B681A687B681A603B68FA681A6000BF14371A
S32D00010400BD4680BC704780B586B002AFF860B9607A603B60BA683B681A447B68009313467A68B968F86800F090
S32D00010428ABF8BA683B68D118BA683B68D0187A68BB691344009303467A68F86800F09CF8BA683B68D1187A6818
S32D00010450BB69D0187A68BB6913440093BB680246F86800F08DF87A68BB691A447B680093BB68B968F86800F0D3
S32D0001047883F800BF1037BD4680BD80B588B000AFF860B9607A603B60FB681B78022B03D0FB681B78032B11D196
S32D000104A07B68FB61BA6AFB691344013BBB61FB68DA68BB68D31A3B613B683A69D31A01337B610DE0BB68FB61B7
S32D000104C83A68FB691344013BBB617B687B61BA6A7B691344013B3B612A21F868FFF738FDFB691B0ADBB203F07B
S32D000104F00F03DBB21946F868FFF7D4FDFB69DBB21946F868FFF7CEFDBB691B0ADBB203F00F03DBB21946F86820
S32D00010518FFF7C4FDBB69DBB21946F868FFF7BEFD2B21F868FFF714FD7B691B0ADBB203F00F03DBB21946F86842
S32D00010540FFF7B0FD7B69DBB21946F868FFF7AAFD3B691B0ADBB203F00F03DBB21946F868FFF7A0FD3B69DBB2B1
S32D000105681946F868FFF79AFD2C21F868FFF7F0FC00BF2037BD4680BD90B58BB000AFF860B9607A603B603A687C
S32D00010590BB68D31A1946F868FFF764FCF861BA6B7B68D31A1946F868FFF75CFCB861BA69FB699A42CCBF012391
S32D000105B80023FB75FB7D002B0CD03A1D07F1080311461846FFF707FF3B4607F138011846FFF701FFBA683B682C
S32D000105E09A420CDD3A4607F1080311461846FFF7F6FE3B1D07F138011846FFF7F0FE3A68BB689A4206D1BB689F
S32D000106087A681946F868FFF7D1FE55E0BA6B7B68D31A184602F0CCFD04463A68BB68D31A184602F0C5FD0346C3
S32D000106301946204602F0C8FE03463B617B68184602F0BAFD03467B62BB683B6234E0FB7D002B14D0786A02F0FA
S32D0001065855F94FF000021A4B01F0F2FF02460B461046194602F052FC03463A6A1946F868FFF79CFE13E0786AFE
S32D0001068002F040F94FF000020F4B01F0DDFF02460B461046194602F03DFC03461A46396AF868FFF787FE396976
S32D000106A8786A02F0D1FC03467B623B6A01333B623B683A6A9A42C6DD2C37BD4690BD00BF0000E03F80B584B026
S32D000106D000AFF860B9607A60FB707A6813465B0013449B00991CBA6813461B011344DA1CFB78F86800F004F8B6
S32D000106F800BF1037BD4680BD80B58EB002AFF860B9607A60FB70FB780A2B06D1F868FFF720FEF868FFF708FE64
S32D00010720F2E0FB787D2B02D8FB781F2B01D82023FB70FB78203BFB70112300930C237A68B968F868FFF79DFE7C
S32D00010748FA7813469B0013446F4AD35C3B75FA7813469B00134401336B4AD35C7B75FA7813469B001344023376
S32D00010770674AD35CBB75FA7813469B0013440333634AD35CFB75FA7813469B00134404335F4AD35C3B7600236B
S32D00010798BB629FE0F86800F053F9F86800F0B6F8002387F82F3000237B6234E007F114027B6A13441B7803F017
S32D000107C00103002B14BF01230023BB76BB7E002B11D097F82F3083F00103DBB2002B03D0F86800F0CFF802E062
S32D000107E8F86800F093F8F86800F090F80DE097F82F30002B03D0F86800F022F902E0F86800F084F8F86800F0ED
S32D0001081081F8BB7E87F82F307B6A01337B627B6A042BC7DD97F82F30002B03D0F86800F00BF902E0F86800F009
S32D000108386DF8F86800F06AF8002387F82F3000233B6241E007F114023B6A13441B7803F00103002B14BF0123E2
S32D000108600023FB76FB7E002B11D097F82F3083F00103DBB2002B03D0F86800F083F802E0F86800F047F8F868C4
S32D0001088800F044F80DE097F82F30002B03D0F86800F0D6F802E0F86800F038F8F86800F035F8FB7E87F82F30E8
S32D000108B007F114023B6A13441B785B08D9B207F114023B6A13440A461A703B6A01333B623B6A042BBADDBB6AA4
S32D000108D80133BB62BB6A062B7FF75CAFF86800F0AFF8002387F82F300123FB6105E0F86800F00CF8FB69013380
S32D00010900FB61FB69232BF6DD3037BD4680BD00BF400B002080B483B000AF7860174B1B68164A43F48033136086
S32D00010928154B1B68144A23F008031360114B1B68104A43F4802313600E4B1B680D4A23F4003313600B4B1B687F
S32D000109500A4A43F400331360094B1B68084A43F008031360054B1B68044A23F48023136000BF0C37BD4680BCDE
S32D00010978704700BF40F00F4080F00F4080B483B000AF78602B4B1B682A4A43F480331360294B1B68284A23F068
S32D000109A008031360254B1B68244A43F480231360224B1B68214A23F440731360204B1B681F4A23F47F2323F041
S32D000109C8F00313601D4B1B681C4A23F01D031360184B1A687B685B6A164913430B60164B1A687B689B6A1449CE
S32D000109F013430B60134B1A687B68DB6A114913430B600E4B1B680D4A23F4003313600B4B1B680A4A43F400336D
S32D00010A181360094B1B68084A43F008031360054B1B68044A23F48023136000BF0C37BD4680BC704740F00F409D
S32D00010A4080F00F40C0F00F4080B483B000AF78602B4B1B682A4A43F480331360294B1B68284A23F00803136017
S32D00010A68254B1B68244A43F480231360224B1B68214A23F440731360204B1B681F4A23F47F2323F0F003136090
S32D00010A901D4B1B681C4A23F01D031360184B1A687B681B6B164913430B60164B1A687B685B6B144913430B6028
S32D00010AB8134B1A687B689B6B114913430B600E4B1B680D4A23F4003313600B4B1B680A4A43F400331360094BDD
S32D00010AE01B68084A43F008031360054B1B68044A23F48023136000BF0C37BD4680BC704740F00F4080F00F40DD
S32D00010B08C0F00F4080B485B000AF78607B681B6AFB60FB68FB72FB681B0ABB72FB681B0CDBB203F003037B728A
S32D00010B307B6800225A627B6800229A627B680022DA627B6800221A637B6800225A637B6800229A637B681A6BE5
S32D00010B58FB7A5B0203F400731A437B681A637B681A6BFB7A5B101B0203F480731A437B681A637B685A6BFB7A4C
S32D00010B809B101B0103F010031A437B685A637B685A6BFB7ADB105B0103F020031A437B685A637B685A6BFB7AE8
S32D00010BA81B119B0103F040031A437B685A637B685A6BFB7A5B11DB01DBB21A437B685A637B685A6BFB7A9B116B
S32D00010BD01B0303F480531A437B685A637B685A6B97F90B30DB115BB25B0303F400531A437B685A637B685A6B58
S32D00010BF8BB7A9B0303F480431A437B685A637B685A6BBB7A5B10DB039BB21A437B685A637B685A6BBB7A9B104C
S32D00010C201B0403F480331A437B685A637B685A6BBB7ADB105B0403F400331A437B685A637B685A6BBB7A1B1188
S32D00010C489B0403F480231A437B685A637B685A6BBB7A5B11DB0403F400231A437B685A637B689A6BBB7A9B113F
S32D00010C7003F001031A437B689A637B689A6B97F90A30DB115BB29B0003F004031A437B689A637B689A6B7B7AC7
S32D00010C98DB0003F008031A437B689A637B689A6B7B7A5B101B0103F010031A437B689A637B68DB69FB60FB688B
S32D00010CC0FB72FB681B0ABB72FB681B0CDBB203F003037B727B685A6AFB7A5B0203F400731A437B685A627B6824
S32D00010CE85A6AFB7A5B101B0203F480731A437B685A627B689A6AFB7A9B101B0103F010031A437B689A627B68EE
S32D00010D109A6AFB7ADB105B0103F020031A437B689A627B689A6AFB7A1B119B0103F040031A437B689A627B6829
S32D00010D389A6AFB7A5B11DB01DBB21A437B689A627B689A6AFB7A9B111B0303F480531A437B689A627B689A6AEF
S32D00010D6097F90B30DB115BB25B0303F400531A437B689A627B689A6ABB7A9B0303F480431A437B689A627B6829
S32D00010D889A6ABB7A5B10DB039BB21A437B689A627B689A6ABB7A9B101B0403F480331A437B689A627B689A6A7E
S32D00010DB0BB7ADB105B0403F400331A437B689A627B689A6ABB7A1B119B0403F480231A437B689A627B689A6A8B
S32D00010DD8BB7A5B11DB0403F400231A437B689A627B68DA6ABB7A9B1103F001031A437B68DA627B68DA6A97F9E4
S32D00010E000A30DB115BB29B0003F004031A437B68DA627B68DA6A7B7ADB0003F008031A437B68DA627B68DA6AE7
S32D00010E287B7A5B101B0103F010031A437B68DA6200BF1437BD4680BC704780B483B000AF78607B6818460C372B
S32D00010E50BD4680BC704780B584B000AFF860B9607A603B60FB682033B968184603F0C4FDFB687A681A60FB6874
S32D00010E783A689A60FB68BA691A61FB68FA695A61FB681A68FB681B691A44FB685A60FB689A68FB685B691A44FC
S32D00010EA0FB68DA60FB683A6A9A61FB687A6ADA61FB680022C3F8E82000BF1037BD4680BDF0B585B002AF786011
S32D00010EC87B689B6919461F48FEF73BFE7B6819687B689A687B6818697B685B69009303461848FFF78CFA7B6831
S32D00010EF0DB6919461548FEF728FE7B6803F120047B681B681D467B681B691E467B682033184603F0D5FE024687
S32D00010F1813465B0013449B00F31A5B082B4418467B689A687B685B69113BD90F0B445B101344024621460348FC
S32D00010F40FEF716FE00BF0C37BD46F0BDC816002080B584B002AF78607B689B6919461F48FEF7F3FD7B681B68DF
S32D00010F68591C7B689B685A1C7B681B69981E7B685B69023B009303461648FFF740FA7B681B68991C7B689B681D
S32D00010F909A1C7B681B69181F7B685B69043B009303460E48FFF72FFA7B681B68D91C7B689B68DA1C7B681B6909
S32D00010FB8981F7B685B69063B009303460548FFF71EFA7B680122C3F8E82000BF0837BD4680BD00BFC816002070
S32D00010FE080B584B002AF786000211F48FEF7ADFD7B681B68D91C7B689B68DA1C7B681B69981F7B685B69063B8C
S32D00011008009303461648FFF7FAF97B681B68991C7B689B689A1C7B681B69181F7B685B69043B009303460E4829
S32D00011030FFF7E9F97B681B68591C7B689B685A1C7B681B69981E7B685B69023B009303460548FFF7D8F97B68AE
S32D000110580022C3F8E82000BF0837BD4680BD00BFC816002080B584B000AFF860B9607A603B60FB681B68184647
S32D0001108002F09AF80246BB681946104602F090FA0346002B00F08180FB685B68184602F08BF80246BB681946F9
S32D000110A8104602F08BFA0346002B72D0FB689B68184602F07DF802467B681946104602F073FA0346002B64D084
S32D000110D0FB68DB68184602F06FF802467B681946104602F06FFA0346002B56D03A1D07F1080319462B48FEF79E
S32D000110F8BBFDFB681B68184602F05AF80246BB681946104602F050FA0346002B3FD0FB685B68184602F04CF8F0
S32D000111200246BB681946104602F04CFA0346002B31D0FB689B68184602F03EF802467B681946104602F034FAE7
S32D000111480346002B23D0FB68DB68184602F030F802467B681946104602F030FA0346002B15D03B68002B10D1EF
S32D00011170FB68D3F8E830002B03D1F868FFF7E8FE07E0FB68D3F8E830002B02D0F868FFF727FF012302E0002300
S32D0001119800E0002318461037BD4680BDC816002080B586B000AFF860B9607A60BB687B617B683B6107E007F180
S32D000111C0100207F1140319460A48FEF751FD79693A690123F868FFF749FF0346002B14BF01230023DBB2002B5E
S32D000111E8E9D100BF00BF1837BD4680BDC8160020B0B592B004AFF860B9607A603B60FB6C7B633B683B63F86CE9
S32D0001121001F066FB02460B464FF000004E4901F011FA02460B4614461D46386D01F058FB02460B462046294645
S32D0001123801F004FA02460B461046194601F0AEFE03463B62386801F047FB02460B464FF00000404901F0F2F9B7
S32D0001126002460B4614461D46B86C01F039FB02460B462046294601F0E5F902460B461046194601F08FFE03466E
S32D00011288FB61786801F094FF03461946386A02F097F80346184602F0A5F90346BB61B86801F086FF03461946D2
S32D000112B0F86902F089F80346184602F097F903467B6100237B620123BB623CE00123FB622CE07B6AEC2202FB13
S32D000112D803F3FA68D0187A6A13469B0013449B001A467B6D9918FB6D0393BB6D02937B690193BB6900933B6B54
S32D000113007A6BFFF7A8FD7B6AEC2202FB03F3FA6813441846FFF7D4FD7B6A01337B627A6BBB6913447B63FB6AE1
S32D000113280133FB62FA6A7B689A42CEDD3A6B7B6913443B63FB6C7B63BB6A0133BB62BA6ABB689A42BEDD00BF81
S32D0001135000BF3837BD46B0BD0000744000006E4080B582B000AF786039607B68012B07D13B684FF6FF729342D2
S32D0001137802D10348FEF700FA00BF0837BD4680BDC816002080B500AF4FF6FF710120FFF7E3FF80BD80B582B0C7
S32D000113A000AF7860164B03F580535B6B144A43F0400302F580525363124B4FF400725A62104B4FF400721A62F8
S32D000113C80F4B14225A700E4B1B7ADBB20C4A43F00103DBB213720A4B80229A7002212B20FBF7A2FC3D212A20DB
S32D000113F0FBF79EFC7B6818460837BD4680BD00BF0070044000C004400060064080B582B000AF786039607B68FB
S32D00011418012B07D13B684FF6FF72934202D10348FFF7B8FF00BF0837BD4680BD1017002080B500AF4FF6FF718A
S32D000114400120FFF7E3FF80BD80B582B000AF78600B46FB707B68FA7811461846FDF724FD7B6818460837BD46FB
S32D0001146880BD000080B582B000AF786039607B68012B08D13B684FF6FF72934203D120210348FFF7DDFF00BF8A
S32D000114900837BD4680BD00BF1417002080B500AF4FF6FF710120FFF7E1FF80BD80B483B000AF78607B680022E4
S32D000114B81A707B6818460C37BD4680BC7047000080B582B000AF78607B681B7883F00103DBB2002B52D07B6869
S32D000114E001221A702A4B03F580535B6B284A43F4806302F580525363264B4FF400725A60244B4FF400729A6021
S32D00011508234B1B684FF4165219462248FBF764FD204BDB78DBB21F4A23F00C03DBB2D3701C4BDB78DBB21B4AAA
S32D0001153043F02003DBB2D370184BDB7ADBB2174A23F02003DBB2D372154BD3F88431144A43F40053C2F8843181
S32D00011558114B5B68104A43F4005353600D4BDB78DBB20C4A43F00C03DBB2D3706420FDF797F97B6801221A7076
S32D00011580012300E0002318460837BD4680BD00BF00700440009004401016002000A0064000E100E080B483B09D
S32D000115A800AF78607B681B7818460C37BD4680BC7047000080B487B000AFF860B9607A60FB700023FB740023FB
S32D000115D07B612CE000BF1C4B1B7883F00103DBB2002BF8D1BA687B691344184A12781A70154B00221A70BA6852
S32D000115F87B6913441B780D2B1AD0FB7C83F00103DBB2002B0CD0BA687B6913441B78FA789A4202D10123FB74AE
S32D0001162002E07B69013B7B617B6901337B617A697B689A42CED300E000BF7B6918461C37BD4680BC704700BF9D
S32D000116482E1700202F17002080B586B000AFF860B9607A6000237B610AE0BA687B6913441B7819460748FBF7CA
S32D000116708AFD7B6901337B617A697B689A42F0D37B6918461837BD4680BD00BF00A0064080B483B000AF786007
S32D000116983960044A3B68136000BF0C37BD4680BC704700BF1817002080B582B000AF3248FBF74CFD0346FB71A0
S32D000116C0304AFB791370304B01221A702F4B1B78022B33D0022B4FDC002B02D0012B14D04AE0FB79FF2B44D1E3
S32D000116E8284B01221A70284B00221A70F979264B1B785A1CD0B2244A10701A46234B995433E0F979204B1B78FA
S32D000117105A1CD0B21E4A10701A461E4B99541C4B1B780D2B27D11C4B1B68194A1278114618489847154B0222F9
S32D000117381A701CE0FB79FF2B10D1124B01221A70114B00221A70F9790F4B1B785A1CD0B20D4A10701A460D4B85
S32D00011760995409E00A4B00221A70084B00221A7002E000BF00E000BF00BF0837BD4680BD00A006402F170020BA
S32D000117882E1700202D1700202C1700201C1700201817002080B582B000AF78607B681846FFF780FE7B68114984
S32D000117B01846FFF76DFF7B684FF0FF325A600E4B4FF000021A600D4B4FF000021A600C4B4FF000021A600B4BAE
S32D000117D800221A600A4B00221A700A4B00221A707B6818460837BD4680BD00BF612301003C1700204017002056
S32D0001180044170020481700204C1700204D17002080B594B000AF786039607B681846FFF7C1FE034683F0010369
S32D00011828DBB2002B03D07B681846FFF749FEA54B1B7883F00103DBB2002B00F00D837B681846FFF73DFE9F4BFA
S32D000118501B7883F00103DBB2002B00F001833B68002B02DA00233B6004E03B680B2B01DD0B233B607B683A68E2
S32D000118785A609548FEF71FF900233B620023FB64002387F84B3064E090498F48FEF7F7FA2B233B752B237B7528
S32D000118A02B23BB757B6807F1140103221846FFF7CFFE3862786807F108014F230A22FFF77DFEF864FB6C012BEC
S32D000118C802D93B7A4F2B41D081497F48FEF717FB80497D48FEF713FB40F6C410FCF7E0FF786807F1080130239D
S32D000118F00A22FFF763FEF864FB6C012B02D93B7A4F2B23D076497248FEF7FDFA75497048FEF7B9FA00237B64D5
S32D000119180BE007F108027B6C13441B7819466A48FEF7D5FA7B6C01337B647B6CFA6C9A42EFD867496448FEF7D2
S32D00011940E2FA69496248FEF7DEFA02E0012387F84B3002E0012387F84B3097F84B3083F00103DBB2002B93D1D6
S32D0001196860495948FEF78BFA00233B640BE007F108023B6C13441B7819465348FEF7A7FA3B6C01333B643B6C9B
S32D00011990FA6C9A42EFD850494D48FEF7B4FA54494B48FEF770FA41233B7554237B754D23BB755923FB757B68D5
S32D000119B85B68002B00DA03339B10DBB23133DBB23B7631237B763023BB767B685B685A4203F0030302F003022D
S32D000119E058BF5342DBB23033DBB2FB760D233B777B6807F1140109221846FFF729FE3862786807F108014F23D9
S32D00011A080A22FFF7D7FDF864FB6C012B02D93B7A4F2B04D035492C48FEF771FA1CE20023FB630BE007F108022E
S32D00011A30FB6B13441B7819462548FEF74CFAFB6B0133FB63FB6BFA6C9A42EFD822492048FEF759FA28491E48D7
S32D00011A58FEF715FA41233B7554237B754923BB754423FB757B685B68002B00DA03339B10DBB23133DBB23B76B2
S32D00011A8030237B763023BB763023FB760D233B777B6807F1140109221846FFF7D9FD3862786807F108014F2397
S32D00011AA80A22FFF787FDF864FB6C012B02D93B7A4F2B04D00D490448FEF721FACCE10023BB6323E0381700208A
S32D00011AD0C8160020489B01005C9B0100609B0100789B0100909B01009C9B0100AC9B0100B49B0100C89B01009D
S32D00011AF8E89B010007F10802BB6B13441B781946B248FEF7E4F9BB6B0133BB63BB6BFA6C9A42EFD8AE49AD486B
S32D00011B20FEF7F1F9AD49AB48FEF7ADF941233B7554237B754423BB754C23FB757B685B68002B00DA03339B10B6
S32D00011B48DBB23133DBB23B7630237B763023BB767B685B685A4203F0030302F0030258BF5342DBB23033DBB21C
S32D00011B70FB760D233B777B6807F1140109221846FFF766FD3862786807F108014F230A22FFF714FDF864FB6C3E
S32D00011B98012B02D93B7A4F2B04D08F498B48FEF7AEF959E100237B630BE007F108027B6B13441B7819468548A9
S32D00011BC0FEF789F97B6B01337B637B6BFA6C9A42EFD881497F48FEF796F982497D48FEF752F941233B75542328
S32D00011BE87B754423BB754823FB7530233B7630237B763023BB763023FB760D233B777B6807F114010922184681
S32D00011C10FFF71EFD3862786807F108014F230A22FFF7CCFCF864FB6C012B02D93B7A4F2B04D06B496748FEF798
S32D00011C3866F911E100233B630BE007F108023B6B13441B7819466148FEF741F93B6B01333B633B6BFA6C9A4257
S32D00011C60EFD85D495B48FEF74EF95F495948FEF70AF941233B7554237B754323BB754823FB7530233B76302385
S32D00011C887B763123BB764123FB760D233B777B6807F1140109221846FFF7D6FC3862786807F108014F230A22A6
S32D00011CB0FFF784FCF864FB6C012B02D93B7A4F2B04D047494348FEF71EF9C9E00023FB620BE007F10802FB6A20
S32D00011CD813441B7819463D48FEF7F9F8FB6A0133FB62FB6AFA6C9A42EFD839493748FEF706F93C493548FEF7D9
S32D00011D00C2F841233B7554237B755723BB755223FB750D233B767B6807F1140105221846FFF796FC3862786898
S32D00011D2807F108014F230A22FFF744FCF864FB6C012B02D93B7A4F2B04D027492348FEF7DEF889E00023BB629B
S32D00011D500BE007F10802BB6A13441B7819461D48FEF7B9F8BB6A0133BB62BB6AFA6C9A42EFD819491748FEF7A4
S32D00011D78C6F81D491548FEF782F841233B7554237B754323BB754E23FB750D233B767B6807F114010522184604
S32D00011DA0FFF756FC3862786807F108014F230A22FFF704FCF864FB6C012B02D93B7A4F2B04D007490348FEF760
S32D00011DC89EF849E000237B621CE000BFC81600205C9B0100FC9B0100C89B0100149C01002C9C0100449C010025
S32D00011DF0589C010007F108027B6A13441B7819461948FEF768F87B6A01337B627B6AFA6C9A42EFD8154914484B
S32D00011E18FEF775F814491248FEF731F8786800F061FA034619460E48FEF77CF80F4B01221A7000BF786800F03C
S32D00011E4063FA0346002B0CBF01230023DBB2002BF4D109490448FEF756F80348FDF72FFE5037BD4680BD00BF40
S32D00011E68C81600205C9B0100709C010038170020949C010080B582B000AF78600B46FB70FB78402B09D9FB78CB
S32D00011E904C2B06D8FB78413B19467868FFF7B8FC0BE0FB78602B08D9FB786C2B05D8FB78613B19467868FFF701
S32D00011EB8ABFC00BF0837BD4680BD0000B0B5ADF50E6D06AF07F6C803A3F6C40318600123C7F8C4380023C7F87E
S32D00011EE0C0380023C7F8BC3807F2BC7300241D4604E02846FEF7A5FF013CEC35002CF8DA07F6C803A3F59073AC
S32D00011F08BD4A1C4615460FCD0FC42B68236007F57E7303241D4604E02846FEF78EFF013CEC35002CF8DA07F67D
S32D00011F30C803A3F5B863B34A18461146F0231A4602F00EFE07F5077300241D4604E02846FEF777FF013CEC35C9
S32D00011F58002CF8DA07F6C803A3F5D86300221A60043300221A605A609A60DA6007F1300301241D4604E028465F
S32D00011F80FEF75FFF013CEC35002CF8DA07F6C803A3F50C639C4A1C4615460FCD0FC40FCD0FC495E8030084E8C7
S32D00011FA803008AE10023C7F8C0380023C7F8BC3800219448FDF769FD0123C7F8B03807F2BC706FF07F430593EC
S32D00011FD00023049307F5F56303930123029301230193C9230093012301220121FFF704F907F57E706FF07F43E7
S32D00011FF805936FF07F43049307F54273039301230293012301930223009328230422D7F8B018FFF7EDF842E0F5
S32D0001202007F6A80207F6AC0319467848FDF720FE0346002B37D00023C7F8B8382FE007F57E72D7F8B838EC21F9
S32D0001204801FB03F3D018D7F8AC18D7F8A8280023FFF708F80346002B14BF01230023DBB2002B13D007F57E722F
S32D00012070D7F8B838EC2101FB03F31344D7F8AC18D7F8A8281846FFF78FF8D7F8B8380133C7F8C038D7F8B838B6
S32D000120980133C7F8B838D7F8B838072BCBDDD7F8C038002BB8D0D7F8C038013B072B63D801A252F823F000BFF4
S32D000120C0E1200100F5200100092101001D2101003121010045210100592101006D210100412387F8B73807F5DD
S32D000120E80273494A07CA03C31A8045E0422387F8B73807F50273454A07CA03C31A803BE0432387F8B73807F57C
S32D000121100273414A07CA03C31A8031E0442387F8B73807F502733D4A07CA03C31A8027E0452387F8B73807F587
S32D000121380273394A07CA03C31A801DE0462387F8B73807F50273354A07CA03C31A8013E0472387F8B73807F593
S32D000121600273314A07CA03C31A8009E0482387F8B73807F502732D4A07CA03C31A8000BF00212248FDF785FC95
S32D0001218807F507706FF07F4305930023049307F5027303930123029301230193C92300933C2301220121FFF7B1
S32D000121B023F807F130006FF07F4305936FF07F43049307F10803039301230293012301933C2300933C230222CD
S32D000121D80121FFF70DF85BE007F6A80207F6AC0319460848FDF740FD0346002B50D00023C7F8B83848E000BF00
S32D00012200589D01006C9D01005C9E0100C8160020F89C0100049D0100109D01001C9D0100289D0100349D01007F
S32D00012228409D01004C9D010007F13002D7F8B838EC2101FB03F3D018D7F8AC18D7F8A8280023FEF70FFF03464E
S32D00012250002B14BF01230023DBB2002B13D007F13002D7F8B838EC2101FB03F31344D7F8AC18D7F8A8281846B0
S32D00012278FEF796FFD7F8B8380133C7F8BC38D7F8B8380133C7F8B838D7F8B838012BCBDDD7F8BC38002B9FD075
S32D000122A0D7F8BC38012B04D0D7F8BC38022B04D007E00023C7F8C43803E00123C7F8C43800BFD7F8C438002B4C
S32D000122C87FF470AE97F8B72807F6C803A3F6C40311461868FFF7CEFD00BF07F6C807BD46B0BD00BF80B483B007
S32D000122F000AF78607B685B68DBB24133DBB218460C37BD4680BC704780B584B000AF7860FCF706FBF86000BF72
S32D00012318104B1B7883F00103DBB2002B09D0FCF7FBFA0246FB68D31AB3F57A7F01D2012300E00023002BEBD19E
S32D00012340064B1B78002B04D0044B00221A70FF2300E0002318461037BD4680BD4E17002080B582B000AF786013
S32D000123680B46FB70424B1B78002B7DD07B6801331B781B027A68023212781344184600F017FF03463B491846A5
S32D0001239001F01AF803463A49184600F057FE03461A46384B1A607B6803331B781B027A680432127813441846E6
S32D000123B800F0FEFE03462F49184601F001F803462D49184600F03EFE03461A462C4B1A607B6805331B781B0253
S32D000123E07A68063212781344184600F0E5FE03462249184600F0E8FF03462149184600F025FE03461A46214B80
S32D000124081A607B6807331B781A067B6808331B781B041A437B6809331B781B0213437A680A32127813431A46AB
S32D00012430174B1A607B68DA7A164B1A707B680C331B78AA2B0CBF01230023DAB2124B1A70124B01221A70104B0B
S32D000124581B78002B08D0104800F052F80F4B1B680E4A23F40053136000BF0837BD4680BD38170020000020410D
S32D000124800000C8443C1700204017002044170020481700204C1700204D1700204E17002050170020C0F00F402B
S32D000124A880B582B000AF786039607B68012B07D13B684FF6FF72934202D10348FFF76AF900BF0837BD4680BDB4
S32D000124D03017002080B500AF4FF6FF710120FFF7E3FF80BD80B483B000AF7860054B00221A60044B00225A60A2
S32D000124F87B6818460C37BD4680BC70475017002080B584B000AF7860154B1B68002B21D00023FB6013E0134AF7
S32D00012520FB6852F82330002B0AD0104AFB6852F823301846FBF757F803461A460C4B1A70FB680133FB60084BBF
S32D000125485B68FA689A42E6DB054B00225A60044B00221A60044B1B7818461037BD4680BD501700205C170020AA
S32D000125705817002080B582B000AF786039607B68012B07D13B684FF6FF72934202D10348FFF7A8FF00BF083758
S32D00012598BD4680BD5017002080B500AF4FF6FF710120FFF7E3FF80BD80B483B000AF78600A4B03F580531B6BEA
S32D000125C0084A43F0010302F580521363064B5B68054A43F03203536000BF0C37BD4680BC704700BF007004403B
S32D000125E800000A4038B5084C4FF41E652846E56001F02CF8A06010B9E060606038BD0023606005604360F9E722
S32D00012610C417002070470000024A0349034800F007B800BF0000002015260100D41700200B460146184601F04A
S32D0001263879BC000081F0004102E000BF83F0004330B54FEA41044FEA430594EA050F08BF90EA020F1FBF54EA51
S32D00012660000C55EA020C7FEA645C7FEA655C00F0E2804FEA5454D4EB5555B8BF6D420CDD2C4480EA020281EAAB
S32D00012688030382EA000083EA010180EA020281EA0303362D88BF30BD11F0004F4FEA01314FF4801C4CEA1131BA
S32D000126B002D0404261EB410113F0004F4FEA03334CEA133302D0524263EB430394EA050F00F0A780A4F101049F
S32D000126D8D5F1200E0DDB02FA0EFC22FA05F2801841F1000103FA0EF2801843FA05F359410EE0A5F120050EF107
S32D00012700200E012A03FA0EFC28BF4CF0020C43FA05F3C01851EBE37101F0004507D54FF0000EDCF1000C7EEBDB
S32D0001272800006EEB0101B1F5801F1BD3B1F5001F0CD349085FEA30004FEA3C0C04F101044FEA445212F5800FA6
S32D0001275080F09A80BCF1004F08BF5FEA500C50F1000041EB045141EA050130BD5FEA4C0C404141EB0101013CFB
S32D0001277828BFB1F5801FE9D291F0000F04BF01460020B1FA81F308BF2033A3F10B03B3F120020CDA0C3208DDE7
S32D000127A002F1140CC2F10C0201FA0CF021FA02F10CE002F11402D8BFC2F1200C01FA02F120FA0CFCDCBF41EAF0
S32D000127C80C019040E41AA2BF01EB0451294330BD6FEA04041F3C1CDA0C340EDC04F11404C4F1200220FA04F03E
S32D000127F001FA02F340EA030021FA04F345EA030130BDC4F10C04C4F1200220FA02F001FA04F340EA0300294635
S32D0001281830BD21FA04F0294630BD94F0000F83F4801306BF81F480110134013D4EE77FEA645C18BF7FEA655CFF
S32D0001284029D094EA050F08BF90EA020F05D054EA000C04BF1946104630BD91EA030F1EBF0021002030BD5FEA27
S32D00012868545C05D14000494128BF41F0004130BD14F580043CBF01F5801130BD01F0004545F0FE4141F470015F
S32D000128904FF0000030BD7FEA645C1ABF194610467FEA655C1CBF0B46024650EA013406BF52EA033591EA030F63
S32D000128B841F4002130BD00BF90F0000F04BF0021704730B54FF4806404F132044FF000054FF0000150E700BF14
S32D000128E090F0000F04BF0021704730B54FF4806404F1320410F0004548BF40424FF000013EE700BF42004FEAFB
S32D00012908E2014FEA31014FEA02701FBF12F07F4393F07F4F81F06051704732F07F4208BF704793F07F4F04BF66
S32D0001293041F40021704730B54FF4607401F0004521F000411CE700BF50EA010208BF704730B54FF000050AE057
