S01100002E2E2F50726F746575732E73313966
S32D0000C0000000002061C2000015C300001BC3000021C3000027C300002DC300000000000000000000000000005B
S32D0000C0280000000033C3000039C30000000000003FC3000045C3000045E2000051E200005DE2000069E200000A
S32D0000C05075E2000081E200008DE2000099E20000A5E20000B1E20000BDE20000C9E20000D5E20000E1E2000040
S32D0000C078EDE20000F9E2000005E3000011E300001DE3000029E3000035E3000041E300004DE3000059E3000060
S32D0000C0A065E3000071E300007DE3000089E3000095E30000A1E30000ADE30000B9E30000C5E30000D1E3000086
S32D0000C0C8DDE30000E9E30000F5E3000001E400000DE4000019E4000025E4000031E400003DE4000049E40000A7
S32D0000C0F055E400007136010061E400006DE4000079E4000085E4000091E400009DE40000A9E40000B5E40000C9
S32D0000C118C1E40000CDE40000D9E40000E5E40000F1E40000FDE4000009E5000015E5000021E500002DE5000067
S32D0000C14039E5000045E5000051E500005DE50000E90D010069E5000075E5000081E500008DE5000099E500001C
S32D0000C168A5E50000B1E50000BDE50000C9E50000D5E50000E1E50000EDE50000F9E5000005E6000011E6000027
S32D0000C1901DE6000029E6000035E60000DD090100A508010041090100C9DF00007D0A010041E600004DE60000EA
S32D0000C1B859E6000008C3010000000020D013000008C301000000FF1F00000000D0130020280700000000FF1F11
S32D0000C1E00000000080B489B000AFF860B9607A60BB68FB61FB68BB6100237B610AE0BB691A1DBA611A68FB6987
S32D0000C208191DF9611A607B6904337B617A697B689A42F0D300BF00BF2437BD4680BC704780B485B000AF7860E3
S32D0000C23039607B68FB600023BB6007E0FB681A1DFA6000221A60BB680433BB60BA683B689A42F3D300BF00BFFA
S32D0000C2581437BD4680BC704780B586B000AF72B6234B4CF220521A80214B4DF628121A80204B4FF4E9721A8057
S32D0000C2801F4B7B6113E07B691A1D7A611B687B607B691A1D7A611B68FB607B691A1D7A611B68BB60BA68F96818
S32D0000C2A87868FFF79BFF7B69144A9342E7D30DE07B691A1D7A611B68FB607B691A1D7A611B68BB60B968F86851
S32D0000C2D0FFF7AAFF7B690C4A9342EDD30B4B3B610B4A3B691A600AF06DFB62B601F034FF01F054FEFEE700BFE8
S32D0000C2F80E20054000200540BCC10000D4C10000E4C1000008ED00E000C0000080B400AFFEE780B400AFFEE764
S32D0000C32080B400AFFEE780B400AFFEE780B400AFFEE780B400AFFEE780B400AFFEE780B400AFFEE780B400AF5C
S32D0000C348FEE780B400AFFEE7FFFFFFFFFFFFFFFFFFFFFFFFFFFFFFFFFFFFFFFFFFFFFFFFFFFFFFFFFFFFFFFF3A
S32D0000C370FFFFFFFFFFFFFFFFFFFFFFFFFFFFFFFFFFFFFFFFFFFFFFFFFFFFFFFFFFFFFFFFFFFFFFFFFFFFFFFFC7
S32D0000C398FFFFFFFFFFFFFFFFFFFFFFFFFFFFFFFFFFFFFFFFFFFFFFFFFFFFFFFFFFFFFFFFFFFFFFFFFFFFFFFF9F
S32D0000C3C0FFFFFFFFFFFFFFFFFFFFFFFFFFFFFFFFFFFFFFFFFFFFFFFFFFFFFFFFFFFFFFFFFFFFFFFFFFFFFFFF77
S32D0000C3E8FFFFFFFFFFFFFFFFFFFFFFFFFFFFFFFFFFFFFFFFFFFFFFFFFFFFFFFFFFFFFFFFFFFFFFFFFEFFFFFF50
S32D0000C44008B5034B1BB103490348AFF3008008BD00000000D013002010C4000080B483B000AFC7E900013A6839
S32D0000C468796821F00043104619460C37BD4680BC7047000080B582B000AF78607B68354A0021184602F0ECF8DE
S32D0000C4907B680833314A0121184602F0E5F87B6810332E4A0221184602F0DEF87B6818330021184604F098F87E
S32D0000C4B87B6819330121184604F092F87B681A330221184604F08CF87B6844331821184604F040FB7B6860336A
S32D0000C4E00721184604F030FE7B684FF00002DA617B684FF000025A627B684FF000021A627B6800229A637B68C2
S32D0000C5080022DA637B6800221A647B684FF000025A637B68104A9A627B68104ADA627B680F4A1A637B680F4A9B
S32D0000C5309A647B680E4ADA647B680D4A1A657B680B4A5A657B680B4A9A657B680A4ADA657B6818460837BD4686
S32D0000C55880BD00BF000010416666E63ECDCC4C3DCDCC4C3E33335340000080BF7B143A4152B8714280B582B0CD
S32D0000C58000AF78607B684FF00001184602F0D4F87B6808334FF00001184602F0CDF87B6810334FF00001184690
S32D0000C5A802F0C6F800BF0837BD4680BD0000000080B582B000AF786003F0C8FF02460B461046194608F002FD8A
S32D0000C5D002467B68DA6103F0BDFF02460B461046194608F0F7FC02467B685A627B684FF000021A627B68002263
S32D0000C5F89A637B680022DA637B6800221A647B684FF000025A637B681833184604F090FA7B681933184604F0E7
S32D0000C6208BFA7B681A33184604F086FA04A1D1E9000103F069FF00BF0837BD4680BD00BF9A9999999999A93F2E
S32D0000C648B0B58CB000AFF860B9607A607B68002B0AD1FB681833184604F058FA0246FB689B6BD31AFB6217E0FC
S32D0000C6707B68012B0AD1FB681933184604F04AFA0246FB68DB6BD31AFB6209E0FB681A33184604F03FFA0246C6
S32D0000C698FB681B6CD31AFB6203F058FF04460D46FB68DB69184608F041F902460B462046294607F0DBFF02469B
S32D0000C6C00B461046194608F085FC0346BB62F86A08F08AFD0346B96A184608F08DFE0346184608F027F95CA37B
S32D0000C6E8D3E9002308F07AF902460B461046194608F06CFC03467B62796AB86808F0BAFC03463B62FB685B6B46
S32D0000C710396A184608F0B4FC03461A46FB685A63FB689B6A1946386A08F0B2FD0346FB61FB685A6BFB68DB6A04
S32D0000C7381946104608F0A8FD0346BB61FB681B6A1946386A08F096FC03461A46FB681B6B1946104608F098FDD5
S32D0000C76003467B61FB683A6A1A6203F0F3FE02460B461046194608F02DFC0246FB68DA61FB681833184604F0CA
S32D0000C788C5F90246FB689A63FB681933184604F0BDF90246FB68DA63FB681A33184604F0B5F90246FB681A64A5
S32D0000C7B03C2300222A492B4805F05EF92A4807F0BDFD01463C23C822264805F095F9502300222649234805F0A0
S32D0000C7D84FF9234807F0BCFD01465023C8221F4805F086F9642300221F491C4805F040F91B4807F0BBFD014655
S32D0000C8006423C822174805F077F98C2300221949144805F031F98C23C822F969114805F06BF9FB68996C1423DB
S32D0000C828C8220E4805F064F9F969B86808F024FC0346B969184608F01FFC03467969184608F01AFC034618469C
S32D0000C8503037BD46B0BD00BF90AAB253F65A993FC8B80100C816002030170020CCB80100D0B80100D4B801003C
S32D0000C878F0B58BB000AFF860B9607A603B60F868FFF796FEBE4805F09AF87B68002B40F09B806AE00122B968BF
S32D0000C8A0F868FFF7D1FE034683F00044386C08F09BFC03461946204608F0EAFC03467B610222B968F868FFF766
S32D0000C8C8BFFE0446386C08F08BFC03461946204608F0DAFC03463B61FB6803F10804786908F024F8A0A3D3E900
S32D0000C8F0002308F0A1F902460B46104619464FF00002A24B08F06EF802460B461046194608F060FB0346194642
S32D0000C918204601F00DFFFB6803F11004386908F005F891A3D3E9002308F082F902460B46104619464FF0000278
S32D0000C940924B08F04FF802460B461046194608F041FB03461946204601F0EEFE7B6C012B02D1F86800F0C8FC46
S32D0000C96883A1D1E9000103F0CBFDFB681933184604F0CCF80446FB681A33184604F0C6F803462344DA0F134448
S32D0000C9905B10184607F0BCFF04460D46386807F0C9FF77A3D3E9002308F01CF802460B4601210E462046294619
S32D0000C9B808F086FA0346002B01D100231E46F3B2002B7FF467AF7CE17B68012B40F04B819BE00022B968F8682D
S32D0000C9E0FFF732FE0446386C08F0FEFB03461946204608F04DFC0346FB610222B968F868FFF722FE034683F0B9
S32D0000CA080044386C08F0ECFB03461946204608F03BFC0346BB61FC68F86907F087FF52A3D3E9002308F004F98C
S32D0000CA3002460B46104619464FF00002534B07F0D1FF02460B461046194608F0C3FA03461946204601F070FE74
S32D0000CA58FB6803F11004B86907F068FF42A3D3E9002308F0E5F802460B46104619464FF00002444B07F0B2FF67
S32D0000CA8002460B461046194608F0A4FA03461946204601F051FE002300223D493A4804F0EBFFFB68183318461F
S32D0000CAA804F034F801460023C822354805F004F8142300223549324804F0DAFFFB681933184604F023F80146FD
S32D0000CAD01423C8222C4804F0F3FF282300222E49294804F0C9FFFB681A33184604F012F801462823C8222448B8
S32D0000CAF804F0E2FF7B6C012B02D1F86800F0F8FB1BA1D1E9000103F0FBFCFB681833184603F0FCFF0446FB680A
S32D0000CB201A33184603F0F6FF03462344DA0F13445B10184607F0ECFE04460D46386807F0F9FE0FA3D3E90023FE
S32D0000CB4807F04CFF02460B4601210E462046294608F0B6F90346002B01D100231E46F3B2002B7FF436AFACE071
S32D0000CB703333333333B33E409A9999999999A93F295C8FC2F5884140C816002000005940D8B80100E4B801004F
S32D0000CB98F0B801000022B968F868FFF751FD034683F00044386C08F01BFB03461946204608F06AFB03467B629C
S32D0000CBC00122B968F868FFF73FFD0446386C08F00BFB03461946204608F05AFB03463B62FC68786A07F0A6FE63
S32D0000CBE83BA3D3E9002308F023F802460B46104619464FF000023C4B07F0F0FE02460B461046194608F0E2F933
S32D0000CC1003461946204601F08FFDFB6803F10804386A07F087FE2CA3D3E9002308F004F802460B4610461946FA
S32D0000CC384FF000022C4B07F0D1FE02460B461046194608F0C3F903461946204601F070FD7B6C012B02D1F8689C
S32D0000CC6000F04AFB1EA1D1E9000103F04DFCFB681833184603F04EFF0446FB681933184603F048FF034623442E
S32D0000CC88DA0F13445B10184607F03EFE04460D46386807F04BFE12A3D3E9002307F09EFE02460B4601210E468F
S32D0000CCB02046294608F008F90346002B01D100231E46F3B2002B7FF469AFF868FFF756FC00BF2C37BD46F0BDE6
S32D0000CCD83333333333B33E409A9999999999A93F295C8FC2F58841400000594000000000F0B58FB000AFF86027
S32D0000CD00B9607A603B60F868FFF756FC704804F05AFE7B68002B40F0CA80A3E00022B968F868FFF791FC034651
S32D0000CD2883F00044386D08F05BFA03461946204608F0AAFA0346FB614FF08041B86808F057FB034601221946B0
S32D0000CD50F868FFF779FC0446386D08F045FA03461946204608F094FA0346BB614FF08041B86808F041FB03462E
S32D0000CD7802221946F868FFF763FC0446386D08F02FFA03461946204608F07EFA03467B61FC68F86907F0CAFD1F
S32D0000CDA045A3D3E9002307F047FF02460B46104619464FF00002474B07F014FE02460B461046194608F006F9F2
S32D0000CDC803461946204601F0B3FCFB6803F10804B86907F0ABFD36A3D3E9002307F028FF02460B461046194648
S32D0000CDF04FF00002374B07F0F5FD02460B461046194608F0E7F803461946204601F094FCFB6803F11004786969
S32D0000CE1807F08CFD26A3D3E9002307F009FF02460B46104619464FF00002284B07F0D6FD02460B4610461946AB
S32D0000CE4008F0C8F803461946204601F075FC7B6D012B02D1F86800F04FFA19A1D1E9000103F052FBFB681833B9
S32D0000CE68184603F053FE0346184607F04DFD04460D46386807F05AFD11A3D3E9002307F0ADFD02460B46012198
S32D0000CE900E462046294608F017F80346002B01D100231E46F3B2002B7FF438AFA5E17B68012B40F07E81B3E0F6
S32D0000CEB83333333333B33E409A9999999999A93FC520B07268314440C8160020000059404FF08041B86808F0CA
S32D0000CEE08BFA034600221946F868FFF7ADFB0446386D08F079F903461946204608F0C8F90346BB620122B9680D
S32D0000CF08F868FFF79DFB034683F00044386D08F067F903461946204608F0B6F903467B624FF08041B86808F01D
S32D0000CF3063FA034602221946F868FFF785FB0446386D08F051F903461946204608F0A0F903463B62FC68B86A98
S32D0000CF5807F0ECFCAAA3D3E9002307F069FE02460B46104619464FF00002AB4B07F036FD02460B461046194645
S32D0000CF8008F028F803461946204601F0D5FBFB6803F10804786A07F0CDFC9BA3D3E9002307F04AFE02460B46A2
S32D0000CFA8104619464FF000029B4B07F017FD02460B461046194608F009F803461946204601F0B6FBFB6803F126
S32D0000CFD01004386A07F0AEFC8BA3D3E9002307F02BFE02460B46104619464FF000028C4B07F0F8FC02460B46C5
S32D0000CFF81046194607F0EAFF03461946204601F097FB7B6D012B02D1F86800F071F97EA1D1E9000103F074FA09
S32D0000D020FB681933184603F075FD0346184607F06FFC04460D46386807F07CFC76A3D3E9002307F0CFFC0246B9
S32D0000D0480B4601210E462046294607F039FF0346002B01D100231E46F3B2002B7FF438AFC7E04FF08041B86831
S32D0000D07008F0C2F9034600221946F868FFF7E4FA0446386D08F0B0F803461946204608F0FFF803467B634FF0EF
S32D0000D0988041B86808F0ACF9034601221946F868FFF7CEFA0446386D08F09AF803461946204608F0E9F803465A
S32D0000D0C03B630222B968F868FFF7BEFA034683F00044386D08F088F803461946204608F0D7F80346FB62FC6855
S32D0000D0E8786B07F023FC46A3D3E9002307F0A0FD02460B46104619464FF00002464B07F06DFC02460B46104656
S32D0000D110194607F05FFF03461946204601F00CFBFB6803F10804386B07F004FC36A3D3E9002307F081FD0246C5
S32D0000D1380B46104619464FF00002374B07F04EFC02460B461046194607F040FF03461946204601F0EDFAFB68F2
S32D0000D16003F11004F86A07F0E5FB27A3D3E9002307F062FD02460B46104619464FF00002274B07F02FFC0246F6
S32D0000D1880B461046194607F021FF03461946204601F0CEFA7B6D012B02D1F86800F0A8F819A1D1E9000103F056
S32D0000D1B0ABF9FB681A33184603F0ACFC0346184607F0A6FB04460D46386807F0B3FB12A3D3E9002307F006FC56
S32D0000D1D802460B4601210E462046294607F070FE0346002B01D100231E46F3B2002B7FF438AFF868FFF7BEF9DC
S32D0000D20000BF3C37BD46F0BD3333333333B33E409A9999999999A93FC520B072683144400000594080B582B04B
S32D0000D22800AF786039607B683968184601F080FA7B6808333968184601F07AFA7B6810333968184601F074FA65
S32D0000D25000BF0837BD4680BD90B583B000AF78607B684433184603F08BFC0346184607F061FB01231C461EA300
S32D0000D278D3E9002307F024FE0346002B01D100231C46E3B2002B01D0002326E07B684433184603F071FC0346AA
S32D0000D2A0184607F047FB12A3D3E9002307F02AFE0346002B0FD07B684433184603F060FC03464FF07F51184606
S32D0000D2C808F080F90346002B01D0012300E00023002B01D0012300E0022318460C37BD4690BD00BFAFF3008064
S32D0000D2F0333333333333D33F90B583B000AF78607B684433184603F03BFC02467B689B6C01210C461946104690
S32D0000D31808F058F90346002B01D100231C46E3B2002B07D07B684433184603F025FC02467B689A6400BF0C3745
S32D0000D340BD4690BD80B582B000AF78600A4806F0F5FF02467B68DA64074806F0FDFF02467B681A65044807F0AE
S32D0000D36805F802467B685A6500BF0837BD4680BD3017002090B585B000AFF860B9607A603B60FB6803F1080499
S32D0000D390BB685B42184607F027FF03461946204601F0CAF9FB6803F11004B86807F01CFF03461946204601F0D6
S32D0000D3B8BFF9786803F084F83B68012B02D1F868FFF796FFF868FFF7D5F800BF1437BD4690BD90B585B000AF0D
S32D0000D3E0F860B9607A603B60FC68BB685B42184607F0FAFE03461946204601F09DF9FB6803F10804BB68DA0FC4
S32D0000D40813445B10184607F0EBFE03461946204601F08EF9FB6803F11004BB68DA0F13445B10184607F0DCFE08
S32D0000D43003461946204601F07FF9786803F044F83B68012B02D1F868FFF756FFF868FFF795F800BF1437BD460B
S32D0000D45890BD000000000000B0B586B000AFF860B9607A603B6019237B6100233B617B68B3F1FF3F3DD16FF020
S32D0000D48018037B6139E04C4806F058FF0346012214461946B86808F099F80346002B01D100231C46E3B2002B34
S32D0000D4A807D07B6959423B68424AF868FFF791FF17E03F4806F03EFF0346012214461946B86808F09DF803461F
S32D0000D4D0002B01D100231C46E3B2002B05D03B68364A7969F868FFF778FF31A1D1E9000103F00AF83B690133EB
S32D0000D4F83B612F4806F01EFF0346184607F016FA04460D46B86807F011FA4FF000022A4B07F0ACF802460B4689
S32D0000D5202046294607F0D0FC0346002B19D1224806F004FF0346184607F0FCF904460D46B86807F0F7F94FF00E
S32D0000D54800021D4B07F094F802460B462046294607F0D4FC0346002B1BD0154806F0EAFE03464FF04041184692
S32D0000D57008F022F80346002B0FD10F4806F0DEFE03461049184608F017F80346002B04D13B69032B01DD0123DA
S32D0000D59800E00023002B7FF472AF00BF00BF1837BD46B0BDAFF300809A9999999999C93F30170020CDCC4C3D1C
S32D0000D5C00000E03F000080BF90B587B000AFF860B9607A603B6019237B6100233B617B68B3F1FF3F3DD16FF0C5
S32D0000D5E818037B6139E0424806F0B2FE0346012214461946B86807F0E5FF0346002B01D100231C46E3B2002B2A
S32D0000D61007D07B6959423B68384AF868FFF7AEFE17E0354806F098FE0346012214461946B86807F0E9FF034602
S32D0000D638002B01D100231C46E3B2002B05D03B682C4A7969F868FFF795FE27A1D1E9000102F056FF3B69013327
S32D0000D6603B61254806F078FE04464FF07E51B86807F004FD03461946204607F0A7FF0346002B10D11C4806F05D
S32D0000D68867FE04464FF07E51B86807F0F5FC03461946204607F0B4FF0346002B1BD0144806F056FE03464FF06A
S32D0000D6B04041184607F080FF0346002B0FD10E4806F04AFE03460E49184607F075FF0346002B04D13B69032B8B
S32D0000D6D801DD012300E00023002B84D100BF00BF1C37BD4690BD00BF9A9999999999C93F30170020CDCC4C3D97
S32D0000D700000080BF00000000B0B582B000AF786002E07868FFF716FE7868FFF79DFD0346022B05D07868FFF741
S32D0000D72897FD0346012B01D1012300E00023002BEBD17B689B6D184607F0F8F804460D467B68DB6C184607F09E
S32D0000D750F1F837A3D3E9002306F08CFF02460B462046294606F086FF02460B4610461946FEF774FE4FF00002A9
S32D0000D778314B07F0AFFB0346002B26D07B68DB6D184607F0D3F804460D467B681B6D184607F0CCF826A3D3E90B
S32D0000D7A0002306F069FF02460B462046294606F061FF02460B4610461946FEF74FFE4FF000021F4B07F08AFB5F
S32D0000D7C80346002B01D0012300E00023002B25D07B68DB6C184607F0A9F813A3D3E9002306F044FF02460B4620
S32D0000D7F01046194607F0EEFB02467B689A657B681B6D184607F096F80BA3D3E9002306F033FF02460B4610465A
S32D0000D818194607F0DBFB02467B68DA6500BF0837BD46B0BDAFF300803D0AD7A370BD2F40D7A3703D0AF74940AE
S32D0000D8400000E03F80B582B000AF78607B681846FEF714FE7B686C330721184603F074FC7B68783306211846E7
S32D0000D86803F06EFC7B6818460837BD4680BD000080B586B002AF78607B681846FFF740FF6F4806F01DFDF860EC
S32D0000D890786800230193012300936C4B00226C49FEF7EAFF7B686B491846FFF7BBFC60A1D1E9000102F028FE3A
S32D0000D8B87B681846FEF75EFE78680023019301230093634B01226349FEF7D2FFFB68002B0BD17868002301931E
S32D0000D8E04FF0FF3300935E4B01225C49FFF704FA28E0FB68012B0BD17868002301934FF0FF330093574B0122DE
S32D0000D9085449FFF7F5F919E0FB68022B16D17868002301934FF0FF330093514B01224D49FFF7E6F97868002338
S32D0000D93001934FF0FF3300934FF07C5301224449FEF79AFF4FF00000484902F0DDFD7B686C334749184603F0E6
S32D0000D95813FC37A1D1E9000102F0D2FD78680023019301230093414B01223749FEF780FF7B686C333E491846E6
S32D0000D98003F0FEFB4FF000003C4902F0BDFD7868002301934FF0FF3300934FF0804301222B49FEF769FF24A1C7
S32D0000D9A8D1E9000102F0ACFD7B686C333249184603F0E2FB4FF000002A4902F0A1FD7868002301930123009340
S32D0000D9D04FF07E5301221E49FEF74EFF7B6829491846FFF71FFC16A1D1E9000102F08CFD7B681846FEF7C2FDA7
S32D0000D9F87B686C332249184603F0BEFB4FF00000204902F07DFD7868002301934FF0FF3300931D4B00220C497C
S32D0000DA20FEF72AFF00BF1037BD4680BDAFF30080B81E85EB51B8E63F333333333333E33F9A9999999999D93FDB
S32D0000DA4830170020000040400000E0400000F0C10000C04000001041000090410000AC410000D0410000F03FA9
S32D0000DA700000A042000020400000C8420000104000000C420000F041000070410000E03F00004041000000001C
S32D0000DA9880B584B002AF7860786800230193012300933D4B00223D49FEF7E2FE7B683C491846FFF7B3FB34A1DC
S32D0000DAC0D1E9000102F020FD7B681846FEF756FD78680023019301230093344B00223449FEF7CAFE7B6833495D
S32D0000DAE81846FFF79BFB2AA1D1E9000102F008FD7B681846FEF73EFD7868002301934FF0FF3300934FF0824399
S32D0000DB1000222449FEF7B0FE78680023019301230093234B00221F49FEF7A6FE7B6821491846FFF777FB16A10C
S32D0000DB38D1E9000102F0E4FC7B681846FEF71AFD78680023019301230093194B00221349FEF78EFE7B687833A6
S32D0000DB601649184603F00CFB4FF00000144902F0CBFC7B6878330E49184603F001FB4FF000000F4902F0C0FC14
S32D0000DB8800BF0837BD4680BD9A9999999999E93F333333333333EB3F000040400000E0400000F0410000B8414C
S32D0000DBB0000020410000F0C10000F0400000C8420000E03F0000000080B586B002AF786078680023019301232D
S32D0000DBD800934FF0804300225B49FFF789F878687B68996D00234FF0FF32FFF735FC7868012301934FF0FF33C1
S32D0000DC000093544B00225249FEF736FE78687B68996D01234FF0FF32FFF722FC78687B68D96D01234FF0FF32D0
S32D0000DC28FFF7CEFC4A4803F0CAFE4FF0FF33FB607B689B6C184606F079FE41A3D3E9002307F03EF90346002BDB
S32D0000DC500AD0C823FB604FF47F013F4803F0D2FE3D4803F0B0FE1FE07B689B6C184606F061FE35A3D3E9002300
S32D0000DC7807F044F90346002B12D07B689B6C4FF07F51184607F09EFC0346002B08D06423FB60FF212E4803F055
S32D0000DCA0B1FE2D4803F08FFEFB68C82B0ED17868002301934FF0FF330093284B00222449FFF71AF8244803F079
S32D0000DCC87EFE0DE07868002301934FF0FF330093214B00221C49FFF70BF81D4803F06FFE7868002301934FF0A3
S32D0000DCF0FF330093164B00221549FEF7BDFD78680023019301230093164B00221049FEF7B3FDFB68C82B09D1B2
S32D0000DD1878680023019301230093114B00220A49FEF7E6FF78680023019301230093064B00220549FEF79CFD47
S32D0000DD4000BF1037BD4680BD333333333333D33F0000E0400000A841C8160020000020410000A0400000404063
S32D0000DD68000090400000000080B584B002AF78607868002301934FF0FF3300936C4B02226C49FEF775FD7B6856
S32D0000DD906B491846FFF746FA5FA1D1E9000102F0B3FB7B681846FEF7E9FB7868002301934FF0FF330093614B61
S32D0000DDB800226049FEF75CFD786800230193012300935E4B00225B49FEF752FD7B686C335B49184603F0D0F9E3
S32D0000DDE04FF00000594902F08FFB78680023019301230093564B00225049FEF77DFF7B684F491846FFF70EFAC6
S32D0000DE0845A1D1E9000102F07BFB7B681846FEF7B1FB7B686C334D49184603F0ADF94FF00000484902F06CFBC9
S32D0000DE307868002301934FF0FF330093464B01223E49FEF719FD78680023019301230093424B01223949FEF76E
S32D0000DE580FFD7B686C333649184603F08DF97B683D491846FFF7DAF92DA1D1E9000102F047FB7B681846FEF735
S32D0000DE807DFB7868002301934FF0FF330093354B00222A49FEF7F0FC78680023019301230093314B0022254911
S32D0000DEA8FEF7E6FC7B6824491846FFF7B7F918A1D1E9000102F024FB7B681846FEF75AFB7868002301934FF03B
S32D0000DED0FF330093254B00221849FEF7CDFC7B681F491846FFF79EF911A1D1E9000102F00BFB7B681846FEF7DD
S32D0000DEF841FB7868002301934FF0FF3300931A4B00220B49FEF7B4FC00BF0837BD4680BD9A9999999999E93FA8
S32D0000DF20333333333333D33F9A9999999999D13F9A9999999999D93F000070410000E0400000F0C100009040E7
S32D0000DF480000C8420000E03F6666A63F33338942000088400000B8400000F0410000D0400000404000002042BD
S32D0000DF700000A04080B582B000AF78607868FFF77BFC7868FFF788FD7868FFF71DFE7868FFF7EEFE00BF08375C
S32D0000DF98BD4680BD80B5A2B000AF3B1D1846FFF74DFC064805F06AFF3B1D1846FFF7DEFF002318468837BD4678
S32D0000DFC080BD00BF3017002080B500AF0F4BD3F8A03003F48053002B14BF01230023DBB2002B10D0094BD3F831
S32D0000DFE8A030084A23F48053C2F8A030064806F09FFA064B1B68054A23F40053136000BF80BD00BF00C00440D9
S32D0000E01050170020C0F00F4080B400AF124B4FF480725A63114B5B69104A43F4005353610E4B1B680D4A43F408
S32D0000E038005313600A4B0C4A1A630C4BD3F888310A4A43F08063C2F88831084B9B68074A43F08063936000BFA5
S32D0000E060BD4680BC704700BF00C00440C0F00F4003010A0000E100E080B400AF334B00225A70324B98221A70FD
S32D0000E08800BF304B9B79DBB203F01003002B14BF01230023DBB2002BF3D100BF294B9B79DBB29B08DBB203F0D1
S32D0000E0B00303022B14BF01230023DBB2002BF1D1224B18221A71214B00225A71204B03F580531A461F4B536439
S32D0000E0D81C4B54225A7100BF1A4B9B79DBB203F02003002B0CBF01230023DBB2002BF3D100BF144B9B79DBB21F
S32D0000E10003F04003002B0CBF01230023DBB2002BF3D10E4B1B78DBB20C4A03F03F03DBB2137000BF094B9B79C7
S32D0000E128DBB29B08DBB203F00303032B14BF01230023DBB2002BF1D100231846BD4680BC704700BF0040064095
S32D0000E150007004400000130180B500AF314B03F580539B6B2F4A43F4785302F580529363FFF752FFFFF780FFB2
S32D0000E1782B4B58221A602A4B1B684FF47A7202FB03F3284A1360274B1B681A46234B03F580535B6C1B0E03F09F
S32D0000E1A00F030133B2FBF3F31A46214B1A601D4B03F58053DB6B1B4A43F0225302F58052D363184B03F580537F
S32D0000E1C81B6B164A43F0006302F580521363174B4FF480721A61642002F048F8134B5B69124A23F0100353614E
S32D0000E1F0104B00221A600F4B10225A610E4803F06BFA02F0A5FD02F003FE0C4802F094F80B4806F0E5F94FF452
S32D0000E218FA6002F03FF900BF80BD00BF0070044014160020101600201816002000D00340C81600200C160020B4
S32D0000E240C017002080B500AFFEF77FF800BF80BD80B500AFFEF779F800BF80BD80B500AFFEF773F800BF80BDE7
S32D0000E26880B500AFFEF76DF800BF80BD80B500AFFEF767F800BF80BD80B500AFFEF761F800BF80BD80B500AF08
S32D0000E290FEF75BF800BF80BD80B500AFFEF755F800BF80BD80B500AFFEF74FF800BF80BD80B500AFFEF749F8C4
S32D0000E2B800BF80BD80B500AFFEF743F800BF80BD80B500AFFEF73DF800BF80BD80B500AFFEF737F800BF80BD1E
S32D0000E2E080B500AFFEF731F800BF80BD80B500AFFEF72BF800BF80BD80B500AFFEF725F800BF80BD80B500AF44
S32D0000E308FEF71FF800BF80BD80B500AFFEF719F800BF80BD80B500AFFEF713F800BF80BD80B500AFFEF70DF83B
S32D0000E33000BF80BD80B500AFFEF707F800BF80BD80B500AFFEF701F800BF80BD80B500AFFDF7FBFF00BF80BD53
S32D0000E35880B500AFFDF7F5FF00BF80BD80B500AFFDF7EFFF00BF80BD80B500AFFDF7E9FF00BF80BD80B500AF6D
S32D0000E380FDF7E3FF00BF80BD80B500AFFDF7DDFF00BF80BD80B500AFFDF7D7FF00BF80BD80B500AFFDF7D1FF9B
S32D0000E3A800BF80BD80B500AFFDF7CBFF00BF80BD80B500AFFDF7C5FF00BF80BD80B500AFFDF7BFFF00BF80BD83
S32D0000E3D080B500AFFDF7B9FF00BF80BD80B500AFFDF7B3FF00BF80BD80B500AFFDF7ADFF00BF80BD80B500AFA9
S32D0000E3F8FDF7A7FF00BF80BD80B500AFFDF7A1FF00BF80BD80B500AFFDF79BFF00BF80BD80B500AFFDF795FF13
S32D0000E42000BF80BD80B500AFFDF78FFF00BF80BD80B500AFFDF789FF00BF80BD80B500AFFDF783FF00BF80BDBE
S32D0000E44880B500AFFDF77DFF00BF80BD80B500AFFDF777FF00BF80BD80B500AFFDF771FF00BF80BD80B500AFE4
S32D0000E470FDF76BFF00BF80BD80B500AFFDF765FF00BF80BD80B500AFFDF75FFF00BF80BD80B500AFFDF759FF8A
S32D0000E49800BF80BD80B500AFFDF753FF00BF80BD80B500AFFDF74DFF00BF80BD80B500AFFDF747FF00BF80BDFA
S32D0000E4C080B500AFFDF741FF00BF80BD80B500AFFDF73BFF00BF80BD80B500AFFDF735FF00BF80BD80B500AF20
S32D0000E4E8FDF72FFF00BF80BD80B500AFFDF729FF00BF80BD80B500AFFDF723FF00BF80BD80B500AFFDF71DFF02
S32D0000E51000BF80BD80B500AFFDF717FF00BF80BD80B500AFFDF711FF00BF80BD80B500AFFDF70BFF00BF80BD35
S32D0000E53880B500AFFDF705FF00BF80BD80B500AFFDF7FFFE00BF80BD80B500AFFDF7F9FE00BF80BD80B500AF5D
S32D0000E560FDF7F3FE00BF80BD80B500AFFDF7EDFE00BF80BD80B500AFFDF7E7FE00BF80BD80B500AFFDF7E1FE7D
S32D0000E58800BF80BD80B500AFFDF7DBFE00BF80BD80B500AFFDF7D5FE00BF80BD80B500AFFDF7CFFE00BF80BD74
S32D0000E5B080B500AFFDF7C9FE00BF80BD80B500AFFDF7C3FE00BF80BD80B500AFFDF7BDFE00BF80BD80B500AF9A
S32D0000E5D8FDF7B7FE00BF80BD80B500AFFDF7B1FE00BF80BD80B500AFFDF7ABFE00BF80BD80B500AFFDF7A5FEF5
S32D0000E60000BF80BD80B500AFFDF79FFE00BF80BD80B500AFFDF799FE00BF80BD80B500AFFDF793FE00BF80BDAF
S32D0000E62880B500AFFDF78DFE00BF80BD80B500AFFDF787FE00BF80BD80B500AFFDF781FE00BF80BD80B500AFD5
S32D0000E650FDF77BFE00BF80BD80B500AFFDF775FE00BF80BD0000000080B584B000AFF8600B467A60FB72FB6881
S32D0000E678FA7A1A71FB6800225A711749786806F0BFFF0346002B02D0134B7B600AE04FF07E51786806F0A0FF45
S32D0000E6A00346002B02D04FF07E537B60786806F041F909A3D3E9002306F094F902460B461046194606F086FC37
S32D0000E6C80246FB681A60FB6818461037BD4680BDABAAAAAAAAAA20400000404180B584B000AF786039603B68AD
S32D0000E6F07F2B02DD7F23FB7308E03B6813F1800F02DA8023FB7301E03B68FB737B685B79FA7B9A4209D07B68A2
S32D0000E718FA7B5A717B681979FA7B1E23034801F041FE00BF1037BD4680BD00BF0C160020B0B584B000AF786086
S32D0000E74039603749386806F041FF0346002B02D0334B3B6008E03349386806F055FF0346002B01D02F4B3B60B5
S32D0000E768386806F0E3F804460D467B681B68184606F0DCF84FF00002294B06F059FA02460B462046294606F085
S32D0000E79029F902460B461046194606F01BFC03463B604FF00001386806F024FF0346002B10D0386806F0BEF861
S32D0000E7B817A3D3E9002306F011F902460B461046194606F0BBFB0346FB6018E0386806F0ADF84FF00002134B2A
S32D0000E7E006F000F902460B46104619464FF000020D4B06F021FA02460B461046194606F0A1FB0346FB60F9683F
S32D0000E8087868FFF76BFF00BF1037BD46B0BD00BF52B81E85EB51F43F0000C8C20000C842000059400000604084
S32D0000E83080B483B000AF03460A46FB711346BB71BB79002B03D1134B00221A7002E0114B01221A703823FB712B
S32D0000E8580E4B1A78FB791343FB710D4B9B78DBB20B4A43F01003DBB29370094B9B78DBB2074A43F02003DBB226
S32D0000E8809370054AFB79137100BF0C37BD4680BC704700BFE81300200060064080B483B000AF01237B6003E0B0
S32D0000E8A800BF7B6801337B607B68312BF8DD00BF00BF0C37BD4680BC7047000080B582B000AF03460A46FB71AB
S32D0000E8D01346BB71134B1B7800211846FFF7A8FF00F024F8104AFB79137100F01FF80E4ABB79137100F01AF811
S32D0000E8F80B4B9B78DBB20A4A23F02003DBB29370074B9B78DBB2064A23F01003DBB29370FFF7C0FF00BF083737
S32D0000E920BD4680BDE91300200060064080B483B000AF174B1B78002B24D100237B600CE07B6842F21072934244
S32D0000E94803DD114B01221A700FE07B6801337B6000BF0E4BDB78DBB203F00203002B0CBF01230023DBB2002BF2
S32D0000E970E6D1084BDB78DBB2064A43F00203DBB2D37000E000BF0C37BD4680BC704700BFEA13002000600640DD
S32D0000E99880B582B000AF0346FB71FB79184600F05FF800BF0837BD4680BD80B582B000AF03460A46FB711346BB
S32D0000E9C0BB7100F035F8FB795B00DBB21846FFF7E3FFBB791846FFF7DFFF00F037F800BF0837BD4680BD80B556
S32D0000E9E800AFFF2000F03CF80346184680BD80B584B000AF0346FB7100F016F8FB795B005BB243F001035BB240
S32D0000EA10DBB21846FFF7C0FFFFF7E5FF0346FB7300F014F8FB7B18461037BD4680BD000080B400AF044B9B681B
S32D0000EA38034A43F48013936000BFBD4680BC704740F00F4080B400AF044B5B68034A43F48013536000BFBD46F1
S32D0000EA6080BC704740F00F4080B485B000AF0346FB710023BB7302E0FB7B0133FB73144BDB6A03F00043012BF8
S32D0000EA880CBF01230023DBB2002BF1D10E4BDB6A0D4A43F00043D3620B4AFB79536300BF094BDB6A03F4003333
S32D0000EAB0002B0CBF01230023DBB2002BF4D1044B9B6BBB73BB7B18461437BD4680BC704700C00A40000000001C
S32D0000EAD880B582B000AF204B03F580531B6B1E4A43F4805302F5805213631C4B4FF480721A651B4B5B691A4AE4
S32D0000EB0043F480135361FFF7A1FF164B4FF400725A65144B4FF400729A65124B4FF40072DA65124B124A1A6067
S32D0000EB28104B124ADA6000237B6005E0FF20FFF72FFF7B6801337B607B68092BF6DD04A1D1E9000101F0DCFCA3
S32D0000EB5000BF0837BD4680BD9A9999999999B93F0070044000A0044040F00F4000C00A40000C00800500003EDA
S32D0000EB7890B486B000AFF860B9607A60FB68534A93420AD1524B03F580535B6B504A43F4806302F580525363EA
S32D0000EBA045E0FB684D4A93420AD14B4B03F580535B6B494A43F4006302F58052536336E0FB68474A93420AD1EB
S32D0000EBC8434B03F580535B6B414A43F4805302F58052536327E0FB68404A93420AD13C4B03F580535B6B3A4AAC
S32D0000EBF043F4005302F58052536318E0FB683A4A93420AD1344B03F580539B6A324A43F4806302F580529362BC
S32D0000EC1809E02F4B03F580539B6A2D4A43F4006302F580529362FB68DB78DBB223F00C03DAB2FB68DA70FB68CB
S32D0000EC4000229A70BB684FF47A7203FB02F27B681B0192FBF3F39CB2FB681B78DBB223F01F03FB75230A9BB2D4
S32D0000EC68DBB203F01F03DAB2FB7D1343DAB2FB681A70E2B2FB685A70BB684FF4FA4203FB02F27B681B0192FB28
S32D0000EC90F3F39AB263019BB2D31A9CB2FB689B7ADBB223F01F03FB75E3B203F01F03DAB2FB7D1343DAB2FB689B
S32D0000ECB89A72FB68DB78DBB243F00C03DAB2FB68DA7000BF1837BD4690BC704700A006400070044000B00640C0
S32D0000ECE000C0064000D0064000A00E4080B483B000AF786000BF7B681B79DBB203F02003002B0CBF01230023F8
S32D0000ED08DBB2002BF3D17B68DB79DBB218460C37BD4680BC704780B483B000AF78600B46FB7000BF7B681B7926
S32D0000ED30DBB25BB2DB43DBB2DB09DBB2002BF5D17B68FA78DA7100BF0C37BD4680BC704780B487B000AFF86004
S32D0000ED58B9607A60FB687B6106E0BB68D9B27B695A1C7A610A461A707B685A1E7A60002B14BF01230023DBB2B1
S32D0000ED80002BEED100BF00BF1C37BD4680BC704780B584B000AF786039607B681B6BFB60FA683B689A4252D064
S32D0000EDA87B681B79002B35D07B6858787B6803F134010123FA6801F0F7F80346002B14BF01230023DBB2002B2B
S32D0000EDD001D001233CE07B6800221A717B685A6A7B681B6A1344FA689A4217D27B68DB78FB7210E07B681B6AEC
S32D0000EDF8FA681344FB607B6858787B6803F134010123FA6801F0D0F8FB7A013BFB72FB7A012BEBD83B68002B8B
S32D0000EE2015D07B6858787B6803F1340101233A6800F0D8FF0346002B14BF01230023DBB2002B01D0012303E075
S32D0000EE487B683A681A63002318461037BD4680BD80B584B000AF786000217868FFF794FF0346FB73FB7B002BC0
S32D0000EE7040F093807B681B78032B7DD17B685B79002B79D07B6800221A637B6834334FF4007200211846FFF71E
S32D0000EE985BFF7B68552283F832227B68AA2283F833227B68522283F834207B68522283F835207B68612283F81C
S32D0000EEC036207B68412283F837207B68722283F818227B68722283F819227B68412283F81A227B68612283F87F
S32D0000EEE81B227B681B69DAB27B6883F81C227B681B699BB21B0A9BB2DAB27B6883F81D227B681B691B0CDAB2C7
S32D0000EF107B6883F81E227B681B691B0EDAB27B6883F81F227B68DB68DAB27B6883F820227B68DB689BB21B0A90
S32D0000EF389BB2DAB27B6883F821227B68DB681B0CDAB27B6883F822227B68DB681B0EDAB27B6883F823227B6855
S32D0000EF6058787B6803F134017B685A69012301F01FF87B6800225A717B685B7800220021184601F0E1F803469B
S32D0000EF88002B14BF01230023DBB2002B01D00123FB73FB7B18461037BD4680BD80B582B000AF78600B467B8066
S32D0000EFB07B68002B08D07B681B78002B04D07B68DB887A889A4201D0092311E07B685B78184601F03BF9034644
S32D0000EFD803F00103002B14BF01230023DBB2002B01D0032300E0002318460837BD4680BD80B586B000AF78604E
S32D0000F0007B681A687B689B8819461046FFF7CAFF0346FB75FB7D002B40F0AC807B689B7903F02003002B00F023
S32D0000F028A5807B689B7903F04003002B1BD07B681B6858787B6803F128017B689A69012300F0B2FF0346002BFD
S32D0000F05014BF01230023DBB2002B01D001238AE07B689B7923F04003DAB27B689A717B681A687B68DB691946AF
S32D0000F0781046FFF789FE0346FB75FB7D002B75D17B681B6A3B613B690B331A783B690B3342F02002D2B21A7039
S32D0000F0A07B68DA683B691C33D2B21A707B68DB689BB21B0A9AB23B691D33D2B21A707B68DB681A0C3B691E33F5
S32D0000F0C8D2B21A707B68DB681A0E3B691F33D2B21A707B681A693B691A33D2B21A707B681B699BB21B0A9AB230
S32D0000F0F03B691B33D2B21A707B681B691A0C3B691433D2B21A707B681B691B0C9BB21B0A9AB23B691533D2B2B0
S32D0000F1181A700023FB603B691633FA68D2B21A70FB689BB21B0A9AB23B691733D2B21A70FB681A0C3B691833CF
S32D0000F140D2B21A70FB681A0E3B691933D2B21A707B689B7923F02003DAB27B689A717B681B6801221A717B686C
S32D0000F1681B681846FFF774FE0346FB75FB7D18461837BD4680BD80B584B000AF78607868FFF736FF0346FB7360
S32D0000F190FB7B002B02D17B6800221A60FB7B18461037BD4680BD000080B588B000AF7860396080233B610F2305
S32D0000F1B8FB604FF0FF337B610223FB6122E00123BB6119E0FB69BA6902FB03F33A6803FB02F27B68D31ABB60CC
S32D0000F1E0BB68002B09DBBB687A699A4205D9BB687B61FB693B61BB69FB60BB690133BB61BB69102BE2D9FB699F
S32D0000F2085B00FB61FB69B3F5807FD8D91D4BDB6A1C4A23F00803D3621A4BDB6A23F47F2323F47F63BB613B69E3
S32D0000F2305B081B029AB2FB68013B1B01DBB21A43BB691343114A43F46023D36202E00A2001F024F90D4B5B6A44
S32D0000F25803F00803002B0CBF01230023DBB2002BF1D1084BDB6A074A43F00803D362054B1B6B044A43F4801389
S32D0000F280136300BF2037BD4680BD00BF00100B4080B582B000AF786039607B6800221A60414B424ADA6200BF61
S32D0000F2A83F4BDB6A03F08073002B14BF01230023DBB2002BF4D13A4B0022C3F8C020384B4FF481325A60364BCB
S32D0000F2D028229A62344B4FF001125A643B689B6833491846FFF760FF00BF2F4B5B6A03F00303002B14BF01234D
S32D0000F2F80023DBB2002BF4D12C4B40F243421A602A4B40F243425A60284B4FF488629A60264B40F24342DA60BE
S32D0000F320244B40F243421A61224B40F243425A61214B03F580531B6B1F4A43F4003302F580521363184B4FF6C8
S32D0000F348FF721A63164B1B4A5A63154BDB6A144A43F00063D36200BF114BDB6A03F00063002B14BF012300235D
S32D0000F370DBB2002BF4D10C4B5B6A03F48033002B14BF01230023DBB2002B02D07B6801221A60054B1B6B044AB9
S32D0000F39843F080031363002318460837BD4680BD00100B400080000160CC050000D0044000700440B3007F0014
S32D0000F3C080B400AF064B5A6A40F207331340002B14BF01230023DBB21846BD4680BC704700100B4080B485B07E
S32D0000F3E800AF7860064B1B6B7A681340FB60FB68002BF7D0FB6818461437BD4680BC704700100B4080B584B0EE
S32D0000F41000AF78607B681B7803F03F03764A52F82330FB60FB68002B05D17B681B78002B01D00123DCE0714B72
S32D0000F4381B6B704A43F08003136300BF6D4B5B6A03F00103002B14BF01230023DBB2002BF4D1684A7B685B68ED
S32D0000F4609360FB6823F44003FB607B685B789B0503F44003FA681343FB607B685B78022B03D1FB6843F400136C
S32D0000F488FB607B685B78042B16D1FB6803F44033B3F5003F08D1FB6823F44033FB60FB6843F44033FB6007E00B
S32D0000F4B0FB6823F44033FB60FB6843F40033FB604E4B5B684D4A9BB253607B68DB68002B2AD0FB6803F44033B3
S32D0000F4D8B3F5403F03D0FB6843F40013FB607B681B7A002B03D0FB6843F01003FB607B68DB68012B03D9FB68F9
S32D0000F50043F02003FB607B68DB68B3F1FF3F0BD03A4B5A687B68DB681B04384913434B60FB6843F00203FB6045
S32D0000F528344B00221A60334AFB68D3603248FFF755FF0346012B14BF01230023DBB2002B09D02C4B1B6B2B4A31
S32D0000F55043F4702343F001031363012348E0274B1B6B03F08003002B14BF01230023DBB2002B07D0214B1B6B96
S32D0000F578204A43F001131363012335E01D4B1B6B03F48033002B14BF01230023DBB2002B08D0184B1B6B174A4E
S32D0000F5A043F0011313634FF0FF3321E0FB6803F44033002B15D0114B1A697B681A61FB6803F44033B3F5803FC0
S32D0000F5C80BD10C4B5A697B685A610A4B9A697B689A61084BDA697B68DA61064B1B6B054A43F0010313630023A1
S32D0000F5F018461037BD4680BD08B9010000100B4001000E0080B592B000AF7860396000237B643B68BB63994B9E
S32D0000F6187B637B6B002B02D140F601235FE3964B3B633B6B002B02D140F60B2357E33B6B1B68FB62FB6A002B8F
S32D0000F64002D140F60B234EE37B6841F20932934200F23F837B68B3F5985F08D87B68032B00F01A837B68092B43
S32D0000F66800F0098331E37B68A3F59853013B082B00F22B8301A252F823F000BFA9F6000095F90000F1FB000097
S32D0000F690ABF90000E9F900000FFB000057FB000099FA0000B3FA00007649786BFFF7F0FD78647B6C002B40F087
S32D0000F6B81083002387F84330002387F82B30002387F82A30002387F82930002387F84230002387F82830002357
S32D0000F6E03B7200237B720023FB6000233B7400237B6107F108031846FFF788FE0346002B14BF01230023DBB2F8
S32D0000F708002B02D001237B64E8E240F24C4000F0C1FE08233B7200237B724FF4D573FB6000233B7400237B61FD
S32D0000F73007F108031846FFF769FEF863FB6B002B09D1BA69FB689A4202D001237B64C9E2012387F8423001230C
S32D0000F75887F8283097F82830002B00F0A58037233B7200237B720023FB6000233B7400237B6107F108031846BE
S32D0000F780FFF744FEF863FB6B002B02D001237B64A8E269233B7200237B720023FB6000233B7400237B6107F148
S32D0000F7A808031846FFF72EFE0346002B14BF01230023DBB2002B02D001237B648EE2BB6903F44013002B6FD045
S32D0000F7D00023FB630A2000F061FEFB6B0133FB6337233B7200237B720023FB6000233B7400237B6107F10803B0
S32D0000F7F81846FFF707FE0346002B14BF01230023DBB2002B02D001237B6427E069233B7200237B7297F842301E
S32D0000F820002B02D0184BFB6002E04FF44013FB6000233B7400237B6107F108031846FFF7E5FD0346002B14BFDB
S32D0000F84801230023DBB2002B02D001237B6405E0BB69002B02DBFB6B632BB7D97B6C002B40F03982FB6B632B38
S32D0000F8700CD9002387F842301AE000BF0014002004160020FCB8010000003040012387F8433097F84230002BE3
S32D0000F8980AD0002387F84230BB6903F08043002B02D0012387F8423097F82A30002B02D07B6B07221A6097F86A
S32D0000F8C02930002B02D07B6B08221A6097F82B30002B02D07B6B04221A6097F84330002B09D07B6B02221A6043
S32D0000F8E897F84230002B02D07B6B03221A6097F82B30002B0DD097F84330002B09D07B6B05221A6097F84230EF
S32D0000F910002B02D07B6B06221A60924B00221A60904B00225A608F4B00229A608D4B0022DA608C4B00221A6176
S32D0000F9388A4B00225A61FB6A9A68FB6A5B6819461046FFF72DFC854B40F243421A60834B40F243425A60814B80
S32D0000F9604FF488629A607F4B40F24342DA607D4B40F243421A617B4B40F243425A617A4B03F580531B6B784A8D
S32D0000F98843F4003302F580521363A7E1B86BFFF739FDF863FB6B002B00F09F8102237B649BE1BB6B002B02D131
S32D0000F9B00C237B6496E16D4BDB6A1B0A5B0003F4FF73FB63694BDB6A1B0903F00F035A1CFB6B02FB03F3FB6311
S32D0000F9D8FB6A9A68FB6BB2FBF3F2BB6B1A607DE1BB6B002B02D10C237B6477E1BB6B1B68002B02D10C237B6465
S32D0000FA0070E1FFF7DDFC0346002B0CBF01230023DBB2002B3CD0534B00221A60514B00225A60504B00229A6005
S32D0000FA284E4B0022DA604D4B00221A614B4B00225A61FB6A9A68BB6B1B6819461046FFF7AFFB464B40F2434266
S32D0000FA501A60444B40F243425A60424B4FF488629A60404B40F24342DA603E4B40F243421A613C4B40F24342E5
S32D0000FA785A613B4B03F580531B6B394A43F4003302F58052136329E140F60A237B6425E1BB6B002B02D10C23FD
S32D0000FAA07B641FE1314B5B68C3F30C02BB6B1A6018E1BB6B002B02D10C237B6412E1FFF77FFC0346002B0CBFE8
S32D0000FAC801230023DBB2002B19D0BB6B1B68B3F5805F02D30C237B6400E1224B5B68214A23F4FF5323F01F03FB
S32D0000FAF053601E4B5A68BB6B1B68C3F30C031B4913434B60EEE040F60A237B64EAE0BB6B002B02D10C237B642B
S32D0000FB18E4E0144B9B6A5B0803F00303FB63FB6B002B03D1BB6B00221A60D7E0FB6B012B03D1BB6B01221A60D6
S32D0000FB40D0E0FB6B102B03D1BB6B02221A60C9E005237B64C6E0BB6B002B09D10C237B64C0E000BF00D00440AC
S32D0000FB680070044000100B40FFF726FC0346002B0CBF01230023DBB2002B31D0BB6B1B68002B0AD1584B9B6AB2
S32D0000FB90574A23F006039362554B554A9B6A9362A0E0BB6B1B68012B0CD1514B9B6A504A23F0060393624E4B45
S32D0000FBB89B6A4D4A43F0020393628FE0BB6B1B68022B0AD1484B9B6A474A23F006039362454B454A9B6A9362E3
S32D0000FBE080E005237B647DE040F60A237B6479E0BB6B002B02D10C237B6473E03C4BDB6A3B4A43F00063D362F7
S32D0000FC0800BF394BDB6A03F00063002B14BF01230023DBB2002BF4D1334B1B6B03F08003002B14BF012300236F
S32D0000FC30DBB2002B08D02E4B1B6B2D4A43F0800313637B6B00221A60294B5B6A03F48033002B14BF01230023CA
S32D0000FC58DBB2002B07D07B6B1B68002B06D17B6B01221A6002E07B6B00221A607B6B1A68BB6B1A6032E0BB6B5D
S32D0000FC801C221A60BB6B043304221A60BB6B08334FF41E721A6025E00220FFF7A3FB144B1B6B03F4E003002B4E
S32D0000FCA814BF01230023DBB2002B07D00E4B1B6B0D4A43F4E003136304237B640A4B1B6B094A43F032031363AD
S32D0000FCD008E040F609237B6404E000BF02E000BF00E000BF7B6C18464837BD4680BD00BF00100B4080B489B06F
S32D0000FCF800AF786039607B687B61364B3B613B69002B01D100235FE03B691B68022B0BD03B691B68032B07D084
S32D0000FD203B691B68072B03D03B691B68082B0BD100BF2B4B5B6A03F00403002B14BF01230023DBB2002BF4D19D
S32D0000FD483B68FB613CE0FB69B3F5007F28BF4FF40073FB60FB6803339B08BB6129E01E4B1B6B03F4E003002B9A
S32D0000FD7014BF01230023DBB2002B09D0184B1B6B174A43F4E00343F02003136300231FE000BF134B5B6A03F48F
S32D0000FD980063002B0CBF01230023DBB2002BF4D10D4B1A6A7B69191D79611A60BB69013BBB61BB69002BD2D168
S32D0000FDC0FA69FB68D31AFB61FB69002BBFD1012318462437BD4680BC704700BF0014002000100B4080B58EB053
S32D0000FDE800AFB9607A601A460346FB731346BB73414B7B63FB7B002B02D1BB7B002B01D1042375E03D4B1B7805
S32D0000FE10DBB203F00103002B14BF01230023DBB2002B01D0032367E0BB68002B01D1002362E07B6B1B7B002BD9
S32D0000FE3802D17B685B027B60BB7B012B28D111233B7500237B757B68BB6101233B77BB7B3B6207F11403194646
S32D0000FE6041F20230FFF7CEFB0346002B0CBF01230023DBB2002B38D04FF40071B868FFF739FF0346002B14BFC1
S32D0000FE8801230023DBB2002B2BD00023BB7328E012233B7500237B757B68BB6101233B77BB7B3B6207F114034A
S32D0000FEB0194641F20230FFF7A5FB0346002B0CBF01230023DBB2002B0FD0BB7B5B021946B868FFF70FFF03464E
S32D0000FED8002B14BF01230023DBB2002B01D00023BB73BB7B002B01D0012300E0002300BF18463837BD4680BDB8
S32D0000FF00EC1300200400002080B487B000AF786039607B68FB603B687B613DE07B69B3F5007F28BF4FF4007383
S32D0000FF283B617A693B69D31A7B613B6903339B083B612AE01B4B1B6B03F4E003002B14BF01230023DBB2002BD9
S32D0000FF500AD0164B1B6B154A43F4E00343F0100313634FF0FF331BE000BF104B5B6A03F48063002B0CBF01234E
S32D0000FF780023DBB2002BF4D1FB681A1DFA60094A1B6813623B69013B3B613B69002BD1D17B69002BBED10123CD
S32D0000FFA018461C37BD4680BC704700BF00100B4080B58EB000AFB9607A601A460346FB731346BB735D4B7B6339
S32D0000FFC8FB7B002B02D1BB7B002B01D10423ACE0594B1B78DBB203F00103002B14BF01230023DBB2002B01D028
S32D0000FFF003239EE0524B1B78DBB203F00403002B14BF01230023DBB2002B01D0022390E0BB68002B01D10023E2
S32D000100188BE07B6B1B7B002B02D17B685B027B60BB7B012B28D118233B7500237B757B68BB6100233B77BB7B56
S32D000100403B6207F11403194641F20230FFF7DAFA0346002B0CBF01230023DBB2002B38D04FF40071B868FFF747
S32D000100684FFF0346002B14BF01230023DBB2002B2BD00023BB7328E019233B7500237B757B68BB6100233B77AE
S32D00010090BB7B3B6207F11403194641F20230FFF7B1FA0346002B0CBF01230023DBB2002B0FD0BB7B5B021946EB
S32D000100B8B868FFF725FF0346002B14BF01230023DBB2002B01D00023BB730D233B7500237B757B6B1B69BB61FE
S32D000100E000233B7700233B6207F11403194641F20230FFF787FA0346002B14BF01230023DBB2002B01D00123D7
S32D0001010813E07A6A0D4B1340002B01D001230CE07B6A03F4F853B3F5106FD6D1BB7B002B01D0012300E00023EC
S32D0001013000BF18463837BD4680BD00BFEC130020040000200880D9FF80B58CB000AF03463A60FB710B46BB7186
S32D000101583A4BBB62FB79002B01D0042369E0012387F82F30364B1B78DBB203F00103002B14BF01230023DBB28A
S32D00010180002B01D0032358E0BB79032B50D801A252F823F0A5010100AD010100BD010100CD010100002387F8E6
S32D000101A82F3044E0BB6A9A683B681A60002387F82F303CE03B684FF400721A80002387F82F3034E009233B7264
S32D000101D000237B72BB6A1B69FB6000233B7400237B6107F10803194641F20230FFF70AFA0346002B14BF0123EF
S32D000101F80023DBB2002B01D001231AE07B6A03F44003002B0CD13B6A9B0C03F07F035A1C7B6A1B0A03F00303AD
S32D00010220013B9A403B681A60002387F82F3002E0042387F82F3097F82F3018463037BD4680BD00BFEC130020C3
S32D000102480400002080B483B000AF0346FB71FB79002B01D0012302E0034B1B78DBB218460C37BD4680BC70471D
S32D000102700400002080B483B000AF7860164B03F580539B6B144A43F0010302F580529363124A7B689360114B39
S32D0001029805225A600F4B1B680E4A43F00103136000BF0C4B1B6803F08003002B0CBF01230023DBB2002BF4D1AE
S32D000102C0064B1B68054A23F00103136000BF0C37BD4680BC704700BF007004400000044080B582B000AF7860C5
S32D000102E839607B68012B07D13B684FF6FF72934202D1034800F00EF800BF0837BD4680BD0C16002080B500AFC1
S32D000103104FF6FF710120FFF7E3FF80BD80B483B000AF78607B6800221A707B6818460C37BD4680BC70470000DC
S32D0001033880B582B000AF78607B681B7883F00103DBB2002B21D0134B03F580531A464FF400639362104B4FF450
S32D0001036040721A620E4B4FF440725A620D4B1B68DA0F13445B104FF4614219460A48FEF7FBFB642000F08AF838
S32D000103887B6801221A70012300E0002318460837BD4680BD0070044000D004401016002000B00E4080B582B03F
S32D000103B000AF7860084611461A460346FB700B46BB7013467B707F210E48FEF7A8FC08210C48FEF7A4FCFB780A
S32D000103D819460A48FEF79FFCBB7819460748FEF79AFC7B7819460548FEF795FCFF210348FEF791FC00BF083739
S32D00010400BD4680BD00B00E4080B487B000AFF860B9607A60FB681F4AA2FB03239B09BA6813447B61FB681B4ADA
S32D00010428A2FB031292094FF47A7101FB02F29B1AFB60FB68DB03154AA2FB03239B097A6813443B613B69DB0BC4
S32D000104507A6913447B613B69C3F30E033B6100BF0D4B1B687A699A4209D80B4B1B687A699A4206D1084B5B68A1
S32D000104783A699A4201D9012300E00023002BEBD100BF00BF1C37BD4680BC7047D34D621000D0034080B584B019
S32D000104A000AF7860074B1B68FB60064B5B68BB607B68BA68F9681846FFF7A6FF00BF1037BD4680BD00D003408F
S32D000104C880B584B000AF78600B4B1B68FB600A4B5B68BB600949786804F0D6FE0346184605F0BEF80346BA68F7
S32D000104F0F9681846FFF788FF00BF1037BD4680BD00D0034000007A4480B584B000AFC7E900010E4B1B68FB608A
S32D000105180C4B5B68BB604FF000020B4BD7E9000104F05CFA02460B461046194604F02EFD0346BA68F968184646
S32D00010540FFF762FF00BF1037BD4680BD00D0034000408F4080B584B000AF134B1B68FB60114B5B68BB60F868DF
S32D0001056804F0C2F902460B46C7E90023B86804F0BBF94FF000020B4B04F05AFB02460B46D7E9000104F074F8E7
S32D0001059002460B46C7E90023D7E90023104619461037BD4680BD00BF00D003400000E04080B483B000AF0B4B53
S32D000105B81B684FF47A7202FB03F37B60074B5B684FF47A7202FB03F3DB0B7A6813447B607B6818460C37BD46DC
S32D000105E080BC704700D0034080B584B000AF78600B46FB700B23FB73FA7BFB781946786800F07CF87B681846D2
S32D000106081037BD4680BD000080B485B000AF78607B68103B002B00DA1F335B11FB60FB68022B43D0FB68022BCD
S32D000106305DDCFB68002B03D0FB68012B1DD056E02D4BD3F880317A68103A02F01F02012101FA02F21146284A42
S32D000106580B43C2F88031264B1B687A68103A02F01F02012101FA02F21146214A0B43136039E01F4BD3F88431F0
S32D000106807A68103A02F01F02012101FA02F21146194A0B43C2F88431174B5B687A68103A02F01F02012101FA03
S32D000106A802F21146124A0B4353601CE0104BD3F888317A68103A02F01F02012101FA02F211460B4A0B43C2F89C
S32D000106D08831094B9B687A68103A02F01F02012101FA02F21146044A0B43936000BF00BF1437BD4680BC7047F6
S32D000106F800E100E080B584B000AF78600B46FB701346BB707B68FA781A70BB78FB737B681B781A46574B9B5CF3
S32D00010720042B00F2A68001A252F823F0410701008D070100D90701007108010025080100FB7B1B0403F47023DD
S32D000107484D497A68127810464C4A52F8202043F4897343F0010341F82230494B5A697B681B781946454B53F80E
S32D00010770213003F01F03012101FA03F3DB43424913404B616720FFF743FF72E0FB7B1B0403F470233D497A68A1
S32D0001079812781046394A52F8202043F4897343F0010341F82230384B5A697B681B781946324B53F8213003F029
S32D000107C01F03012101FA03F3DB43314913404B616820FFF71DFF4CE0FB7B1B0403F470232C497A681278104622
S32D000107E8264A52F8202043F4897343F0010341F82230274B5A697B681B7819461F4B53F8213003F01F030121AC
S32D0001081001FA03F3DB43204913404B616920FFF7F7FE26E0FB7B1B0403F470231B497A6812781046134A52F8DC
S32D00010838202043F4897343F0010341F82230164B5A697B681B7819460C4B53F8213003F01F03012101FA03F348
S32D00010860DB430F4913404B616B20FFF7D1FE00E000BF00BF1037BD4680BD00BF08BA0100009004404CBA010062
S32D0001088800F00F4000A0044040F00F4000B0044080F00F4000D0044000F10F40B0B48BB000AF224B3C1D1D4621
S32D000108B00FCD0FC495E80F0084E80F0000237B622FE01D4BD3F8A0207B6A9B0028333B4453F8243C012101FA3F
S32D000108D803F31340002B14BF01230023DBB2002B18D0144A7B6A52F823305A1C11497B6A41F823200E4BD3F88E
S32D00010900A0207B6A9B0028333B4453F8243C012101FA03F308491340C1F8A0307B6A01337B627B6A072BCCDD0D
S32D0001092800BF00BF2C37BD46B0BC704750BB010000A004403C160020B0B489B000AF224B3C1D1D460FCD0FC413
S32D0001095095E8030084E803000023FB612FE01D4BD3F8A020FB699B0020333B4453F81C3C012101FA03F313402E
S32D00010978002B14BF01230023DBB2002B18D0FB690833134A52F823200132114941F823200E4BD3F8A020FB6991
S32D000109A09B0020333B4453F81C3C012101FA03F308491340C1F8A030FB690133FB61FB69052BCCDD00BF00BF29
S32D000109C82437BD46B0BC704770BB010000B004403C160020B0B48DB000AF234B3C461D460FCD0FC40FCD0FC4EC
S32D000109F095E8070084E807000023FB622FE01D4BD3F8A020FB6A9B0030333B4453F8303C012101FA03F3134060
S32D00010A18002B14BF01230023DBB2002B18D0FB6A0E33134A52F823200132114941F823200E4BD3F8A020FB6AE8
S32D00010A409B0030333B4453F8303C012101FA03F308491340C1F8A030FB6A0133FB62FB6A0A2BCCDD00BF00BF5C
S32D00010A683437BD46B0BC704788BB0100009004403C160020B0B487B000AF214B3C461D460FCD0FC42B682360E4
S32D00010A9000237B612FE01D4BD3F8A0207B699B0018333B4453F8183C012101FA03F31340002B14BF01230023A3
S32D00010AB8DBB2002B18D07B691933134A52F823200132114941F823200E4BD3F8A0207B699B0018333B4453F8D4
S32D00010AE0183C012101FA03F308491340C1F8A0307B6901337B617B69042BCCDD00BF00BF1C37BD46B0BC7047AC
S32D00010B08B4BB010000D004403C16002080B483B000AF78607B681B781A46044B53F8223018460C37BD4680BC38
S32D00010B30704700BF3C16002080B483B000AF78607B681B781946044B002243F8212000BF0C37BD4680BC704706
S32D00010B583C16002080B483B000AF78600B46FB707B68FA781A707B6818460C37BD4680BC7047000000000000F9
S32D00010B8080B586B000AF78607B681B781A463E4B53F822303B617B681B781A463B4B9B5CFB733B69DBB203F0D7
S32D00010BA81F03DAB2384B1A723B69DBB203F01F03DAB2354B5A72354B1022C3F88820FB7B002B13D130493248B6
S32D00010BD000F05CFA00BF304B1B6803F08003802B14BF01230023DBB2002BF4D12A4B1B697B6112E02649294894
S32D00010BF800F048FA00BF274B1B6803F08003802B14BF01230023DBB2002BF4D1214B1B697B611E4BD3F8883177
S32D00010C201C4A43F01003C2F888311A4B9B68194A43F0100393607B699BB2184603F058FE0DA3D3E9002303F028
S32D00010C48CDFE02460B46104619460BA3D3E9002303F0EEFF02460B461046194604F0B6F90346BB60BB68184621
S32D00010C701837BD4680BD00BFA4703D0AD7A30A4000000000E0FFEF40CCBA010028BA01001C16002000E100E05D
S32D00010C9800B0034000B00B4080B586B000AF78607B681B781A46234B53F822303B617B681B781A46204B9B5C98
S32D00010CC0FB733B69DBB203F01F03DAB21D4B1A723B69DBB203F01F03DAB21A4B5A72FB7B002B13D11749184889
S32D00010CE800F0D0F900BF164B1B6803F08003802B14BF01230023DBB2002BF4D1104B1B697B6112E00D490F486F
S32D00010D1000F0BCF900BF0D4B1B6803F08003802B14BF01230023DBB2002BF4D1074B1B697B617B69184618377A
S32D00010D38BD4680BDCCBA010028BA01002C16002000B0034000B00B4098B500AF204B5C221A701F4B10225A70BD
S32D00010D601D4B41F234225A801B4B45F278629A80194B10229A71184B0722DA71164B4FF4C022DA60144B1F2230
S32D00010D881A72134B1F225A721149124800F07AF90F49114800F076F90F4800F0D4F80D4800F0D1F80A490C4856
S32D00010DB000F06CF90849094800F068F9094A064B14460FCB84E80F00064B5C221A70054B0422DA7100BF98BD4B
S32D00010DD81C16002000B0034000B00B402C16002080B500AF064B1B680133054A136000F03DF8044B0122C3F84A
S32D00010E000C2100BF80BD00BFC01600200070034080B500AF0C4B01221A600C4800F01AF8094B0322C3F80821A7
S32D00010E28094BD3F88831084A43F01003C2F88831054B9B68044A43F01003936000BF80BD00700340A086010008
S32D00010E5000E100E080B483B000AF7860044A7B68C2F8003100BF0C37BD4680BC704700BF0070034080B584B0D5
S32D00010E7800AF184B1B68FB6023E0FB685B78FB71FB689B68184600F027F80346BB71BB79002B13D0FB685B6806
S32D00010EA0012B0FDDFB689B681B69BB6007E0BB685B685A1CBB685A60BB681B69BB60BB68002BF4D1FB68DB686B
S32D00010EC8FB60FB68002BD8D100BF00BF1037BD4680BD00BFBC16002080B584B000AF78607868FFF7D9FEF860BE
S32D00010EF07B689B695B78FB72FB7A002B0FD17B68DB68FA689A420ADD7B689B6901225A707B685B685A1C7B680E
S32D00010F185A60012313E0FB7A012B0FD17B689B68FA689A420ADA7B689B6900225A707B685B685A1C7B685A60C4
S32D00010F40012300E0002318461037BD4680BD80B485B000AF78607B681B6A23F040027B681A627B685B6A23F0AF
S32D00010F680B027B685A627B685B6A43F007027B685A627B685B6A43F080027B685A6200BF7B681B6803F0800394
S32D00010F90002B0CBF01230023DBB2002BF4D17B685B6A03F04003402B0CBF01230023DBB2002B01D0012364E02C
S32D00010FB80023FB817B68DB6CFB817B689B6C9AB2FB891344FB817B685B6C9AB2FB891344FB817B681B6C9AB235
S32D00010FE0FB891344FB817B68DB6B9AB2FB891344FB817B689B6B9AB2FB891344FB81FB895B08FB81FB896FEAF3
S32D0001100843436FEA5343FB81FA897B68DA620023FB817B68DB6EFB817B689B6E9AB2FB891344FB817B685B6EA4
S32D000110309AB2FB891344FB817B681B6E9AB2FB891344FB817B68DB6D9AB2FB891344FB817B689B6D9AB2FB8956
S32D000110581344FB81FB895B08FB81FB896FEA43436FEA5343FB81FA897B681A637B685B6A23F080027B685A62A6
S32D00011080002318461437BD4680BC704780B483B000AF786039603B681B781A467B689A603B685B781A467B68CC
S32D000110A8DA603B685B881A467B689A613B689B881A467B68DA613B689B791A467B681A623B68DB791A467B6827
S32D000110D05A623B68DA687B681A653B681B7A1A467B681A603B685B7A1A467B685A6000BF0C37BD4680BC70478C
S32D000110F880B483B000AF78607B6818460C37BD4680BC704780B582B000AF786039607B68012B07D13B684FF60B
S32D00011120FF72934202D10348FFF7E6FF00BF0837BD4680BDC416002080B500AF4FF6FF710120FFF7E3FF80BD5A
S32D0001114880B483B000AF78600B46FB707B68FA781A707B684FF4FA725A807B6840F6C4129A807B68034A9A6050
S32D000111707B6818460C37BD4680BC7047000080BF2DE9904385B000AF786039604FF00001386804F01BFA034627
S32D00011198002B02D04FF000033B603249386804F02FFA0346002B01D02E4B3B607B689B681946386804F0FCF9EF
S32D000111C00346002B00D04BE07B683A689A607B685C887B689B881A467B685B88D31A184603F096FB4FF000020F
S32D000111E8214B03F025FD02460B4690469946386803F09CFB02460B464046494603F0EEFB02460B461046194607
S32D0001121003F0C0FE03469BB22344FB81FB897B73FB891B0A9BB23B737F211248FDF777FD05211048FDF773FD2B
S32D000112387B681B7819460D48FDF76DFD3B7B19460A48FDF768FD7B7B19460848FDF763FDFF210648FDF75FFD88
S32D0001126000BF1437BD46BDE8908300BF000034430080664000B00E4080B582B000AF7860B84B4FF48072DA60E0
S32D00011288B74B4FF480729A64B54B4FF480721A64B34B4FF480725A64B14B4FF48072DA60B04B5B69AF4A43F008
S32D000112B008035361AE4B5B69AD4A43F480235361AB4B5B69AA4A43F480335361A84B5B69A74A43F400335361FC
S32D000112D8A54B1B68A44A43F008031360A24B5B69A14A43F0080353619E4B1B689D4A43F0080313609A4B4FF41B
S32D0001130080725A62984B4FF480721A62954B4FF480721A61934B4FF480725A61914B4FF480729A618F4B4FF4F5
S32D000113288072DA618D4B4FF480721A638B4B4FF480725A63894B4FF480729A63874B4FF48072DA63854B4FF4BA
S32D0001135080721A64834B4FF480725A64814B4FF480729A647F4B4FF48072DA64814B4FF480721A607F4B4FF479
S32D0001137880729A607D4B4FF48072DA607B4B4FF480721A61784B5B69774A43F440735361744B5B69734A43F450
S32D000113A07F2343F0F0035361734B5B69724A43F01D035361E221786800F0AEFD1D21786800F050FE0221786880
S32D000113C800F04CFE0421786800F048FEE021786800F09EFD0121786800F040FE6420FFF759F8E021786800F049
S32D000113F093FD0321786800F035FE0121786800F08BFD0120FFF74AF8E621786800F084FD0121786800F026FED6
S32D00011418A021786800F022FEFF21786800F01EFEB021786800F074FD1C21786800F016FE0F21786800F012FEA5
S32D000114400121786800F00EFE3F21786800F00AFE0021786800F006FEEF21786800F002FE0021786800F0FEFD86
S32D00011468B421786800F054FD0121786800F0F6FD9921786800F0F2FD0021786800F0EEFD4521786800F0EAFD08
S32D000114900221786800F0E6FD0021786800F0E2FD0021786800F0DEFD0021786800F0DAFDB621786800F030FD1F
S32D000114B80121786800F0D2FD0921786800F0CEFD0021786800F0CAFD0E21786800F0C6FD0221786800F0C2FD53
S32D000114E00021786800F0BEFD0021786800F0BAFDBA21786800F010FD0F21786800F0B2FD6420FEF7CBFF3A2184
S32D00011508786800F005FD6021786800F0A7FD2A21786800F0FDFC0021786800F09FFD0021786800F09BFD0121A1
S32D00011530786800F097FD3F21786800F093FD2B21786800F0E9FC0021786800F08BFD0021786800F087FD002158
S32D00011558786800F083FDEF2178680BE000B0044000A0044080F00F4040F00F4000C00440C0F00F4000F072FDC1
S32D000115803621786800F0C8FC0021786800F06AFDF021786800F0C0FC0421786800F062FDB821786800F0B8FCAB
S32D000115A80F21786800F05AFD0121786800F056FD314B1B68304A43F0080313606420FEF769FF3621786800F046
S32D000115D0A3FC0021786800F045FDF021786800F09BFC0421786800F03DFD0121786800F0C0F91E226F21786818
S32D000115F800F082F8AF225621786800F0DDF80021786800F00EFA012301221C49786800F02FFA2921786800F0B5
S32D000116207BFC6420FEF73AFFBE21786800F074FC0E21786800F016FDF021786800F012FD0121786800F00EFD54
S32D000116480021786800F00AFD0021786800F006FD0F21786800F002FD786800F0A5FA0121786800F0DEF900212F
S32D00011670786800F0B3F900BF0837BD4680BD00BF40F00F40C8BB010080B582B000AF78607B680022DA617B68BE
S32D0001169801221A627B680E225A607B681A229A607B6800225A617B6800229A617B684FF4A072DA607B68F02277
S32D000116C01A617B6800221A70786801F0FFF97B6818460837BD4680BD80B582B000AF7860064B1B78002B05D195
S32D000116E8044B01221A707868FFF7C2FD00BF0837BD4680BD0C17002080B58AB002AFF860B9607A607E23009322
S32D0001171062237A68B968F86800F093FE40F24E733B610023FB613FE00023BB6131E0FB690133224AD35C002B66
S32D0001173806D1FF23FB75FF23BB75FF237B7512E0FB6901331B4AD35C012B06D1D423FB750023BB7526237B75A1
S32D0001176005E0B523FB75BA23BB75B0237B757B7DBA7DF97DF86800F0D7F80246FB68DA61F86801F0A3F9F86866
S32D0001178801F0DCF8BB690133BB610A4AFB6913441B781A46BB699342C5DBFB690233FB61FA693B699A42BBDBF0
S32D000117B000BF00BF2037BD4680BD00BF0800002080B58AB002AFF860B9607A602723009395237A68B968F868AB
S32D000117D800F033FE40F2E6333B610023FB613FE00023BB6131E0FB690133224AD35C002B06D1FF23FB75FF2303
S32D00011800BB75FF237B7512E0FB6901331B4AD35C012B06D10023FB750023BB7500237B7505E0D423FB750023EE
S32D00011828BB7526237B757B7DBA7DF97DF86800F077F80246FB68DA61F86801F043F9F86801F07CF8BB69013334
S32D00011850BB610A4AFB6913441B781A46BB699342C5DBFB690233FB61FA693B699A42BBDB00BF00BF2037BD466C
S32D0001187880BD00BF5807002080B485B000AF78600B46FB70FB78062B29D801A252F823F0BD180100B5180100D1
S32D000118A0C3180100CB180100D3180100D9180100E11801006FF07F43FB6014E00023FB6011E04FF47F03FB6082
S32D000118C80DE04FF47F43FB6009E0FF23FB6006E04FF41903FB6002E0044BFB6000BFFB6818461437BD4680BC08
S32D000118F0704700BF9999990080B584B000AF786039603B681B0CFB733B681B0ABB733B687B737B7BBA7BF97BA1
S32D00011918786800F005F8034618461037BD4680BD80B487B000AF7860084611461A460346FB700B46BB70134625
S32D000119407B70FB789B08DBB27B61BB789B08DBB23B617B789B08DBB2FB607B691A033B699B011A43FB6813433A
S32D0001196818461C37BD4680BC704780B582B000AF78600B46FB70FB7819467868FFF77CFF03461946786800F064
S32D0001199004F800BF0837BD4680BD80B582B000AF7860396039687868FFF7A6FF02467B681A62786801F08AF851
S32D000119B8786800F0EBFB00BF0837BD4680BD80B582B000AF7860786800F0E0FB00BF0837BD4680BD80B582B0CE
S32D000119E000AF78600B46FB70FB7819467868FFF747FF03461946786800F004F800BF0837BD4680BD80B582B08E
S32D00011A0800AF7860396039687868FFF771FF02467B681A62786801F055F800BF0837BD4680BD80B582B000AF8F
S32D00011A3078600B46FB70FB7819467868FFF720FF03461946786800F004F800BF0837BD4680BD80B582B000AF64
S32D00011A587860396039687868FFF74AFF02467B68DA61786801F02EF800BF0837BD4680BD80B586B000AFF86021
S32D00011A80B9607A603B6000237B610EE07B69BA6813441B783A687968F86800F011FE7B680C337B607B690133D5
S32D00011AA87B617B69BA6813441B78002BEAD100BF00BF1837BD4680BD80B592B000AFF860B9607A603B6007F14C
S32D00011AD01403BA680749184604F0D4FC07F114013B687A68F868FFF7C7FF00BF4837BD4680BD00BFD4BB0100C1
S32D00011AF880B594B000AFF860B9607A603B60B86803F088FD0346BB64B86C03F069FB03461946B86803F0AEFAD3
S32D00011B2003461F49184603F0B3FB0346184603F075FD0346FB644FF00001B86803F046FD0346002B02D0FB6CEF
S32D00011B485B42FB644FF00001B86803F03BFD0346002B0ED01149B86803F052FD0346002B07D007F11400FB6C1B
S32D00011B70BA6C0D4904F086FC06E007F11400FB6CBA6C0A4904F07EFC07F114013B687A68F868FFF771FF00BFFD
S32D00011B985037BD4680BD00BF00007A44000080BFD8BB0100E4BB010080B582B000AF7860FCF78EFF6721012050
S32D00011BC0FCF7F7FE00210220FCF7F3FEA0210320FCF7EFFE50210420FCF7EBFE20210520FCF7E7FE202106200D
S32D00011BE8FCF7E3FE77210720FCF7DFFE00210820FCF7DBFE00210920FCF7D7FE00210A20FCF7D3FE04210B20E5
S32D00011C10FCF7CFFE7B684FF0FF32DA637B684FF0FF321A6400BF0837BD4680BD0000000080B586B000AFF860D4
S32D00011C38B9607A600020FCF7DAFE0346FB75FB7D03F00203002B00F0CC80FCF7EDFEE020FCF79EFE0220FEF78B
S32D00011C601DFCFCF7F3FE0120FEF718FCFCF7E0FEA520FCF791FE0120FEF710FCFCF7B3FE03461B02BB82FCF7BA
S32D00011C88AEFE03461A46BB8A1343BB82FCF7A7FE03461B027B82FCF7A2FE03461A467B8A13437B82BB8A1B0908
S32D00011CB0BB827B8A1B097B82FCF7C8FEFB68DB6BB3F1FF3F34D1FB681B6CB3F1FF3F2FD1BA8AFB68DA637A8AA5
S32D00011CD8FB681A647B8AC3F57F630F337B82BB8A184602F011FE48A3D3E9002302F076FE02460B4610461946FC
S32D00011D0003F068F90246BB681A607B8A184602F0FFFD41A3D3E9002302F064FE02460B461046194603F056F983
S32D00011D2802467B681A605AE0FB68DA6BBB8AD31A1946F86800F072F80346632B0CDCFB681A6C7B8AD31A1946C1
S32D00011D50F86800F067F80346632B01DC012300E00023002B2FD0BA8AFB68DA637A8AFB681A647B8AC3F57F6348
S32D00011D780F337B82BB8A184602F0C6FD22A3D3E9002302F02BFE02460B461046194603F01DF90246BB681A60AA
S32D00011DA07B8A184602F0B4FD1BA3D3E9002302F019FE02460B461046194603F00BF902467B681A600FE0BB686C
S32D00011DC8154A1A607B68144A1A60FB684FF0FF32DA63FB684FF0FF321A64002310E001230EE0BB680C4A1A60DF
S32D00011DF07B680B4A1A60FB684FF0FF32DA63FB684FF0FF321A64002318461837BD4680BD144001144001B43F04
S32D00011E181EE0011EE001AE3F000080BF80B483B000AF786039603B68002B02DA3B685B423B603B6818460C3721
S32D00011E40BD4680BC704780B584B000AF786039600023FB60786800F060FA11E07B6859697B689869FB683A68CD
S32D00011E6813441B780246786800F00CFC786800F064FAFB680133FB60FB683A6813441B78002BE7D100BF00BFD1
S32D00011E901037BD4680BD80B582B000AF78600B46FB70786800F039FA7B6859697B689A69FB78786800F0EAFB3C
S32D00011EB8786800F042FA00BF0837BD4680BD80B582B000AF78603960786800F022FA39687868FFF7B4FF786834
S32D00011EE000F006FA00BF0837BD4680BD80B582B000AF78600B46FB70786800F00EFAFB7819467868FFF7C7FFB5
S32D00011F08786800F0F1F900BF0837BD4680BD000080B483B000AF78600B46FB704D4B1B684C4A23F008031360C6
S32D00011F304B4B1B684A4A23F480231360484B1B68474A43F480331360454B1B68444A23F440731360414B1B68B7
S32D00011F58404A23F4435323F0300313603E4B1A68FB785B0203F400733B4913430B603A4B1A68FB785B101B02DE
S32D00011F8003F48073364913430B60344B1A68FB789B101B0103F01003304913430B602F4B1A68FB78DB105B01D7
S32D00011FA803F020032B4913430B602A4B1A68FB781B119B0103F04003264913430B60254B1A68FB785B11DB017A
S32D00011FD0DBB2224913430B60204B1A68FB789B111B0303F480531D4913430B601B4B1A6897F90330DB115BB26A
S32D00011FF85B0303F40053174913430B60164B1B68154A23F400331360134B1B68124A43F4003313600F4B1B68FA
S32D000120200E4A43F0080313600D4B1B680C4A43F440731360094B1B68084A43F4435343F030031360064B1B6857
S32D00012048054A43F48023136000BF0C37BD4680BC704700BF80F00F4040F00F4080B483B000AF78600B46FB702E
S32D00012070464B1B68454A23F008031360444B1B68434A43F480331360414B1B68404A43F4802313603E4B1B681F
S32D000120983D4A23F4407313603A4B1B68394A23F4435323F030031360374B1A68FB785B0203F400733449134353
S32D000120C00B60334B1A68FB785B101B0203F480732F4913430B602D4B1A68FB789B101B0103F010032949134366
S32D000120E80B60284B1A68FB78DB105B0103F02003244913430B60234B1A68FB781B119B0103F040031F4913434C
S32D000121100B601E4B1A68FB785B11DB01DBB21B4913430B60194B1A68FB789B111B0303F48053164913430B60D0
S32D00012138144B1A6897F90330DB115BB25B0303F40053104913430B600F4B1B680E4A23F4003313600C4B1B684D
S32D000121600B4A43F400331360084B1B68074A43F008031360064B1B68054A23F48023136000BF0C37BD4680BCB5
S32D00012188704700BF80F00F4040F00F4080B586B000AF78607B6800225A617B6800229A617B681B6AFB60FB689C
S32D000121B0FB72FB681B0ABB72FB681B0CDBB203F003037B722A217868FFF7A6FE00217868FFF748FF00217868DD
S32D000121D8FFF744FF01217868FFF740FF3F217868FFF73CFF2B217868FFF792FE00217868FFF734FF002178681A
S32D00012200FFF730FF00217868FFF72CFFEF217868FFF728FF2C217868FFF77EFE314B1B68304A23F44073136006
S32D000122282F4B1B682E4A23F47F2323F0F00313602C4B1B682B4A23F01D031360274B1A687B681B6B25491343AA
S32D000122500B60254B1A687B685B6B234913430B60224B1A687B689B6B204913430B601E4B1B681D4A23F00803B9
S32D0001227813601A4B1B68194A43F48023136000237B6118E000233B610EE0144B1B68134A23F400331360114B30
S32D000122A01B68104A43F4003313603B6901333B613B69B3F5A07FECD37B6901337B617B69EF2BE3D9084B1B6833
S32D000122C8074A43F008031360044B1B68034A23F48023136000BF1837BD4680BD40F00F4080F00F40C0F00F400E
S32D000122F080B483B000AF78607B689B69002B07DD7B685B695A1C7B685A617B6800229A6100BF0C37BD4680BCDF
S32D00012318704780B582B000AF78607B685A697B685B689A4205DB7B6800225A617868FFF72DFF00BF0837BD4626
S32D0001234080BD80B582B000AF78607B689B695A1C7B689A617B689A697B689B689A4205D17868FFF7C5FF786810
S32D00012368FFF7D7FF00BF0837BD4680BD80B586B002AFF860B9607A600123009301237A68B968F86800F059F856
S32D00012390F86800F0D7FA00BF1037BD4680BD80B485B000AF786039607B681B68FB603B681A687B681A603B6848
S32D000123B8FA681A6000BF1437BD4680BC704780B586B002AFF860B9607A603B60BA683B681A447B680093134626
S32D000123E07A68B968F86800F0ABF8BA683B68D118BA683B68D0187A68BB691344009303467A68F86800F09CF87E
S32D00012408BA683B68D1187A68BB69D0187A68BB6913440093BB680246F86800F08DF87A68BB691A447B680093FF
S32D00012430BB68B968F86800F083F800BF1037BD4680BD80B588B000AFF860B9607A603B60FB681B78022B03D030
S32D00012458FB681B78032B11D17B68FB61BA6AFB691344013BBB61FB68DA68BB68D31A3B613B683A69D31A013321
S32D000124807B610DE0BB68FB613A68FB691344013BBB617B687B61BA6A7B691344013B3B612A21F868FFF738FD64
S32D000124A8FB691B0ADBB203F00F03DBB21946F868FFF7D4FDFB69DBB21946F868FFF7CEFDBB691B0ADBB203F09D
S32D000124D00F03DBB21946F868FFF7C4FDBB69DBB21946F868FFF7BEFD2B21F868FFF714FD7B691B0ADBB203F06B
S32D000124F80F03DBB21946F868FFF7B0FD7B69DBB21946F868FFF7AAFD3B691B0ADBB203F00F03DBB21946F86840
S32D00012520FFF7A0FD3B69DBB21946F868FFF79AFD2C21F868FFF7F0FC00BF2037BD4680BD90B58BB000AFF86010
S32D00012548B9607A603B603A68BB68D31A1946F868FFF764FCF861BA6B7B68D31A1946F868FFF75CFCB861BA6978
S32D00012570FB699A42CCBF01230023FB75FB7D002B0CD03A1D07F1080311461846FFF707FF3B4607F13801184620
S32D00012598FFF701FFBA683B689A420CDD3A4607F1080311461846FFF7F6FE3B1D07F138011846FFF7F0FE3A6805
S32D000125C0BB689A4206D1BB687A681946F868FFF7D1FE55E0BA6B7B68D31A184602F004FE04463A68BB68D31A15
S32D000125E8184602F0FDFD03461946204602F000FF03463B617B68184602F0F2FD03467B62BB683B6234E0FB7D02
S32D00012610002B14D0786A02F08DF94FF000021A4B02F02AF802460B461046194602F08AFC03463A6A1946F86806
S32D00012638FFF79CFE13E0786A02F078F94FF000020F4B02F015F802460B461046194602F075FC03461A46396A14
S32D00012660F868FFF787FE3969786A02F009FD03467B623B6A01333B623B683A6A9A42C6DD2C37BD4690BD00BF20
S32D000126880000E03F80B584B000AFF860B9607A60FB707A6813465B0013449B00991CBA6813461B011344DA1C15
S32D000126B0FB78F86800F004F800BF1037BD4680BD80B58EB002AFF860B9607A60FB70FB780A2B06D1F868FFF747
S32D000126D820FEF868FFF708FEF2E0FB787D2B02D8FB781F2B01D82023FB70FB78203BFB70112300930C237A683D
S32D00012700B968F868FFF79DFEFA7813469B0013446F4AD35C3B75FA7813469B00134401336B4AD35C7B75FA780C
S32D0001272813469B0013440233674AD35CBB75FA7813469B0013440333634AD35CFB75FA7813469B0013440433BF
S32D000127505F4AD35C3B760023BB629FE0F86800F053F9F86800F0B6F8002387F82F3000237B6234E007F1140255
S32D000127787B6A13441B7803F00103002B14BF01230023BB76BB7E002B11D097F82F3083F00103DBB2002B03D0C1
S32D000127A0F86800F0CFF802E0F86800F093F8F86800F090F80DE097F82F30002B03D0F86800F022F902E0F868D8
S32D000127C800F084F8F86800F081F8BB7E87F82F307B6A01337B627B6A042BC7DD97F82F30002B03D0F86800F0AC
S32D000127F00BF902E0F86800F06DF8F86800F06AF8002387F82F3000233B6241E007F114023B6A13441B7803F0FB
S32D000128180103002B14BF01230023FB76FB7E002B11D097F82F3083F00103DBB2002B03D0F86800F083F802E0B5
S32D00012840F86800F047F8F86800F044F80DE097F82F30002B03D0F86800F0D6F802E0F86800F038F8F86800F0A5
S32D0001286835F8FB7E87F82F3007F114023B6A13441B785B08D9B207F114023B6A13440A461A703B6A01333B62D8
S32D000128903B6A042BBADDBB6A0133BB62BB6A062B7FF75CAFF86800F0AFF8002387F82F300123FB6105E0F868A4
S32D000128B800F00CF8FB690133FB61FB69232BF6DD3037BD4680BD00BF400B002080B483B000AF7860174B1B68E0
S32D000128E0164A43F480331360154B1B68144A23F008031360114B1B68104A43F4802313600E4B1B680D4A23F46A
S32D00012908003313600B4B1B680A4A43F400331360094B1B68084A43F008031360054B1B68044A23F480231360C8
S32D0001293000BF0C37BD4680BC704700BF40F00F4080F00F4080B483B000AF78602B4B1B682A4A43F480331360CB
