S01100002E2E2F50726F746575732E73313966
S32D0000C0000000002061C2000015C300001BC3000021C3000027C300002DC300000000000000000000000000005B
S32D0000C0280000000033C3000039C30000000000003FC3000045C3000021D300002DD3000039D3000045D30000D6
S32D0000C05051D300005DD3000069D3000075D3000081D300008DD3000099D30000A5D30000B1D30000BDD300003E
S32D0000C078C9D30000D5D30000E1D30000EDD30000F9D3000005D4000011D400001DD4000029D4000035D4000061
S32D0000C0A041D400004DD4000059D4000065D4000071D400007DD4000089D4000095D40000A1D40000ADD4000084
S32D0000C0C8B9D40000C5D40000D1D40000DDD40000E9D40000F5D4000001D500000DD5000019D5000025D50000A8
S32D0000C0F031D50000092701003DD5000049D5000055D5000061D500006DD5000079D5000085D5000091D500000B
S32D0000C1189DD50000A9D50000B5D50000C1D50000CDD50000D9D50000E5D50000F1D50000FDD5000009D6000068
S32D0000C14015D6000021D600002DD6000039D6000081FE000045D6000051D600005DD6000069D6000075D600005F
S32D0000C16881D600008DD6000099D60000A5D60000B1D60000BDD60000C9D60000D5D60000E1D60000EDD6000027
S32D0000C190F9D6000005D7000011D7000075FA00003DF90000D9F90000A5D0000015FB00001DD7000029D70000FE
S32D0000C1B835D7000020B3010000000020D013000020B301000000FF1F00000000D0130020280700000000FF1F34
S32D0000C1E00000000080B489B000AFF860B9607A60BB68FB61FB68BB6100237B610AE0BB691A1DBA611A68FB6987
S32D0000C208191DF9611A607B6904337B617A697B689A42F0D300BF00BF2437BD4680BC704780B485B000AF7860E3
S32D0000C23039607B68FB600023BB6007E0FB681A1DFA6000221A60BB680433BB60BA683B689A42F3D300BF00BFFA
S32D0000C2581437BD4680BC704780B586B000AF72B6234B4CF220521A80214B4DF628121A80204B4FF4E9721A8057
S32D0000C2801F4B7B6113E07B691A1D7A611B687B607B691A1D7A611B68FB607B691A1D7A611B68BB60BA68F96818
S32D0000C2A87868FFF79BFF7B69144A9342E7D30DE07B691A1D7A611B68FB607B691A1D7A611B68BB60B968F86851
S32D0000C2D0FFF7AAFF7B690C4A9342EDD30B4B3B610B4A3B691A6009F06FFB62B600F0A2FF00F0C2FEFEE700BF0D
S32D0000C2F80E20054000200540BCC10000D4C10000E4C1000008ED00E000C0000080B400AFFEE780B400AFFEE764
S32D0000C32080B400AFFEE780B400AFFEE780B400AFFEE780B400AFFEE780B400AFFEE780B400AFFEE780B400AF5C
S32D0000C348FEE780B400AFFEE7FFFFFFFFFFFFFFFFFFFFFFFFFFFFFFFFFFFFFFFFFFFFFFFFFFFFFFFFFFFFFFFF3A
S32D0000C370FFFFFFFFFFFFFFFFFFFFFFFFFFFFFFFFFFFFFFFFFFFFFFFFFFFFFFFFFFFFFFFFFFFFFFFFFFFFFFFFC7
S32D0000C398FFFFFFFFFFFFFFFFFFFFFFFFFFFFFFFFFFFFFFFFFFFFFFFFFFFFFFFFFFFFFFFFFFFFFFFFFFFFFFFF9F
S32D0000C3C0FFFFFFFFFFFFFFFFFFFFFFFFFFFFFFFFFFFFFFFFFFFFFFFFFFFFFFFFFFFFFFFFFFFFFFFFFFFFFFFF77
S32D0000C3E8FFFFFFFFFFFFFFFFFFFFFFFFFFFFFFFFFFFFFFFFFFFFFFFFFFFFFFFFFFFFFFFFFFFFFFFFFEFFFFFF50
S32D0000C44008B5034B1BB103490348AFF3008008BD00000000D013002010C4000080B582B000AF78607B682D4A5A
S32D0000C4680021184601F068F97B680833294A0121184601F061F97B681033264A0221184601F05AF97B681833F0
S32D0000C4900021184603F0F4F87B6819330121184603F0EEF87B681A330221184603F0E8F87B6844331821184623
S32D0000C4B803F09CFB7B684C330721184603F08CFE7B684FF00002DA617B684FF000025A627B684FF000021A6288
S32D0000C4E07B6800229A637B680022DA637B6800221A647B684FF000025A637B68084A9A627B68084ADA627B6801
S32D0000C508074A1A637B68074A9A647B6818460837BD4680BD000010416666E63ECDCC4C3DCDCC4C3E33335340C6
S32D0000C53080B582B000AF78607B684FF00001184601F066F97B6808334FF00001184601F05FF97B6810334FF0B4
S32D0000C5580001184601F058F900BF0837BD4680BD80B582B000AF786003F03CF802460B461046194607F04CFD33
S32D0000C58002467B68DA6103F031F802460B461046194607F041FD02467B685A627B684FF000021A627B680022FC
S32D0000C5A89A637B680022DA637B6800221A647B684FF000025A637B681833184603F004FB7B681933184603F0C4
S32D0000C5D0FFFA7B681A33184603F0FAFA7B684433184603F019FB02467B689A6404A1D1E9000102F0D5FF00BF02
S32D0000C5F80837BD4680BD00BF9A9999999999A93FB0B58CB000AFF860B9607A607B68002B0AD1FB6818331846C8
S32D0000C62003F0C4FA0246FB689B6BD31AFB6217E07B68012B0AD1FB681933184603F0B6FA0246FB68DB6BD31AD1
S32D0000C648FB6209E0FB681A33184603F0ABFA0246FB681B6CD31AFB6202F0C4FF04460D46FB68DB69184607F00E
S32D0000C67083F902460B462046294607F01DF802460B461046194607F0C7FC0346BB62F86A07F0CCFD0346B96AAA
S32D0000C698184607F0CFFE0346184607F069F95CA3D3E9002307F0BCF902460B461046194607F0AEFC03467B62B3
S32D0000C6C0796AB86807F0FCFC03463B62FB685B6B396A184607F0F6FC03461A46FB685A63FB689B6A1946386A2F
S32D0000C6E807F0F4FD0346FB61FB685A6BFB68DB6A1946104607F0EAFD0346BB61FB681B6A1946386A07F0D8FC1B
S32D0000C71003461A46FB681B6B1946104607F0DAFD03467B61FB683A6A1A6202F05FFF02460B461046194607F0A9
S32D0000C7386FFC0246FB68DA61FB681833184603F031FA0246FB689A63FB681933184603F029FA0246FB68DA63A5
S32D0000C760FB681A33184603F021FA0246FB681A643C2300222A492B4804F0CAF93C23C822796A284804F004FABA
S32D0000C788502300222649254804F0BEF95023C822396A224804F0F8F96423002221491F4804F0B2F9FB68DA6959
S32D0000C7B0FB685B6A1946104607F082FC034619466423C822174804F0E3F98C2300221849144804F09DF98C23FA
S32D0000C7D8C822F969114804F0D7F9FB68996C1423C8220E4804F0D0F9F969B86807F066FC0346B969184607F093
S32D0000C80061FC03467969184607F05CFC034618463037BD46B0BD00BF90AAB253F65A993FC8A80100C8160020C2
S32D0000C828D4A80100E0A80100ECA8010000000000F0B58BB000AFF860B9607A603B60F868FFF78EFEBE4804F0F6
S32D0000C85006F97B68002B40F09B806AE00122B968F868FFF7D1FE034683F00044386C07F0DDFC0346194620462D
S32D0000C87807F02CFD03467B610222B968F868FFF7BFFE0446386C07F0CDFC03461946204607F01CFD03463B6144
S32D0000C8A0FB6803F10804786907F066F8A0A3D3E9002307F0E3F902460B46104619464FF00002A24B07F0B0F8C1
S32D0000C8C802460B461046194607F0A2FB03461946204600F099FFFB6803F11004386907F047F891A3D3E9002375
S32D0000C8F007F0C4F902460B46104619464FF00002924B07F091F802460B461046194607F083FB034619462046A9
S32D0000C91800F07AFF7B6C012B02D1F86800F030FA83A1D1E9000102F037FEFB681933184603F038F90446FB6844
S32D0000C9401A33184603F032F903462344DA0F13445B10184606F0FEFF04460D46386807F00BF877A3D3E9002324
S32D0000C96807F05EF802460B4601210E462046294607F0C8FA0346002B01D100231E46F3B2002B7FF467AF7CE134
S32D0000C9907B68012B40F04B819BE00022B968F868FFF732FE0446386C07F040FC03461946204607F08FFC034630
S32D0000C9B8FB610222B968F868FFF722FE034683F00044386C07F02EFC03461946204607F07DFC0346BB61FC682E
S32D0000C9E0F86906F0C9FF52A3D3E9002307F046F902460B46104619464FF00002534B07F013F802460B461046E2
S32D0000CA08194607F005FB03461946204600F0FCFEFB6803F11004B86906F0AAFF42A3D3E9002307F027F9024664
S32D0000CA300B46104619464FF00002444B06F0F4FF02460B461046194607F0E6FA03461946204600F0DDFE0023F8
S32D0000CA5800223D493A4804F057F8FB681833184603F0A0F801460023C822354804F070F814230022354932482E
S32D0000CA8004F046F8FB681933184603F08FF801461423C8222C4804F05FF8282300222E49294804F035F8FB68CF
S32D0000CAA81A33184603F07EF801462823C822244804F04EF87B6C012B02D1F86800F060F91BA1D1E9000102F032
S32D0000CAD067FDFB681833184603F068F80446FB681A33184603F062F803462344DA0F13445B10184606F02EFFF4
S32D0000CAF804460D46386806F03BFF0FA3D3E9002306F08EFF02460B4601210E462046294607F0F8F90346002B4F
S32D0000CB2001D100231E46F3B2002B7FF436AFACE03333333333B33E409A9999999999A93F295C8FC2F588414057
S32D0000CB48C816002000005940F0A80100FCA8010008A901000022B968F868FFF751FD034683F00044386C07F0B6
S32D0000CB705DFB03461946204607F0ACFB03467B620122B968F868FFF73FFD0446386C07F04DFB0346194620465C
S32D0000CB9807F09CFB03463B62FC68786A06F0E8FE3BA3D3E9002307F065F802460B46104619464FF000023C4BB2
S32D0000CBC006F032FF02460B461046194607F024FA03461946204600F01BFEFB6803F10804386A06F0C9FE2CA315
S32D0000CBE8D3E9002307F046F802460B46104619464FF000022C4B06F013FF02460B461046194607F005FA034670
S32D0000CC101946204600F0FCFD7B6C012B02D1F86800F0B2F81EA1D1E9000102F0B9FCFB681833184602F0BAFF90
S32D0000CC380446FB681933184602F0B4FF03462344DA0F13445B10184606F080FE04460D46386806F08DFE12A332
S32D0000CC60D3E9002306F0E0FE02460B4601210E462046294607F04AF90346002B01D100231E46F3B2002B7FF4C5
S32D0000CC8869AFF868FFF750FC00BF2C37BD46F0BD3333333333B33E409A9999999999A93F295C8FC2F58841406F
S32D0000CCB00000594080B582B000AF786039607B683968184600F0A4FD7B6808333968184600F09EFD7B681033F5
S32D0000CCD83968184600F098FD00BF0837BD4680BD90B583B000AF78607B684433184602F08FFF0346184606F098
S32D0000CD003BFE01231C461EA3D3E9002307F0FEF80346002B01D100231C46E3B2002B01D0002326E07B684433DA
S32D0000CD28184602F075FF0346184606F021FE12A3D3E9002307F004F90346002B0FD07B684433184602F064FF75
S32D0000CD5003464FF07F51184607F05AFC0346002B01D0012300E00023002B01D0012300E0022318460C37BD467D
S32D0000CD7890BD00BFAFF30080333333333333D33F90B583B000AF78607B684433184602F03FFF02467B689B6C02
S32D0000CDA001210C461946104607F032FC0346002B01D100231C46E3B2002B07D07B684433184602F029FF02469B
S32D0000CDC87B689A6400BF0C37BD4690BD80B582B000AF786000BF7868FFF782FF0346022B05D07868FFF77CFF6A
S32D0000CDF00346012B01D1012300E00023002BEED100BF00BF0837BD4680BD80B582B000AF78607B681846FFF79B
S32D0000CE1821FB7B6858330721184603F0DDF97B6818460837BD4680BD80B586B002AF78607B681846FFF7CAFF5F
S32D0000CE40574806F08DFAF86078680023019301230093544B00225449FFF7EEFC7B6853491846FFF727FF4AA1E0
S32D0000CE68D1E9000102F098FB7B681846FFF75CFB7868002301934FF0FF330093484B02224749FFF7D5FCFB68C2
S32D0000CE90002B26D178680023019301230093444B02224149FFF7C8FC7B6842491846FFF701FF39A1D1E90001B6
S32D0000CEB802F072FB7B681846FFF736FB786800230193012300934FF07E5301223449FFF7AFFC786800F070F8AE
S32D0000CEE052E0FB68012B26D178680023019301230093314B02222C49FFF79EFC7B682D491846FFF7D7FE24A132
S32D0000CF08D1E9000102F048FB7B681846FFF70CFB786800230193012300934FF07E5301221F49FFF785FC78688D
S32D0000CF3000F046F828E0FB68022B25D1786800230193012300931D4B02221749FFF774FC7B6818491846FFF7DF
S32D0000CF58ADFE0FA1D1E9000102F01EFB7B681846FFF7E2FA786800230193012300934FF07E5301220A49FFF7AD
S32D0000CF805BFC786800F01CF800BF1037BD4680BDCDCCCCCCCCCCF43F9A9999999999C93F3017002000001041AF
S32D0000CFA80000E0400000F0C1000098410000F0410000B8410000D04180B584B002AF78604FF00000244902F0E6
S32D0000CFD0E7FA7B6858332349184603F01DF91EA1D1E9000102F0DCFA786800230193012300934FF0804301225C
S32D0000CFF81B49FFF71DFC7B6858331A49184603F007F94FF00000184902F0C6FA7868002301934FF0FF33009389
S32D0000D0204FF07E5301221049FFF706FC0AA1D1E9000102F0B5FA7B6858330E49184603F0EBF84FF000000649D0
S32D0000D04802F0AAFA00BF0837BD4680BDAFF30080333333333333E33F0000F03F0000A0420000E0400000AA4253
S32D0000D0700000104000000C4280B59AB000AF3B1D1846FFF7C2FE064805F048FF3B1D1846FFF7CEFE00231846D7
S32D0000D0986837BD4680BD00BF3017002080B500AF0F4BD3F8A03003F48053002B14BF01230023DBB2002B10D0E5
S32D0000D0C0094BD3F8A030084A23F48053C2F8A030064806F053FA064B1B68054A23F40053136000BF80BD00BF41
S32D0000D0E800C0044050170020C0F00F4080B400AF124B4FF480725A63114B5B69104A43F4005353610E4B1B68CA
S32D0000D1100D4A43F4005313600A4B0C4A1A630C4BD3F888310A4A43F08063C2F88831084B9B68074A43F0806300
S32D0000D138936000BFBD4680BC704700BF00C00440C0F00F4003010A0000E100E080B400AF334B00225A70324BC6
S32D0000D16098221A7000BF304B9B79DBB203F01003002B14BF01230023DBB2002BF3D100BF294B9B79DBB29B0844
S32D0000D188DBB203F00303022B14BF01230023DBB2002BF1D1224B18221A71214B00225A71204B03F580531A4611
S32D0000D1B01F4B53641C4B54225A7100BF1A4B9B79DBB203F02003002B0CBF01230023DBB2002BF3D100BF144BD6
S32D0000D1D89B79DBB203F04003002B0CBF01230023DBB2002BF3D10E4B1B78DBB20C4A03F03F03DBB2137000BFC6
S32D0000D200094B9B79DBB29B08DBB203F00303032B14BF01230023DBB2002BF1D100231846BD4680BC704700BFEA
S32D0000D22800400640007004400000130180B500AF314B03F580539B6B2F4A43F4785302F580529363FFF752FFD8
S32D0000D250FFF780FF2B4B58221A602A4B1B684FF47A7202FB03F3284A1360274B1B681A46234B03F580535B6C7D
S32D0000D2781B0E03F00F030133B2FBF3F31A46214B1A601D4B03F58053DB6B1B4A43F0225302F58052D363184B65
S32D0000D2A003F580531B6B164A43F0006302F580521363174B4FF480721A61642002F046F8134B5B69124A23F083
S32D0000D2C810035361104B00221A600F4B10225A610E4803F049FA02F083FD02F0E1FD0C4802F092F80B4806F04C
S32D0000D2F099F94FF4FA6002F03DF900BF80BD00BF0070044014160020101600201816002000D00340C81600205B
S32D0000D3180C160020C017002080B500AFFFF711F800BF80BD80B500AFFFF70BF800BF80BD80B500AFFFF705F81F
S32D0000D34000BF80BD80B500AFFEF7FFFF00BF80BD80B500AFFEF7F9FF00BF80BD80B500AFFEF7F3FF00BF80BD5C
S32D0000D36880B500AFFEF7EDFF00BF80BD80B500AFFEF7E7FF00BF80BD80B500AFFEF7E1FF00BF80BD80B500AF82
S32D0000D390FEF7DBFF00BF80BD80B500AFFEF7D5FF00BF80BD80B500AFFEF7CFFF00BF80BD80B500AFFEF7C9FFB7
S32D0000D3B800BF80BD80B500AFFEF7C3FF00BF80BD80B500AFFEF7BDFF00BF80BD80B500AFFEF7B7FF00BF80BD98
S32D0000D3E080B500AFFEF7B1FF00BF80BD80B500AFFEF7ABFF00BF80BD80B500AFFEF7A5FF00BF80BD80B500AFBE
S32D0000D408FEF79FFF00BF80BD80B500AFFEF799FF00BF80BD80B500AFFEF793FF00BF80BD80B500AFFEF78DFF2E
S32D0000D43000BF80BD80B500AFFEF787FF00BF80BD80B500AFFEF781FF00BF80BD80B500AFFEF77BFF00BF80BDD3
S32D0000D45880B500AFFEF775FF00BF80BD80B500AFFEF76FFF00BF80BD80B500AFFEF769FF00BF80BD80B500AFF9
S32D0000D480FEF763FF00BF80BD80B500AFFEF75DFF00BF80BD80B500AFFEF757FF00BF80BD80B500AFFEF751FFA6
S32D0000D4A800BF80BD80B500AFFEF74BFF00BF80BD80B500AFFEF745FF00BF80BD80B500AFFEF73FFF00BF80BD0F
S32D0000D4D080B500AFFEF739FF00BF80BD80B500AFFEF733FF00BF80BD80B500AFFEF72DFF00BF80BD80B500AF35
S32D0000D4F8FEF727FF00BF80BD80B500AFFEF721FF00BF80BD80B500AFFEF71BFF00BF80BD80B500AFFEF715FF1E
S32D0000D52000BF80BD80B500AFFEF70FFF00BF80BD80B500AFFEF709FF00BF80BD80B500AFFEF703FF00BF80BD4A
S32D0000D54880B500AFFEF7FDFE00BF80BD80B500AFFEF7F7FE00BF80BD80B500AFFEF7F1FE00BF80BD80B500AF73
S32D0000D570FEF7EBFE00BF80BD80B500AFFEF7E5FE00BF80BD80B500AFFEF7DFFE00BF80BD80B500AFFEF7D9FE99
S32D0000D59800BF80BD80B500AFFEF7D3FE00BF80BD80B500AFFEF7CDFE00BF80BD80B500AFFEF7C7FE00BF80BD89
S32D0000D5C080B500AFFEF7C1FE00BF80BD80B500AFFEF7BBFE00BF80BD80B500AFFEF7B5FE00BF80BD80B500AFAF
S32D0000D5E8FEF7AFFE00BF80BD80B500AFFEF7A9FE00BF80BD80B500AFFEF7A3FE00BF80BD80B500AFFEF79DFE11
S32D0000D61000BF80BD80B500AFFEF797FE00BF80BD80B500AFFEF791FE00BF80BD80B500AFFEF78BFE00BF80BDC4
S32D0000D63880B500AFFEF785FE00BF80BD80B500AFFEF77FFE00BF80BD80B500AFFEF779FE00BF80BD80B500AFEA
S32D0000D660FEF773FE00BF80BD80B500AFFEF76DFE00BF80BD80B500AFFEF767FE00BF80BD80B500AFFEF761FE88
S32D0000D68800BF80BD80B500AFFEF75BFE00BF80BD80B500AFFEF755FE00BF80BD80B500AFFEF74FFE00BF80BD00
S32D0000D6B080B500AFFEF749FE00BF80BD80B500AFFEF743FE00BF80BD80B500AFFEF73DFE00BF80BD80B500AF26
S32D0000D6D8FEF737FE00BF80BD80B500AFFEF731FE00BF80BD80B500AFFEF72BFE00BF80BD80B500AFFEF725FE00
S32D0000D70000BF80BD80B500AFFEF71FFE00BF80BD80B500AFFEF719FE00BF80BD80B500AFFEF713FE00BF80BD3B
S32D0000D72880B500AFFEF70DFE00BF80BD80B500AFFEF707FE00BF80BD80B584B000AFF8600B467A60FB72FB68AE
S32D0000D750FA7A1A71FB6800225A711749786806F075FF0346002B02D0134B7B600AE04FF07E51786806F056FF10
S32D0000D7780346002B02D04FF07E537B60786806F0F7F809A3D3E9002306F04AF902460B461046194606F03CFC4D
S32D0000D7A00246FB681A60FB6818461037BD4680BDABAAAAAAAAAA20400000404180B584B000AF786039603B68E4
S32D0000D7C87F2B02DD7F23FB7308E03B6813F1800F02DA8023FB7301E03B68FB737B685B79FA7B9A4209D07B68D9
S32D0000D7F0FA7B5A717B681979FA7B1E23034801F041FE00BF1037BD4680BD00BF0C160020B0B584B000AF7860BE
S32D0000D81839603749386806F0F7FE0346002B02D0334B3B6008E03349386806F00BFF0346002B01D02F4B3B6081
S32D0000D840386806F099F804460D467B681B68184606F092F84FF00002294B06F00FFA02460B462046294606F09A
S32D0000D868DFF802460B461046194606F0D1FB03463B604FF00001386806F0DAFE0346002B10D0386806F074F8C3
S32D0000D89017A3D3E9002306F0C7F802460B461046194606F071FB0346FB6018E0386806F063F84FF00002134B40
S32D0000D8B806F0B6F802460B46104619464FF000020D4B06F0D7F902460B461046194606F057FB0346FB60F96856
S32D0000D8E07868FFF76BFF00BF1037BD46B0BD00BF52B81E85EB51F43F0000C8C20000C8420000594000006040BC
S32D0000D90880B483B000AF03460A46FB711346BB71BB79002B03D1134B00221A7002E0114B01221A703823FB7162
S32D0000D9300E4B1A78FB791343FB710D4B9B78DBB20B4A43F01003DBB29370094B9B78DBB2074A43F02003DBB25D
S32D0000D9589370054AFB79137100BF0C37BD4680BC704700BFE81300200060064080B483B000AF01237B6003E0E7
S32D0000D98000BF7B6801337B607B68312BF8DD00BF00BF0C37BD4680BC7047000080B582B000AF03460A46FB71E2
S32D0000D9A81346BB71134B1B7800211846FFF7A8FF00F024F8104AFB79137100F01FF80E4ABB79137100F01AF848
S32D0000D9D00B4B9B78DBB20A4A23F02003DBB29370074B9B78DBB2064A23F01003DBB29370FFF7C0FF00BF08376E
S32D0000D9F8BD4680BDE91300200060064080B483B000AF174B1B78002B24D100237B600CE07B6842F2107293427C
S32D0000DA2003DD114B01221A700FE07B6801337B6000BF0E4BDB78DBB203F00203002B0CBF01230023DBB2002B29
S32D0000DA48E6D1084BDB78DBB2064A43F00203DBB2D37000E000BF0C37BD4680BC704700BFEA1300200060064014
S32D0000DA7080B582B000AF0346FB71FB79184600F05FF800BF0837BD4680BD80B582B000AF03460A46FB711346F2
S32D0000DA98BB7100F035F8FB795B00DBB21846FFF7E3FFBB791846FFF7DFFF00F037F800BF0837BD4680BD80B58D
S32D0000DAC000AFFF2000F03CF80346184680BD80B584B000AF0346FB7100F016F8FB795B005BB243F001035BB277
S32D0000DAE8DBB21846FFF7C0FFFFF7E5FF0346FB7300F014F8FB7B18461037BD4680BD000080B400AF044B9B6853
S32D0000DB10034A43F48013936000BFBD4680BC704740F00F4080B400AF044B5B68034A43F48013536000BFBD4628
S32D0000DB3880BC704740F00F4080B485B000AF0346FB710023BB7302E0FB7B0133FB73144BDB6A03F00043012B2F
S32D0000DB600CBF01230023DBB2002BF1D10E4BDB6A0D4A43F00043D3620B4AFB79536300BF094BDB6A03F400336A
S32D0000DB88002B0CBF01230023DBB2002BF4D1044B9B6BBB73BB7B18461437BD4680BC704700C00A400000000053
S32D0000DBB080B582B000AF204B03F580531B6B1E4A43F4805302F5805213631C4B4FF480721A651B4B5B691A4A1B
S32D0000DBD843F480135361FFF7A1FF164B4FF400725A65144B4FF400729A65124B4FF40072DA65124B124A1A609F
S32D0000DC00104B124ADA6000237B6005E0FF20FFF72FFF7B6801337B607B68092BF6DD04A1D1E9000101F0BCFCFA
S32D0000DC2800BF0837BD4680BD9A9999999999B93F0070044000A0044040F00F4000C00A40000C00800500003E11
S32D0000DC5090B486B000AFF860B9607A60FB68534A93420AD1524B03F580535B6B504A43F4806302F58052536321
S32D0000DC7845E0FB684D4A93420AD14B4B03F580535B6B494A43F4006302F58052536336E0FB68474A93420AD122
S32D0000DCA0434B03F580535B6B414A43F4805302F58052536327E0FB68404A93420AD13C4B03F580535B6B3A4AE3
S32D0000DCC843F4005302F58052536318E0FB683A4A93420AD1344B03F580539B6A324A43F4806302F580529362F3
S32D0000DCF009E02F4B03F580539B6A2D4A43F4006302F580529362FB68DB78DBB223F00C03DAB2FB68DA70FB6803
S32D0000DD1800229A70BB684FF47A7203FB02F27B681B0192FBF3F39CB2FB681B78DBB223F01F03FB75230A9BB20B
S32D0000DD40DBB203F01F03DAB2FB7D1343DAB2FB681A70E2B2FB685A70BB684FF4FA4203FB02F27B681B0192FB5F
S32D0000DD68F3F39AB263019BB2D31A9CB2FB689B7ADBB223F01F03FB75E3B203F01F03DAB2FB7D1343DAB2FB68D2
S32D0000DD909A72FB68DB78DBB243F00C03DAB2FB68DA7000BF1837BD4690BC704700A006400070044000B00640F7
S32D0000DDB800C0064000D0064000A00E4080B483B000AF786000BF7B681B79DBB203F02003002B0CBF012300232F
S32D0000DDE0DBB2002BF3D17B68DB79DBB218460C37BD4680BC704780B483B000AF78600B46FB7000BF7B681B795E
S32D0000DE08DBB25BB2DB43DBB2DB09DBB2002BF5D17B68FA78DA7100BF0C37BD4680BC704780B487B000AFF8603B
S32D0000DE30B9607A60FB687B6106E0BB68D9B27B695A1C7A610A461A707B685A1E7A60002B14BF01230023DBB2E8
S32D0000DE58002BEED100BF00BF1C37BD4680BC704780B584B000AF786039607B681B6BFB60FA683B689A4252D09B
S32D0000DE807B681B79002B35D07B6858787B6803F134010123FA6801F0F7F80346002B14BF01230023DBB2002B62
S32D0000DEA801D001233CE07B6800221A717B685A6A7B681B6A1344FA689A4217D27B68DB78FB7210E07B681B6A23
S32D0000DED0FA681344FB607B6858787B6803F134010123FA6801F0D0F8FB7A013BFB72FB7A012BEBD83B68002BC2
S32D0000DEF815D07B6858787B6803F1340101233A6800F0D8FF0346002B14BF01230023DBB2002B01D0012303E0AD
S32D0000DF207B683A681A63002318461037BD4680BD80B584B000AF786000217868FFF794FF0346FB73FB7B002BF7
S32D0000DF4840F093807B681B78032B7DD17B685B79002B79D07B6800221A637B6834334FF4007200211846FFF755
S32D0000DF705BFF7B68552283F832227B68AA2283F833227B68522283F834207B68522283F835207B68612283F853
S32D0000DF9836207B68412283F837207B68722283F818227B68722283F819227B68412283F81A227B68612283F8B6
S32D0000DFC01B227B681B69DAB27B6883F81C227B681B699BB21B0A9BB2DAB27B6883F81D227B681B691B0CDAB2FE
S32D0000DFE87B6883F81E227B681B691B0EDAB27B6883F81F227B68DB68DAB27B6883F820227B68DB689BB21B0AC8
S32D0000E0109BB2DAB27B6883F821227B68DB681B0CDAB27B6883F822227B68DB681B0EDAB27B6883F823227B688C
S32D0000E03858787B6803F134017B685A69012301F01FF87B6800225A717B685B7800220021184601F0E1F80346D2
S32D0000E060002B14BF01230023DBB2002B01D00123FB73FB7B18461037BD4680BD80B582B000AF78600B467B809D
S32D0000E0887B68002B08D07B681B78002B04D07B68DB887A889A4201D0092311E07B685B78184601F03BF903467B
S32D0000E0B003F00103002B14BF01230023DBB2002B01D0032300E0002318460837BD4680BD80B586B000AF786085
S32D0000E0D87B681A687B689B8819461046FFF7CAFF0346FB75FB7D002B40F0AC807B689B7903F02003002B00F05B
S32D0000E100A5807B689B7903F04003002B1BD07B681B6858787B6803F128017B689A69012300F0B2FF0346002B34
S32D0000E12814BF01230023DBB2002B01D001238AE07B689B7923F04003DAB27B689A717B681A687B68DB691946E6
S32D0000E1501046FFF789FE0346FB75FB7D002B75D17B681B6A3B613B690B331A783B690B3342F02002D2B21A7070
S32D0000E1787B68DA683B691C33D2B21A707B68DB689BB21B0A9AB23B691D33D2B21A707B68DB681A0C3B691E332C
S32D0000E1A0D2B21A707B68DB681A0E3B691F33D2B21A707B681A693B691A33D2B21A707B681B699BB21B0A9AB267
S32D0000E1C83B691B33D2B21A707B681B691A0C3B691433D2B21A707B681B691B0C9BB21B0A9AB23B691533D2B2E7
S32D0000E1F01A700023FB603B691633FA68D2B21A70FB689BB21B0A9AB23B691733D2B21A70FB681A0C3B69183307
S32D0000E218D2B21A70FB681A0E3B691933D2B21A707B689B7923F02003DAB27B689A717B681B6801221A717B68A3
S32D0000E2401B681846FFF774FE0346FB75FB7D18461837BD4680BD80B584B000AF78607868FFF736FF0346FB7397
S32D0000E268FB7B002B02D17B6800221A60FB7B18461037BD4680BD000080B588B000AF7860396080233B610F233C
S32D0000E290FB604FF0FF337B610223FB6122E00123BB6119E0FB69BA6902FB03F33A6803FB02F27B68D31ABB6003
S32D0000E2B8BB68002B09DBBB687A699A4205D9BB687B61FB693B61BB69FB60BB690133BB61BB69102BE2D9FB69D6
S32D0000E2E05B00FB61FB69B3F5807FD8D91D4BDB6A1C4A23F00803D3621A4BDB6A23F47F2323F47F63BB613B691B
S32D0000E3085B081B029AB2FB68013B1B01DBB21A43BB691343114A43F46023D36202E00A2001F024F90D4B5B6A7B
S32D0000E33003F00803002B0CBF01230023DBB2002BF1D1084BDB6A074A43F00803D362054B1B6B044A43F48013C0
S32D0000E358136300BF2037BD4680BD00BF00100B4080B582B000AF786039607B6800221A60414B424ADA6200BF98
S32D0000E3803F4BDB6A03F08073002B14BF01230023DBB2002BF4D13A4B0022C3F8C020384B4FF481325A60364B02
S32D0000E3A828229A62344B4FF001125A643B689B6833491846FFF760FF00BF2F4B5B6A03F00303002B14BF012384
S32D0000E3D00023DBB2002BF4D12C4B40F243421A602A4B40F243425A60284B4FF488629A60264B40F24342DA60F5
S32D0000E3F8244B40F243421A61224B40F243425A61214B03F580531B6B1F4A43F4003302F580521363184B4FF600
S32D0000E420FF721A63164B1B4A5A63154BDB6A144A43F00063D36200BF114BDB6A03F00063002B14BF0123002394
S32D0000E448DBB2002BF4D10C4B5B6A03F48033002B14BF01230023DBB2002B02D07B6801221A60054B1B6B044AF0
S32D0000E47043F080031363002318460837BD4680BD00100B400080000160CC050000D0044000700440B3007F004B
S32D0000E49880B400AF064B5A6A40F207331340002B14BF01230023DBB21846BD4680BC704700100B4080B485B0B5
S32D0000E4C000AF7860064B1B6B7A681340FB60FB68002BF7D0FB6818461437BD4680BC704700100B4080B584B025
S32D0000E4E800AF78607B681B7803F03F03764A52F82330FB60FB68002B05D17B681B78002B01D00123DCE0714BAA
S32D0000E5101B6B704A43F08003136300BF6D4B5B6A03F00103002B14BF01230023DBB2002BF4D1684A7B685B6824
S32D0000E5389360FB6823F44003FB607B685B789B0503F44003FA681343FB607B685B78022B03D1FB6843F40013A3
S32D0000E560FB607B685B78042B16D1FB6803F44033B3F5003F08D1FB6823F44033FB60FB6843F44033FB6007E042
S32D0000E588FB6823F44033FB60FB6843F40033FB604E4B5B684D4A9BB253607B68DB68002B2AD0FB6803F44033EA
S32D0000E5B0B3F5403F03D0FB6843F40013FB607B681B7A002B03D0FB6843F01003FB607B68DB68012B03D9FB6830
S32D0000E5D843F02003FB607B68DB68B3F1FF3F0BD03A4B5A687B68DB681B04384913434B60FB6843F00203FB607D
S32D0000E600344B00221A60334AFB68D3603248FFF755FF0346012B14BF01230023DBB2002B09D02C4B1B6B2B4A68
S32D0000E62843F4702343F001031363012348E0274B1B6B03F08003002B14BF01230023DBB2002B07D0214B1B6BCD
S32D0000E650204A43F001131363012335E01D4B1B6B03F48033002B14BF01230023DBB2002B08D0184B1B6B174A85
S32D0000E67843F0011313634FF0FF3321E0FB6803F44033002B15D0114B1A697B681A61FB6803F44033B3F5803FF7
S32D0000E6A00BD10C4B5A697B685A610A4B9A697B689A61084BDA697B68DA61064B1B6B054A43F0010313630023D8
S32D0000E6C818461037BD4680BD20A9010000100B4001000E0080B592B000AF7860396000237B643B68BB63994BCD
S32D0000E6F07B637B6B002B02D140F601235FE3964B3B633B6B002B02D140F60B2357E33B6B1B68FB62FB6A002BC7
S32D0000E71802D140F60B234EE37B6841F20932934200F23F837B68B3F5985F08D87B68032B00F01A837B68092B7A
S32D0000E74000F0098331E37B68A3F59853013B082B00F22B8301A252F823F000BF81E700006DEA0000C9EC000073
S32D0000E76883EA0000C1EA0000E7EB00002FEC000071EB00008BEB00007649786BFFF7F0FD78647B6C002B40F009
S32D0000E7901083002387F84330002387F82B30002387F82A30002387F82930002387F84230002387F8283000238E
S32D0000E7B83B7200237B720023FB6000233B7400237B6107F108031846FFF788FE0346002B14BF01230023DBB22F
S32D0000E7E0002B02D001237B64E8E240F24C4000F0C1FE08233B7200237B724FF4D573FB6000233B7400237B6135
S32D0000E80807F108031846FFF769FEF863FB6B002B09D1BA69FB689A4202D001237B64C9E2012387F84230012343
S32D0000E83087F8283097F82830002B00F0A58037233B7200237B720023FB6000233B7400237B6107F108031846F5
S32D0000E858FFF744FEF863FB6B002B02D001237B64A8E269233B7200237B720023FB6000233B7400237B6107F17F
S32D0000E88008031846FFF72EFE0346002B14BF01230023DBB2002B02D001237B648EE2BB6903F44013002B6FD07C
S32D0000E8A80023FB630A2000F061FEFB6B0133FB6337233B7200237B720023FB6000233B7400237B6107F10803E7
S32D0000E8D01846FFF707FE0346002B14BF01230023DBB2002B02D001237B6427E069233B7200237B7297F8423055
S32D0000E8F8002B02D0184BFB6002E04FF44013FB6000233B7400237B6107F108031846FFF7E5FD0346002B14BF13
S32D0000E92001230023DBB2002B02D001237B6405E0BB69002B02DBFB6B632BB7D97B6C002B40F03982FB6B632B6F
S32D0000E9480CD9002387F842301AE000BF001400200416002014A9010000003040012387F8433097F84230002B11
S32D0000E9700AD0002387F84230BB6903F08043002B02D0012387F8423097F82A30002B02D07B6B07221A6097F8A1
S32D0000E9982930002B02D07B6B08221A6097F82B30002B02D07B6B04221A6097F84330002B09D07B6B02221A607A
S32D0000E9C097F84230002B02D07B6B03221A6097F82B30002B0DD097F84330002B09D07B6B05221A6097F8423026
S32D0000E9E8002B02D07B6B06221A60924B00221A60904B00225A608F4B00229A608D4B0022DA608C4B00221A61AE
S32D0000EA108A4B00225A61FB6A9A68FB6A5B6819461046FFF72DFC854B40F243421A60834B40F243425A60814BB7
S32D0000EA384FF488629A607F4B40F24342DA607D4B40F243421A617B4B40F243425A617A4B03F580531B6B784AC4
S32D0000EA6043F4003302F580521363A7E1B86BFFF739FDF863FB6B002B00F09F8102237B649BE1BB6B002B02D168
S32D0000EA880C237B6496E16D4BDB6A1B0A5B0003F4FF73FB63694BDB6A1B0903F00F035A1CFB6B02FB03F3FB6348
S32D0000EAB0FB6A9A68FB6BB2FBF3F2BB6B1A607DE1BB6B002B02D10C237B6477E1BB6B1B68002B02D10C237B649C
S32D0000EAD870E1FFF7DDFC0346002B0CBF01230023DBB2002B3CD0534B00221A60514B00225A60504B00229A603D
S32D0000EB004E4B0022DA604D4B00221A614B4B00225A61FB6A9A68BB6B1B6819461046FFF7AFFB464B40F243429D
S32D0000EB281A60444B40F243425A60424B4FF488629A60404B40F24342DA603E4B40F243421A613C4B40F243421C
S32D0000EB505A613B4B03F580531B6B394A43F4003302F58052136329E140F60A237B6425E1BB6B002B02D10C2334
S32D0000EB787B641FE1314B5B68C3F30C02BB6B1A6018E1BB6B002B02D10C237B6412E1FFF77FFC0346002B0CBF1F
S32D0000EBA001230023DBB2002B19D0BB6B1B68B3F5805F02D30C237B6400E1224B5B68214A23F4FF5323F01F0332
S32D0000EBC853601E4B5A68BB6B1B68C3F30C031B4913434B60EEE040F60A237B64EAE0BB6B002B02D10C237B6462
S32D0000EBF0E4E0144B9B6A5B0803F00303FB63FB6B002B03D1BB6B00221A60D7E0FB6B012B03D1BB6B01221A600E
S32D0000EC18D0E0FB6B102B03D1BB6B02221A60C9E005237B64C6E0BB6B002B09D10C237B64C0E000BF00D00440E3
S32D0000EC400070044000100B40FFF726FC0346002B0CBF01230023DBB2002B31D0BB6B1B68002B0AD1584B9B6AE9
S32D0000EC68574A23F006039362554B554A9B6A9362A0E0BB6B1B68012B0CD1514B9B6A504A23F0060393624E4B7C
S32D0000EC909B6A4D4A43F0020393628FE0BB6B1B68022B0AD1484B9B6A474A23F006039362454B454A9B6A93621A
S32D0000ECB880E005237B647DE040F60A237B6479E0BB6B002B02D10C237B6473E03C4BDB6A3B4A43F00063D3622E
S32D0000ECE000BF394BDB6A03F00063002B14BF01230023DBB2002BF4D1334B1B6B03F08003002B14BF01230023A7
S32D0000ED08DBB2002B08D02E4B1B6B2D4A43F0800313637B6B00221A60294B5B6A03F48033002B14BF0123002301
S32D0000ED30DBB2002B07D07B6B1B68002B06D17B6B01221A6002E07B6B00221A607B6B1A68BB6B1A6032E0BB6B94
S32D0000ED581C221A60BB6B043304221A60BB6B08334FF41E721A6025E00220FFF7A3FB144B1B6B03F4E003002B85
S32D0000ED8014BF01230023DBB2002B07D00E4B1B6B0D4A43F4E003136304237B640A4B1B6B094A43F032031363E4
S32D0000EDA808E040F609237B6404E000BF02E000BF00E000BF7B6C18464837BD4680BD00BF00100B4080B489B0A6
S32D0000EDD000AF786039607B687B61364B3B613B69002B01D100235FE03B691B68022B0BD03B691B68032B07D0BB
S32D0000EDF83B691B68072B03D03B691B68082B0BD100BF2B4B5B6A03F00403002B14BF01230023DBB2002BF4D1D5
S32D0000EE203B68FB613CE0FB69B3F5007F28BF4FF40073FB60FB6803339B08BB6129E01E4B1B6B03F4E003002BD1
S32D0000EE4814BF01230023DBB2002B09D0184B1B6B174A43F4E00343F02003136300231FE000BF134B5B6A03F4C6
S32D0000EE700063002B0CBF01230023DBB2002BF4D10D4B1A6A7B69191D79611A60BB69013BBB61BB69002BD2D19F
S32D0000EE98FA69FB68D31AFB61FB69002BBFD1012318462437BD4680BC704700BF0014002000100B4080B58EB08A
S32D0000EEC000AFB9607A601A460346FB731346BB73414B7B63FB7B002B02D1BB7B002B01D1042375E03D4B1B783C
S32D0000EEE8DBB203F00103002B14BF01230023DBB2002B01D0032367E0BB68002B01D1002362E07B6B1B7B002B11
S32D0000EF1002D17B685B027B60BB7B012B28D111233B7500237B757B68BB6101233B77BB7B3B6207F1140319467D
S32D0000EF3841F20230FFF7CEFB0346002B0CBF01230023DBB2002B38D04FF40071B868FFF739FF0346002B14BFF8
S32D0000EF6001230023DBB2002B2BD00023BB7328E012233B7500237B757B68BB6101233B77BB7B3B6207F1140381
S32D0000EF88194641F20230FFF7A5FB0346002B0CBF01230023DBB2002B0FD0BB7B5B021946B868FFF70FFF034685
S32D0000EFB0002B14BF01230023DBB2002B01D00023BB73BB7B002B01D0012300E0002300BF18463837BD4680BDEF
S32D0000EFD8EC1300200400002080B487B000AF786039607B68FB603B687B613DE07B69B3F5007F28BF4FF40073BB
S32D0000F0003B617A693B69D31A7B613B6903339B083B612AE01B4B1B6B03F4E003002B14BF01230023DBB2002B10
S32D0000F0280AD0164B1B6B154A43F4E00343F0100313634FF0FF331BE000BF104B5B6A03F48063002B0CBF012385
S32D0000F0500023DBB2002BF4D1FB681A1DFA60094A1B6813623B69013B3B613B69002BD1D17B69002BBED1012304
S32D0000F07818461C37BD4680BC704700BF00100B4080B58EB000AFB9607A601A460346FB731346BB735D4B7B6370
S32D0000F0A0FB7B002B02D1BB7B002B01D10423ACE0594B1B78DBB203F00103002B14BF01230023DBB2002B01D05F
S32D0000F0C803239EE0524B1B78DBB203F00403002B14BF01230023DBB2002B01D0022390E0BB68002B01D1002319
S32D0000F0F08BE07B6B1B7B002B02D17B685B027B60BB7B012B28D118233B7500237B757B68BB6100233B77BB7B8F
S32D0000F1183B6207F11403194641F20230FFF7DAFA0346002B0CBF01230023DBB2002B38D04FF40071B868FFF77F
S32D0000F1404FFF0346002B14BF01230023DBB2002B2BD00023BB7328E019233B7500237B757B68BB6100233B77E6
S32D0000F168BB7B3B6207F11403194641F20230FFF7B1FA0346002B0CBF01230023DBB2002B0FD0BB7B5B02194623
S32D0000F190B868FFF725FF0346002B14BF01230023DBB2002B01D00023BB730D233B7500237B757B6B1B69BB6136
S32D0000F1B800233B7700233B6207F11403194641F20230FFF787FA0346002B14BF01230023DBB2002B01D001230F
S32D0000F1E013E07A6A0D4B1340002B01D001230CE07B6A03F4F853B3F5106FD6D1BB7B002B01D0012300E0002325
S32D0000F20800BF18463837BD4680BD00BFEC130020040000200880D9FF80B58CB000AF03463A60FB710B46BB71BE
S32D0000F2303A4BBB62FB79002B01D0042369E0012387F82F30364B1B78DBB203F00103002B14BF01230023DBB2C2
S32D0000F258002B01D0032358E0BB79032B50D801A252F823F07DF2000085F2000095F20000A5F20000002387F8FE
S32D0000F2802F3044E0BB6A9A683B681A60002387F82F303CE03B684FF400721A80002387F82F3034E009233B729C
S32D0000F2A800237B72BB6A1B69FB6000233B7400237B6107F10803194641F20230FFF70AFA0346002B14BF012327
S32D0000F2D00023DBB2002B01D001231AE07B6A03F44003002B0CD13B6A9B0C03F07F035A1C7B6A1B0A03F00303E5
S32D0000F2F8013B9A403B681A60002387F82F3002E0042387F82F3097F82F3018463037BD4680BD00BFEC130020FC
S32D0000F3200400002080B483B000AF0346FB71FB79002B01D0012302E0034B1B78DBB218460C37BD4680BC704755
S32D0000F3480400002080B483B000AF7860164B03F580539B6B144A43F0010302F580529363124A7B689360114B71
S32D0000F37005225A600F4B1B680E4A43F00103136000BF0C4B1B6803F08003002B0CBF01230023DBB2002BF4D1E6
S32D0000F398064B1B68054A23F00103136000BF0C37BD4680BC704700BF007004400000044080B582B000AF7860FD
S32D0000F3C039607B68012B07D13B684FF6FF72934202D1034800F00EF800BF0837BD4680BD0C16002080B500AFF9
S32D0000F3E84FF6FF710120FFF7E3FF80BD80B483B000AF78607B6800221A707B6818460C37BD4680BC7047000015
S32D0000F41080B582B000AF78607B681B7883F00103DBB2002B21D0134B03F580531A464FF400639362104B4FF488
S32D0000F43840721A620E4B4FF440725A620D4B1B68DA0F13445B104FF4614219460A48FEF7FBFB642000F08AF870
S32D0000F4607B6801221A70012300E0002318460837BD4680BD0070044000D004401016002000B00E4080B582B077
S32D0000F48800AF7860084611461A460346FB700B46BB7013467B707F210E48FEF7A8FC08210C48FEF7A4FCFB7842
S32D0000F4B019460A48FEF79FFCBB7819460748FEF79AFC7B7819460548FEF795FCFF210348FEF791FC00BF083771
S32D0000F4D8BD4680BD00B00E4080B487B000AFF860B9607A60FB681F4AA2FB03239B09BA6813447B61FB681B4A13
S32D0000F500A2FB031292094FF47A7101FB02F29B1AFB60FB68DB03154AA2FB03239B097A6813443B613B69DB0BFC
S32D0000F5287A6913447B613B69C3F30E033B6100BF0D4B1B687A699A4209D80B4B1B687A699A4206D1084B5B68D9
S32D0000F5503A699A4201D9012300E00023002BEBD100BF00BF1C37BD4680BC7047D34D621000D0034080B584B051
S32D0000F57800AF7860074B1B68FB60064B5B68BB607B68BA68F9681846FFF7A6FF00BF1037BD4680BD00D00340C7
S32D0000F5A080B584B000AFC7E900010E4B1B68FB600C4B5B68BB604FF000020B4BD7E9000104F032FA02460B46F7
S32D0000F5C81046194604F004FD0346BA68F9681846FFF782FF00BF1037BD4680BD00D0034000408F4080B584B0F9
S32D0000F5F000AF134B1B68FB60114B5B68BB60F86804F098F902460B46C7E90023B86804F091F94FF000020B4B42
S32D0000F61804F030FB02460B46D7E9000104F04AF802460B46C7E90023D7E90023104619461037BD4680BD00BFCB
S32D0000F64000D003400000E04080B483B000AF0B4B1B684FF47A7202FB03F37B60074B5B684FF47A7202FB03F346
S32D0000F668DB0B7A6813447B607B6818460C37BD4680BC704700D0034080B584B000AF78600B46FB700B23FB73A5
S32D0000F690FA7BFB781946786800F07CF87B6818461037BD4680BD000080B485B000AF78607B68103B002B00DAD6
S32D0000F6B81F335B11FB60FB68022B43D0FB68022B5DDCFB68002B03D0FB68012B1DD056E02D4BD3F880317A68B6
S32D0000F6E0103A02F01F02012101FA02F21146284A0B43C2F88031264B1B687A68103A02F01F02012101FA02F2C8
S32D0000F7081146214A0B43136039E01F4BD3F884317A68103A02F01F02012101FA02F21146194A0B43C2F8843186
S32D0000F730174B5B687A68103A02F01F02012101FA02F21146124A0B4353601CE0104BD3F888317A68103A02F089
S32D0000F7581F02012101FA02F211460B4A0B43C2F88831094B9B687A68103A02F01F02012101FA02F21146044A98
S32D0000F7800B43936000BF00BF1437BD4680BC704700E100E080B584B000AF78600B46FB701346BB707B68FA7815
S32D0000F7A81A70BB78FB737B681B781A46574B9B5C042B00F2A68001A252F823F0D9F7000025F8000071F80000FC
S32D0000F7D009F90000BDF80000FB7B1B0403F470234D497A68127810464C4A52F8202043F4897343F0010341F81A
S32D0000F7F82230494B5A697B681B781946454B53F8213003F01F03012101FA03F3DB43424913404B616720FFF7EC
S32D0000F82043FF72E0FB7B1B0403F470233D497A6812781046394A52F8202043F4897343F0010341F82230384B3A
S32D0000F8485A697B681B781946324B53F8213003F01F03012101FA03F3DB43314913404B616820FFF71DFF4CE05C
S32D0000F870FB7B1B0403F470232C497A6812781046264A52F8202043F4897343F0010341F82230274B5A697B680D
S32D0000F8981B7819461F4B53F8213003F01F03012101FA03F3DB43204913404B616920FFF7F7FE26E0FB7B1B048D
S32D0000F8C003F470231B497A6812781046134A52F8202043F4897343F0010341F82230164B5A697B681B78194695
S32D0000F8E80C4B53F8213003F01F03012101FA03F3DB430F4913404B616B20FFF7D1FE00E000BF00BF1037BD466A
S32D0000F91080BD00BF20AA01000090044064AA010000F00F4000A0044040F00F4000B0044080F00F4000D00440B6
S32D0000F93800F10F40B0B48BB000AF224B3C1D1D460FCD0FC495E80F0084E80F0000237B622FE01D4BD3F8A02032
S32D0000F9607B6A9B0028333B4453F8243C012101FA03F31340002B14BF01230023DBB2002B18D0144A7B6A52F89C
S32D0000F98823305A1C11497B6A41F823200E4BD3F8A0207B6A9B0028333B4453F8243C012101FA03F3084913402D
S32D0000F9B0C1F8A0307B6A01337B627B6A072BCCDD00BF00BF2C37BD46B0BC704768AB010000A004403C16002079
S32D0000F9D8B0B489B000AF224B3C1D1D460FCD0FC495E8030084E803000023FB612FE01D4BD3F8A020FB699B006E
S32D0000FA0020333B4453F81C3C012101FA03F31340002B14BF01230023DBB2002B18D0FB690833134A52F823208F
S32D0000FA280132114941F823200E4BD3F8A020FB699B0020333B4453F81C3C012101FA03F308491340C1F8A0300F
S32D0000FA50FB690133FB61FB69052BCCDD00BF00BF2437BD46B0BC704788AB010000B004403C160020B0B48DB01D
S32D0000FA7800AF234B3C461D460FCD0FC40FCD0FC495E8070084E807000023FB622FE01D4BD3F8A020FB6A9B0087
S32D0000FAA030333B4453F8303C012101FA03F31340002B14BF01230023DBB2002B18D0FB6A0E33134A52F82320C4
S32D0000FAC80132114941F823200E4BD3F8A020FB6A9B0030333B4453F8303C012101FA03F308491340C1F8A0304A
S32D0000FAF0FB6A0133FB62FB6A0A2BCCDD00BF00BF3437BD46B0BC7047A0AB0100009004403C160020B0B487B073
S32D0000FB1800AF214B3C461D460FCD0FC42B68236000237B612FE01D4BD3F8A0207B699B0018333B4453F8183C11
S32D0000FB40012101FA03F31340002B14BF01230023DBB2002B18D07B691933134A52F823200132114941F8232029
S32D0000FB680E4BD3F8A0207B699B0018333B4453F8183C012101FA03F308491340C1F8A0307B6901337B617B698B
S32D0000FB90042BCCDD00BF00BF1C37BD46B0BC7047CCAB010000D004403C16002080B483B000AF78607B681B7816
S32D0000FBB81A46044B53F8223018460C37BD4680BC704700BF3C16002080B483B000AF78607B681B781946044BF9
S32D0000FBE0002243F8212000BF0C37BD4680BC70473C16002080B483B000AF78600B46FB707B68FA781A707B6883
S32D0000FC0818460C37BD4680BC704700000000000080B586B000AF78607B681B781A463E4B53F822303B617B68CA
S32D0000FC301B781A463B4B9B5CFB733B69DBB203F01F03DAB2384B1A723B69DBB203F01F03DAB2354B5A72354B49
S32D0000FC581022C3F88820FB7B002B13D13049324800F05CFA00BF304B1B6803F08003802B14BF01230023DBB2A6
S32D0000FC80002BF4D12A4B1B697B6112E02649294800F048FA00BF274B1B6803F08003802B14BF01230023DBB211
S32D0000FCA8002BF4D1214B1B697B611E4BD3F888311C4A43F01003C2F888311A4B9B68194A43F0100393607B697E
S32D0000FCD09BB2184603F02EFE0DA3D3E9002303F0A3FE02460B46104619460BA3D3E9002303F0C4FF02460B46EF
S32D0000FCF81046194604F08CF90346BB60BB6818461837BD4680BD00BFA4703D0AD7A30A4000000000E0FFEF4050
S32D0000FD20E4AA010040AA01001C16002000E100E000B0034000B00B4080B586B000AF78607B681B781A46234B04
S32D0000FD4853F822303B617B681B781A46204B9B5CFB733B69DBB203F01F03DAB21D4B1A723B69DBB203F01F03A2
S32D0000FD70DAB21A4B5A72FB7B002B13D11749184800F0D0F900BF164B1B6803F08003802B14BF01230023DBB23F
S32D0000FD98002BF4D1104B1B697B6112E00D490F4800F0BCF900BF0D4B1B6803F08003802B14BF01230023DBB2EC
S32D0000FDC0002BF4D1074B1B697B617B6918461837BD4680BDE4AA010040AA01002C16002000B0034000B00B40D8
S32D0000FDE898B500AF204B5C221A701F4B10225A701D4B41F234225A801B4B45F278629A80194B10229A71184BB8
S32D0000FE100722DA71164B4FF4C022DA60144B1F221A72134B1F225A721149124800F07AF90F49114800F076F9D2
S32D0000FE380F4800F0D4F80D4800F0D1F80A490C4800F06CF90849094800F068F9094A064B14460FCB84E80F0039
S32D0000FE60064B5C221A70054B0422DA7100BF98BD1C16002000B0034000B00B402C16002080B500AF064B1B68EC
S32D0000FE880133054A136000F03DF8044B0122C3F80C2100BF80BD00BFC01600200070034080B500AF0C4B012215
S32D0000FEB01A600C4800F01AF8094B0322C3F80821094BD3F88831084A43F01003C2F88831054B9B68044A43F040
S32D0000FED81003936000BF80BD00700340A086010000E100E080B483B000AF7860044A7B68C2F8003100BF0C3753
S32D0000FF00BD4680BC704700BF0070034080B584B000AF184B1B68FB6023E0FB685B78FB71FB689B68184600F0B9
S32D0000FF2827F80346BB71BB79002B13D0FB685B68012B0FDDFB689B681B69BB6007E0BB685B685A1CBB685A6072
S32D0000FF50BB681B69BB60BB68002BF4D1FB68DB68FB60FB68002BD8D100BF00BF1037BD4680BD00BFBC160020C0
S32D0000FF7880B584B000AF78607868FFF7D9FEF8607B689B695B78FB72FB7A002B0FD17B68DB68FA689A420ADD74
S32D0000FFA07B689B6901225A707B685B685A1C7B685A60012313E0FB7A012B0FD17B689B68FA689A420ADA7B6823
S32D0000FFC89B6900225A707B685B685A1C7B685A60012300E0002318461037BD4680BD80B485B000AF78607B6883
S32D0000FFF01B6A23F040027B681A627B685B6A23F00B027B685A627B685B6A43F007027B685A627B685B6A43F0E5
S32D0001001880027B685A6200BF7B681B6803F08003002B0CBF01230023DBB2002BF4D17B685B6A03F04003402BFA
S32D000100400CBF01230023DBB2002B01D0012364E00023FB817B68DB6CFB817B689B6C9AB2FB891344FB817B68D9
S32D000100685B6C9AB2FB891344FB817B681B6C9AB2FB891344FB817B68DB6B9AB2FB891344FB817B689B6B9AB2F1
S32D00010090FB891344FB81FB895B08FB81FB896FEA43436FEA5343FB81FA897B68DA620023FB817B68DB6EFB81D0
S32D000100B87B689B6E9AB2FB891344FB817B685B6E9AB2FB891344FB817B681B6E9AB2FB891344FB817B68DB6D01
S32D000100E09AB2FB891344FB817B689B6D9AB2FB891344FB81FB895B08FB81FB896FEA43436FEA5343FB81FA890C
S32D000101087B681A637B685B6A23F080027B685A62002318461437BD4680BC704780B483B000AF786039603B68A0
S32D000101301B781A467B689A603B685B781A467B68DA603B685B881A467B689A613B689B881A467B68DA613B6832
S32D000101589B791A467B681A623B68DB791A467B685A623B68DA687B681A653B681B7A1A467B681A603B685B7AFB
S32D000101801A467B685A6000BF0C37BD4680BC704780B483B000AF78607B6818460C37BD4680BC704780B582B08C
S32D000101A800AF786039607B68012B07D13B684FF6FF72934202D10348FFF7E6FF00BF0837BD4680BDC4160020C2
S32D000101D080B500AF4FF6FF710120FFF7E3FF80BD80B483B000AF78600B46FB707B68FA781A707B684FF4FA7216
S32D000101F85A807B6840F6C4129A807B68034A9A607B6818460C37BD4680BC7047000080BF2DE9904385B000AF45
S32D00010220786039604FF00001386804F0F1F90346002B02D04FF000033B603249386804F005FA0346002B01D00A
S32D000102482E4B3B607B689B681946386804F0D2F90346002B00D04BE07B683A689A607B685C887B689B881A46B4
S32D000102707B685B88D31A184603F06CFB4FF00002214B03F0FBFC02460B4690469946386803F072FB02460B4676
S32D000102984046494603F0C4FB02460B461046194603F096FE03469BB22344FB81FB897B73FB891B0A9BB23B730C
S32D000102C07F211248FDF797FD05211048FDF793FD7B681B7819460D48FDF78DFD3B7B19460A48FDF788FD7B7B0D
S32D000102E819460848FDF783FDFF210648FDF77FFD00BF1437BD46BDE8908300BF000034430080664000B00E40C7
S32D0001031080B582B000AF7860B84B4FF48072DA60B74B4FF480729A64B54B4FF480721A64B34B4FF480725A6485
S32D00010338B14B4FF48072DA60B04B5B69AF4A43F008035361AE4B5B69AD4A43F480235361AB4B5B69AA4A43F45A
S32D0001036080335361A84B5B69A74A43F400335361A54B1B68A44A43F008031360A24B5B69A14A43F008035361A1
S32D000103889E4B1B689D4A43F0080313609A4B4FF480725A62984B4FF480721A62954B4FF480721A61934B4FF427
S32D000103B080725A61914B4FF480729A618F4B4FF48072DA618D4B4FF480721A638B4B4FF480725A63894B4FF4B2
S32D000103D880729A63874B4FF48072DA63854B4FF480721A64834B4FF480725A64814B4FF480729A647F4B4FF473
S32D000104008072DA64814B4FF480721A607F4B4FF480729A607D4B4FF48072DA607B4B4FF480721A61784B5B69F5
S32D00010428774A43F440735361744B5B69734A43F47F2343F0F0035361734B5B69724A43F01D035361E22178682B
S32D0001045000F0AEFD1D21786800F050FE0221786800F04CFE0421786800F048FEE021786800F09EFD01217868A0
S32D0001047800F040FE6420FFF779F8E021786800F093FD0321786800F035FE0121786800F08BFD0120FFF76AF8C1
S32D000104A0E621786800F084FD0121786800F026FEA021786800F022FEFF21786800F01EFEB021786800F074FDF0
S32D000104C81C21786800F016FE0F21786800F012FE0121786800F00EFE3F21786800F00AFE0021786800F006FEA9
S32D000104F0EF21786800F002FE0021786800F0FEFDB421786800F054FD0121786800F0F6FD9921786800F0F2FDBD
S32D000105180021786800F0EEFD4521786800F0EAFD0221786800F0E6FD0021786800F0E2FD0021786800F0DEFD49
S32D000105400021786800F0DAFDB621786800F030FD0121786800F0D2FD0921786800F0CEFD0021786800F0CAFDB2
S32D000105680E21786800F0C6FD0221786800F0C2FD0021786800F0BEFD0021786800F0BAFDBA21786800F010FDE4
S32D000105900F21786800F0B2FD6420FEF7EBFF3A21786800F005FD6021786800F0A7FD2A21786800F0FDFC0021D3
S32D000105B8786800F09FFD0021786800F09BFD0121786800F097FD3F21786800F093FD2B21786800F0E9FC0021B7
S32D000105E0786800F08BFD0021786800F087FD0021786800F083FDEF2178680BE000B0044000A0044080F00F403C
S32D0001060840F00F4000C00440C0F00F4000F072FD3621786800F0C8FC0021786800F06AFDF021786800F0C0FC02
S32D000106300421786800F062FDB821786800F0B8FC0F21786800F05AFD0121786800F056FD314B1B68304A43F0A2
S32D00010658080313606420FEF789FF3621786800F0A3FC0021786800F045FDF021786800F09BFC0421786800F08E
S32D000106803DFD0121786800F0C0F91E226F21786800F082F8AF225621786800F0DDF80021786800F00EFA012342
S32D000106A801221C49786800F02FFA2921786800F07BFC6420FEF75AFFBE21786800F074FC0E21786800F016FD0E
S32D000106D0F021786800F012FD0121786800F00EFD0021786800F00AFD0021786800F006FD0F21786800F002FD23
S32D000106F8786800F0A5FA0121786800F0DEF90021786800F0B3F900BF0837BD4680BD00BF40F00F40E0AB0100F6
S32D0001072080B582B000AF78607B680022DA617B6801221A627B680E225A607B681A229A607B6800225A617B6871
S32D0001074800229A617B684FF4A072DA607B68F0221A617B6800221A70786801F0FFF97B6818460837BD4680BD6B
S32D0001077080B582B000AF7860064B1B78002B05D1044B01221A707868FFF7C2FD00BF0837BD4680BD0C17002075
S32D0001079880B58AB002AFF860B9607A607E23009362237A68B968F86800F093FE40F24E733B610023FB613FE0FD
S32D000107C00023BB6131E0FB690133224AD35C002B06D1FF23FB75FF23BB75FF237B7512E0FB6901331B4AD35C71
S32D000107E8012B06D1D423FB750023BB7526237B7505E0B523FB75BA23BB75B0237B757B7DBA7DF97DF86800F0FA
S32D00010810D7F80246FB68DA61F86801F0A3F9F86801F0DCF8BB690133BB610A4AFB6913441B781A46BB69934283
S32D00010838C5DBFB690233FB61FA693B699A42BBDB00BF00BF2037BD4680BD00BF0800002080B58AB002AFF8600F
S32D00010860B9607A602723009395237A68B968F86800F033FE40F2E6333B610023FB613FE00023BB6131E0FB6924
S32D000108880133224AD35C002B06D1FF23FB75FF23BB75FF237B7512E0FB6901331B4AD35C012B06D10023FB75C6
S32D000108B00023BB7500237B7505E0D423FB750023BB7526237B757B7DBA7DF97DF86800F077F80246FB68DA6191
S32D000108D8F86801F043F9F86801F07CF8BB690133BB610A4AFB6913441B781A46BB699342C5DBFB690233FB619B
S32D00010900FA693B699A42BBDB00BF00BF2037BD4680BD00BF5807002080B485B000AF78600B46FB70FB78062BAC
S32D0001092829D801A252F823F0550901004D0901005B090100630901006B09010071090100790901006FF07F4383
S32D00010950FB6014E00023FB6011E04FF47F03FB600DE04FF47F43FB6009E0FF23FB6006E04FF41903FB6002E065
S32D00010978044BFB6000BFFB6818461437BD4680BC704700BF9999990080B584B000AF786039603B681B0CFB739A
S32D000109A03B681B0ABB733B687B737B7BBA7BF97B786800F005F8034618461037BD4680BD80B487B000AF786015
S32D000109C8084611461A460346FB700B46BB7013467B70FB789B08DBB27B61BB789B08DBB23B617B789B08DBB2E6
S32D000109F0FB607B691A033B699B011A43FB68134318461C37BD4680BC704780B582B000AF78600B46FB70FB7862
S32D00010A1819467868FFF77CFF03461946786800F004F800BF0837BD4680BD80B582B000AF786039603968786845
S32D00010A40FFF7A6FF02467B681A62786801F08AF8786800F0EBFB00BF0837BD4680BD80B582B000AF7860786830
S32D00010A6800F0E0FB00BF0837BD4680BD80B582B000AF78600B46FB70FB7819467868FFF747FF03461946786836
S32D00010A9000F004F800BF0837BD4680BD80B582B000AF7860396039687868FFF771FF02467B681A62786801F027
S32D00010AB855F800BF0837BD4680BD80B582B000AF78600B46FB70FB7819467868FFF720FF03461946786800F09B
S32D00010AE004F800BF0837BD4680BD80B582B000AF7860396039687868FFF74AFF02467B68DA61786801F02EF809
S32D00010B0800BF0837BD4680BD80B586B000AFF860B9607A603B6000237B610EE07B69BA6813441B783A68796820
S32D00010B30F86800F011FE7B680C337B607B6901337B617B69BA6813441B78002BEAD100BF00BF1837BD4680BD63
S32D00010B5880B592B000AFF860B9607A603B6007F11403BA680749184604F08AFC07F114013B687A68F868FFF721
S32D00010B80C7FF00BF4837BD4680BD00BFECAB010080B594B000AFF860B9607A603B60B86803F05EFD0346BB64C7
S32D00010BA8B86C03F03FFB03461946B86803F084FA03461F49184603F089FB0346184603F04BFD0346FB644FF045
S32D00010BD00001B86803F01CFD0346002B02D0FB6C5B42FB644FF00001B86803F011FD0346002B0ED01149B868F3
S32D00010BF803F028FD0346002B07D007F11400FB6CBA6C0D4904F03CFC06E007F11400FB6CBA6C0A4904F034FC5A
S32D00010C2007F114013B687A68F868FFF771FF00BF5037BD4680BD00BF00007A44000080BFF0AB0100FCAB0100C7
S32D00010C4880B582B000AF7860FCF7AEFF67210120FCF717FF00210220FCF713FFA0210320FCF70FFF502104207B
S32D00010C70FCF70BFF20210520FCF707FF20210620FCF703FF77210720FCF7FFFE00210820FCF7FBFE002109206F
S32D00010C98FCF7F7FE00210A20FCF7F3FE04210B20FCF7EFFE7B684FF0FF32DA637B684FF0FF321A6400BF083787
S32D00010CC0BD4680BD0000000080B586B000AFF860B9607A600020FCF7FAFE0346FB75FB7D03F00203002B00F011
S32D00010CE8CC80FCF70DFFE020FCF7BEFE0220FEF73DFCFCF713FF0120FEF738FCFCF700FFA520FCF7B1FE0120CA
S32D00010D10FEF730FCFCF7D3FE03461B02BB82FCF7CEFE03461A46BB8A1343BB82FCF7C7FE03461B027B82FCF7DE
S32D00010D38C2FE03461A467B8A13437B82BB8A1B09BB827B8A1B097B82FCF7E8FEFB68DB6BB3F1FF3F34D1FB6833
S32D00010D601B6CB3F1FF3F2FD1BA8AFB68DA637A8AFB681A647B8AC3F57F630F337B82BB8A184602F0E7FD48A3F0
S32D00010D88D3E9002302F04CFE02460B461046194603F03EF90246BB681A607B8A184602F0D5FD41A3D3E90023DA
S32D00010DB002F03AFE02460B461046194603F02CF902467B681A605AE0FB68DA6BBB8AD31A1946F86800F072F8B2
S32D00010DD80346632B0CDCFB681A6C7B8AD31A1946F86800F067F80346632B01DC012300E00023002B2FD0BA8AFB
S32D00010E00FB68DA637A8AFB681A647B8AC3F57F630F337B82BB8A184602F09CFD22A3D3E9002302F001FE024655
S32D00010E280B461046194603F0F3F80246BB681A607B8A184602F08AFD1BA3D3E9002302F0EFFD02460B4610468C
S32D00010E50194603F0E1F802467B681A600FE0BB68154A1A607B68144A1A60FB684FF0FF32DA63FB684FF0FF321A
S32D00010E781A64002310E001230EE0BB680C4A1A607B680B4A1A60FB684FF0FF32DA63FB684FF0FF321A6400237F
S32D00010EA018461837BD4680BD144001144001B43F1EE0011EE001AE3F000080BF80B483B000AF786039603B6845
S32D00010EC8002B02DA3B685B423B603B6818460C37BD4680BC704780B584B000AF786039600023FB60786800F008
S32D00010EF060FA11E07B6859697B689869FB683A6813441B780246786800F00CFC786800F064FAFB680133FB60D0
S32D00010F18FB683A6813441B78002BE7D100BF00BF1037BD4680BD80B582B000AF78600B46FB70786800F039FA26
S32D00010F407B6859697B689A69FB78786800F0EAFB786800F042FA00BF0837BD4680BD80B582B000AF78603960FE
S32D00010F68786800F022FA39687868FFF7B4FF786800F006FA00BF0837BD4680BD80B582B000AF78600B46FB708C
S32D00010F90786800F00EFAFB7819467868FFF7C7FF786800F0F1F900BF0837BD4680BD000080B483B000AF786006
S32D00010FB80B46FB704D4B1B684C4A23F0080313604B4B1B684A4A23F480231360484B1B68474A43F4803313602E
S32D00010FE0454B1B68444A23F440731360414B1B68404A23F4435323F0300313603E4B1A68FB785B0203F40073C0
S32D000110083B4913430B603A4B1A68FB785B101B0203F48073364913430B60344B1A68FB789B101B0103F0100307
S32D00011030304913430B602F4B1A68FB78DB105B0103F020032B4913430B602A4B1A68FB781B119B0103F04003EE
S32D00011058264913430B60254B1A68FB785B11DB01DBB2224913430B60204B1A68FB789B111B0303F480531D4979
S32D0001108013430B601B4B1A6897F90330DB115BB25B0303F40053174913430B60164B1B68154A23F40033136013
S32D000110A8134B1B68124A43F4003313600F4B1B680E4A43F0080313600D4B1B680C4A43F440731360094B1B68B4
S32D000110D0084A43F4435343F030031360064B1B68054A43F48023136000BF0C37BD4680BC704700BF80F00F4013
S32D000110F840F00F4080B483B000AF78600B46FB70464B1B68454A23F008031360444B1B68434A43F48033136070
S32D00011120414B1B68404A43F4802313603E4B1B683D4A23F4407313603A4B1B68394A23F4435323F030031360F9
S32D00011148374B1A68FB785B0203F40073344913430B60334B1A68FB785B101B0203F480732F4913430B602D4B66
S32D000111701A68FB789B101B0103F01003294913430B60284B1A68FB78DB105B0103F02003244913430B60234BFA
S32D000111981A68FB781B119B0103F040031F4913430B601E4B1A68FB785B11DB01DBB21B4913430B60194B1A68CE
S32D000111C0FB789B111B0303F48053164913430B60144B1A6897F90330DB115BB25B0303F40053104913430B607A
S32D000111E80F4B1B680E4A23F4003313600C4B1B680B4A43F400331360084B1B68074A43F008031360064B1B682E
S32D00011210054A23F48023136000BF0C37BD4680BC704700BF80F00F4040F00F4080B586B000AF78607B68002247
S32D000112385A617B6800229A617B681B6AFB60FB68FB72FB681B0ABB72FB681B0CDBB203F003037B722A2178685C
S32D00011260FFF7A6FE00217868FFF748FF00217868FFF744FF01217868FFF740FF3F217868FFF73CFF2B21786879
S32D00011288FFF792FE00217868FFF734FF00217868FFF730FF00217868FFF72CFFEF217868FFF728FF2C21786805
S32D000112B0FFF77EFE314B1B68304A23F4407313602F4B1B682E4A23F47F2323F0F00313602C4B1B682B4A23F0BE
S32D000112D81D031360274B1A687B681B6B254913430B60254B1A687B685B6B234913430B60224B1A687B689B6B28
S32D00011300204913430B601E4B1B681D4A23F0080313601A4B1B68194A43F48023136000237B6118E000233B6162
S32D000113280EE0144B1B68134A23F400331360114B1B68104A43F4003313603B6901333B613B69B3F5A07FECD3F8
S32D000113507B6901337B617B69EF2BE3D9084B1B68074A43F008031360044B1B68034A23F48023136000BF18378E
S32D00011378BD4680BD40F00F4080F00F40C0F00F4080B483B000AF78607B689B69002B07DD7B685B695A1C7B68E5
S32D000113A05A617B6800229A6100BF0C37BD4680BC704780B582B000AF78607B685A697B685B689A4205DB7B6892
S32D000113C800225A617868FFF72DFF00BF0837BD4680BD80B582B000AF78607B689B695A1C7B689A617B689A69CA
S32D000113F07B689B689A4205D17868FFF7C5FF7868FFF7D7FF00BF0837BD4680BD80B586B002AFF860B9607A604B
S32D000114180123009301237A68B968F86800F059F8F86800F0D7FA00BF1037BD4680BD80B485B000AF7860396036
S32D000114407B681B68FB603B681A687B681A603B68FA681A6000BF1437BD4680BC704780B586B002AFF860B9602E
S32D000114687A603B60BA683B681A447B68009313467A68B968F86800F0ABF8BA683B68D118BA683B68D0187A68BB
S32D00011490BB691344009303467A68F86800F09CF8BA683B68D1187A68BB69D0187A68BB6913440093BB68024619
S32D000114B8F86800F08DF87A68BB691A447B680093BB68B968F86800F083F800BF1037BD4680BD80B588B000AFE5
S32D000114E0F860B9607A603B60FB681B78022B03D0FB681B78032B11D17B68FB61BA6AFB691344013BBB61FB6822
S32D00011508DA68BB68D31A3B613B683A69D31A01337B610DE0BB68FB613A68FB691344013BBB617B687B61BA6A7F
S32D000115307B691344013B3B612A21F868FFF738FDFB691B0ADBB203F00F03DBB21946F868FFF7D4FDFB69DBB284
S32D000115581946F868FFF7CEFDBB691B0ADBB203F00F03DBB21946F868FFF7C4FDBB69DBB21946F868FFF7BEFDE5
S32D000115802B21F868FFF714FD7B691B0ADBB203F00F03DBB21946F868FFF7B0FD7B69DBB21946F868FFF7AAFD32
S32D000115A83B691B0ADBB203F00F03DBB21946F868FFF7A0FD3B69DBB21946F868FFF79AFD2C21F868FFF7F0FCCE
S32D000115D000BF2037BD4680BD90B58BB000AFF860B9607A603B603A68BB68D31A1946F868FFF764FCF861BA6B3C
S32D000115F87B68D31A1946F868FFF75CFCB861BA69FB699A42CCBF01230023FB75FB7D002B0CD03A1D07F1080350
S32D0001162011461846FFF707FF3B4607F138011846FFF701FFBA683B689A420CDD3A4607F1080311461846FFF72C
S32D00011648F6FE3B1D07F138011846FFF7F0FE3A68BB689A4206D1BB687A681946F868FFF7D1FE55E0BA6B7B6876
S32D00011670D31A184602F0DAFD04463A68BB68D31A184602F0D3FD03461946204602F0D6FE03463B617B68184621
S32D0001169802F0C8FD03467B62BB683B6234E0FB7D002B14D0786A02F063F94FF000021A4B02F000F802460B4692
S32D000116C01046194602F060FC03463A6A1946F868FFF79CFE13E0786A02F04EF94FF000020F4B01F0EBFF0246F0
S32D000116E80B461046194602F04BFC03461A46396AF868FFF787FE3969786A02F0DFFC03467B623B6A01333B6280
S32D000117103B683A6A9A42C6DD2C37BD4690BD00BF0000E03F80B584B000AFF860B9607A60FB707A6813465B00EF
S32D0001173813449B00991CBA6813461B011344DA1CFB78F86800F004F800BF1037BD4680BD80B58EB002AFF86076
S32D00011760B9607A60FB70FB780A2B06D1F868FFF720FEF868FFF708FEF2E0FB787D2B02D8FB781F2B01D820230D
S32D00011788FB70FB78203BFB70112300930C237A68B968F868FFF79DFEFA7813469B0013446F4AD35C3B75FA78DD
S32D000117B013469B00134401336B4AD35C7B75FA7813469B0013440233674AD35CBB75FA7813469B0013440333C2
S32D000117D8634AD35CFB75FA7813469B00134404335F4AD35C3B760023BB629FE0F86800F053F9F86800F0B6F8C0
S32D00011800002387F82F3000237B6234E007F114027B6A13441B7803F00103002B14BF01230023BB76BB7E002BF6
S32D0001182811D097F82F3083F00103DBB2002B03D0F86800F0CFF802E0F86800F093F8F86800F090F80DE097F898
S32D000118502F30002B03D0F86800F022F902E0F86800F084F8F86800F081F8BB7E87F82F307B6A01337B627B6A38
S32D00011878042BC7DD97F82F30002B03D0F86800F00BF902E0F86800F06DF8F86800F06AF8002387F82F300023C1
S32D000118A03B6241E007F114023B6A13441B7803F00103002B14BF01230023FB76FB7E002B11D097F82F3083F02B
S32D000118C80103DBB2002B03D0F86800F083F802E0F86800F047F8F86800F044F80DE097F82F30002B03D0F86861
S32D000118F000F0D6F802E0F86800F038F8F86800F035F8FB7E87F82F3007F114023B6A13441B785B08D9B207F152
S32D0001191814023B6A13440A461A703B6A01333B623B6A042BBADDBB6A0133BB62BB6A062B7FF75CAFF86800F036
S32D00011940AFF8002387F82F300123FB6105E0F86800F00CF8FB690133FB61FB69232BF6DD3037BD4680BD00BF38
S32D00011968400B002080B483B000AF7860174B1B68164A43F480331360154B1B68144A23F008031360114B1B68A4
S32D00011990104A43F4802313600E4B1B680D4A23F4003313600B4B1B680A4A43F400331360094B1B68084A43F02B
S32D000119B808031360054B1B68044A23F48023136000BF0C37BD4680BC704700BF40F00F4080F00F4080B483B0D8
S32D000119E000AF78602B4B1B682A4A43F480331360294B1B68284A23F008031360254B1B68244A43F480231360DF
S32D00011A08224B1B68214A23F440731360204B1B681F4A23F47F2323F0F00313601D4B1B681C4A23F01D03136097
S32D00011A30184B1A687B685B6A164913430B60164B1A687B689B6A144913430B60134B1A687B68DB6A1149134339
S32D00011A580B600E4B1B680D4A23F4003313600B4B1B680A4A43F400331360094B1B68084A43F008031360054BD0
S32D00011A801B68044A23F48023136000BF0C37BD4680BC704740F00F4080F00F40C0F00F4080B483B000AF786016
S32D00011AA82B4B1B682A4A43F480331360294B1B68284A23F008031360254B1B68244A43F480231360224B1B68AD
S32D00011AD0214A23F440731360204B1B681F4A23F47F2323F0F00313601D4B1B681C4A23F01D031360184B1A68DA
S32D00011AF87B681B6B164913430B60164B1A687B685B6B144913430B60134B1A687B689B6B114913430B600E4B4F
S32D00011B201B680D4A23F4003313600B4B1B680A4A43F400331360094B1B68084A43F008031360054B1B68044AFA
S32D00011B4823F48023136000BF0C37BD4680BC704740F00F4080F00F40C0F00F4080B485B000AF78607B681B6AB4
S32D00011B70FB60FB68FB72FB681B0ABB72FB681B0CDBB203F003037B727B6800225A627B6800229A627B680022A2
S32D00011B98DA627B6800221A637B6800225A637B6800229A637B681A6BFB7A5B0203F400731A437B681A637B6858
S32D00011BC01A6BFB7A5B101B0203F480731A437B681A637B685A6BFB7A9B101B0103F010031A437B685A637B6803
S32D00011BE85A6BFB7ADB105B0103F020031A437B685A637B685A6BFB7A1B119B0103F040031A437B685A637B683F
S32D00011C105A6BFB7A5B11DB01DBB21A437B685A637B685A6BFB7A9B111B0303F480531A437B685A637B685A6B43
S32D00011C3897F90B30DB115BB25B0303F400531A437B685A637B685A6BBB7A9B0303F480431A437B685A637B68FF
S32D00011C605A6BBB7A5B10DB039BB21A437B685A637B685A6BBB7A9B101B0403F480331A437B685A637B685A6BD2
S32D00011C88BB7ADB105B0403F400331A437B685A637B685A6BBB7A1B119B0403F480231A437B685A637B685A6BA0
S32D00011CB0BB7A5B11DB0403F400231A437B685A637B689A6BBB7A9B1103F001031A437B689A637B689A6B97F9F9
S32D00011CD80A30DB115BB29B0003F004031A437B689A637B689A6B7B7ADB0003F008031A437B689A637B689A6BFD
S32D00011D007B7A5B101B0103F010031A437B689A637B68DB69FB60FB68FB72FB681B0ABB72FB681B0CDBB203F0E4
S32D00011D2803037B727B685A6AFB7A5B0203F400731A437B685A627B685A6AFB7A5B101B0203F480731A437B68EC
S32D00011D505A627B689A6AFB7A9B101B0103F010031A437B689A627B689A6AFB7ADB105B0103F020031A437B684A
S32D00011D789A627B689A6AFB7A1B119B0103F040031A437B689A627B689A6AFB7A5B11DB01DBB21A437B689A623D
S32D00011DA07B689A6AFB7A9B111B0303F480531A437B689A627B689A6A97F90B30DB115BB25B0303F400531A4338
S32D00011DC87B689A627B689A6ABB7A9B0303F480431A437B689A627B689A6ABB7A5B10DB039BB21A437B689A626F
S32D00011DF07B689A6ABB7A9B101B0403F480331A437B689A627B689A6ABB7ADB105B0403F400331A437B689A622C
S32D00011E187B689A6ABB7A1B119B0403F480231A437B689A627B689A6ABB7A5B11DB0403F400231A437B689A6221
S32D00011E407B68DA6ABB7A9B1103F001031A437B68DA627B68DA6A97F90A30DB115BB29B0003F004031A437B6839
S32D00011E68DA627B68DA6A7B7ADB0003F008031A437B68DA627B68DA6A7B7A5B101B0103F010031A437B68DA6279
S32D00011E9000BF1437BD4680BC704780B483B000AF78607B6818460C37BD4680BC704780B584B000AFF860B96032
S32D00011EB87A603B60FB682033B968184603F0D2FDFB687A681A60FB683A689A60FB68BA691A61FB68FA695A614F
S32D00011EE0FB681A68FB681B691A44FB685A60FB689A68FB685B691A44FB68DA60FB683A6A9A61FB687A6ADA6181
S32D00011F08FB680022C3F8E82000BF1037BD4680BDF0B585B002AF78607B689B6919461F48FEF7DFFD7B681968D7
S32D00011F307B689A687B6818697B685B69009303461848FFF78CFA7B68DB6919461548FEF7CCFD7B6803F120043E
S32D00011F587B681B681D467B681B691E467B682033184603F0E9FE024613465B0013449B00F31A5B082B4418462D
S32D00011F807B689A687B685B69113BD90F0B445B101344024621460348FEF7BAFD00BF0C37BD46F0BDC81600200B
S32D00011FA880B584B002AF78607B689B6919461F48FEF797FD7B681B68591C7B689B685A1C7B681B69981E7B68AB
S32D00011FD05B69023B009303461648FFF740FA7B681B68991C7B689B689A1C7B681B69181F7B685B69043B0093A9
S32D00011FF803460E48FFF72FFA7B681B68D91C7B689B68DA1C7B681B69981F7B685B69063B009303460548FFF7A0
S32D000120201EFA7B680122C3F8E82000BF0837BD4680BD00BFC816002080B584B002AF786000211F48FEF751FDF8
S32D000120487B681B68D91C7B689B68DA1C7B681B69981F7B685B69063B009303461648FFF7FAF97B681B68991CEE
S32D000120707B689B689A1C7B681B69181F7B685B69043B009303460E48FFF7E9F97B681B68591C7B689B685A1CE0
S32D000120987B681B69981E7B685B69023B009303460548FFF7D8F97B680022C3F8E82000BF0837BD4680BD00BF63
S32D000120C0C816002080B584B000AFF860B9607A603B60FB681B68184602F0A8F80246BB681946104602F09EFA75
S32D000120E80346002B00F08180FB685B68184602F099F80246BB681946104602F099FA0346002B72D0FB689B689C
S32D00012110184602F08BF802467B681946104602F081FA0346002B64D0FB68DB68184602F07DF802467B681946E3
S32D00012138104602F07DFA0346002B56D03A1D07F1080319462B48FEF7BBFDFB681B68184602F068F80246BB6845
S32D000121601946104602F05EFA0346002B3FD0FB685B68184602F05AF80246BB681946104602F05AFA0346002B2C
S32D0001218831D0FB689B68184602F04CF802467B681946104602F042FA0346002B23D0FB68DB68184602F03EF88C
S32D000121B002467B681946104602F03EFA0346002B15D03B68002B10D1FB68D3F8E830002B03D1F868FFF7E8FE6D
S32D000121D807E0FB68D3F8E830002B02D0F868FFF727FF012302E0002300E0002318461037BD4680BDC816002023
S32D0001220080B586B000AFF860B9607A60BB687B617B683B6107E007F1100207F1140319460A48FEF751FD7969F6
S32D000122283A690123F868FFF749FF0346002B14BF01230023DBB2002BE9D100BF00BF1837BD4680BDC816002017
S32D00012250B0B592B004AFF860B9607A603B60FB6C7B633B683B63F86C01F074FB02460B464FF000004E4901F075
S32D000122781FFA02460B4614461D46386D01F066FB02460B462046294601F012FA02460B461046194601F0BCFE6D
S32D000122A003463B62386801F055FB02460B464FF00000404901F000FA02460B4614461D46B86C01F047FB024607
S32D000122C80B462046294601F0F3F902460B461046194601F09DFE0346FB61786801F0A2FF03461946386A02F0B7
S32D000122F0A5F80346184602F0B3F90346BB61B86801F094FF03461946F86902F097F80346184602F0A5F90346CA
S32D000123187B6100237B620123BB623CE00123FB622CE07B6AEC2202FB03F3FA68D0187A6A13469B0013449B00D6
S32D000123401A467B6D9918FB6D0393BB6D02937B690193BB6900933B6B7A6BFFF7A8FD7B6AEC2202FB03F3FA681D
S32D0001236813441846FFF7D4FD7B6A01337B627A6BBB6913447B63FB6A0133FB62FA6A7B689A42CEDD3A6B7B6949
S32D0001239013443B63FB6C7B63BB6A0133BB62BA6ABB689A42BEDD00BF00BF3837BD46B0BD0000744000006E40F1
S32D000123B880B582B000AF786039607B68012B07D13B684FF6FF72934202D10348FEF7A4F900BF0837BD4680BD6C
S32D000123E0C816002080B500AF4FF6FF710120FFF7E3FF80BD80B582B000AF7860164B03F580535B6B144A43F090
S32D00012408400302F580525363124B4FF400725A62104B4FF400721A620F4B14225A700E4B1B7ADBB20C4A43F02B
S32D000124300103DBB213720A4B80229A7002212B20FBF7ACFA3D212A20FBF7A8FA7B6818460837BD4680BD00BFA5
S32D000124580070044000C004400060064080B582B000AF786039607B68012B07D13B684FF6FF72934202D103483D
S32D00012480FFF7B8FF00BF0837BD4680BD1017002080B500AF4FF6FF710120FFF7E3FF80BD80B582B000AF78603E
S32D000124A80B46FB707B68FA7811461846FDF79EFB7B6818460837BD4680BD000080B582B000AF786039607B6888
S32D000124D0012B08D13B684FF6FF72934203D120210348FFF7DDFF00BF0837BD4680BD00BF1417002080B500AF4C
S32D000124F84FF6FF710120FFF7E1FF80BD80B483B000AF78607B6800221A707B6818460C37BD4680BC70470000D5
S32D0001252080B582B000AF78607B681B7883F00103DBB2002B52D07B6801221A702A4B03F580535B6B284A43F498
S32D00012548806302F580525363264B4FF400725A60244B4FF400729A60234B1B684FF4165219462248FBF770FB42
S32D00012570204BDB78DBB21F4A23F00C03DBB2D3701C4BDB78DBB21B4A43F02003DBB2D370184BDB7ADBB2174A1E
S32D0001259823F02003DBB2D372154BD3F88431144A43F40053C2F88431114B5B68104A43F4005353600D4BDB7874
S32D000125C0DBB20C4A43F00C03DBB2D3706420FCF7D1FF7B6801221A70012300E0002318460837BD4680BD00BF5D
S32D000125E800700440009004401016002000A0064000E100E080B483B000AF78607B681B7818460C37BD4680BC0B
S32D000126107047000080B487B000AFF860B9607A60FB700023FB7400237B612CE000BF1C4B1B7883F00103DBB2BA
S32D00012638002BF8D1BA687B691344184A12781A70154B00221A70BA687B6913441B780D2B1AD0FB7C83F00103A0
S32D00012660DBB2002B0CD0BA687B6913441B78FA789A4202D10123FB7402E07B69013B7B617B6901337B617A695E
S32D000126887B689A42CED300E000BF7B6918461C37BD4680BC704700BF2E1700202F17002080B586B000AFF8609D
S32D000126B0B9607A6000237B610AE0BA687B6913441B7819460748FBF796FB7B6901337B617A697B689A42F0D3A5
S32D000126D87B6918461837BD4680BD00BF00A0064080B483B000AF78603960044A3B68136000BF0C37BD4680BC31
S32D00012700704700BF1817002080B582B000AF3248FBF758FB0346FB71304AFB791370304B01221A702F4B1B78B5
S32D00012728022B33D0022B4FDC002B02D0012B14D04AE0FB79FF2B44D1284B01221A70284B00221A70F979264BEE
S32D000127501B785A1CD0B2244A10701A46234B995433E0F979204B1B785A1CD0B21E4A10701A461E4B99541C4BA6
S32D000127781B780D2B27D11C4B1B68194A1278114618489847154B02221A701CE0FB79FF2B10D1124B01221A706F
S32D000127A0114B00221A70F9790F4B1B785A1CD0B20D4A10701A460D4B995409E00A4B00221A70084B00221A7046
S32D000127C802E000BF00E000BF00BF0837BD4680BD00A006402F1700202E1700202D1700202C1700201C17002099
S32D000127F01817002080B582B000AF78607B681846FFF780FE7B6811491846FFF76DFF7B684FF0FF325A600E4B65
S32D000128184FF000021A600D4B4FF000021A600C4B4FF000021A600B4B00221A600A4B00221A700A4B00221A70BD
S32D000128407B6818460837BD4680BD00BFD53301003C1700204017002044170020481700204C1700204D170020F6
S32D0001286880B594B000AF786039607B681846FFF7C1FE034683F00103DBB2002B03D07B681846FFF749FEA54BF9
S32D000128901B7883F00103DBB2002B00F00D837B681846FFF73DFE9F4B1B7883F00103DBB2002B00F001833B68A2
S32D000128B8002B02DA00233B6004E03B680B2B01DD0B233B607B683A685A609548FEF7C3F800233B620023FB64BA
S32D000128E0002387F84B3064E090498F48FEF7F7FA2B233B752B237B752B23BB757B6807F1140103221846FFF7AF
S32D00012908CFFE3862786807F108014F230A22FFF77DFEF864FB6C012B02D93B7A4F2B41D081497F48FEF717FBA7
S32D0001293080497D48FEF713FB40F6C410FCF71AFE786807F1080130230A22FFF763FEF864FB6C012B02D93B7A9C
