S01100002E2E2F50726F746575732E73313966
S32D0000C0000000002061C2000015C300001BC3000021C3000027C300002DC300000000000000000000000000005B
S32D0000C0280000000033C3000039C30000000000003FC3000045C30000CDC60000D9C60000E5C60000F1C600005A
S32D0000C050FDC6000009C7000015C7000021C700002DC7000039C7000045C7000051C700005DC7000069C70000FF
S32D0000C07875C7000081C700008DC7000099C70000A5C70000B1C70000BDC70000C9C70000D5C70000E1C7000026
S32D0000C0A0EDC70000F9C7000005C8000011C800001DC8000029C8000035C8000041C800004DC8000059C8000046
S32D0000C0C865C8000071C800007DC8000089C8000095C80000A1C80000ADC80000B9C80000C5C80000D1C800006C
S32D0000C0F0DDC80000AD050100E9C80000F5C8000001C900000DC9000019C9000025C9000031C900003DC90000EC
S32D0000C11849C9000055C9000061C900006DC9000079C9000085C9000091C900009DC90000A9C90000B5C9000029
S32D0000C140C1C90000CDC90000D9C90000E5C90000CDEA0000F1C90000FDC9000009CA000015CA000021CA00008D
S32D0000C1682DCA000039CA000045CA000051CA00005DCA000069CA000075CA000081CA00008DCA000099CA0000E7
S32D0000C190A5CA0000B1CA0000BDCA00002DE80000F5E6000091E7000051C40000CDE80000C9CA0000D5CA0000AC
S32D0000C1B8E1CA0000541F01000000002064150000541F01000000FF1F0000000064150020540400000000FF1F00
S32D0000C1E00000000080B489B000AFF860B9607A60BB68FB61FB68BB6100237B610AE0BB691A1DBA611A68FB6987
S32D0000C208191DF9611A607B6904337B617A697B689A42F0D300BF00BF2437BD4680BC704780B485B000AF7860E3
S32D0000C23039607B68FB600023BB6007E0FB681A1DFA6000221A60BB680433BB60BA683B689A42F3D300BF00BFFA
S32D0000C2581437BD4680BC704780B586B000AF72B6234B4CF220521A80214B4DF628121A80204B4FF4E9721A8057
S32D0000C2801F4B7B6113E07B691A1D7A611B687B607B691A1D7A611B68FB607B691A1D7A611B68BB60BA68F96818
S32D0000C2A87868FFF79BFF7B69144A9342E7D30DE07B691A1D7A611B68FB607B691A1D7A611B68BB60B968F86851
S32D0000C2D0FFF7AAFF7B690C4A9342EDD30B4B3B610B4A3B691A6005F031F862B600F078F900F09CF8FEE700BFAE
S32D0000C2F80E20054000200540BCC10000D4C10000E4C1000008ED00E000C0000080B400AFFEE780B400AFFEE764
S32D0000C32080B400AFFEE780B400AFFEE780B400AFFEE780B400AFFEE780B400AFFEE780B400AFFEE780B400AF5C
S32D0000C348FEE780B400AFFEE7FFFFFFFFFFFFFFFFFFFFFFFFFFFFFFFFFFFFFFFFFFFFFFFFFFFFFFFFFFFFFFFF3A
S32D0000C370FFFFFFFFFFFFFFFFFFFFFFFFFFFFFFFFFFFFFFFFFFFFFFFFFFFFFFFFFFFFFFFFFFFFFFFFFFFFFFFFC7
S32D0000C398FFFFFFFFFFFFFFFFFFFFFFFFFFFFFFFFFFFFFFFFFFFFFFFFFFFFFFFFFFFFFFFFFFFFFFFFFFFFFFFF9F
S32D0000C3C0FFFFFFFFFFFFFFFFFFFFFFFFFFFFFFFFFFFFFFFFFFFFFFFFFFFFFFFFFFFFFFFFFFFFFFFFFFFFFFFF77
S32D0000C3E8FFFFFFFFFFFFFFFFFFFFFFFFFFFFFFFFFFFFFFFFFFFFFFFFFFFFFFFFFFFFFFFFFFFFFFFFFEFFFFFF50
S32D0000C41008B5034B1BB103490348AFF3008008BD000000006415002010C4000080B500AF0021054803F08BF874
S32D0000C4380449034803F075F90023184680BD00BF5C180020941C010080B500AF0F4BD3F8A03003F48053002B4D
S32D0000C46014BF01230023DBB2002B10D0094BD3F8A030084A23F48053C2F8A030064804F019FA064B1B68054ACF
S32D0000C48823F40053136000BF80BD00BF00C00440E4180020C0F00F4080B400AF124B4FF480725A63114B5B697D
S32D0000C4B0104A43F4005353610E4B1B680D4A43F4005313600A4B0C4A1A630C4BD3F888310A4A43F08063C2F86F
S32D0000C4D88831084B9B68074A43F08063936000BFBD4680BC704700BF00C00440C0F00F4003010A0000E100E087
S32D0000C50080B400AF334B00225A70324B98221A7000BF304B9B79DBB203F01003002B14BF01230023DBB2002B21
S32D0000C528F3D100BF294B9B79DBB29B08DBB203F00303022B14BF01230023DBB2002BF1D1224B18221A71214BC5
S32D0000C55000225A71204B03F580531A461F4B53641C4B54225A7100BF1A4B9B79DBB203F02003002B0CBF01237C
S32D0000C5780023DBB2002BF3D100BF144B9B79DBB203F04003002B0CBF01230023DBB2002BF3D10E4B1B78DBB2CF
S32D0000C5A00C4A03F03F03DBB2137000BF094B9B79DBB29B08DBB203F00303032B14BF01230023DBB2002BF1D133
S32D0000C5C800231846BD4680BC704700BF00400640007004400000130180B500AF314B03F580539B6B2F4A43F4E0
S32D0000C5F0785302F580529363FFF752FFFFF780FF2B4B58221A602A4B1B684FF47A7202FB03F3284A1360274BFC
S32D0000C6181B681A46234B03F580535B6C1B0E03F00F030133B2FBF3F31A46214B1A601D4B03F58053DB6B1B4AF8
S32D0000C64043F0225302F58052D363184B03F580531B6B164A43F0006302F580521363174B4FF480721A616420A6
S32D0000C66801F022FF134B5B69124A23F010035361104B00221A600F4B10225A610E4802F001FE02F0D3F902F005
S32D0000C69031FA0C4801F06EFF0B4804F05FF94FF4FA6001F0EBFF00BF80BD00BF00700440A8170020A41700205F
S32D0000C6B8AC17002000D003405C180020A01700205419002080B500AFFFF73BFE00BF80BD80B500AFFFF735FE4A
S32D0000C6E000BF80BD80B500AFFFF72FFE00BF80BD80B500AFFFF729FE00BF80BD80B500AFFFF723FE00BF80BD39
S32D0000C70880B500AFFFF71DFE00BF80BD80B500AFFFF717FE00BF80BD80B500AFFFF711FE00BF80BD80B500AF5E
S32D0000C730FFF70BFE00BF80BD80B500AFFFF705FE00BF80BD80B500AFFFF7FFFD00BF80BD80B500AFFFF7F9FD65
S32D0000C75800BF80BD80B500AFFFF7F3FD00BF80BD80B500AFFFF7EDFD00BF80BD80B500AFFFF7E7FD00BF80BD77
S32D0000C78080B500AFFFF7E1FD00BF80BD80B500AFFFF7DBFD00BF80BD80B500AFFFF7D5FD00BF80BD80B500AF9D
S32D0000C7A8FFF7CFFD00BF80BD80B500AFFFF7C9FD00BF80BD80B500AFFFF7C3FD00BF80BD80B500AFFFF7BDFDDF
S32D0000C7D000BF80BD80B500AFFFF7B7FD00BF80BD80B500AFFFF7B1FD00BF80BD80B500AFFFF7ABFD00BF80BDB3
S32D0000C7F880B500AFFFF7A5FD00BF80BD80B500AFFFF79FFD00BF80BD80B500AFFFF799FD00BF80BD80B500AFD9
S32D0000C820FFF793FD00BF80BD80B500AFFFF78DFD00BF80BD80B500AFFFF787FD00BF80BD80B500AFFFF781FD56
S32D0000C84800BF80BD80B500AFFFF77BFD00BF80BD80B500AFFFF775FD00BF80BD80B500AFFFF76FFD00BF80BDEE
S32D0000C87080B500AFFFF769FD00BF80BD80B500AFFFF763FD00BF80BD80B500AFFFF75DFD00BF80BD80B500AF14
S32D0000C898FFF757FD00BF80BD80B500AFFFF751FD00BF80BD80B500AFFFF74BFD00BF80BD80B500AFFFF745FDCE
S32D0000C8C000BF80BD80B500AFFFF73FFD00BF80BD80B500AFFFF739FD00BF80BD80B500AFFFF733FD00BF80BD2A
S32D0000C8E880B500AFFFF72DFD00BF80BD80B500AFFFF727FD00BF80BD80B500AFFFF721FD00BF80BD80B500AF50
S32D0000C910FFF71BFD00BF80BD80B500AFFFF715FD00BF80BD80B500AFFFF70FFD00BF80BD80B500AFFFF709FD45
S32D0000C93800BF80BD80B500AFFFF703FD00BF80BD80B500AFFFF7FDFC00BF80BD80B500AFFFF7F7FC00BF80BD67
S32D0000C96080B500AFFFF7F1FC00BF80BD80B500AFFFF7EBFC00BF80BD80B500AFFFF7E5FC00BF80BD80B500AF8E
S32D0000C988FFF7DFFC00BF80BD80B500AFFFF7D9FC00BF80BD80B500AFFFF7D3FC00BF80BD80B500AFFFF7CDFCC1
S32D0000C9B000BF80BD80B500AFFFF7C7FC00BF80BD80B500AFFFF7C1FC00BF80BD80B500AFFFF7BBFC00BF80BDA4
S32D0000C9D880B500AFFFF7B5FC00BF80BD80B500AFFFF7AFFC00BF80BD80B500AFFFF7A9FC00BF80BD80B500AFCA
S32D0000CA00FFF7A3FC00BF80BD80B500AFFFF79DFC00BF80BD80B500AFFFF797FC00BF80BD80B500AFFFF791FC38
S32D0000CA2800BF80BD80B500AFFFF78BFC00BF80BD80B500AFFFF785FC00BF80BD80B500AFFFF77FFC00BF80BDDF
S32D0000CA5080B500AFFFF779FC00BF80BD80B500AFFFF773FC00BF80BD80B500AFFFF76DFC00BF80BD80B500AF05
S32D0000CA78FFF767FC00BF80BD80B500AFFFF761FC00BF80BD80B500AFFFF75BFC00BF80BD80B500AFFFF755FCB0
S32D0000CAA000BF80BD80B500AFFFF74FFC00BF80BD80B500AFFFF749FC00BF80BD80B500AFFFF743FC00BF80BD1B
S32D0000CAC880B500AFFFF73DFC00BF80BD80B500AFFFF737FC00BF80BD80B500AFFFF731FC00BF80BD80B483B0BE
S32D0000CAF000AF03460A46FB711346BB71BB79002B03D1134B00221A7002E0114B01221A703823FB710E4B1A7805
S32D0000CB18FB791343FB710D4B9B78DBB20B4A43F01003DBB29370094B9B78DBB2074A43F02003DBB29370054A1C
S32D0000CB40FB79137100BF0C37BD4680BC704700BF7C1500200060064080B483B000AF01237B6003E000BF7B6827
S32D0000CB6801337B607B68312BF8DD00BF00BF0C37BD4680BC7047000080B582B000AF03460A46FB711346BB7125
S32D0000CB90134B1B7800211846FFF7A8FF00F024F8104AFB79137100F01FF80E4ABB79137100F01AF80B4B9B788A
S32D0000CBB8DBB20A4A23F02003DBB29370074B9B78DBB2064A23F01003DBB29370FFF7C0FF00BF0837BD4680BDBD
S32D0000CBE07D1500200060064080B483B000AF174B1B78002B24D100237B600CE07B6842F21072934203DD114B10
S32D0000CC0801221A700FE07B6801337B6000BF0E4BDB78DBB203F00203002B0CBF01230023DBB2002BE6D1084B81
S32D0000CC30DB78DBB2064A43F00203DBB2D37000E000BF0C37BD4680BC704700BF7E1500200060064080B582B047
S32D0000CC5800AF0346FB71FB79184600F03BF800BF0837BD4680BD80B582B000AF03460A46FB711346BB7100F087
S32D0000CC8011F8FB795B00DBB21846FFF7E3FFBB791846FFF7DFFF00F013F800BF0837BD4680BD000080B400AF69
S32D0000CCA8044B9B68034A43F48013936000BFBD4680BC704740F00F4080B400AF044B5B68034A43F4801353600F
S32D0000CCD000BFBD4680BC704740F00F4080B485B000AF0346FB710023BB7302E0FB7B0133FB73144BDB6A03F053
S32D0000CCF80043012B0CBF01230023DBB2002BF1D10E4BDB6A0D4A43F00043D3620B4AFB79536300BF094BDB6A9C
S32D0000CD2003F40033002B0CBF01230023DBB2002BF4D1044B9B6BBB73BB7B18461437BD4680BC704700C00A409F
S32D0000CD4880B582B000AF204B03F580531B6B1E4A43F4805302F5805213631C4B4FF480721A651B4B5B691A4A91
S32D0000CD7043F480135361FFF7A3FF164B4FF400725A65144B4FF400729A65124B4FF40072DA65124B124A1A6013
S32D0000CD98104B124ADA6000237B6005E0FF20FFF755FF7B6801337B607B68092BF6DD04A1D1E9000101F074FC93
S32D0000CDC000BF0837BD4680BD9A9999999999B93F0070044000A0044040F00F4000C00A40000C00800500003E88
S32D0000CDE890B486B000AFF860B9607A60FB68534A93420AD1524B03F580535B6B504A43F4806302F58052536398
S32D0000CE1045E0FB684D4A93420AD14B4B03F580535B6B494A43F4006302F58052536336E0FB68474A93420AD198
S32D0000CE38434B03F580535B6B414A43F4805302F58052536327E0FB68404A93420AD13C4B03F580535B6B3A4A59
S32D0000CE6043F4005302F58052536318E0FB683A4A93420AD1344B03F580539B6A324A43F4806302F58052936269
S32D0000CE8809E02F4B03F580539B6A2D4A43F4006302F580529362FB68DB78DBB223F00C03DAB2FB68DA70FB6879
S32D0000CEB000229A70BB684FF47A7203FB02F27B681B0192FBF3F39CB2FB681B78DBB223F01F03FB75230A9BB282
S32D0000CED8DBB203F01F03DAB2FB7D1343DAB2FB681A70E2B2FB685A70BB684FF4FA4203FB02F27B681B0192FBD6
S32D0000CF00F3F39AB263019BB2D31A9CB2FB689B7ADBB223F01F03FB75E3B203F01F03DAB2FB7D1343DAB2FB6848
S32D0000CF289A72FB68DB78DBB243F00C03DAB2FB68DA7000BF1837BD4690BC704700A006400070044000B006406D
S32D0000CF5000C0064000D0064000A00E4080B483B000AF786000BF7B681B79DBB203F02003002B0CBF01230023A5
S32D0000CF78DBB2002BF3D17B68DB79DBB218460C37BD4680BC704780B487B000AFF860B9607A60FB687B6106E02A
S32D0000CFA0BB68D9B27B695A1C7A610A461A707B685A1E7A60002B14BF01230023DBB2002BEED100BF00BF1C37E4
S32D0000CFC8BD4680BC704780B584B000AF786039607B681B6BFB60FA683B689A4252D07B681B79002B35D07B686B
S32D0000CFF058787B6803F134010123FA6801F0F6F80346002B14BF01230023DBB2002B01D001233CE07B68002276
S32D0000D0181A717B685A6A7B681B6A1344FA689A4217D27B68DB78FB7210E07B681B6AFA681344FB607B68587810
S32D0000D0407B6803F134010123FA6801F0CFF8FB7A013BFB72FB7A012BEBD83B68002B15D07B6858787B6803F1B9
S32D0000D068340101233A6800F0D7FF0346002B14BF01230023DBB2002B01D0012303E07B683A681A630023184638
S32D0000D0901037BD4680BD80B584B000AF786000217868FFF794FF0346FB73FB7B002B40F093807B681B78032B32
S32D0000D0B87DD17B685B79002B79D07B6800221A637B6834334FF4007200211846FFF75BFF7B68552283F8322258
S32D0000D0E07B68AA2283F833227B68522283F834207B68522283F835207B68612283F836207B68412283F8372007
S32D0000D1087B68722283F818227B68722283F819227B68412283F81A227B68612283F81B227B681B69DAB27B68AF
S32D0000D13083F81C227B681B699BB21B0A9BB2DAB27B6883F81D227B681B691B0CDAB27B6883F81E227B681B69AA
S32D0000D1581B0EDAB27B6883F81F227B68DB68DAB27B6883F820227B68DB689BB21B0A9BB2DAB27B6883F82122F1
S32D0000D1807B68DB681B0CDAB27B6883F822227B68DB681B0EDAB27B6883F823227B6858787B6803F134017B68E6
S32D0000D1A85A69012301F01EF87B6800225A717B685B7800220021184601F0E0F80346002B14BF01230023DBB260
S32D0000D1D0002B01D00123FB73FB7B18461037BD4680BD80B582B000AF78600B467B807B68002B08D07B681B78B2
S32D0000D1F8002B04D07B68DB887A889A4201D0092311E07B685B78184601F03AF9034603F00103002B14BF01235E
S32D0000D2200023DBB2002B01D0032300E0002318460837BD4680BD80B586B000AF78607B681A687B689B88194672
S32D0000D2481046FFF7CAFF0346FB75FB7D002B40F0AC807B689B7903F02003002B00F0A5807B689B7903F0400371
S32D0000D270002B1BD07B681B6858787B6803F128017B689A69012300F0B1FF0346002B14BF01230023DBB2002B54
S32D0000D29801D001238AE07B689B7923F04003DAB27B689A717B681A687B68DB6919461046FFF789FE0346FB75CB
S32D0000D2C0FB7D002B75D17B681B6A3B613B690B331A783B690B3342F02002D2B21A707B68DA683B691C33D2B2FF
S32D0000D2E81A707B68DB689BB21B0A9AB23B691D33D2B21A707B68DB681A0C3B691E33D2B21A707B68DB681A0E0B
S32D0000D3103B691F33D2B21A707B681A693B691A33D2B21A707B681B699BB21B0A9AB23B691B33D2B21A707B687E
S32D0000D3381B691A0C3B691433D2B21A707B681B691B0C9BB21B0A9AB23B691533D2B21A700023FB603B69163373
S32D0000D360FA68D2B21A70FB689BB21B0A9AB23B691733D2B21A70FB681A0C3B691833D2B21A70FB681A0E3B695D
S32D0000D3881933D2B21A707B689B7923F02003DAB27B689A717B681B6801221A717B681B681846FFF774FE0346ED
S32D0000D3B0FB75FB7D18461837BD4680BD80B584B000AF78607868FFF736FF0346FB73FB7B002B02D17B6800224F
S32D0000D3D81A60FB7B18461037BD4680BD80B588B000AF7860396080233B610F23FB604FF0FF337B610223FB612B
S32D0000D40022E00123BB6119E0FB69BA6902FB03F33A6803FB02F27B68D31ABB60BB68002B09DBBB687A699A42B6
S32D0000D42805D9BB687B61FB693B61BB69FB60BB690133BB61BB69102BE2D9FB695B00FB61FB69B3F5807FD8D915
S32D0000D4501D4BDB6A1C4A23F00803D3621A4BDB6A23F47F2323F47F63BB613B695B081B029AB2FB68013B1B01A5
S32D0000D478DBB21A43BB691343114A43F46023D36202E00A2001F0F6F80D4B5B6A03F00803002B0CBF0123002395
S32D0000D4A0DBB2002BF1D1084BDB6A074A43F00803D362054B1B6B044A43F48013136300BF2037BD4680BD00BF0F
S32D0000D4C800100B4080B582B000AF786039607B6800221A60414B424ADA6200BF3F4BDB6A03F08073002B14BF0F
S32D0000D4F001230023DBB2002BF4D13A4B0022C3F8C020384B4FF481325A60364B28229A62344B4FF001125A647F
S32D0000D5183B689B6833491846FFF760FF00BF2F4B5B6A03F00303002B14BF01230023DBB2002BF4D12C4B40F2AE
S32D0000D54043421A602A4B40F243425A60284B4FF488629A60264B40F24342DA60244B40F243421A61224B40F29C
S32D0000D56843425A61214B03F580531B6B1F4A43F4003302F580521363184B4FF6FF721A63164B1B4A5A63154B0D
S32D0000D590DB6A144A43F00063D36200BF114BDB6A03F00063002B14BF01230023DBB2002BF4D10C4B5B6A03F474
S32D0000D5B88033002B14BF01230023DBB2002B02D07B6801221A60054B1B6B044A43F08003136300231846083733
S32D0000D5E0BD4680BD00100B400080000160CC050000D0044000700440B3007F0080B400AF064B5A6A40F2073372
S32D0000D6081340002B14BF01230023DBB21846BD4680BC704700100B4080B485B000AF7860064B1B6B7A68134024
S32D0000D630FB60FB68002BF7D0FB6818461437BD4680BC704700100B4080B584B000AF78607B681B7803F03F0324
S32D0000D658764A52F82330FB60FB68002B05D17B681B78002B01D00123DCE0714B1B6B704A43F08003136300BF4F
S32D0000D6806D4B5B6A03F00103002B14BF01230023DBB2002BF4D1684A7B685B689360FB6823F44003FB607B6800
S32D0000D6A85B789B0503F44003FA681343FB607B685B78022B03D1FB6843F40013FB607B685B78042B16D1FB68A6
S32D0000D6D003F44033B3F5003F08D1FB6823F44033FB60FB6843F44033FB6007E0FB6823F44033FB60FB6843F489
S32D0000D6F80033FB604E4B5B684D4A9BB253607B68DB68002B2AD0FB6803F44033B3F5403F03D0FB6843F40013C4
S32D0000D720FB607B681B7A002B03D0FB6843F01003FB607B68DB68012B03D9FB6843F02003FB607B68DB68B3F1FA
S32D0000D748FF3F0BD03A4B5A687B68DB681B04384913434B60FB6843F00203FB60344B00221A60334AFB68D36068
S32D0000D7703248FFF755FF0346012B14BF01230023DBB2002B09D02C4B1B6B2B4A43F4702343F00103136301239A
S32D0000D79848E0274B1B6B03F08003002B14BF01230023DBB2002B07D0214B1B6B204A43F001131363012335E0A7
S32D0000D7C01D4B1B6B03F48033002B14BF01230023DBB2002B08D0184B1B6B174A43F0011313634FF0FF3321E055
S32D0000D7E8FB6803F44033002B15D0114B1A697B681A61FB6803F44033B3F5803F0BD10C4B5A697B685A610A4BDC
S32D0000D8109A697B689A61084BDA697B68DA61064B1B6B054A43F001031363002318461037BD4680BDB01C0100AD
S32D0000D83800100B4001000E0080B592B000AF7860396000237B643B68BB63994B7B637B6B002B02D140F60123FE
S32D0000D8605FE3964B3B633B6B002B02D140F60B2357E33B6B1B68FB62FB6A002B02D140F60B234EE37B6841F203
S32D0000D8880932934200F23F837B68B3F5985F08D87B68032B00F01A837B68092B00F0098331E37B68A3F59853A1
S32D0000D8B0013B082B00F22B8301A252F823F000BFE5D80000D1DB00002DDE0000E7DB000025DC00004BDD00001D
S32D0000D8D893DD0000D5DC0000EFDC00007649786BFFF7F0FD78647B6C002B40F01083002387F84330002387F849
S32D0000D9002B30002387F82A30002387F82930002387F84230002387F8283000233B7200237B720023FB60002318
S32D0000D9283B7400237B6107F108031846FFF788FE0346002B14BF01230023DBB2002B02D001237B64E8E240F22F
S32D0000D9504C4000F093FE08233B7200237B724FF4D573FB6000233B7400237B6107F108031846FFF769FEF863E4
S32D0000D978FB6B002B09D1BA69FB689A4202D001237B64C9E2012387F84230012387F8283097F82830002B00F022
S32D0000D9A0A58037233B7200237B720023FB6000233B7400237B6107F108031846FFF744FEF863FB6B002B02D077
S32D0000D9C801237B64A8E269233B7200237B720023FB6000233B7400237B6107F108031846FFF72EFE0346002B15
S32D0000D9F014BF01230023DBB2002B02D001237B648EE2BB6903F44013002B6FD00023FB630A2000F033FEFB6BE8
S32D0000DA180133FB6337233B7200237B720023FB6000233B7400237B6107F108031846FFF707FE0346002B14BF45
S32D0000DA4001230023DBB2002B02D001237B6427E069233B7200237B7297F84230002B02D0184BFB6002E04FF4B3
S32D0000DA684013FB6000233B7400237B6107F108031846FFF7E5FD0346002B14BF01230023DBB2002B02D001239C
S32D0000DA907B6405E0BB69002B02DBFB6B632BB7D97B6C002B40F03982FB6B632B0CD9002387F842301AE000BF51
S32D0000DAB89415002098170020A41C010000003040012387F8433097F84230002B0AD0002387F84230BB6903F030
S32D0000DAE08043002B02D0012387F8423097F82A30002B02D07B6B07221A6097F82930002B02D07B6B08221A6065
S32D0000DB0897F82B30002B02D07B6B04221A6097F84330002B09D07B6B02221A6097F84230002B02D07B6B0322EF
S32D0000DB301A6097F82B30002B0DD097F84330002B09D07B6B05221A6097F84230002B02D07B6B06221A60924B6B
S32D0000DB5800221A60904B00225A608F4B00229A608D4B0022DA608C4B00221A618A4B00225A61FB6A9A68FB6A30
S32D0000DB805B6819461046FFF72DFC854B40F243421A60834B40F243425A60814B4FF488629A607F4B40F243422C
S32D0000DBA8DA607D4B40F243421A617B4B40F243425A617A4B03F580531B6B784A43F4003302F580521363A7E1DA
S32D0000DBD0B86BFFF739FDF863FB6B002B00F09F8102237B649BE1BB6B002B02D10C237B6496E16D4BDB6A1B0A91
S32D0000DBF85B0003F4FF73FB63694BDB6A1B0903F00F035A1CFB6B02FB03F3FB63FB6A9A68FB6BB2FBF3F2BB6B09
S32D0000DC201A607DE1BB6B002B02D10C237B6477E1BB6B1B68002B02D10C237B6470E1FFF7DDFC0346002B0CBF60
S32D0000DC4801230023DBB2002B3CD0534B00221A60514B00225A60504B00229A604E4B0022DA604D4B00221A6110
S32D0000DC704B4B00225A61FB6A9A68BB6B1B6819461046FFF7AFFB464B40F243421A60444B40F243425A60424B5F
S32D0000DC984FF488629A60404B40F24342DA603E4B40F243421A613C4B40F243425A613B4B03F580531B6B394AAD
S32D0000DCC043F4003302F58052136329E140F60A237B6425E1BB6B002B02D10C237B641FE1314B5B68C3F30C0206
S32D0000DCE8BB6B1A6018E1BB6B002B02D10C237B6412E1FFF77FFC0346002B0CBF01230023DBB2002B19D0BB6B92
S32D0000DD101B68B3F5805F02D30C237B6400E1224B5B68214A23F4FF5323F01F0353601E4B5A68BB6B1B68C3F3A1
S32D0000DD380C031B4913434B60EEE040F60A237B64EAE0BB6B002B02D10C237B64E4E0144B9B6A5B0803F00303B9
S32D0000DD60FB63FB6B002B03D1BB6B00221A60D7E0FB6B012B03D1BB6B01221A60D0E0FB6B102B03D1BB6B0222C1
S32D0000DD881A60C9E005237B64C6E0BB6B002B09D10C237B64C0E000BF00D004400070044000100B40FFF726FCCA
S32D0000DDB00346002B0CBF01230023DBB2002B31D0BB6B1B68002B0AD1584B9B6A574A23F006039362554B554ABE
S32D0000DDD89B6A9362A0E0BB6B1B68012B0CD1514B9B6A504A23F0060393624E4B9B6A4D4A43F0020393628FE0D4
S32D0000DE00BB6B1B68022B0AD1484B9B6A474A23F006039362454B454A9B6A936280E005237B647DE040F60A23C9
S32D0000DE287B6479E0BB6B002B02D10C237B6473E03C4BDB6A3B4A43F00063D36200BF394BDB6A03F00063002BEA
S32D0000DE5014BF01230023DBB2002BF4D1334B1B6B03F08003002B14BF01230023DBB2002B08D02E4B1B6B2D4A48
S32D0000DE7843F0800313637B6B00221A60294B5B6A03F48033002B14BF01230023DBB2002B07D07B6B1B68002B83
S32D0000DEA006D17B6B01221A6002E07B6B00221A607B6B1A68BB6B1A6032E0BB6B1C221A60BB6B043304221A60A1
S32D0000DEC8BB6B08334FF41E721A6025E00220FFF7A3FB144B1B6B03F4E003002B14BF01230023DBB2002B07D030
S32D0000DEF00E4B1B6B0D4A43F4E003136304237B640A4B1B6B094A43F03203136308E040F609237B6404E000BF60
S32D0000DF1802E000BF00E000BF7B6C18464837BD4680BD00BF00100B4080B489B000AF786039607B687B61364BB0
S32D0000DF403B613B69002B01D100235FE03B691B68022B0BD03B691B68032B07D03B691B68072B03D03B691B6866
S32D0000DF68082B0BD100BF2B4B5B6A03F00403002B14BF01230023DBB2002BF4D13B68FB613CE0FB69B3F5007F20
S32D0000DF9028BF4FF40073FB60FB6803339B08BB6129E01E4B1B6B03F4E003002B14BF01230023DBB2002B09D06B
S32D0000DFB8184B1B6B174A43F4E00343F02003136300231FE000BF134B5B6A03F40063002B0CBF01230023DBB2E3
S32D0000DFE0002BF4D10D4B1A6A7B69191D79611A60BB69013BBB61BB69002BD2D1FA69FB68D31AFB61FB69002BCD
S32D0000E008BFD1012318462437BD4680BC704700BF9415002000100B4080B58EB000AFB9607A601A460346FB7378
S32D0000E0301346BB73414B7B63FB7B002B02D1BB7B002B01D1042375E03D4B1B78DBB203F00103002B14BF0123ED
S32D0000E0580023DBB2002B01D0032367E0BB68002B01D1002362E07B6B1B7B002B02D17B685B027B60BB7B012B05
S32D0000E08028D111233B7500237B757B68BB6101233B77BB7B3B6207F11403194641F20230FFF7CEFB0346002BD4
S32D0000E0A80CBF01230023DBB2002B38D04FF40071B868FFF739FF0346002B14BF01230023DBB2002B2BD0002312
S32D0000E0D0BB7328E012233B7500237B757B68BB6101233B77BB7B3B6207F11403194641F20230FFF7A5FB03469A
S32D0000E0F8002B0CBF01230023DBB2002B0FD0BB7B5B021946B868FFF70FFF0346002B14BF01230023DBB2002BCA
S32D0000E12001D00023BB73BB7B002B01D0012300E0002300BF18463837BD4680BD801500200400002080B487B046
S32D0000E14800AF786039607B68FB603B687B613DE07B69B3F5007F28BF4FF400733B617A693B69D31A7B613B6977
S32D0000E17003339B083B612AE01B4B1B6B03F4E003002B14BF01230023DBB2002B0AD0164B1B6B154A43F4E00305
S32D0000E19843F0100313634FF0FF331BE000BF104B5B6A03F48063002B0CBF01230023DBB2002BF4D1FB681A1D24
S32D0000E1C0FA60094A1B6813623B69013B3B613B69002BD1D17B69002BBED1012318461C37BD4680BC704700BF77
S32D0000E1E800100B4080B58EB000AFB9607A601A460346FB731346BB735D4B7B63FB7B002B02D1BB7B002B01D1CE
S32D0000E2100423ACE0594B1B78DBB203F00103002B14BF01230023DBB2002B01D003239EE0524B1B78DBB203F050
S32D0000E2380403002B14BF01230023DBB2002B01D0022390E0BB68002B01D100238BE07B6B1B7B002B02D17B6843
S32D0000E2605B027B60BB7B012B28D118233B7500237B757B68BB6100233B77BB7B3B6207F11403194641F2023085
S32D0000E288FFF7DAFA0346002B0CBF01230023DBB2002B38D04FF40071B868FFF74FFF0346002B14BF01230023B2
S32D0000E2B0DBB2002B2BD00023BB7328E019233B7500237B757B68BB6100233B77BB7B3B6207F11403194641F2ED
S32D0000E2D80230FFF7B1FA0346002B0CBF01230023DBB2002B0FD0BB7B5B021946B868FFF725FF0346002B14BFB5
S32D0000E30001230023DBB2002B01D00023BB730D233B7500237B757B6B1B69BB6100233B7700233B6207F11403B1
S32D0000E328194641F20230FFF787FA0346002B14BF01230023DBB2002B01D0012313E07A6A0D4B1340002B01D0D3
S32D0000E35001230CE07B6A03F4F853B3F5106FD6D1BB7B002B01D0012300E0002300BF18463837BD4680BD00BFB6
S32D0000E37880150020040000200880D9FF80B58CB000AF03463A60FB710B46BB713A4BBB62FB79002B01D0042319
S32D0000E3A069E0012387F82F30364B1B78DBB203F00103002B14BF01230023DBB2002B01D0032358E0BB79032BDE
S32D0000E3C850D801A252F823F0E1E30000E9E30000F9E3000009E40000002387F82F3044E0BB6A9A683B681A603D
S32D0000E3F0002387F82F303CE03B684FF400721A80002387F82F3034E009233B7200237B72BB6A1B69FB600023CB
S32D0000E4183B7400237B6107F10803194641F20230FFF70AFA0346002B14BF01230023DBB2002B01D001231AE032
S32D0000E4407B6A03F44003002B0CD13B6A9B0C03F07F035A1C7B6A1B0A03F00303013B9A403B681A60002387F878
S32D0000E4682F3002E0042387F82F3097F82F3018463037BD4680BD00BF801500200400002080B483B000AF034656
S32D0000E490FB71FB79002B01D0012302E0034B1B78DBB218460C37BD4680BC70470400002080B483B000AF786065
S32D0000E4B8164B03F580539B6B144A43F0010302F580529363124A7B689360114B05225A600F4B1B680E4A43F0D9
S32D0000E4E00103136000BF0C4B1B6803F08003002B0CBF01230023DBB2002BF4D1064B1B68054A23F00103136021
S32D0000E50800BF0C37BD4680BC704700BF007004400000044080B582B000AF786039607B68012B07D13B684FF6E0
S32D0000E530FF72934202D1034800F00EF800BF0837BD4680BDA017002080B500AF4FF6FF710120FFF7E3FF80BD7F
S32D0000E55880B483B000AF78607B6800221A707B6818460C37BD4680BC7047000080B582B000AF78607B681B783A
S32D0000E58083F00103DBB2002B21D0134B03F580531A464FF400639362104B4FF440721A620E4B4FF440725A6253
S32D0000E5A80D4B1B68DA0F13445B104FF4614219460A48FEF715FC642000F05CF87B6801221A70012300E00023A3
S32D0000E5D018460837BD4680BD0070044000D00440A417002000B00E4080B487B000AFF860B9607A60FB681F4A6E
S32D0000E5F8A2FB03239B09BA6813447B61FB681B4AA2FB031292094FF47A7101FB02F29B1AFB60FB68DB03154A56
S32D0000E620A2FB03239B097A6813443B613B69DB0B7A6913447B613B69C3F30E033B6100BF0D4B1B687A699A4290
S32D0000E64809D80B4B1B687A699A4206D1084B5B683A699A4201D9012300E00023002BEBD100BF00BF1C37BD4603
S32D0000E67080BC7047D34D621000D0034080B584B000AF7860074B1B68FB60064B5B68BB607B68BA68F9681846D1
S32D0000E698FFF7A6FF00BF1037BD4680BD00D0034080B584B000AFC7E900010E4B1B68FB600C4B5B68BB604FF0EC
S32D0000E6C000020B4BD7E9000102F08EF902460B461046194602F09AFB0346BA68F9681846FFF782FF00BF10371E
S32D0000E6E8BD4680BD00D0034000408F40B0B48BB000AF224B3C1D1D460FCD0FC495E80F0084E80F0000237B6275
S32D0000E7102FE01D4BD3F8A0207B6A9B0028333B4453F8243C012101FA03F31340002B14BF01230023DBB2002B71
S32D0000E73818D0144A7B6A52F823305A1C11497B6A41F823200E4BD3F8A0207B6A9B0028333B4453F8243C0121AF
S32D0000E76001FA03F308491340C1F8A0307B6A01337B627B6A072BCCDD00BF00BF2C37BD46B0BC7047581E010039
S32D0000E78800A00440D0170020B0B489B000AF224B3C1D1D460FCD0FC495E8030084E803000023FB612FE01D4B6F
S32D0000E7B0D3F8A020FB699B0020333B4453F81C3C012101FA03F31340002B14BF01230023DBB2002B18D0FB698D
S32D0000E7D80833134A52F823200132114941F823200E4BD3F8A020FB699B0020333B4453F81C3C012101FA03F37A
S32D0000E80008491340C1F8A030FB690133FB61FB69052BCCDD00BF00BF2437BD46B0BC7047781E010000B0044002
S32D0000E828D0170020B0B48DB000AF234B3C461D460FCD0FC40FCD0FC495E8070084E807000023FB622FE01D4BCC
S32D0000E850D3F8A020FB6A9B0030333B4453F8303C012101FA03F31340002B14BF01230023DBB2002B18D0FB6AC6
S32D0000E8780E33134A52F823200132114941F823200E4BD3F8A020FB6A9B0030333B4453F8303C012101FA03F3AE
S32D0000E8A008491340C1F8A030FB6A0133FB62FB6A0A2BCCDD00BF00BF3437BD46B0BC7047901E01000090044052
S32D0000E8C8D0170020B0B487B000AF214B3C461D460FCD0FC42B68236000237B612FE01D4BD3F8A0207B699B003B
S32D0000E8F018333B4453F8183C012101FA03F31340002B14BF01230023DBB2002B18D07B691933134A52F823202C
S32D0000E9180132114941F823200E4BD3F8A0207B699B0018333B4453F8183C012101FA03F308491340C1F8A030BC
S32D0000E9407B6901337B617B69042BCCDD00BF00BF1C37BD46B0BC7047BC1E010000D00440D017002080B483B0A5
S32D0000E96800AF78600B46FB707B68FA781A707B6818460C37BD4680BC7047000080B586B000AF78607B681B787D
S32D0000E9901A46234B53F822303B617B681B781A46204B9B5CFB733B69DBB203F01F03DAB21D4B1A723B69DBB2B5
S32D0000E9B803F01F03DAB21A4B5A72FB7B002B13D11749184800F0D0F900BF164B1B6803F08003802B14BF0123A6
S32D0000E9E00023DBB2002BF4D1104B1B697B6112E00D490F4800F0BCF900BF0D4B1B6803F08003802B14BF0123B8
S32D0000EA080023DBB2002BF4D1074B1B697B617B6918461837BD4680BDD41D0100B01D0100C017002000B0034013
S32D0000EA3000B00B4098B500AF204B5C221A701F4B10225A701D4B41F234225A801B4B45F278629A80194B1022F6
S32D0000EA589A71184B0722DA71164B4FF4C022DA60144B1F221A72134B1F225A721149124800F07AF90F4911488F
S32D0000EA8000F076F90F4800F0D4F80D4800F0D1F80A490C4800F06CF90849094800F068F9094A064B14460FCB21
S32D0000EAA884E80F00064B5C221A70054B0422DA7100BF98BDB017002000B0034000B00B40C017002080B500AFE7
S32D0000EAD0064B1B680133054A136000F03DF8044B0122C3F80C2100BF80BD00BF541800200070034080B500AFF1
S32D0000EAF80C4B01221A600C4800F01AF8094B0322C3F80821094BD3F88831084A43F01003C2F88831054B9B6813
S32D0000EB20044A43F01003936000BF80BD00700340A086010000E100E080B483B000AF7860044A7B68C2F800319F
S32D0000EB4800BF0C37BD4680BC704700BF0070034080B584B000AF184B1B68FB6023E0FB685B78FB71FB689B68D1
S32D0000EB70184600F027F80346BB71BB79002B13D0FB685B68012B0FDDFB689B681B69BB6007E0BB685B685A1CCD
S32D0000EB98BB685A60BB681B69BB60BB68002BF4D1FB68DB68FB60FB68002BD8D100BF00BF1037BD4680BD00BFA1
S32D0000EBC05018002080B584B000AF78607868FFF7D9FEF8607B689B695B78FB72FB7A002B0FD17B68DB68FA687B
S32D0000EBE89A420ADD7B689B6901225A707B685B685A1C7B685A60012313E0FB7A012B0FD17B689B68FA689A42F3
S32D0000EC100ADA7B689B6900225A707B685B685A1C7B685A60012300E0002318461037BD4680BD80B485B000AF42
S32D0000EC3878607B681B6A23F040027B681A627B685B6A23F00B027B685A627B685B6A43F007027B685A627B68ED
S32D0000EC605B6A43F080027B685A6200BF7B681B6803F08003002B0CBF01230023DBB2002BF4D17B685B6A03F07D
S32D0000EC884003402B0CBF01230023DBB2002B01D0012364E00023FB817B68DB6CFB817B689B6C9AB2FB89134457
S32D0000ECB0FB817B685B6C9AB2FB891344FB817B681B6C9AB2FB891344FB817B68DB6B9AB2FB891344FB817B68B1
S32D0000ECD89B6B9AB2FB891344FB81FB895B08FB81FB896FEA43436FEA5343FB81FA897B68DA620023FB817B6810
S32D0000ED00DB6EFB817B689B6E9AB2FB891344FB817B685B6E9AB2FB891344FB817B681B6E9AB2FB891344FB8133
S32D0000ED287B68DB6D9AB2FB891344FB817B689B6D9AB2FB891344FB81FB895B08FB81FB896FEA43436FEA5343AC
S32D0000ED50FB81FA897B681A637B685B6A23F080027B685A62002318461437BD4680BC704780B483B000AF7860AA
S32D0000ED7839603B681B781A467B689A603B685B781A467B68DA603B685B881A467B689A613B689B881A467B68A1
S32D0000EDA0DA613B689B791A467B681A623B68DB791A467B685A623B68DA687B681A653B681B7A1A467B681A6062
S32D0000EDC83B685B7A1A467B685A6000BF0C37BD4680BC704780B483B000AF78607B6818460C37BD4680BC704748
S32D0000EDF080B582B000AF786039607B68012B07D13B684FF6FF72934202D10348FFF7E6FF00BF0837BD4680BD22
S32D0000EE185818002080B500AF4FF6FF710120FFF7E3FF80BD80B582B000AF7860B84B4FF48072DA60B74B4FF4C8
S32D0000EE4080729A64B54B4FF480721A64B34B4FF480725A64B14B4FF48072DA60B04B5B69AF4A43F008035361FB
S32D0000EE68AE4B5B69AD4A43F480235361AB4B5B69AA4A43F480335361A84B5B69A74A43F400335361A54B1B68B5
S32D0000EE90A44A43F008031360A24B5B69A14A43F0080353619E4B1B689D4A43F0080313609A4B4FF480725A624D
S32D0000EEB8984B4FF480721A62954B4FF480721A61934B4FF480725A61914B4FF480729A618F4B4FF48072DA61E4
S32D0000EEE08D4B4FF480721A638B4B4FF480725A63894B4FF480729A63874B4FF48072DA63854B4FF480721A64E5
S32D0000EF08834B4FF480725A64814B4FF480729A647F4B4FF48072DA64814B4FF480721A607F4B4FF480729A606A
S32D0000EF307D4B4FF48072DA607B4B4FF480721A61784B5B69774A43F440735361744B5B69734A43F47F2343F0D4
S32D0000EF58F0035361734B5B69724A43F01D035361E221786800F0F0FB1D21786800F092FC0221786800F08EFCC8
S32D0000EF800421786800F08AFCE021786800F0E0FB0121786800F082FC6420FFF76FFBE021786800F0D5FB032123
S32D0000EFA8786800F077FC0121786800F0CDFB0120FFF760FBE621786800F0C6FB0121786800F068FCA02178683D
S32D0000EFD000F064FCFF21786800F060FCB021786800F0B6FB1C21786800F058FC0F21786800F054FC0121786872
S32D0000EFF800F050FC3F21786800F04CFC0021786800F048FCEF21786800F044FC0021786800F040FCB421786800
S32D0000F02000F096FB0121786800F038FC9921786800F034FC0021786800F030FC4521786800F02CFC02217868E3
S32D0000F04800F028FC0021786800F024FC0021786800F020FC0021786800F01CFCB621786800F072FB0121786849
S32D0000F07000F014FC0921786800F010FC0021786800F00CFC0E21786800F008FC0221786800F004FC002178687C
S32D0000F09800F000FC0021786800F0FCFBBA21786800F052FB0F21786800F0F4FB6420FFF7E1FA3A21786800F00F
S32D0000F0C047FB6021786800F0E9FB2A21786800F03FFB0021786800F0E1FB0021786800F0DDFB0121786800F0CE
S32D0000F0E8D9FB3F21786800F0D5FB2B21786800F02BFB0021786800F0CDFB0021786800F0C9FB0021786800F085
S32D0000F110C5FBEF2178680BE000B0044000A0044080F00F4040F00F4000C00440C0F00F4000F0B4FB3621786847
S32D0000F13800F00AFB0021786800F0ACFBF021786800F002FB0421786800F0A4FBB821786800F0FAFA0F217868FD
S32D0000F16000F09CFB0121786800F098FB314B1B68304A43F0080313606420FFF77FFA3621786800F0E5FA002131
S32D0000F188786800F087FBF021786800F0DDFA0421786800F07FFB0121786800F0C0F91E226F21786800F082F81B
S32D0000F1B0AF225621786800F0DDF80021786800F003FA012301221C49786800F024FA2921786800F0BDFA642067
S32D0000F1D8FFF750FABE21786800F0B6FA0E21786800F058FBF021786800F054FB0121786800F050FB00217868AA
S32D0000F20000F04CFB0021786800F048FB0F21786800F044FB786800F022FA0121786800F0D3F90021786800F09B
S32D0000F228A8F900BF0837BD4680BD00BF40F00F40D01E010080B582B000AF78607B680022DA617B6801221A62FC
S32D0000F2507B680E225A607B681A229A607B6800225A617B6800229A617B684FF4A072DA607B68F0221A617B6825
S32D0000F27800221A70786800F035FF7B6818460837BD4680BD80B582B000AF7860064B1B78002B05D1044B0122B3
S32D0000F2A01A707868FFF7C2FD00BF0837BD4680BDA018002080B58AB002AFF860B9607A607E23009362237A6805
S32D0000F2C8B968F86800F06EFC40F24E733B610023FB613FE00023BB6131E0FB690133224AD35C002B06D1FF2369
S32D0000F2F0FB75FF23BB75FF237B7512E0FB6901331B4AD35C012B06D1D423FB750023BB7526237B7505E0B5234B
S32D0000F318FB75BA23BB75B0237B757B7DBA7DF97DF86800F0D7F80246FB68DA61F86800F0D9FEF86800F012FE56
S32D0000F340BB690133BB610A4AFB6913441B781A46BB699342C5DBFB690233FB61FA693B699A42BBDB00BF00BFA4
S32D0000F3682037BD4680BD00BF0800002080B58AB002AFF860B9607A602723009395237A68B968F86800F00EFC9C
S32D0000F39040F2E6333B610023FB613FE00023BB6131E0FB690133224AD35C002B06D1FF23FB75FF23BB75FF233F
S32D0000F3B87B7512E0FB6901331B4AD35C012B06D10023FB750023BB7500237B7505E0D423FB750023BB75262335
S32D0000F3E07B757B7DBA7DF97DF86800F077F80246FB68DA61F86800F079FEF86800F0B2FDBB690133BB610A4A37
S32D0000F408FB6913441B781A46BB699342C5DBFB690233FB61FA693B699A42BBDB00BF00BF2037BD4680BD00BF4D
S32D0000F4305807002080B485B000AF78600B46FB70FB78062B29D801A252F823F071F4000069F4000077F40000B1
S32D0000F4587FF4000087F400008DF4000095F400006FF07F43FB6014E00023FB6011E04FF47F03FB600DE04FF45F
S32D0000F4807F43FB6009E0FF23FB6006E04FF41903FB6002E0044BFB6000BFFB6818461437BD4680BC704700BF2F
S32D0000F4A89999990080B584B000AF786039603B681B0CFB733B681B0ABB733B687B737B7BBA7BF97B786800F0B4
S32D0000F4D005F8034618461037BD4680BD80B487B000AF7860084611461A460346FB700B46BB7013467B70FB7805
S32D0000F4F89B08DBB27B61BB789B08DBB23B617B789B08DBB2FB607B691A033B699B011A43FB68134318461C3755
S32D0000F520BD4680BC704780B582B000AF78600B46FB70FB7819467868FFF77CFF03461946786800F004F800BFC7
S32D0000F5480837BD4680BD80B582B000AF7860396039687868FFF7A6FF02467B681A62786800F0C0FD786800F06F
S32D0000F5702DFA00BF0837BD4680BD80B582B000AF78600B46FB70FB7819467868FFF752FF03461946786800F0ED
S32D0000F59804F800BF0837BD4680BD80B582B000AF7860396039687868FFF77CFF02467B681A62786800F096FD88
S32D0000F5C000BF0837BD4680BD80B582B000AF78600B46FB70FB7819467868FFF72BFF03461946786800F004F8EF
S32D0000F5E800BF0837BD4680BD80B582B000AF7860396039687868FFF755FF02467B68DA61786800F06FFD00BF04
S32D0000F6100837BD4680BD80B586B000AFF860B9607A603B6000237B610EE07B69BA6813441B783A687968F8688D
S32D0000F63800F052FB7B680C337B607B6901337B617B69BA6813441B78002BEAD100BF00BF1837BD4680BD80B55E
S32D0000F66082B000AF7860FDF76FFB67210120FDF7FEFA00210220FDF7FAFAA0210320FDF7F6FA50210420FDF754
S32D0000F688F2FA20210520FDF7EEFA20210620FDF7EAFA77210720FDF7E6FA00210820FDF7E2FA00210920FDF7FD
S32D0000F6B0DEFA00210A20FDF7DAFA04210B20FDF7D6FA7B684FF0FF32DA637B684FF0FF321A6400BF0837BD46CB
S32D0000F6D880BD80B584B000AF786039600023FB60786800F032FA11E07B6859697B689869FB683A6813441B785B
S32D0000F7000246786800F0D1FA786800F036FAFB680133FB60FB683A6813441B78002BE7D100BF00BF1037BD466C
S32D0000F72880BD80B582B000AF78603960786800F00CFA39687868FFF7CCFF786800F0F0F900BF0837BD4680BDE0
S32D0000F75080B483B000AF78600B46FB704D4B1B684C4A23F0080313604B4B1B684A4A23F480231360484B1B68AF
S32D0000F778474A43F480331360454B1B68444A23F440731360414B1B68404A23F4435323F0300313603E4B1A688D
S32D0000F7A0FB785B0203F400733B4913430B603A4B1A68FB785B101B0203F48073364913430B60344B1A68FB781C
S32D0000F7C89B101B0103F01003304913430B602F4B1A68FB78DB105B0103F020032B4913430B602A4B1A68FB78A1
S32D0000F7F01B119B0103F04003264913430B60254B1A68FB785B11DB01DBB2224913430B60204B1A68FB789B114B
S32D0000F8181B0303F480531D4913430B601B4B1A6897F90330DB115BB25B0303F40053174913430B60164B1B6862
S32D0000F840154A23F400331360134B1B68124A43F4003313600F4B1B680E4A43F0080313600D4B1B680C4A43F416
S32D0000F86840731360094B1B68084A43F4435343F030031360064B1B68054A43F48023136000BF0C37BD4680BCCC
S32D0000F890704700BF80F00F4040F00F4080B483B000AF78600B46FB70464B1B68454A23F008031360444B1B68A6
S32D0000F8B8434A43F480331360414B1B68404A43F4802313603E4B1B683D4A23F4407313603A4B1B68394A23F4E0
S32D0000F8E0435323F030031360374B1A68FB785B0203F40073344913430B60334B1A68FB785B101B0203F480734A
S32D0000F9082F4913430B602D4B1A68FB789B101B0103F01003294913430B60284B1A68FB78DB105B0103F0200366
S32D0000F930244913430B60234B1A68FB781B119B0103F040031F4913430B601E4B1A68FB785B11DB01DBB21B495A
S32D0000F95813430B60194B1A68FB789B111B0303F48053164913430B60144B1A6897F90330DB115BB25B0303F4C1
S32D0000F9800053104913430B600F4B1B680E4A23F4003313600C4B1B680B4A43F400331360084B1B68074A43F094
S32D0000F9A808031360064B1B68054A23F48023136000BF0C37BD4680BC704700BF80F00F4040F00F4080B586B003
S32D0000F9D000AF78607B6800225A617B6800229A617B681B6AFB60FB68FB72FB681B0ABB72FB681B0CDBB203F070
S32D0000F9F803037B722A217868FFF7A6FE00217868FFF748FF00217868FFF744FF01217868FFF740FF3F2178683A
S32D0000FA20FFF73CFF2B217868FFF792FE00217868FFF734FF00217868FFF730FF00217868FFF72CFFEF21786873
S32D0000FA48FFF728FF2C217868FFF77EFE314B1B68304A23F4407313602F4B1B682E4A23F47F2323F0F003136077
S32D0000FA702C4B1B682B4A23F01D031360274B1A687B681B6B254913430B60254B1A687B685B6B234913430B60FF
S32D0000FA98224B1A687B689B6B204913430B601E4B1B681D4A23F0080313601A4B1B68194A43F48023136000239F
S32D0000FAC07B6118E000233B610EE0144B1B68134A23F400331360114B1B68104A43F4003313603B6901333B6111
S32D0000FAE83B69B3F5A07FECD37B6901337B617B69EF2BE3D9084B1B68074A43F008031360044B1B68034A23F40A
S32D0000FB108023136000BF1837BD4680BD40F00F4080F00F40C0F00F4080B483B000AF78607B689B69002B07DD42
S32D0000FB387B685B695A1C7B685A617B6800229A6100BF0C37BD4680BC704780B582B000AF78607B685A697B6875
S32D0000FB605B689A4205DB7B6800225A617868FFF72DFF00BF0837BD4680BD80B582B000AF78607B689B695A1CAD
S32D0000FB887B689A617B689A697B689B689A4205D17868FFF7C5FF7868FFF7D7FF00BF0837BD4680BD80B588B002
S32D0000FBB000AFF860B9607A603B60FB681B78022B03D0FB681B78032B11D17B68FB61BA6AFB691344013BBB6120
S32D0000FBD8FB68DA68BB68D31A3B613B683A69D31A01337B610DE0BB68FB613A68FB691344013BBB617B687B618B
S32D0000FC00BA6A7B691344013B3B612A21F868FFF79FFDFB691B0ADBB203F00F03DBB21946F868FFF73BFEFB6968
S32D0000FC28DBB21946F868FFF735FEBB691B0ADBB203F00F03DBB21946F868FFF72BFEBB69DBB21946F868FFF78D
S32D0000FC5025FE2B21F868FFF77BFD7B691B0ADBB203F00F03DBB21946F868FFF717FE7B69DBB21946F868FFF731
S32D0000FC7811FE3B691B0ADBB203F00F03DBB21946F868FFF707FE3B69DBB21946F868FFF701FE2C21F868FFF725
S32D0000FCA057FD00BF2037BD4680BD80B584B000AFF860B9607A60FB707A6813465B0013449B00991CBA68134606
S32D0000FCC81B011344DA1CFB78F86800F005F800BF1037BD4680BD000080B58EB002AFF860B9607A60FB70FB7852
S32D0000FCF00A2B06D1F868FFF72CFFF868FFF714FFF2E0FB787D2B02D8FB781F2B01D82023FB70FB78203BFB70AC
S32D0000FD18112300930C237A68B968F868FFF742FFFA7813469B0013446F4AD35C3B75FA7813469B0013440133E7
S32D0000FD406B4AD35C7B75FA7813469B0013440233674AD35CBB75FA7813469B0013440333634AD35CFB75FA780E
S32D0000FD6813469B00134404335F4AD35C3B760023BB629FE0F86800F053F9F86800F0B6F8002387F82F300023E5
S32D0000FD907B6234E007F114027B6A13441B7803F00103002B14BF01230023BB76BB7E002B11D097F82F3083F064
S32D0000FDB80103DBB2002B03D0F86800F0CFF802E0F86800F093F8F86800F090F80DE097F82F30002B03D0F868A9
S32D0000FDE000F022F902E0F86800F084F8F86800F081F8BB7E87F82F307B6A01337B627B6A042BC7DD97F82F30C0
S32D0000FE08002B03D0F86800F00BF902E0F86800F06DF8F86800F06AF8002387F82F3000233B6241E007F1140241
S32D0000FE303B6A13441B7803F00103002B14BF01230023FB76FB7E002B11D097F82F3083F00103DBB2002B03D0F3
S32D0000FE58F86800F083F802E0F86800F047F8F86800F044F80DE097F82F30002B03D0F86800F0D6F802E0F8687B
S32D0000FE8000F038F8F86800F035F8FB7E87F82F3007F114023B6A13441B785B08D9B207F114023B6A13440A467B
S32D0000FEA81A703B6A01333B623B6A042BBADDBB6A0133BB62BB6A062B7FF75CAFF86800F0AFF8002387F82F307C
S32D0000FED00123FB6105E0F86800F00CF8FB690133FB61FB69232BF6DD3037BD4680BD00BF400B002080B483B09A
S32D0000FEF800AF7860174B1B68164A43F480331360154B1B68144A23F008031360114B1B68104A43F4802313605B
S32D0000FF200E4B1B680D4A23F4003313600B4B1B680A4A43F400331360094B1B68084A43F008031360054B1B680C
S32D0000FF48044A23F48023136000BF0C37BD4680BC704700BF40F00F4080F00F4080B483B000AF78602B4B1B6834
S32D0000FF702A4A43F480331360294B1B68284A23F008031360254B1B68244A43F480231360224B1B68214A23F478
S32D0000FF9840731360204B1B681F4A23F47F2323F0F00313601D4B1B681C4A23F01D031360184B1A687B685B6A08
S32D0000FFC0164913430B60164B1A687B689B6A144913430B60134B1A687B68DB6A114913430B600E4B1B680D4AB4
S32D0000FFE823F4003313600B4B1B680A4A43F400331360094B1B68084A43F008031360054B1B68044A23F480236F
S32D00010010136000BF0C37BD4680BC704740F00F4080F00F40C0F00F4080B483B000AF78602B4B1B682A4A43F487
S32D0001003880331360294B1B68284A23F008031360254B1B68244A43F480231360224B1B68214A23F44073136033
S32D00010060204B1B681F4A23F47F2323F0F00313601D4B1B681C4A23F01D031360184B1A687B681B6B16491343EE
S32D000100880B60164B1A687B685B6B144913430B60134B1A687B689B6B114913430B600E4B1B680D4A23F40033D3
S32D000100B013600B4B1B680A4A43F400331360094B1B68084A43F008031360054B1B68044A23F48023136000BFBD
S32D000100D80C37BD4680BC704740F00F4080F00F40C0F00F4080B485B000AF78607B681B6AFB60FB68FB72FB689D
S32D000101001B0ABB72FB681B0CDBB203F003037B727B6800225A627B6800229A627B680022DA627B6800221A63FC
S32D000101287B6800225A637B6800229A637B681A6BFB7A5B0203F400731A437B681A637B681A6BFB7A5B101B021E
S32D0001015003F480731A437B681A637B685A6BFB7A9B101B0103F010031A437B685A637B685A6BFB7ADB105B018E
S32D0001017803F020031A437B685A637B685A6BFB7A1B119B0103F040031A437B685A637B685A6BFB7A5B11DB01C8
S32D000101A0DBB21A437B685A637B685A6BFB7A9B111B0303F480531A437B685A637B685A6B97F90B30DB115BB28C
S32D000101C85B0303F400531A437B685A637B685A6BBB7A9B0303F480431A437B685A637B685A6BBB7A5B10DB030B
S32D000101F09BB21A437B685A637B685A6BBB7A9B101B0403F480331A437B685A637B685A6BBB7ADB105B0403F42A
S32D0001021800331A437B685A637B685A6BBB7A1B119B0403F480231A437B685A637B685A6BBB7A5B11DB0403F429
S32D0001024000231A437B685A637B689A6BBB7A9B1103F001031A437B689A637B689A6B97F90A30DB115BB29B002C
S32D0001026803F004031A437B689A637B689A6B7B7ADB0003F008031A437B689A637B689A6B7B7A5B101B0103F0E6
S32D0001029010031A437B689A637B68DB69FB60FB68FB72FB681B0ABB72FB681B0CDBB203F003037B727B685A6A44
S32D000102B8FB7A5B0203F400731A437B685A627B685A6AFB7A5B101B0203F480731A437B685A627B689A6AFB7AF9
S32D000102E09B101B0103F010031A437B689A627B689A6AFB7ADB105B0103F020031A437B689A627B689A6AFB7A95
S32D000103081B119B0103F040031A437B689A627B689A6AFB7A5B11DB01DBB21A437B689A627B689A6AFB7A9B1117
S32D000103301B0303F480531A437B689A627B689A6A97F90B30DB115BB25B0303F400531A437B689A627B689A6A04
S32D00010358BB7A9B0303F480431A437B689A627B689A6ABB7A5B10DB039BB21A437B689A627B689A6ABB7A9B10F8
S32D000103801B0403F480331A437B689A627B689A6ABB7ADB105B0403F400331A437B689A627B689A6ABB7A1B1135
S32D000103A89B0403F480231A437B689A627B689A6ABB7A5B11DB0403F400231A437B689A627B68DA6ABB7A9B11EC
S32D000103D003F001031A437B68DA627B68DA6A97F90A30DB115BB29B0003F004031A437B68DA627B68DA6A7B7A74
S32D000103F8DB0003F008031A437B68DA627B68DA6A7B7A5B101B0103F010031A437B68DA6200BF1437BD4680BC13
S32D000104207047000080B582B000AF786039607B68012B07D13B684FF6FF72934202D10348FEF7FCFE00BF08374F
S32D00010448BD4680BD5C18002080B500AF4FF6FF710120FFF7E3FF80BD80B582B000AF7860164B03F580535B6B02
S32D00010470144A43F0400302F580525363124B4FF400725A62104B4FF400721A620F4B14225A700E4B1B7ADBB2DB
S32D000104980C4A43F00103DBB213720A4B80229A7002212B20FCF768FB3D212A20FCF764FB7B6818460837BD4654
S32D000104C080BD00BF0070044000C004400060064080B582B000AF786039607B68012B07D13B684FF6FF72934217
S32D000104E802D10348FFF7B8FF00BF0837BD4680BDA418002080B500AF4FF6FF710120FFF7E3FF80BD80B582B0CA
S32D0001051000AF78600B46FB707B68FA7811461846FEF720FA7B6818460837BD4680BD000080B582B000AF7860B2
S32D0001053839607B68012B08D13B684FF6FF72934203D120210348FFF7DDFF00BF0837BD4680BD00BFA8180020D6
S32D0001056080B500AF4FF6FF710120FFF7E1FF80BD80B483B000AF78607B6800221A707B6818460C37BD4680BC5F
S32D000105887047000080B483B000AF78603960044A3B68136000BF0C37BD4680BC704700BFAC18002080B582B0A0
S32D000105B000AF3248FCF7D2FC0346FB71304AFB791370304B01221A702F4B1B78022B33D0022B4FDC002B02D052
S32D000105D8012B14D04AE0FB79FF2B44D1284B01221A70284B00221A70F979264B1B785A1CD0B2244A10701A460C
S32D00010600234B995433E0F979204B1B785A1CD0B21E4A10701A461E4B99541C4B1B780D2B27D11C4B1B68194AE0
S32D000106281278114618489847154B02221A701CE0FB79FF2B10D1124B01221A70114B00221A70F9790F4B1B7889
S32D000106505A1CD0B20D4A10701A460D4B995409E00A4B00221A70084B00221A7002E000BF00E000BF00BF0837E0
S32D00010678BD4680BD00A00640C3180020C2180020C1180020C0180020B0180020AC18002080B582B000AF78608D
S32D000106A07B681846FFF764FF7B6811491846FFF76DFF7B684FF0FF325A600E4B4FF000021A600D4B4FF00002DA
S32D000106C81A600C4B4FF000021A600B4B00221A600A4B00221A700A4B00221A707B6818460837BD4680BD00BF04
S32D000106F00D070100D0180020D4180020D8180020DC180020E0180020E118002080B582B000AF78600B46FB70B3
S32D00010718424B1B78002B7DD07B6801331B781B027A68023212781344184600F045FC03463B49184600F048FD6D
S32D0001074003463A49184600F085FB03461A46384B1A607B6803331B781B027A68043212781344184600F02CFC12
S32D0001076803462F49184600F02FFD03462D49184600F06CFB03461A462C4B1A607B6805331B781B027A68063234
S32D0001079012781344184600F013FC03462249184600F016FD03462149184600F053FB03461A46214B1A607B6826
S32D000107B807331B781A067B6808331B781B041A437B6809331B781B0213437A680A32127813431A46174B1A6099
S32D000107E07B68DA7A164B1A707B680C331B78AA2B0CBF01230023DAB2124B1A70124B01221A70104B1B78002B96
S32D0001080808D0104800F052F80F4B1B680E4A23F40053136000BF0837BD4680BDCC180020000020410000C84496
S32D00010830D0180020D4180020D8180020DC180020E0180020E1180020E2180020E4180020C0F00F4080B582B094
S32D0001085800AF786039607B68012B07D13B684FF6FF72934202D10348FFF712FF00BF0837BD4680BDC4180020DD
S32D0001088080B500AF4FF6FF710120FFF7E3FF80BD80B483B000AF7860054B00221A60044B00225A607B68184634
S32D000108A80C37BD4680BC7047E418002080B584B000AF7860154B1B68002B21D00023FB6013E0134AFB6852F862
S32D000108D02330002B0AD0104AFB6852F823301846FCF76CFD03461A460C4B1A70FB680133FB60084B5B68FA6899
S32D000108F89A42E6DB054B00225A60044B00221A60044B1B7818461037BD4680BDE4180020F0180020EC180020EE
S32D0001092080B582B000AF786039607B68012B07D13B684FF6FF72934202D10348FFF7A8FF00BF0837BD4680BD13
S32D00010948E418002080B500AF4FF6FF710120FFF7E3FF80BD80B483B000AF78600A4B03F580531B6B084A43F07C
S32D00010970010302F580521363064B5B68054A43F03203536000BF0C37BD4680BC704700BF0070044000000A40E2
S32D0001099838B5084C4FF41E652846E56000F0FAFCA06010B9E060606038BD0023606005604360F9E75819002076
S32D000109C070470000024A0349034800F007B800BF00000020C1090100681900200B460146184600F097BC00003B
S32D000109E870B54FF0FF0C4CF4E06C1CEA11541DBF1CEA135594EA0C0F95EA0C0F00F0DEF82C4481EA030621EA48
S32D00010A104C5123EA4C5350EA013518BF52EA033541F4801143F4801338D0A0FB02CE4FF00005E1FB02E506F0B3
S32D00010A380042E0FB03E54FF00006E1FB03569CF0000F18BF4EF0010EA4F1FF04B6F5007F64F5407404D25FEA63
S32D00010A604E0E6D4146EB060642EAC62141EA55514FEAC52040EA5E504FEACE2EB4F1FD0C88BFBCF5E06F1ED826
S32D00010A88BEF1004F08BF5FEA500E50F1000041EB045170BD06F0004646EA010140EA020081EA0301B4EB5C04DC
S32D00010AB0C2BFD4EB0C0541EA045170BD41F480114FF0000E013C00F3AB8014F1360FDEBF002001F0004170BD45
S32D00010AD8C4F10004203C35DA0C341BDC04F11404C4F1200500FA05F320FA04F001FA05F240EA020001F000425C
S32D00010B0021F0004110EBD37021FA04F642EB06015EEA430E08BF20EAD37070BDC4F10C04C4F1200500FA04F383
S32D00010B2820FA05F001FA04F240EA020001F0004110EBD37041F100015EEA430E08BF20EAD37070BDC4F120051B
S32D00010B5000FA05F24EEA020E20FA04F301FA05F243EA020321FA04F001F0004121FA04F220EA020000EBD3707C
S32D00010B785EEA430E08BF20EAD37070BD94F0000F0FD101F00046400041EB010111F4801F08BF013CF7D041EAC2
S32D00010BA0060195F0000F18BF704703F00046520043EB030313F4801F08BF013DF7D043EA0603704794EA0C0F46
S32D00010BC80CEA135518BF95EA0C0F0CD050EA410618BF52EA4306D1D181EA030101F000414FF0000070BD50EA8D
S32D00010BF0410606BF1046194652EA430619D094EA0C0F02D150EA013613D195EA0C0F05D152EA03361CBF1046D0
S32D00010C1819460AD181EA030101F0004141F0FE4141F470014FF0000070BD41F0FE4141F4780170BD70B54FF0A1
S32D00010C40FF0C4CF4E06C1CEA11541DBF1CEA135594EA0C0F95EA0C0F00F0A7F8A4EB050481EA030E52EA0335EF
S32D00010C684FEA013100F088804FEA03334FF0805545EA131343EA12634FEA022245EA111545EA10654FEA0026CB
S32D00010C900EF000419D4208BF964244F1FD0404F5407402D25B084FEA3202B61A65EB03055B084FEA32024FF4B6
S32D00010CB880104FF4002CB6EB020E75EB030E22BFB61A754640EA0C005B084FEA3202B6EB020E75EB030E22BF77
S32D00010CE0B61A754640EA5C005B084FEA3202B6EB020E75EB030E22BFB61A754640EA9C005B084FEA3202B6EB3F
S32D00010D08020E75EB030E22BFB61A754640EADC0055EA060E18D04FEA051545EA16754FEA06164FEAC30343EA00
S32D00010D3052734FEAC2025FEA1C1CC0D111F4801F0BD141EA00014FF000004FF0004CB6E711F4801F04BF014302
S32D00010D580020B4F1FD0C88BFBCF5E06F3FF6AFAEB5EB030C04BFB6EB020C5FEA500C50F1000041EB045170BD10
S32D00010D800EF0004E4EEA113114EB5C04C2BFD4EB0C0541EA045170BD41F480114FF0000E013C90E645EA060E18
S32D00010DA88DE60CEA135594EA0C0F08BF95EA0C0F3FF43BAF94EA0C0F0AD150EA01347FF434AF95EA0C0F7FF4EE
S32D00010DD025AF104619462CE795EA0C0F06D152EA03353FF4FDAE1046194622E750EA410618BF52EA43067FF487
S32D00010DF8C5AE50EA41047FF40DAF52EA43057FF4EBAE12E74A0011D212F5001211D20DD56FF47873B3EB625277
S32D00010E200ED44FEAC12343F0004343EA505323FA02F070474FF00000704750EA013002D14FF0FF3070474FF000
S32D00010E480000704780F0004002E000BF81F0004142001FBF5FEA410392EA030F7FEA226C7FEA236C6AD04FEA24
S32D00010E701262D2EB1363C1BFD218414048404140B8BF5B42192B88BF704710F0004F40F4000020F07F4018BF39
S32D00010E98404211F0004F41F4000121F07F4118BF494292EA030F3FD0A2F1010241FA03FC10EB0C00C3F12003A5
S32D00010EC001FA03F100F0004302D5494260EB4000B0F5000F13D3B0F1807F06D340084FEA310102F10102FE2A10
S32D00010EE851D2B1F1004F40EBC25008BF20F0010040EA03007047490040EB0000013A28BFB0F5000FEDD2B0FA1B
S32D00010F1080FCACF1080CB2EB0C0200FA0CF0AABF00EBC25052421843BCBFD0401843704792F0000F81F40001EB
S32D00010F3806BF80F400000132013BB5E74FEA41037FEA226C18BF7FEA236C21D092EA030F04D092F0000F08BF58
S32D00010F600846704790EA010F1CBF0020704712F07F4F04D1400028BF40F00040704712F100723CBF00F50000C9
S32D00010F88704700F0004343F0FE4040F4000070477FEA226216BF08467FEA23630146420206BF5FEA412390EA7E
S32D00010FB0010F40F4800070474FF0000304E000BF10F0004348BF40425FEA000C08BF704743F0964301464FF081
S32D00010FD800001CE050EA010208BF70474FF000030AE000BF50EA010208BF704711F0004302D5404261EB410162
S32D000110005FEA010C02BF84460146002043F0B64308BFA3F18053A3F50003BCFA8CF2083AA3EBC25310DB01FA85
S32D0001102802FC634400FA02FCC2F12002BCF1004F20FA02F243EB020008BF20F00100704702F1200201FA02FC50
S32D00011050C2F1200250EA4C0021FA02F243EB020008BF20EADC7070474FF0FF0C1CEAD0521EBF1CEAD15392EA0E
S32D000110780C0F93EA0C0F6FD01A4480EA010C400218BF5FEA41211ED04FF0006343EA501043EA5111A0FB013145
S32D000110A00CF00040B1F5000F3EBF490041EAD3715B0040EA010062F17F02FD2A1DD8B3F1004F40EBC25008BF0E
S32D000110C820F00100704790F0000F0CF0004C08BF49024CEA502040EA51207F3AC2BFD2F1FF0340EAC250704715
S32D000110F040F400004FF00003013A5DDC12F1190FDCBF00F000407047C2F10002410021FA02F1C2F1200200FA67
S32D0001111802FC5FEA310040F1000053EA4C0308BF20EADC70704792F0000F00F0004C02BF400010F4000F013A83
S32D00011140F9D040EA0C0093F0000F01F0004C02BF490011F4000F013BF9D041EA0C018FE70CEAD15392EA0C0F30
S32D0001116818BF93EA0C0F0AD030F0004C18BF31F0004CD8D180EA010000F00040704790F0000F17BF90F0004F30
S32D00011190084691F0000F91F0004F14D092EA0C0F01D142020FD193EA0C0F03D14B0218BF084608D180EA0100EF
S32D000111B800F0004040F0FE4040F40000704740F0FE4040F4400070474FF0FF0C1CEAD0521EBF1CEAD15392EAF1
S32D000111E00C0F93EA0C0F69D0A2EB030280EA010C49024FEA402037D04FF0805343EA111143EA10130CF0004013
S32D000112088B4238BF5B0042F17D024FF4000C8B4224BF5B1A40EA0C00B3EB510F24BFA3EB510340EA5C00B3EB55
S32D00011230910F24BFA3EB910340EA9C00B3EBD10F24BFA3EBD10340EADC001B0118BF5FEA1C1CE0D1FD2A3FF6DA
S32D0001125850AF8B4240EBC25008BF20F0010070470CF0004C4CEA50207F32C2BFD2F1FF0340EAC250704740F4C3
S32D0001128000004FF00003013A37E792F0000F00F0004C02BF400010F4000F013AF9D040EA0C0093F0000F01F006
S32D000112A8004C02BF490011F4000F013BF9D041EA0C0195E70CEAD15392EA0C0F08D142027FF47DAF93EA0C0FEF
S32D000112D07FF470AF084676E793EA0C0F04D14B023FF44CAF08466EE730F0004C18BF31F0004CCAD130F000427A
S32D000112F87FF45CAF31F000437FF43CAF5FE700BF002301461A46184600F01ABB13460A460146022000F014BBC4
S32D0001132038B5084D084BED1AAC1007D0043D1D44013C55F804399847002CF9D1BDE8384000F0FEBD0000000069
S32D000113480000000070B50D4E0D4D761BB61006D0002455F8043B01349847A642F9D1094E094D761B00F0CCFD02
S32D00011370B61006D0002455F8043B01349847A642F9D170BD141F0100141F0100401F0100141F0100704700BF9D
S32D00011398704700BF024B0146186800F003B800BF200D00202DE9F04F01F10B06162E83B0054624D8102900F2A4
S32D000113C0A38000F0A3FA102618224FF0020CB04F3A44A2F1080354689C4200F0A2806368E268A16823F0030393
S32D000113E82344CA6091605A6842F0010228465A60083400F08DFA204603B0BDE8F08F36F007067DD4B1427BD87B
S32D0001141000F07CFAB6F5FC7FC0F09881730A7AD0042B00F26481B30903F1390C03F138044FEACC03964F3B44FA
S32D00011438A3F108005B68984206D10CE0002980F21481DB68984206D05A6822F00302911B0F29F3DDA4463C694A
S32D00011460DFF83082444568D0616821F003018B1B0F2B00F37A81002BC7E9048880F26B81B1F5007F80F012817A
S32D00011488CB0878680133490901228A40024307EBC30157F83300A0600839E1607A6047F83340C4604FEAAC0378
S32D000114B001209840904247D8104206D12CF0030C400010420CF1040CFAD007EBCC0A5346E146D9680EE04A68FD
S32D000114D822F00302A2EB060EBEF10F0F0C46C96800F30E81BEF1000F80F21F818B42EED109F1010919F0030FE0
S32D0001150003F10803E5D165E100240C2320462B6003B0BDE8F08F4FF400734FF0400C3F2488E7D468A24208BFAC
S32D000115280CF1020C7FF457AF3C69DFF86081444596D17A684FEAAC03012098409042B7D9BC68636823F0030990
S32D000115504E4503D8A9EB06030F2B7ADCDFF838B14E4BDBF800201B680132334404EB090A00F0468103F58053D4
S32D000115780F3323F47F6828F00F084146284600F0CDF9411C024600F00581824500F20081414B196841441960CA
S32D000115A0084600F06281DBF80010019301311BBFA2EB0A010918CBF80020196012F0070B00F02A81CBF10801EF
S32D000115C80A44CBF5805190440831A1EB0801C1F30B0A51462846009200F0A0F9421CDDE9002300F06481801AD4
S32D000115F000EB0A081968BA6048F001005144BC425060196000F03D81B9F10F0F40F23B816068A9F10C0C2CF045
S32D00011618070C00F0010040EA0C0060604FF0050E04EB0C00BCF10F0FC0E901EE00F2478150681446194B1A6847
S32D000116408A4238BF1960184B1A688A4238BF1960A6E0A21943F0010346F0010666602846BA60536000F058F927
S32D000116680834204603B0BDE8F08FD3E902411A44E1608C60516841F001012846516003F1080400F045F9B6E67B
S32D00011690501100205811002058150020AC1900207C190020A4190020A8190020B1F5206F4FEA51226AD3142AE0
S32D000116B800F2BF8002F15C03DB005B32F818FB580838984200F09B805A6822F003028A4202D99B689842F7D16B
S32D000116E0D8687A68C4E902308460DC60DEE6142B64D9542B00F2A980330B03F16F0C03F16E044FEACC0395E64A
S32D000117082846A568A31946F001066660E9608D604EF00101C7E90433C3E90288596044F802E000F0F5F80834F5
S32D0001173065E622442846536843F00103536054F8083FD9608B6000F0E7F858E64FEAD60C06F108023BE6214460
S32D0001175828464B6843F001034B60083400F0D8F849E6A219284646F0010643F001056660C7E90422C2E90288C4
S32D000117805560635000F0C8F8083438E68A0902F13903DB00383295E7BC4261D0BC68606820F003084645A8EBF1
S32D000117A8060302D80F2B3FF750AF284600F0B0F8002420E603F15C0C03F15B044FEACC0334E65AF80839534594
S32D000117D040F098801CF0030F0CF1FF3CF5D17B6823EA00037B60400098423FF6ADAE18B9AAE6400009F1040966
S32D000117F81842FAD0CC4664E603F11008BDE6796892104FF0010E0EFA02F20A437A6065E702EB08014942C1F31E
S32D000118200B0A51462846009200F07CF8431CDDE900237FF4DCAEDA46DCE6542A26D80A0B02F16F03DB006E32F1
S32D000118483CE7B3F5AA7F26D8F30B03F1780C03F177044FEACC03E9E5294B1868404418609DE6CAF30B0CBCF1D0
S32D00011870000F7FF498AEBC68C84448F001006060DCE61446DAE60123536092E7B2F5AA7F24D8CA0B02F178031D
S32D00011898DB00773212E740F25452934224D8B30C03F17D0C03F17C044FEACC03BEE5ABF1080BD844A8EB020838
S32D000118C04FF0000A96E604F108012846009300F0D7F8BC68009B60681968AFE640F254539A420BD88A0C02F1B8
S32D000118E87D03DB007C32E9E64FF47E734FF07F0C7E249BE54FF47E737E22DFE67B686EE77C1900200148FFF714
S32D0001191041BD00BF781900200148FFF73DBD00BF7819002038B5074D0022044608462A6000F0A2F9431C00D052
S32D0001193838BD2B68002BFBD0236038BDB01900202DE9F8431D4D0646286898460F469146FFF71CFD1A4B1B6809
S32D00011960D3F848411CB3286865681F2D24DC4EB96B1C0235636044F82570FFF70DFD0020BDE8F88304EB85017E
S32D000119880123C1F88890D4F88821AB401A43022EC4F88821C1F80881E6D1D4F88C211A43C4F88C21E0E703F5F2
S32D000119B0A674C3F84841D6E7FFF7EEFC4FF0FF30DEE700BF60150020041F0100024B13B10248FFF799BC704705
S32D000119D80000000021130100F8B5244F0C460646FFF790FFBB685D68C4F57E610F3125F003054B1923F47F632E
S32D00011A0023F00F03A3F58054B4F5805F07DB00213046FFF787FFBB682B44984204D03046FFF77AFF0020F8BDAF
S32D00011A2861423046FFF77AFF01300DD0104ABB682D1B45F001055D60136830461B1B1360FFF766FF0120F8BD71
S32D00011A5000213046FFF766FFBA68831A0F2BDEDD43F001035360054B03491B68C01A0860D5E700BF501100207A
S32D00011A787C1900205815002000295FD0F8B50C460646FFF73FFF54F8043C764FA4F1080523F001016A18D7F8CD
S32D00011AA008C05068944520F0030000F08680DB07506002EB000C33D454F8084CDCF804302D1B2144AC6807F1C2
S32D00011AC8080C644503F0010363D0D5F80CE0C4F80CE0CEF80840002B00F08F8041F001036B601160B1F5007FD9
S32D00011AF031D27868CB080122490901338A40024357F833107A6007EBC302083AC5E9021247F83350CD603046CD
S32D00011B18BDE8F840FFF7FCBEDCF80430DB070ED4014407F1080C9368634541F001006CD0D268DA6093606860B4
S32D00011B406950D3E7704741F00103B1F5007F44F8043C1160CDD3B1F5206F4FEA512345D28B0903F1390003F1B7
S32D00011B683802C300F818FB580838984254D05A6822F003028A4202D99B689842F7D1D868C5E902308560DD6049
S32D00011B903046BDE8F840FFF7BFBE002B61D1D2E902230844D3609A6040F001036B6028503046BDE8F840FFF7EA
S32D00011BB8AFBEDA07084407D454F8083CED1A1844D5E90223D3609A6040F001036B60264BBD601B6883429AD83F
S32D00011BE0244B30461968FFF7FBFE94E7142B0AD9542B1DD80B0B03F16F0003F16E02C300B4E7014493E703F182
S32D00011C085C0003F15B02C300ACE7C7E90455C5E902CC686069507AE779689210012404FA02F20A437A60ABE7F0
S32D00011C30B3F5AA7F06D8CB0B03F1780003F17702C30093E740F25452934206D88B0C03F17D0003F17C02C30022
S32D00011C5888E74FF47E737E2284E741F001036B60116054E7501100205C150020AC190020044A05491368002BCA
S32D00011C8008BF0B461844106018467047B4190020B819002048656C6C6F2C20576F726C642100000000000000F5
S32D00011CA840787D0100D8B80500000000000000010000090200001A03000000040000020500001A0600001B07CC
S32D00011CD000001A08000009090000090A00001A0B0000DB0C00001A0D000000000000000F00001A1000001A1107
S32D00011CF800001A120000000000001A140000000000001A1600001A1700001A1800001A1900001A1A00001A1B34
S32D00011D2000001B1C00001B1D00001A1E0000000000001A2000001A2100001A2200001A2300001A2400001A2582
S32D00011D4800001B260000022700001A280000022900001B2A000000000000000000000000000000000000000050
S32D00011D7000000000000000000000000000001A3300001A3400001A350000000000001A3700001B3800000000B6
S32D00011D98000000000000000000001B3C00001B3D00000000000000000101010101010101000001010101010060
S32D00011DC000010100000101000000000001000000000000000F0000000E0000000D0000000C0000000B000000AE
S32D00011DE80A00000009000000080000000E0000000F00000004000000050000000600000007000000110000006D
S32D00011E1001000000140000000100000014000000000000001300000000000000130000000B0000000A0000003E
S32D00011E3812000000110000001000000010000000040000000500000007000000060000000B0000000A0000000D
S32D00011E60070000000600000005000000040000000100000000000000000000000100000008000000090000002A
S32D00011E880A0000000B00000011000000100000000F0000000E0000000D0000000C0000000B0000000A000000AA
S32D00011EB009000000080000000700000019000000180000001A0000001B0000001C0000007630322E30392E309C
S32D00011ED830000000256400002D25642E253033640000000025642E2530336400747275650000000066616C7349
S32D00011F0065000000280D0020F8B500BFF8BC08BC9E467047CD19010011C4000049E500001DEE0000510401002E
S32900011F28FD04010061050100810801004D09010099090100C5090100F8B500BFF8BC08BC9E46704753
S30D00011F4C4CEAFF7F01000000D1
S32D00011F540000000001FFFFFF170034022D0036022B00380229003A022700060230000602250006023200060216
S32D00011F7C23000602340006022100060204002E01040006021F00060204003001040006021D00060204003201A3
S32D00011FA4040006021B0006020400340104000602190006020400360104000602170006020400380104000602CA
S32D00011FCC1500060204003A01040006021300060204003C01040006021100060204003E01040006020F00060297
S32D00011FF404004001040006020D00060204004201040006020B0006020400440104000602090006020400460141
S32D0001201C040006020700060204004801040006020500060204004A01040006020300060204004C010400060251
S32D000120440100060204004E0104000B02040050010400090204005201040008020300540103000802030054017A
S32D0001206C0300080203001D011A001D010300080203001C011C001C010300080203001B011E001B010300080206
S32D0001209403001A010400180204001A01030008020300190104001A0204001901030008020300180104001C020F
S32D000120BC04001801030008020300170104001E0204001701030008020300160104000602150005020400160106
S32D000120E403000802030015010400060217000502040015010300080203001501030006021900050203001501F9
S32D0001210C0300080203001501030005021B000402030015010300080203001501030004021C00040203001501D0
S32D000121340300080203001501030004021C000402030015010300080203001501030004021C00040203001501A8
S32D0001215C0300080203001501030004021C000402030015010300080203001501030004021C0004020300150180
S32D000121840300080203001501030004021C000402030015010300080203001501030004021C0004020300150158
S32D000121AC0300080203001501030004021C000402030015010300080203001501030004021C0004020300150130
S32D000121D40300080203001501030004021C000402030015010300080203001501030004021C0004020300150108
S32D000121FC0300080203001501030004021C000402030015010300080203001501030004021C00040203001501E0
S32D000122240300080203001501030004021C000402030015010300080203001501030004021C00040203001501B7
S32D0001224C0300080203001501030004021C000402030015010300080203001501030004021C000402030015018F
S32D000122740300080203001501030004021C000402030015010300080203001501030004021C0004020300150167
S32D0001229C0300080203001501030004021C000402030015010300080203001501030004021C000402030015013F
S32D000122C40300080203001501030004021C000402030015010300080203001501030004021C0004020300150117
S32D000122EC0300080203001501030004021C000402030015010300080203001501030004021C00040203001501EF
S32D000123140300080203001501030004021C000402030015010300080203001501030004021C00040203001501C6
S32D0001233C0300080203001501030004021C000402030015010300080203001501030004021C000402030015019E
S32D000123640300080203001501030004021C000402030015010300080203001501030004021C0004020300150176
S32D0001238C0300080203001501030004021C000402030015010300080203001501030004021C000402030015014E
S32D000123B40300080203001501030004021C000402030015010300080203001501030004021C0004020300150126
S32D000123DC0300080203001501030004021C000402030015010300080203001501030004021C00040203001501FE
S32D000124040300080203001501030004021C000402030015010300080203001501030004021C00040203001501D5
S32D0001242C0300080203001501030004021C000402030015010300080203001501030004021C00040203001501AD
S32D000124540300080203001501030004021C000402030015010300080203001501030004021C0004020300150185
S32D0001247C0300080203001501030004021C000402030015010300080203001501030004021C000402030015015D
S32D000124A40300080203001501030004021C000402030015010300080203001501030004021C0004020300150135
S32D000124CC0300080203001501030004021C000402030015010300080203001501030005021B000402030015010D
S32D000124F403000802030015010300060219000502030015010300080203001501040006021700050204001501E5
S32D0001251C0300080203001601040006021500050204001601030008020300170104001E020400170103000802B1
S32D000125440300180104001C0204001801030008020300190104001A02040019010300080203001A01040018025C
S32D0001256C04001A010300080203001B011E001B010300080203001C011C001C010300080203001D011A001D01EF
S32D00012594030008020300540103000802030054010300080204005201040009020400500104000B0204004E0122
S32D000125BC040006020100060204004C01040006020300060204004A0104000602050006020400480104000602B2
S32D000125E40700060204004601040006020900060204004401040006020B00060204004201040006020D00060281
S32D0001260C04004001040006020F00060204003E01040006021100060204003C01040006021300060204003A0128
S32D000126340400060215000602040038010400060217000602040036010400060219000602040034010400060239
S32D0001265C1B00060204003201040006021D00060204003001040006021F00060204002E010400060221000602F4
S32D00012684340006022300060232000602250006023000060227003A02290038022B0036022D0034021700FFFF80
S32D000126AC43000201930003019200040191000501900006012B000102630006012A0003026200060129000502FD
S32D000126D4610006012800070226000501230006010C00060113000601080001020500090205000102160002017F
S32D000126FC05000A01090002010500080106000B010700100109000A0106000202050007020500020207000B0113
S32D000127240400030102000D010800030102000A0104000E010600100107000E01040003020500050205000302F6
S32D0001274C05000E010300130107000F0103001001050010010600100103000402040005020400040204001001A8
S32D000127740200140106000F0102001201040010010500120102000502030005020300050203001201010015017D
S32D0001279C05000F010200130103001001050012010200060202000502020006020300120101000901050007016C
S32D000127C405000F010100080105000701030010010400080103000701030006020200050202000602020013015A
S32D000127EC0100070108000701040007010900060108000701040006010C0006010500060104000502030005023A
S32D0001281403000502020006010E0007010900060104000601090006010A000601040006010B0006010500060107
S32D0001283C050005020300050203000502020006010E0006010B00050104000601090006010A00060104000601E7
S32D000128640B0006010400070105000502030005020300050202000E01060006010B0006010300060109000601BD
S32D0001288C0B000501040006010B0006010300070106000502030005020300050203001001030006010B00060193
S32D000128B403000601090006010B000501040006010B00060103000601070005020300050203000502030011016C
S32D000128DC020006010B00060103000601090006010B000501040006010B00060102000601080005020300050248
S32D000129040300050204001101010006010B00060103000601090006010B000501040006010B000601010006011A
