S01100002E2E2F50726F746575732E73313966
S32D0000C0000000002061C2000015C300001BC3000021C3000027C300002DC300000000000000000000000000005B
S32D0000C0280000000033C3000039C30000000000003FC3000045C30000DDE10000E9E10000F5E1000001E20000AD
S32D0000C0500DE2000019E2000025E2000031E200003DE2000049E2000055E2000061E200006DE2000079E2000050
S32D0000C07885E2000091E200009DE20000A9E20000B5E20000C1E20000CDE20000D9E20000E5E20000F1E2000078
S32D0000C0A0FDE2000009E3000015E3000021E300002DE3000039E3000045E3000051E300005DE3000069E3000097
S32D0000C0C875E3000081E300008DE3000099E30000A5E30000B1E30000BDE30000C9E30000D5E30000E1E30000BE
S32D0000C0F0EDE3000009360100F9E3000005E4000011E400001DE4000029E4000035E4000041E400004DE40000DB
S32D0000C11859E4000065E4000071E400007DE4000089E4000095E40000A1E40000ADE40000B9E40000C5E400007B
S32D0000C140D1E40000DDE40000E9E40000F5E40000810D010001E500000DE5000019E5000025E5000031E5000030
S32D0000C1683DE5000049E5000055E5000061E500006DE5000079E5000085E5000091E500009DE50000A9E5000039
S32D0000C190B5E50000C1E50000CDE50000750901003D080100D908010061DF0000150A0100D9E50000E5E5000000
S32D0000C1B8F1E5000088C2010000000020D013000088C201000000FF1F00000000D0130020280700000000FF1F7C
S32D0000C1E00000000080B489B000AFF860B9607A60BB68FB61FB68BB6100237B610AE0BB691A1DBA611A68FB6987
S32D0000C208191DF9611A607B6904337B617A697B689A42F0D300BF00BF2437BD4680BC704780B485B000AF7860E3
S32D0000C23039607B68FB600023BB6007E0FB681A1DFA6000221A60BB680433BB60BA683B689A42F3D300BF00BFFA
S32D0000C2581437BD4680BC704780B586B000AF72B6234B4CF220521A80214B4DF628121A80204B4FF4E9721A8057
S32D0000C2801F4B7B6113E07B691A1D7A611B687B607B691A1D7A611B68FB607B691A1D7A611B68BB60BA68F96818
S32D0000C2A87868FFF79BFF7B69144A9342E7D30DE07B691A1D7A611B68FB607B691A1D7A611B68BB60B968F86851
S32D0000C2D0FFF7AAFF7B690C4A9342EDD30B4B3B610B4A3B691A600AF039FB62B601F000FF01F020FEFEE700BF84
S32D0000C2F80E20054000200540BCC10000D4C10000E4C1000008ED00E000C0000080B400AFFEE780B400AFFEE764
S32D0000C32080B400AFFEE780B400AFFEE780B400AFFEE780B400AFFEE780B400AFFEE780B400AFFEE780B400AF5C
S32D0000C348FEE780B400AFFEE7FFFFFFFFFFFFFFFFFFFFFFFFFFFFFFFFFFFFFFFFFFFFFFFFFFFFFFFFFFFFFFFF3A
S32D0000C370FFFFFFFFFFFFFFFFFFFFFFFFFFFFFFFFFFFFFFFFFFFFFFFFFFFFFFFFFFFFFFFFFFFFFFFFFFFFFFFFC7
S32D0000C398FFFFFFFFFFFFFFFFFFFFFFFFFFFFFFFFFFFFFFFFFFFFFFFFFFFFFFFFFFFFFFFFFFFFFFFFFFFFFFFF9F
S32D0000C3C0FFFFFFFFFFFFFFFFFFFFFFFFFFFFFFFFFFFFFFFFFFFFFFFFFFFFFFFFFFFFFFFFFFFFFFFFFFFFFFFF77
S32D0000C3E8FFFFFFFFFFFFFFFFFFFFFFFFFFFFFFFFFFFFFFFFFFFFFFFFFFFFFFFFFFFFFFFFFFFFFFFFFEFFFFFF50
S32D0000C44008B5034B1BB103490348AFF3008008BD00000000D013002010C4000080B483B000AFC7E900013A6839
S32D0000C468796821F00043104619460C37BD4680BC7047000080B582B000AF78607B68354A0021184602F0B8F812
S32D0000C4907B680833314A0121184602F0B1F87B6810332E4A0221184602F0AAF87B6818330021184604F064F81A
S32D0000C4B87B6819330121184604F05EF87B681A330221184604F058F87B6844331821184604F00CFB7B68603306
S32D0000C4E00721184604F0FCFD7B684FF00002DA617B684FF000025A627B684FF000021A627B6800229A637B68F7
S32D0000C5080022DA637B6800221A647B684FF000025A637B68104A9A627B68104ADA627B680F4A1A637B680F4A9B
S32D0000C5309A647B680E4ADA647B680D4A1A657B680B4A5A657B680B4A9A657B680A4ADA657B6818460837BD4686
S32D0000C55880BD00BF000010416666E63ECDCC4C3DCDCC4C3E33335340000080BF7B143A4152B8714280B582B0CD
S32D0000C58000AF78607B684FF00001184602F0A0F87B6808334FF00001184602F099F87B6810334FF000011846F8
S32D0000C5A802F092F800BF0837BD4680BD0000000080B582B000AF786003F094FF02460B461046194608F0CEFC27
S32D0000C5D002467B68DA6103F089FF02460B461046194608F0C3FC02467B685A627B684FF000021A627B680022CB
S32D0000C5F89A637B680022DA637B6800221A647B684FF000025A637B681833184604F05CFA7B681933184604F01B
S32D0000C62057FA7B681A33184604F052FA04A1D1E9000103F035FF00BF0837BD4680BD00BF9A9999999999A93FCA
S32D0000C648B0B58CB000AFF860B9607A607B68002B0AD1FB681833184604F024FA0246FB689B6BD31AFB6217E030
S32D0000C6707B68012B0AD1FB681933184604F016FA0246FB68DB6BD31AFB6209E0FB681A33184604F00BFA02462E
S32D0000C698FB681B6CD31AFB6203F024FF04460D46FB68DB69184608F00DF902460B462046294607F0A7FF024637
S32D0000C6C00B461046194608F051FC0346BB62F86A08F056FD0346B96A184608F059FE0346184608F0F3F85CA34C
S32D0000C6E8D3E9002308F046F902460B461046194608F038FC03467B62796AB86808F086FC03463B62FB685B6BE2
S32D0000C710396A184608F080FC03461A46FB685A63FB689B6A1946386A08F07EFD0346FB61FB685A6BFB68DB6A6C
S32D0000C7381946104608F074FD0346BB61FB681B6A1946386A08F062FC03461A46FB681B6B1946104608F064FD71
S32D0000C76003467B61FB683A6A1A6203F0BFFE02460B461046194608F0F9FB0246FB68DA61FB681833184604F033
S32D0000C78891F90246FB689A63FB681933184604F089F90246FB68DA63FB681A33184604F081F90246FB681A6441
S32D0000C7B03C2300222A492B4805F02AF92A4807F089FD01463C23C822264805F061F9502300222649234805F03C
S32D0000C7D81BF9234807F088FD01465023C8221F4805F052F9642300221F491C4805F00CF91B4807F087FD014659
S32D0000C8006423C822174805F043F98C2300221949144805F0FDF88C23C822F969114805F037F9FB68996C142378
S32D0000C828C8220E4805F030F9F969B86808F0F0FB0346B969184608F0EBFB03467969184608F0E6FB034618466F
S32D0000C8503037BD46B0BD00BF90AAB253F65A993F48B80100C8160020301700204CB8010050B8010054B801003C
S32D0000C878F0B58BB000AFF860B9607A603B60F868FFF796FEBE4805F066F87B68002B40F09B806AE00122B968F3
S32D0000C8A0F868FFF7D1FE034683F00044386C08F067FC03461946204608F0B6FC03467B610222B968F868FFF7CE
S32D0000C8C8BFFE0446386C08F057FC03461946204608F0A6FC03463B61FB6803F10804786907F0F0FFA0A3D3E996
S32D0000C8F0002308F06DF902460B46104619464FF00002A24B08F03AF802460B461046194608F02CFB03461946DE
S32D0000C918204601F0D9FEFB6803F11004386907F0D1FF91A3D3E9002308F04EF902460B46104619464FF000020F
S32D0000C940924B08F01BF802460B461046194608F00DFB03461946204601F0BAFE7B6C012B02D1F86800F0C8FCE2
S32D0000C96883A1D1E9000103F097FDFB681933184604F098F80446FB681A33184604F092F803462344DA0F1344E4
S32D0000C9905B10184607F088FF04460D46386807F095FF77A3D3E9002307F0E8FF02460B4601210E4620462946AF
S32D0000C9B808F052FA0346002B01D100231E46F3B2002B7FF467AF7CE17B68012B40F04B819BE00022B968F86861
S32D0000C9E0FFF732FE0446386C08F0CAFB03461946204608F019FC0346FB610222B968F868FFF722FE034683F021
S32D0000CA080044386C08F0B8FB03461946204608F007FC0346BB61FC68F86907F053FF52A3D3E9002308F0D0F85D
S32D0000CA3002460B46104619464FF00002534B07F09DFF02460B461046194608F08FFA03461946204601F03CFE10
S32D0000CA58FB6803F11004B86907F034FF42A3D3E9002308F0B1F802460B46104619464FF00002444B07F07EFF03
S32D0000CA8002460B461046194608F070FA03461946204601F01DFE002300223D493A4804F0B7FFFB6818331846BB
S32D0000CAA804F000F801460023C822354804F0D0FF142300223549324804F0A6FFFB681933184603F0EFFF0146C1
S32D0000CAD01423C8222C4804F0BFFF282300222E49294804F095FFFB681A33184603F0DEFF01462823C82224484E
S32D0000CAF804F0AEFF7B6C012B02D1F86800F0F8FB1BA1D1E9000103F0C7FCFB681833184603F0C8FF0446FB68A6
S32D0000CB201A33184603F0C2FF03462344DA0F13445B10184607F0B8FE04460D46386807F0C5FE0FA3D3E900239A
S32D0000CB4807F018FF02460B4601210E462046294608F082F90346002B01D100231E46F3B2002B7FF436AFACE0D9
S32D0000CB703333333333B33E409A9999999999A93F295C8FC2F5884140C81600200000594058B8010064B801004F
S32D0000CB9870B801000022B968F868FFF751FD034683F00044386C08F0E7FA03461946204608F036FB03467B6285
S32D0000CBC00122B968F868FFF73FFD0446386C08F0D7FA03461946204608F026FB03463B62FC68786A07F072FE00
S32D0000CBE83BA3D3E9002307F0EFFF02460B46104619464FF000023C4B07F0BCFE02460B461046194608F0AEF9C9
S32D0000CC1003461946204601F05BFDFB6803F10804386A07F053FE2CA3D3E9002307F0D0FF02460B461046194690
S32D0000CC384FF000022C4B07F09DFE02460B461046194608F08FF903461946204601F03CFD7B6C012B02D1F86838
S32D0000CC6000F04AFB1EA1D1E9000103F019FCFB681833184603F01AFF0446FB681933184603F014FF03462344CA
S32D0000CC88DA0F13445B10184607F00AFE04460D46386807F017FE12A3D3E9002307F06AFE02460B4601210E462B
S32D0000CCB02046294608F0D4F80346002B01D100231E46F3B2002B7FF469AFF868FFF756FC00BF2C37BD46F0BD1B
S32D0000CCD83333333333B33E409A9999999999A93F295C8FC2F58841400000594000000000F0B58FB000AFF86027
S32D0000CD00B9607A603B60F868FFF756FC704804F026FE7B68002B40F0CA80A3E00022B968F868FFF791FC034685
S32D0000CD2883F00044386D08F027FA03461946204608F076FA0346FB614FF08041B86808F023FB0346012219464C
S32D0000CD50F868FFF779FC0446386D08F011FA03461946204608F060FA0346BB614FF08041B86808F00DFB0346CA
S32D0000CD7802221946F868FFF763FC0446386D08F0FBF903461946204608F04AFA03467B61FC68F86907F096FDBC
S32D0000CDA045A3D3E9002307F013FF02460B46104619464FF00002474B07F0E0FD02460B461046194608F0D2F890
S32D0000CDC803461946204601F07FFCFB6803F10804B86907F077FD36A3D3E9002307F0F4FE02460B4610461946E5
S32D0000CDF04FF00002374B07F0C1FD02460B461046194608F0B3F803461946204601F060FCFB6803F11004786905
S32D0000CE1807F058FD26A3D3E9002307F0D5FE02460B46104619464FF00002284B07F0A2FD02460B461046194648
S32D0000CE4008F094F803461946204601F041FC7B6D012B02D1F86800F04FFA19A1D1E9000103F01EFBFB68183355
S32D0000CE68184603F01FFE0346184607F019FD04460D46386807F026FD11A3D3E9002307F079FD02460B46012168
S32D0000CE900E462046294607F0E3FF0346002B01D100231E46F3B2002B7FF438AFA5E17B68012B40F07E81B3E024
S32D0000CEB83333333333B33E409A9999999999A93FC520B07268314440C8160020000059404FF08041B86808F0CA
S32D0000CEE057FA034600221946F868FFF7ADFB0446386D08F045F903461946204608F094F90346BB620122B968A9
S32D0000CF08F868FFF79DFB034683F00044386D08F033F903461946204608F082F903467B624FF08041B86808F085
S32D0000CF302FFA034602221946F868FFF785FB0446386D08F01DF903461946204608F06CF903463B62FC68B86A34
S32D0000CF5807F0B8FCAAA3D3E9002307F035FE02460B46104619464FF00002AB4B07F002FD02460B4610461946E1
S32D0000CF8007F0F4FF03461946204601F0A1FBFB6803F10804786A07F099FC9BA3D3E9002307F016FE02460B466C
S32D0000CFA8104619464FF000029B4B07F0E3FC02460B461046194607F0D5FF03461946204601F082FBFB6803F1BD
S32D0000CFD01004386A07F07AFC8BA3D3E9002307F0F7FD02460B46104619464FF000028C4B07F0C4FC02460B4662
S32D0000CFF81046194607F0B6FF03461946204601F063FB7B6D012B02D1F86800F071F97EA1D1E9000103F040FAA5
S32D0000D020FB681933184603F041FD0346184607F03BFC04460D46386807F048FC76A3D3E9002307F09BFC024689
S32D0000D0480B4601210E462046294607F005FF0346002B01D100231E46F3B2002B7FF438AFC7E04FF08041B86865
S32D0000D07008F08EF9034600221946F868FFF7E4FA0446386D08F07CF803461946204608F0CBF803467B634FF08B
S32D0000D0988041B86808F078F9034601221946F868FFF7CEFA0446386D08F066F803461946204608F0B5F80346F6
S32D0000D0C03B630222B968F868FFF7BEFA034683F00044386D08F054F803461946204608F0A3F80346FB62FC68BD
S32D0000D0E8786B07F0EFFB46A3D3E9002307F06CFD02460B46104619464FF00002464B07F039FC02460B461046F3
S32D0000D110194607F02BFF03461946204601F0D8FAFB6803F10804386B07F0D0FB36A3D3E9002307F04DFD024697
S32D0000D1380B46104619464FF00002374B07F01AFC02460B461046194607F00CFF03461946204601F0B9FAFB688E
S32D0000D16003F11004F86A07F0B1FB27A3D3E9002307F02EFD02460B46104619464FF00002274B07F0FBFB024693
S32D0000D1880B461046194607F0EDFE03461946204601F09AFA7B6D012B02D1F86800F0A8F819A1D1E9000103F0BF
S32D0000D1B077F9FB681A33184603F078FC0346184607F072FB04460D46386807F07FFB12A3D3E9002307F0D2FB5B
S32D0000D1D802460B4601210E462046294607F03CFE0346002B01D100231E46F3B2002B7FF438AFF868FFF7BEF910
S32D0000D20000BF3C37BD46F0BD3333333333B33E409A9999999999A93FC520B072683144400000594080B582B04B
S32D0000D22800AF786039607B683968184601F04CFA7B6808333968184601F046FA7B6810333968184601F040FA01
S32D0000D25000BF0837BD4680BD90B583B000AF78607B684433184603F057FC0346184607F02DFB01231C461EA368
S32D0000D278D3E9002307F0F0FD0346002B01D100231C46E3B2002B01D0002326E07B684433184603F03DFC034613
S32D0000D2A0184607F013FB12A3D3E9002307F0F6FD0346002B0FD07B684433184603F02CFC03464FF07F511846A3
S32D0000D2C808F04CF90346002B01D0012300E00023002B01D0012300E0022318460C37BD4690BD00BFAFF3008098
S32D0000D2F0333333333333D33F90B583B000AF78607B684433184603F007FC02467B689B6C01210C4619461046C4
S32D0000D31808F024F90346002B01D100231C46E3B2002B07D07B684433184603F0F1FB02467B689A6400BF0C37AE
S32D0000D340BD4690BD80B582B000AF78600A4806F0C1FF02467B68DA64074806F0C9FF02467B681A65044806F017
S32D0000D368D1FF02467B685A6500BF0837BD4680BD3017002090B585B000AFF860B9607A603B60FB6803F10804C6
S32D0000D390BB685B42184607F0F3FE03461946204601F096F9FB6803F11004B86807F0E8FE03461946204601F074
S32D0000D3B88BF9786803F050F83B68012B02D1F868FFF796FFF868FFF7D5F800BF1437BD4690BD90B585B000AF75
S32D0000D3E0F860B9607A603B60FC68BB685B42184607F0C6FE03461946204601F069F9FB6803F10804BB68DA0F2C
S32D0000D40813445B10184607F0B7FE03461946204601F05AF9FB6803F11004BB68DA0F13445B10184607F0A8FEA4
S32D0000D43003461946204601F04BF9786803F010F83B68012B02D1F868FFF756FFF868FFF795F800BF1437BD4673
S32D0000D45890BD000000000000B0B586B000AFF860B9607A603B6019237B617B68B3F1FF3F3AD16FF018037B61EB
S32D0000D48036E0434806F026FF0346012214461946B86808F067F80346002B01D100231C46E3B2002B07D07B69E0
S32D0000D4A859423B68394AF868FFF793FF17E0364806F00CFF0346012214461946B86808F06BF80346002B01D151
S32D0000D4D000231C46E3B2002B05D03B682D4A7969F868FFF77AFF28A1D1E9000102F0D8FF274806F0EFFE034661
S32D0000D4F8184607F0E7F904460D46B86807F0E2F94FF00002224B07F07DF802460B462046294607F0A1FC0346DD
S32D0000D520002B19D11A4806F0D5FE0346184607F0CDF904460D46B86807F0C8F94FF00002154B07F065F8024687
S32D0000D5480B462046294607F0A5FC0346002B0DD00D4806F0BBFE03464FF04041184607F0F3FF0346002B01D10C
S32D0000D570012300E00023002B83D100BF00BF1837BD46B0BDAFF300809A9999999999B93F30170020CDCC4C3D70
S32D0000D5980000E03F0000000090B587B000AFF860B9607A603B6019237B617B68B3F1FF3F3AD16FF018037B61F7
S32D0000D5C036E0394806F094FE0346012214461946B86807F0C7FF0346002B01D100231C46E3B2002B07D07B69D6
S32D0000D5E859423B682F4AF868FFF7C4FE17E02C4806F07AFE0346012214461946B86807F0CBFF0346002B01D121
S32D0000D61000231C46E3B2002B05D03B68234A7969F868FFF7ABFE1EA1D1E9000102F038FF1D4806F05DFE04463E
S32D0000D6384FF07E51B86807F0E9FC03461946204607F08CFF0346002B10D1154806F04CFE04464FF07E51B868C0
S32D0000D66007F0DAFC03461946204607F099FF0346002B0DD00C4806F03BFE03464FF04041184607F065FF034653
S32D0000D688002B01D1012300E00023002B95D100BF00BF1C37BD4690BD9A9999999999B93F30170020CDCC4C3D86
S32D0000D6B0B0B582B000AF786002E07868FFF742FE7868FFF7C9FD0346022B05D07868FFF7C3FD0346012B01D172
S32D0000D6D8012300E00023002BEBD17B689B6D184607F0F0F804460D467B68DB6C184607F0E9F837A3D3E9002338
S32D0000D70006F084FF02460B462046294606F07EFF02460B4610461946FEF7A0FE4FF00002314B07F0A7FB034621
S32D0000D728002B26D07B68DB6D184607F0CBF804460D467B681B6D184607F0C4F826A3D3E9002306F061FF024610
S32D0000D7500B462046294606F059FF02460B4610461946FEF77BFE4FF000021F4B07F082FB0346002B01D00123F3
S32D0000D77800E00023002B25D07B68DB6C184607F0A1F813A3D3E9002306F03CFF02460B461046194607F0E6FB5C
S32D0000D7A002467B689A657B681B6D184607F08EF80BA3D3E9002306F02BFF02460B461046194607F0D3FB0246E3
S32D0000D7C87B68DA6500BF0837BD46B0BDAFF300803D0AD7A370BD2F40D7A3703D0AF749400000E03F80B582B0ED
S32D0000D7F000AF78607B681846FEF740FE7B686C330721184603F06CFC7B6878330621184603F066FC7B68184604
S32D0000D8180837BD4680BD000080B586B002AF78607B681846FFF740FF694806F015FDF86078680023019301232D
S32D0000D84000934FF0814300226449FFF715F87B6863491846FFF7E6FC59A1D1E9000102F01FFE7B681846FEF793
S32D0000D86889FE786800230193012300935B4B01225B49FEF7FDFFFB68002B0BD17868002301934FF0FF3300935A
S32D0000D890564B01225449FFF72FFA1CE0FB68012B0BD17868002301934FF0FF330093504B01224D49FFF720FA84
S32D0000D8B80DE0FB68022B0AD17868002301934FF0FF330093494B01224549FFF711FA4FF00000474902F0E0FD6B
S32D0000D8E07B686C334549184603F016FC36A1D1E9000102F0D5FD786800230193012300934FF080430122354960
S32D0000D908FEF7B6FF7B686C333B49184603F000FC4FF00000394902F0BFFD7868002301934FF0FF3300934FF0AB
S32D0000D9307F5301222949FEF79FFF23A1D1E9000102F0AEFD7B686C332F49184603F0E4FB4FF00000284902F0E7
S32D0000D958A3FD786800230193012300934FF07E5301221C49FEF784FF7B6826491846FFF755FC15A1D1E900013B
S32D0000D98002F08EFD7B681846FEF7F8FD7B686C331F49184603F0C0FB4FF000001D4902F07FFD78680023019331
S32D0000D9A84FF0FF3300931A4B00220A49FEF760FF00BF1037BD4680BD666666666666E63F333333333333E33FFC
S32D0000D9D09A9999999999D93F301700200000E0400000F0C10000C04000001041000090410000B8410000D04116
S32D0000D9F80000F03F0000A0420000C8420000104000000C420000F041000070410000E03F0000404100000000C6
S32D0000DA2080B584B002AF7860786800230193012300933D4B00223D49FEF71EFF7B683C491846FFF7EFFB34A1DB
S32D0000DA48D1E9000102F028FD7B681846FEF792FD78680023019301230093344B00223449FEF706FF7B68334954
S32D0000DA701846FFF7D7FB2AA1D1E9000102F010FD7B681846FEF77AFD7868002301934FF0FF3300932A4B0022FE
S32D0000DA982449FEF7EDFE78680023019301230093234B00221F49FEF7E3FE7B6821491846FFF7B4FB16A1D1E936
S32D0000DAC0000102F0EDFC7B681846FEF757FD78680023019301230093194B00221349FEF7CBFE7B6878331449F9
S32D0000DAE8184603F015FB4FF00000144902F0D4FC7B6878331249184603F00AFB4FF000000E4902F0C9FC00BF06
S32D0000DB100837BD4680BD00BF9A9999999999E93F333333333333EB3F000040400000E0400000F0410000B041CC
S32D0000DB38000020410000F0C10000A0400000E03F0000C8420000000080B586B002AF78607868002301930123F5
S32D0000DB6000934FF0804300225749FFF7C5F878687B68996D00234FF0FF32FFF771FC7868012301934FF0FF33C5
S32D0000DB880093504B00224E49FEF772FE78687B68996D00234FF0FF32FFF75EFC78687B68D96D01234FF0FF32DA
S32D0000DBB0FFF7F6FC464803F0D2FE4FF0FF33FB607B689B6C184606F081FE3DA3D3E9002307F046F90346002B1C
S32D0000DBD80AD0C823FB604FF47F013B4803F0DAFE394803F0B8FE1FE07B689B6C184606F069FE31A3D3E900236D
S32D0000DC0007F04CF90346002B12D07B689B6C4FF07F51184607F0A6FC0346002B08D06423FB60FF212A4803F0C1
S32D0000DC28B9FE294803F097FEFB68C82B0ED17868002301934FF0FF330093244B00222049FFF756F8204803F0B5
S32D0000DC5086FE0DE07868002301934FF0FF3300931D4B00221849FFF747F8194803F077FE7868002301934FF0DB
S32D0000DC78FF330093164B00221149FEF7F9FD78680023019301230093124B00220C49FEF7EFFDFB68C82B09D1BE
S32D0000DCA0786800230193012300930D4B00220649FFF722F800BF1037BD4680BDAFF30080333333333333D33F83
S32D0000DCC80000E0400000A841C8160020000030410000C040000004410000A0400000000080B584B002AF78609F
S32D0000DCF07868002301934FF0FF330093764B02227649FEF7B9FD4FF000004FF0804102F0C7FB7B68724918462D
S32D0000DD18FFF784FA6AA1D1E9000102F0BDFB7B681846FEF727FC4FF000004FF0804102F0B3FB7868002301932A
S32D0000DD404FF0FF330093674B00226449FEF794FD4FF000004FF0804102F0A2FB78680023019301230093604BE3
S32D0000DD6800225C49FEF784FD4FF000004FF0804102F092FB7B686C335A49184603F0C8F94FF000004FF080411C
S32D0000DD9002F086FB7B6852491846FFF743FA4CA1D1E9000102F07CFB7B681846FEF7E6FB4FF000004FF080417C
S32D0000DDB802F072FB7B686C334B49184603F0A8F94FF000004FF0804102F066FB7868002301934FF0FF330093A9
S32D0000DDE0444B01223D49FEF747FD78680023019301230093404B01223849FEF73DFD4FF000004FF0804102F0C7
S32D0000DE084BFB7B686C333249184603F081F97B6838491846FFF702FA2BA1D1E9000102F03BFB7B681846FEF745
S32D0000DE30A5FB4FF000004FF0804102F031FB7868002301934FF0FF3300932D4B00222349FEF712FD4FF00000E3
S32D0000DE584FF0804102F020FB78680023019301230093264B00221B49FEF702FD4FF000004FF0804102F010FB1A
S32D0000DE807B6817491846FFF7CDF90FA1D1E9000102F006FB7B681846FEF770FB4FF000004FF0804102F0FCFAF1
S32D0000DEA87868002301934FF0FF330093144B00220849FEF7DDFC00BF0837BD4680BD00BF9A9999999999E93F55
S32D0000DED09A9999999999D13F000070410000E0400000F0C10000A040000090400000C842333389420000704060
S32D0000DEF80000A8400000F0410000D040000040400000204280B582B000AF78607868FFF783FC7868FFF780FD5B
S32D0000DF207868FFF715FE7868FFF7DEFE00BF0837BD4680BD80B5A2B000AF3B1D1846FFF755FC064805F06AFF1B
S32D0000DF483B1D1846FFF7DEFF002318468837BD4680BD00BF3017002080B500AF0F4BD3F8A03003F48053002BAE
S32D0000DF7014BF01230023DBB2002B10D0094BD3F8A030084A23F48053C2F8A030064806F09FFA064B1B68054A1C
S32D0000DF9823F40053136000BF80BD00BF00C0044050170020C0F00F4080B400AF124B4FF480725A63114B5B69E7
S32D0000DFC0104A43F4005353610E4B1B680D4A43F4005313600A4B0C4A1A630C4BD3F888310A4A43F08063C2F844
S32D0000DFE88831084B9B68074A43F08063936000BFBD4680BC704700BF00C00440C0F00F4003010A0000E100E05C
S32D0000E01080B400AF334B00225A70324B98221A7000BF304B9B79DBB203F01003002B14BF01230023DBB2002BF6
S32D0000E038F3D100BF294B9B79DBB29B08DBB203F00303022B14BF01230023DBB2002BF1D1224B18221A71214B9A
S32D0000E06000225A71204B03F580531A461F4B53641C4B54225A7100BF1A4B9B79DBB203F02003002B0CBF012351
S32D0000E0880023DBB2002BF3D100BF144B9B79DBB203F04003002B0CBF01230023DBB2002BF3D10E4B1B78DBB2A4
S32D0000E0B00C4A03F03F03DBB2137000BF094B9B79DBB29B08DBB203F00303032B14BF01230023DBB2002BF1D108
S32D0000E0D800231846BD4680BC704700BF00400640007004400000130180B500AF314B03F580539B6B2F4A43F4B5
S32D0000E100785302F580529363FFF752FFFFF780FF2B4B58221A602A4B1B684FF47A7202FB03F3284A1360274BD0
S32D0000E1281B681A46234B03F580535B6C1B0E03F00F030133B2FBF3F31A46214B1A601D4B03F58053DB6B1B4ACD
S32D0000E15043F0225302F58052D363184B03F580531B6B164A43F0006302F580521363174B4FF480721A6164207B
S32D0000E17802F048F8134B5B69124A23F010035361104B00221A600F4B10225A610E4803F06BFA02F0A5FD02F07D
S32D0000E1A003FE0C4802F094F80B4806F0E5F94FF4FA6002F03FF900BF80BD00BF00700440141600201016002091
S32D0000E1C81816002000D00340C81600200C160020C017002080B500AFFEF7B3F800BF80BD80B500AFFEF7ADF893
S32D0000E1F000BF80BD80B500AFFEF7A7F800BF80BD80B500AFFEF7A1F800BF80BD80B500AFFEF79BF800BF80BDBB
S32D0000E21880B500AFFEF795F800BF80BD80B500AFFEF78FF800BF80BD80B500AFFEF789F800BF80BD80B500AFE0
S32D0000E240FEF783F800BF80BD80B500AFFEF77DF800BF80BD80B500AFFEF777F800BF80BD80B500AFFEF771F874
S32D0000E26800BF80BD80B500AFFEF76BF800BF80BD80B500AFFEF765F800BF80BD80B500AFFEF75FF800BF80BDF6
S32D0000E29080B500AFFEF759F800BF80BD80B500AFFEF753F800BF80BD80B500AFFEF74DF800BF80BD80B500AF1C
S32D0000E2B8FEF747F800BF80BD80B500AFFEF741F800BF80BD80B500AFFEF73BF800BF80BD80B500AFFEF735F8EC
S32D0000E2E000BF80BD80B500AFFEF72FF800BF80BD80B500AFFEF729F800BF80BD80B500AFFEF723F800BF80BD32
S32D0000E30880B500AFFEF71DF800BF80BD80B500AFFEF717F800BF80BD80B500AFFEF711F800BF80BD80B500AF57
S32D0000E330FEF70BF800BF80BD80B500AFFEF705F800BF80BD80B500AFFDF7FFFF00BF80BD80B500AFFDF7F9FF57
S32D0000E35800BF80BD80B500AFFDF7F3FF00BF80BD80B500AFFDF7EDFF00BF80BD80B500AFFDF7E7FF00BF80BD5B
S32D0000E38080B500AFFDF7E1FF00BF80BD80B500AFFDF7DBFF00BF80BD80B500AFFDF7D5FF00BF80BD80B500AF81
S32D0000E3A8FDF7CFFF00BF80BD80B500AFFDF7C9FF00BF80BD80B500AFFDF7C3FF00BF80BD80B500AFFDF7BDFFC3
S32D0000E3D000BF80BD80B500AFFDF7B7FF00BF80BD80B500AFFDF7B1FF00BF80BD80B500AFFDF7ABFF00BF80BD97
S32D0000E3F880B500AFFDF7A5FF00BF80BD80B500AFFDF79FFF00BF80BD80B500AFFDF799FF00BF80BD80B500AFBD
S32D0000E420FDF793FF00BF80BD80B500AFFDF78DFF00BF80BD80B500AFFDF787FF00BF80BD80B500AFFDF781FF3A
S32D0000E44800BF80BD80B500AFFDF77BFF00BF80BD80B500AFFDF775FF00BF80BD80B500AFFDF76FFF00BF80BDD2
S32D0000E47080B500AFFDF769FF00BF80BD80B500AFFDF763FF00BF80BD80B500AFFDF75DFF00BF80BD80B500AFF8
S32D0000E498FDF757FF00BF80BD80B500AFFDF751FF00BF80BD80B500AFFDF74BFF00BF80BD80B500AFFDF745FFB2
S32D0000E4C000BF80BD80B500AFFDF73FFF00BF80BD80B500AFFDF739FF00BF80BD80B500AFFDF733FF00BF80BD0E
S32D0000E4E880B500AFFDF72DFF00BF80BD80B500AFFDF727FF00BF80BD80B500AFFDF721FF00BF80BD80B500AF34
S32D0000E510FDF71BFF00BF80BD80B500AFFDF715FF00BF80BD80B500AFFDF70FFF00BF80BD80B500AFFDF709FF29
S32D0000E53800BF80BD80B500AFFDF703FF00BF80BD80B500AFFDF7FDFE00BF80BD80B500AFFDF7F7FE00BF80BD4B
S32D0000E56080B500AFFDF7F1FE00BF80BD80B500AFFDF7EBFE00BF80BD80B500AFFDF7E5FE00BF80BD80B500AF72
S32D0000E588FDF7DFFE00BF80BD80B500AFFDF7D9FE00BF80BD80B500AFFDF7D3FE00BF80BD80B500AFFDF7CDFEA5
S32D0000E5B000BF80BD80B500AFFDF7C7FE00BF80BD80B500AFFDF7C1FE00BF80BD80B500AFFDF7BBFE00BF80BD88
S32D0000E5D880B500AFFDF7B5FE00BF80BD80B500AFFDF7AFFE00BF80BD80B500AFFDF7A9FE00BF80BD0000000092
S32D0000E60080B584B000AFF8600B467A60FB72FB68FA7A1A71FB6800225A711749786806F0BFFF0346002B02D0F8
S32D0000E628134B7B600AE04FF07E51786806F0A0FF0346002B02D04FF07E537B60786806F041F909A3D3E9002352
S32D0000E65006F094F902460B461046194606F086FC0246FB681A60FB6818461037BD4680BDABAAAAAAAAAA204089
S32D0000E6780000404180B584B000AF786039603B687F2B02DD7F23FB7308E03B6813F1800F02DA8023FB7301E042
S32D0000E6A03B68FB737B685B79FA7B9A4209D07B68FA7B5A717B681979FA7B1E23034801F041FE00BF1037BD4688
S32D0000E6C880BD00BF0C160020B0B584B000AF786039603749386806F041FF0346002B02D0334B3B6008E0334914
S32D0000E6F0386806F055FF0346002B01D02F4B3B60386806F0E3F804460D467B681B68184606F0DCF84FF00002DB
S32D0000E718294B06F059FA02460B462046294606F029F902460B461046194606F01BFC03463B604FF00001386871
S32D0000E74006F024FF0346002B10D0386806F0BEF817A3D3E9002306F011F902460B461046194606F0BBFB034616
S32D0000E768FB6018E0386806F0ADF84FF00002134B06F000F902460B46104619464FF000020D4B06F021FA024627
S32D0000E7900B461046194606F0A1FB0346FB60F9687868FFF76BFF00BF1037BD46B0BD00BF52B81E85EB51F43F2D
S32D0000E7B80000C8C20000C842000059400000604080B483B000AF03460A46FB711346BB71BB79002B03D1134B35
S32D0000E7E000221A7002E0114B01221A703823FB710E4B1A78FB791343FB710D4B9B78DBB20B4A43F01003DBB26C
S32D0000E8089370094B9B78DBB2074A43F02003DBB29370054AFB79137100BF0C37BD4680BC704700BFE81300209B
S32D0000E8300060064080B483B000AF01237B6003E000BF7B6801337B607B68312BF8DD00BF00BF0C37BD4680BC57
S32D0000E8587047000080B582B000AF03460A46FB711346BB71134B1B7800211846FFF7A8FF00F024F8104AFB7954
S32D0000E880137100F01FF80E4ABB79137100F01AF80B4B9B78DBB20A4A23F02003DBB29370074B9B78DBB2064A7B
S32D0000E8A823F01003DBB29370FFF7C0FF00BF0837BD4680BDE91300200060064080B483B000AF174B1B78002BA1
S32D0000E8D024D100237B600CE07B6842F21072934203DD114B01221A700FE07B6801337B6000BF0E4BDB78DBB20B
S32D0000E8F803F00203002B0CBF01230023DBB2002BE6D1084BDB78DBB2064A43F00203DBB2D37000E000BF0C37E1
S32D0000E920BD4680BC704700BFEA1300200060064080B582B000AF0346FB71FB79184600F05FF800BF0837BD466C
S32D0000E94880BD80B582B000AF03460A46FB711346BB7100F035F8FB795B00DBB21846FFF7E3FFBB791846FFF78D
S32D0000E970DFFF00F037F800BF0837BD4680BD80B500AFFF2000F03CF80346184680BD80B584B000AF0346FB7166
S32D0000E99800F016F8FB795B005BB243F001035BB2DBB21846FFF7C0FFFFF7E5FF0346FB7300F014F8FB7B184632
S32D0000E9C01037BD4680BD000080B400AF044B9B68034A43F48013936000BFBD4680BC704740F00F4080B400AF4C
S32D0000E9E8044B5B68034A43F48013536000BFBD4680BC704740F00F4080B485B000AF0346FB710023BB7302E0F1
S32D0000EA10FB7B0133FB73144BDB6A03F00043012B0CBF01230023DBB2002BF1D10E4BDB6A0D4A43F00043D3628E
S32D0000EA380B4AFB79536300BF094BDB6A03F40033002B0CBF01230023DBB2002BF4D1044B9B6BBB73BB7B1846DE
S32D0000EA601437BD4680BC704700C00A400000000080B582B000AF204B03F580531B6B1E4A43F4805302F5805230
S32D0000EA8813631C4B4FF480721A651B4B5B691A4A43F480135361FFF7A1FF164B4FF400725A65144B4FF4007244
S32D0000EAB09A65124B4FF40072DA65124B124A1A60104B124ADA6000237B6005E0FF20FFF72FFF7B6801337B60AC
S32D0000EAD87B68092BF6DD04A1D1E9000101F0DCFC00BF0837BD4680BD9A9999999999B93F0070044000A0044098
S32D0000EB0040F00F4000C00A40000C00800500003E90B486B000AFF860B9607A60FB68534A93420AD1524B03F5D6
S32D0000EB2880535B6B504A43F4806302F58052536345E0FB684D4A93420AD14B4B03F580535B6B494A43F40063D0
S32D0000EB5002F58052536336E0FB68474A93420AD1434B03F580535B6B414A43F4805302F58052536327E0FB68C1
S32D0000EB78404A93420AD13C4B03F580535B6B3A4A43F4005302F58052536318E0FB683A4A93420AD1344B03F58A
S32D0000EBA080539B6A324A43F4806302F58052936209E02F4B03F580539B6A2D4A43F4006302F580529362FB68B6
S32D0000EBC8DB78DBB223F00C03DAB2FB68DA70FB6800229A70BB684FF47A7203FB02F27B681B0192FBF3F39CB251
S32D0000EBF0FB681B78DBB223F01F03FB75230A9BB2DBB203F01F03DAB2FB7D1343DAB2FB681A70E2B2FB685A701F
S32D0000EC18BB684FF4FA4203FB02F27B681B0192FBF3F39AB263019BB2D31A9CB2FB689B7ADBB223F01F03FB75E6
S32D0000EC40E3B203F01F03DAB2FB7D1343DAB2FB689A72FB68DB78DBB243F00C03DAB2FB68DA7000BF1837BD46D8
S32D0000EC6890BC704700A006400070044000B0064000C0064000D0064000A00E4080B483B000AF786000BF7B6851
S32D0000EC901B79DBB203F02003002B0CBF01230023DBB2002BF3D17B68DB79DBB218460C37BD4680BC704780B4D7
S32D0000ECB883B000AF78600B46FB7000BF7B681B79DBB25BB2DB43DBB2DB09DBB2002BF5D17B68FA78DA7100BF7C
S32D0000ECE00C37BD4680BC704780B487B000AFF860B9607A60FB687B6106E0BB68D9B27B695A1C7A610A461A7086
S32D0000ED087B685A1E7A60002B14BF01230023DBB2002BEED100BF00BF1C37BD4680BC704780B584B000AF786035
S32D0000ED3039607B681B6BFB60FA683B689A4252D07B681B79002B35D07B6858787B6803F134010123FA6801F078
S32D0000ED58F7F80346002B14BF01230023DBB2002B01D001233CE07B6800221A717B685A6A7B681B6A1344FA68EF
S32D0000ED809A4217D27B68DB78FB7210E07B681B6AFA681344FB607B6858787B6803F134010123FA6801F0D0F893
S32D0000EDA8FB7A013BFB72FB7A012BEBD83B68002B15D07B6858787B6803F1340101233A6800F0D8FF0346002B48
S32D0000EDD014BF01230023DBB2002B01D0012303E07B683A681A63002318461037BD4680BD80B584B000AF786071
S32D0000EDF800217868FFF794FF0346FB73FB7B002B40F093807B681B78032B7DD17B685B79002B79D07B680022A6
S32D0000EE201A637B6834334FF4007200211846FFF75BFF7B68552283F832227B68AA2283F833227B68522283F8FF
S32D0000EE4834207B68522283F835207B68612283F836207B68412283F837207B68722283F818227B68722283F8B4
S32D0000EE7019227B68412283F81A227B68612283F81B227B681B69DAB27B6883F81C227B681B699BB21B0A9BB269
S32D0000EE98DAB27B6883F81D227B681B691B0CDAB27B6883F81E227B681B691B0EDAB27B6883F81F227B68DB688A
S32D0000EEC0DAB27B6883F820227B68DB689BB21B0A9BB2DAB27B6883F821227B68DB681B0CDAB27B6883F822226B
S32D0000EEE87B68DB681B0EDAB27B6883F823227B6858787B6803F134017B685A69012301F01FF87B6800225A711D
S32D0000EF107B685B7800220021184601F0E1F80346002B14BF01230023DBB2002B01D00123FB73FB7B18461037EE
S32D0000EF38BD4680BD80B582B000AF78600B467B807B68002B08D07B681B78002B04D07B68DB887A889A4201D0E1
S32D0000EF60092311E07B685B78184601F03BF9034603F00103002B14BF01230023DBB2002B01D0032300E00023F6
S32D0000EF8818460837BD4680BD80B586B000AF78607B681A687B689B8819461046FFF7CAFF0346FB75FB7D002B51
S32D0000EFB040F0AC807B689B7903F02003002B00F0A5807B689B7903F04003002B1BD07B681B6858787B6803F13A
S32D0000EFD828017B689A69012300F0B2FF0346002B14BF01230023DBB2002B01D001238AE07B689B7923F0400345
S32D0000F000DAB27B689A717B681A687B68DB6919461046FFF789FE0346FB75FB7D002B75D17B681B6A3B613B6960
S32D0000F0280B331A783B690B3342F02002D2B21A707B68DA683B691C33D2B21A707B68DB689BB21B0A9AB23B69F8
S32D0000F0501D33D2B21A707B68DB681A0C3B691E33D2B21A707B68DB681A0E3B691F33D2B21A707B681A693B6989
S32D0000F0781A33D2B21A707B681B699BB21B0A9AB23B691B33D2B21A707B681B691A0C3B691433D2B21A707B6881
S32D0000F0A01B691B0C9BB21B0A9AB23B691533D2B21A700023FB603B691633FA68D2B21A70FB689BB21B0A9AB2E3
S32D0000F0C83B691733D2B21A70FB681A0C3B691833D2B21A70FB681A0E3B691933D2B21A707B689B7923F02003E2
S32D0000F0F0DAB27B689A717B681B6801221A717B681B681846FFF774FE0346FB75FB7D18461837BD4680BD80B5E5
S32D0000F11884B000AF78607868FFF736FF0346FB73FB7B002B02D17B6800221A60FB7B18461037BD4680BD0000FE
S32D0000F14080B588B000AF7860396080233B610F23FB604FF0FF337B610223FB6122E00123BB6119E0FB69BA69B8
S32D0000F16802FB03F33A6803FB02F27B68D31ABB60BB68002B09DBBB687A699A4205D9BB687B61FB693B61BB69F2
S32D0000F190FB60BB690133BB61BB69102BE2D9FB695B00FB61FB69B3F5807FD8D91D4BDB6A1C4A23F00803D3622B
S32D0000F1B81A4BDB6A23F47F2323F47F63BB613B695B081B029AB2FB68013B1B01DBB21A43BB691343114A43F490
S32D0000F1E06023D36202E00A2001F024F90D4B5B6A03F00803002B0CBF01230023DBB2002BF1D1084BDB6A074A74
S32D0000F20843F00803D362054B1B6B044A43F48013136300BF2037BD4680BD00BF00100B4080B582B000AF7860A3
S32D0000F23039607B6800221A60414B424ADA6200BF3F4BDB6A03F08073002B14BF01230023DBB2002BF4D13A4B89
S32D0000F2580022C3F8C020384B4FF481325A60364B28229A62344B4FF001125A643B689B6833491846FFF760FF6D
S32D0000F28000BF2F4B5B6A03F00303002B14BF01230023DBB2002BF4D12C4B40F243421A602A4B40F243425A6019
S32D0000F2A8284B4FF488629A60264B40F24342DA60244B40F243421A61224B40F243425A61214B03F580531B6BFF
S32D0000F2D01F4A43F4003302F580521363184B4FF6FF721A63164B1B4A5A63154BDB6A144A43F00063D36200BF58
S32D0000F2F8114BDB6A03F00063002B14BF01230023DBB2002BF4D10C4B5B6A03F48033002B14BF01230023DBB297
S32D0000F320002B02D07B6801221A60054B1B6B044A43F080031363002318460837BD4680BD00100B400080000116
S32D0000F34860CC050000D0044000700440B3007F0080B400AF064B5A6A40F207331340002B14BF01230023DBB2E3
S32D0000F3701846BD4680BC704700100B4080B485B000AF7860064B1B6B7A681340FB60FB68002BF7D0FB68184653
S32D0000F3981437BD4680BC704700100B4080B584B000AF78607B681B7803F03F03764A52F82330FB60FB68002BCA
S32D0000F3C005D17B681B78002B01D00123DCE0714B1B6B704A43F08003136300BF6D4B5B6A03F00103002B14BF9E
S32D0000F3E801230023DBB2002BF4D1684A7B685B689360FB6823F44003FB607B685B789B0503F44003FA68134388
S32D0000F410FB607B685B78022B03D1FB6843F40013FB607B685B78042B16D1FB6803F44033B3F5003F08D1FB68F8
S32D0000F43823F44033FB60FB6843F44033FB6007E0FB6823F44033FB60FB6843F40033FB604E4B5B684D4A9BB2C2
S32D0000F46053607B68DB68002B2AD0FB6803F44033B3F5403F03D0FB6843F40013FB607B681B7A002B03D0FB68D8
S32D0000F48843F01003FB607B68DB68012B03D9FB6843F02003FB607B68DB68B3F1FF3F0BD03A4B5A687B68DB6823
S32D0000F4B01B04384913434B60FB6843F00203FB60344B00221A60334AFB68D3603248FFF755FF0346012B14BF5D
S32D0000F4D801230023DBB2002B09D02C4B1B6B2B4A43F4702343F001031363012348E0274B1B6B03F08003002B60
S32D0000F50014BF01230023DBB2002B07D0214B1B6B204A43F001131363012335E01D4B1B6B03F48033002B14BF4C
S32D0000F52801230023DBB2002B08D0184B1B6B174A43F0011313634FF0FF3321E0FB6803F44033002B15D0114B2C
S32D0000F5501A697B681A61FB6803F44033B3F5803F0BD10C4B5A697B685A610A4B9A697B689A61084BDA697B6835
S32D0000F578DA61064B1B6B054A43F001031363002318461037BD4680BD88B8010000100B4001000E0080B592B02D
S32D0000F5A000AF7860396000237B643B68BB63994B7B637B6B002B02D140F601235FE3964B3B633B6B002B02D1F5
S32D0000F5C840F60B2357E33B6B1B68FB62FB6A002B02D140F60B234EE37B6841F20932934200F23F837B68B3F594
S32D0000F5F0985F08D87B68032B00F01A837B68092B00F0098331E37B68A3F59853013B082B00F22B8301A252F86F
S32D0000F61823F000BF41F600002DF9000089FB000043F9000081F90000A7FA0000EFFA000031FA00004BFA000061
S32D0000F6407649786BFFF7F0FD78647B6C002B40F01083002387F84330002387F82B30002387F82A30002387F8B6
S32D0000F6682930002387F84230002387F8283000233B7200237B720023FB6000233B7400237B6107F1080318467D
S32D0000F690FFF788FE0346002B14BF01230023DBB2002B02D001237B64E8E240F24C4000F0C1FE08233B72002383
S32D0000F6B87B724FF4D573FB6000233B7400237B6107F108031846FFF769FEF863FB6B002B09D1BA69FB689A429A
S32D0000F6E002D001237B64C9E2012387F84230012387F8283097F82830002B00F0A58037233B7200237B7200230B
S32D0000F708FB6000233B7400237B6107F108031846FFF744FEF863FB6B002B02D001237B64A8E269233B72002367
S32D0000F7307B720023FB6000233B7400237B6107F108031846FFF72EFE0346002B14BF01230023DBB2002B02D0D4
S32D0000F75801237B648EE2BB6903F44013002B6FD00023FB630A2000F061FEFB6B0133FB6337233B7200237B722F
S32D0000F7800023FB6000233B7400237B6107F108031846FFF707FE0346002B14BF01230023DBB2002B02D0012374
S32D0000F7A87B6427E069233B7200237B7297F84230002B02D0184BFB6002E04FF44013FB6000233B7400237B61A4
S32D0000F7D007F108031846FFF7E5FD0346002B14BF01230023DBB2002B02D001237B6405E0BB69002B02DBFB6B40
S32D0000F7F8632BB7D97B6C002B40F03982FB6B632B0CD9002387F842301AE000BF00140020041600207CB801007F
S32D0000F82000003040012387F8433097F84230002B0AD0002387F84230BB6903F08043002B02D0012387F842302E
S32D0000F84897F82A30002B02D07B6B07221A6097F82930002B02D07B6B08221A6097F82B30002B02D07B6B0422C1
S32D0000F8701A6097F84330002B09D07B6B02221A6097F84230002B02D07B6B03221A6097F82B30002B0DD097F862
S32D0000F8984330002B09D07B6B05221A6097F84230002B02D07B6B06221A60924B00221A60904B00225A608F4BB4
S32D0000F8C000229A608D4B0022DA608C4B00221A618A4B00225A61FB6A9A68FB6A5B6819461046FFF72DFC854B71
S32D0000F8E840F243421A60834B40F243425A60814B4FF488629A607F4B40F24342DA607D4B40F243421A617B4B14
S32D0000F91040F243425A617A4B03F580531B6B784A43F4003302F580521363A7E1B86BFFF739FDF863FB6B002B13
S32D0000F93800F09F8102237B649BE1BB6B002B02D10C237B6496E16D4BDB6A1B0A5B0003F4FF73FB63694BDB6A2B
S32D0000F9601B0903F00F035A1CFB6B02FB03F3FB63FB6A9A68FB6BB2FBF3F2BB6B1A607DE1BB6B002B02D10C2373
S32D0000F9887B6477E1BB6B1B68002B02D10C237B6470E1FFF7DDFC0346002B0CBF01230023DBB2002B3CD0534B5D
S32D0000F9B000221A60514B00225A60504B00229A604E4B0022DA604D4B00221A614B4B00225A61FB6A9A68BB6B34
S32D0000F9D81B6819461046FFF7AFFB464B40F243421A60444B40F243425A60424B4FF488629A60404B40F2434271
S32D0000FA00DA603E4B40F243421A613C4B40F243425A613B4B03F580531B6B394A43F4003302F58052136329E1DD
S32D0000FA2840F60A237B6425E1BB6B002B02D10C237B641FE1314B5B68C3F30C02BB6B1A6018E1BB6B002B02D176
S32D0000FA500C237B6412E1FFF77FFC0346002B0CBF01230023DBB2002B19D0BB6B1B68B3F5805F02D30C237B64DC
S32D0000FA7800E1224B5B68214A23F4FF5323F01F0353601E4B5A68BB6B1B68C3F30C031B4913434B60EEE040F691
S32D0000FAA00A237B64EAE0BB6B002B02D10C237B64E4E0144B9B6A5B0803F00303FB63FB6B002B03D1BB6B0022A1
S32D0000FAC81A60D7E0FB6B012B03D1BB6B01221A60D0E0FB6B102B03D1BB6B02221A60C9E005237B64C6E0BB6B51
S32D0000FAF0002B09D10C237B64C0E000BF00D004400070044000100B40FFF726FC0346002B0CBF01230023DBB228
S32D0000FB18002B31D0BB6B1B68002B0AD1584B9B6A574A23F006039362554B554A9B6A9362A0E0BB6B1B68012BFC
S32D0000FB400CD1514B9B6A504A23F0060393624E4B9B6A4D4A43F0020393628FE0BB6B1B68022B0AD1484B9B6A54
S32D0000FB68474A23F006039362454B454A9B6A936280E005237B647DE040F60A237B6479E0BB6B002B02D10C2302
S32D0000FB907B6473E03C4BDB6A3B4A43F00063D36200BF394BDB6A03F00063002B14BF01230023DBB2002BF4D159
S32D0000FBB8334B1B6B03F08003002B14BF01230023DBB2002B08D02E4B1B6B2D4A43F0800313637B6B00221A60AC
S32D0000FBE0294B5B6A03F48033002B14BF01230023DBB2002B07D07B6B1B68002B06D17B6B01221A6002E07B6B8A
S32D0000FC0800221A607B6B1A68BB6B1A6032E0BB6B1C221A60BB6B043304221A60BB6B08334FF41E721A6025E08A
S32D0000FC300220FFF7A3FB144B1B6B03F4E003002B14BF01230023DBB2002B07D00E4B1B6B0D4A43F4E003136397
S32D0000FC5804237B640A4B1B6B094A43F03203136308E040F609237B6404E000BF02E000BF00E000BF7B6C18461B
S32D0000FC804837BD4680BD00BF00100B4080B489B000AF786039607B687B61364B3B613B69002B01D100235FE011
S32D0000FCA83B691B68022B0BD03B691B68032B07D03B691B68072B03D03B691B68082B0BD100BF2B4B5B6A03F084
S32D0000FCD00403002B14BF01230023DBB2002BF4D13B68FB613CE0FB69B3F5007F28BF4FF40073FB60FB68033306
S32D0000FCF89B08BB6129E01E4B1B6B03F4E003002B14BF01230023DBB2002B09D0184B1B6B174A43F4E00343F0E0
S32D0000FD202003136300231FE000BF134B5B6A03F40063002B0CBF01230023DBB2002BF4D10D4B1A6A7B69191D0E
S32D0000FD4879611A60BB69013BBB61BB69002BD2D1FA69FB68D31AFB61FB69002BBFD1012318462437BD4680BC81
S32D0000FD70704700BF0014002000100B4080B58EB000AFB9607A601A460346FB731346BB73414B7B63FB7B002BA2
S32D0000FD9802D1BB7B002B01D1042375E03D4B1B78DBB203F00103002B14BF01230023DBB2002B01D0032367E0E1
S32D0000FDC0BB68002B01D1002362E07B6B1B7B002B02D17B685B027B60BB7B012B28D111233B7500237B757B68C6
S32D0000FDE8BB6101233B77BB7B3B6207F11403194641F20230FFF7CEFB0346002B0CBF01230023DBB2002B38D050
S32D0000FE104FF40071B868FFF739FF0346002B14BF01230023DBB2002B2BD00023BB7328E012233B7500237B7530
S32D0000FE387B68BB6101233B77BB7B3B6207F11403194641F20230FFF7A5FB0346002B0CBF01230023DBB2002B4D
S32D0000FE600FD0BB7B5B021946B868FFF70FFF0346002B14BF01230023DBB2002B01D00023BB73BB7B002B01D0E5
S32D0000FE88012300E0002300BF18463837BD4680BDEC1300200400002080B487B000AF786039607B68FB603B68AA
S32D0000FEB07B613DE07B69B3F5007F28BF4FF400733B617A693B69D31A7B613B6903339B083B612AE01B4B1B6B88
S32D0000FED803F4E003002B14BF01230023DBB2002B0AD0164B1B6B154A43F4E00343F0100313634FF0FF331BE0C3
S32D0000FF0000BF104B5B6A03F48063002B0CBF01230023DBB2002BF4D1FB681A1DFA60094A1B6813623B69013B41
S32D0000FF283B613B69002BD1D17B69002BBED1012318461C37BD4680BC704700BF00100B4080B58EB000AFB960E0
S32D0000FF507A601A460346FB731346BB735D4B7B63FB7B002B02D1BB7B002B01D10423ACE0594B1B78DBB203F074
S32D0000FF780103002B14BF01230023DBB2002B01D003239EE0524B1B78DBB203F00403002B14BF01230023DBB25C
S32D0000FFA0002B01D0022390E0BB68002B01D100238BE07B6B1B7B002B02D17B685B027B60BB7B012B28D11823C9
S32D0000FFC83B7500237B757B68BB6100233B77BB7B3B6207F11403194641F20230FFF7DAFA0346002B0CBF0123A1
S32D0000FFF00023DBB2002B38D04FF40071B868FFF74FFF0346002B14BF01230023DBB2002B2BD00023BB7328E04E
S32D0001001819233B7500237B757B68BB6100233B77BB7B3B6207F11403194641F20230FFF7B1FA0346002B0CBF60
S32D0001004001230023DBB2002B0FD0BB7B5B021946B868FFF725FF0346002B14BF01230023DBB2002B01D000234D
S32D00010068BB730D233B7500237B757B6B1B69BB6100233B7700233B6207F11403194641F20230FFF787FA03469A
S32D00010090002B14BF01230023DBB2002B01D0012313E07A6A0D4B1340002B01D001230CE07B6A03F4F853B3F5F2
S32D000100B8106FD6D1BB7B002B01D0012300E0002300BF18463837BD4680BD00BFEC130020040000200880D9FF6C
S32D000100E080B58CB000AF03463A60FB710B46BB713A4BBB62FB79002B01D0042369E0012387F82F30364B1B786D
S32D00010108DBB203F00103002B14BF01230023DBB2002B01D0032358E0BB79032B50D801A252F823F03D0101004F
S32D00010130450101005501010065010100002387F82F3044E0BB6A9A683B681A60002387F82F303CE03B684FF42F
S32D0001015800721A80002387F82F3034E009233B7200237B72BB6A1B69FB6000233B7400237B6107F10803194637
S32D0001018041F20230FFF70AFA0346002B14BF01230023DBB2002B01D001231AE07B6A03F44003002B0CD13B6AF0
S32D000101A89B0C03F07F035A1C7B6A1B0A03F00303013B9A403B681A60002387F82F3002E0042387F82F3097F8E9
S32D000101D02F3018463037BD4680BD00BFEC1300200400002080B483B000AF0346FB71FB79002B01D0012302E059
S32D000101F8034B1B78DBB218460C37BD4680BC70470400002080B483B000AF7860164B03F580539B6B144A43F0FE
S32D00010220010302F580529363124A7B689360114B05225A600F4B1B680E4A43F00103136000BF0C4B1B6803F012
S32D000102488003002B0CBF01230023DBB2002BF4D1064B1B68054A23F00103136000BF0C37BD4680BC704700BFE6
S32D00010270007004400000044080B582B000AF786039607B68012B07D13B684FF6FF72934202D1034800F00EF8B7
S32D0001029800BF0837BD4680BD0C16002080B500AF4FF6FF710120FFF7E3FF80BD80B483B000AF78607B680022F5
S32D000102C01A707B6818460C37BD4680BC7047000080B582B000AF78607B681B7883F00103DBB2002B21D0134B29
S32D000102E803F580531A464FF400639362104B4FF440721A620E4B4FF440725A620D4B1B68DA0F13445B104FF482
S32D00010310614219460A48FEF7FBFB642000F08AF87B6801221A70012300E0002318460837BD4680BD0070044041
S32D0001033800D004401016002000B00E4080B582B000AF7860084611461A460346FB700B46BB7013467B707F2137
S32D000103600E48FEF7A8FC08210C48FEF7A4FCFB7819460A48FEF79FFCBB7819460748FEF79AFC7B7819460548AE
S32D00010388FEF795FCFF210348FEF791FC00BF0837BD4680BD00B00E4080B487B000AFF860B9607A60FB681F4A66
S32D000103B0A2FB03239B09BA6813447B61FB681B4AA2FB031292094FF47A7101FB02F29B1AFB60FB68DB03154A7F
S32D000103D8A2FB03239B097A6813443B613B69DB0B7A6913447B613B69C3F30E033B6100BF0D4B1B687A699A42BA
S32D0001040009D80B4B1B687A699A4206D1084B5B683A699A4201D9012300E00023002BEBD100BF00BF1C37BD462C
S32D0001042880BC7047D34D621000D0034080B584B000AF7860074B1B68FB60064B5B68BB607B68BA68F9681846FA
S32D00010450FFF7A6FF00BF1037BD4680BD00D0034080B584B000AF78600B4B1B68FB600A4B5B68BB600949786800
S32D0001047804F0D6FE0346184605F0BEF80346BA68F9681846FFF788FF00BF1037BD4680BD00D0034000007A447D
S32D000104A080B584B000AFC7E900010E4B1B68FB600C4B5B68BB604FF000020B4BD7E9000104F05CFA02460B46BD
S32D000104C81046194604F02EFD0346BA68F9681846FFF762FF00BF1037BD4680BD00D0034000408F4080B584B0DF
S32D000104F000AF134B1B68FB60114B5B68BB60F86804F0C2F902460B46C7E90023B86804F0BBF94FF000020B4BDE
S32D0001051804F05AFB02460B46D7E9000104F074F802460B46C7E90023D7E90023104619461037BD4680BD00BF67
S32D0001054000D003400000E04080B483B000AF0B4B1B684FF47A7202FB03F37B60074B5B684FF47A7202FB03F336
S32D00010568DB0B7A6813447B607B6818460C37BD4680BC704700D0034080B584B000AF78600B46FB700B23FB7395
S32D00010590FA7BFB781946786800F07CF87B6818461037BD4680BD000080B485B000AF78607B68103B002B00DAC6
S32D000105B81F335B11FB60FB68022B43D0FB68022B5DDCFB68002B03D0FB68012B1DD056E02D4BD3F880317A68A6
S32D000105E0103A02F01F02012101FA02F21146284A0B43C2F88031264B1B687A68103A02F01F02012101FA02F2B8
S32D000106081146214A0B43136039E01F4BD3F884317A68103A02F01F02012101FA02F21146194A0B43C2F8843176
S32D00010630174B5B687A68103A02F01F02012101FA02F21146124A0B4353601CE0104BD3F888317A68103A02F079
S32D000106581F02012101FA02F211460B4A0B43C2F88831094B9B687A68103A02F01F02012101FA02F21146044A88
S32D000106800B43936000BF00BF1437BD4680BC704700E100E080B584B000AF78600B46FB701346BB707B68FA7805
S32D000106A81A70BB78FB737B681B781A46574B9B5C042B00F2A68001A252F823F0D90601002507010071070100BC
S32D000106D009080100BD070100FB7B1B0403F470234D497A68127810464C4A52F8202043F4897343F0010341F8EA
S32D000106F82230494B5A697B681B781946454B53F8213003F01F03012101FA03F3DB43424913404B616720FFF7DC
S32D0001072043FF72E0FB7B1B0403F470233D497A6812781046394A52F8202043F4897343F0010341F82230384B2A
S32D000107485A697B681B781946324B53F8213003F01F03012101FA03F3DB43314913404B616820FFF71DFF4CE04C
S32D00010770FB7B1B0403F470232C497A6812781046264A52F8202043F4897343F0010341F82230274B5A697B68FD
S32D000107981B7819461F4B53F8213003F01F03012101FA03F3DB43204913404B616920FFF7F7FE26E0FB7B1B047D
S32D000107C003F470231B497A6812781046134A52F8202043F4897343F0010341F82230164B5A697B681B78194685
S32D000107E80C4B53F8213003F01F03012101FA03F3DB430F4913404B616B20FFF7D1FE00E000BF00BF1037BD465A
S32D0001081080BD00BF88B9010000900440CCB9010000F00F4000A0044040F00F4000B0044080F00F4000D00440B8
S32D0001083800F10F40B0B48BB000AF224B3C1D1D460FCD0FC495E80F0084E80F0000237B622FE01D4BD3F8A02022
S32D000108607B6A9B0028333B4453F8243C012101FA03F31340002B14BF01230023DBB2002B18D0144A7B6A52F88C
S32D0001088823305A1C11497B6A41F823200E4BD3F8A0207B6A9B0028333B4453F8243C012101FA03F3084913401D
S32D000108B0C1F8A0307B6A01337B627B6A072BCCDD00BF00BF2C37BD46B0BC7047D0BA010000A004403C160020F2
S32D000108D8B0B489B000AF224B3C1D1D460FCD0FC495E8030084E803000023FB612FE01D4BD3F8A020FB699B005E
S32D0001090020333B4453F81C3C012101FA03F31340002B14BF01230023DBB2002B18D0FB690833134A52F823207F
S32D000109280132114941F823200E4BD3F8A020FB699B0020333B4453F81C3C012101FA03F308491340C1F8A030FF
S32D00010950FB690133FB61FB69052BCCDD00BF00BF2437BD46B0BC7047F0BA010000B004403C160020B0B48DB096
S32D0001097800AF234B3C461D460FCD0FC40FCD0FC495E8070084E807000023FB622FE01D4BD3F8A020FB6A9B0077
S32D000109A030333B4453F8303C012101FA03F31340002B14BF01230023DBB2002B18D0FB6A0E33134A52F82320B4
S32D000109C80132114941F823200E4BD3F8A020FB6A9B0030333B4453F8303C012101FA03F308491340C1F8A0303A
S32D000109F0FB6A0133FB62FB6A0A2BCCDD00BF00BF3437BD46B0BC704708BB0100009004403C160020B0B487B0EB
S32D00010A1800AF214B3C461D460FCD0FC42B68236000237B612FE01D4BD3F8A0207B699B0018333B4453F8183C01
S32D00010A40012101FA03F31340002B14BF01230023DBB2002B18D07B691933134A52F823200132114941F8232019
S32D00010A680E4BD3F8A0207B699B0018333B4453F8183C012101FA03F308491340C1F8A0307B6901337B617B697B
S32D00010A90042BCCDD00BF00BF1C37BD46B0BC704734BB010000D004403C16002080B483B000AF78607B681B788E
S32D00010AB81A46044B53F8223018460C37BD4680BC704700BF3C16002080B483B000AF78607B681B781946044BE9
S32D00010AE0002243F8212000BF0C37BD4680BC70473C16002080B483B000AF78600B46FB707B68FA781A707B6873
S32D00010B0818460C37BD4680BC704700000000000080B586B000AF78607B681B781A463E4B53F822303B617B68BA
S32D00010B301B781A463B4B9B5CFB733B69DBB203F01F03DAB2384B1A723B69DBB203F01F03DAB2354B5A72354B39
S32D00010B581022C3F88820FB7B002B13D13049324800F05CFA00BF304B1B6803F08003802B14BF01230023DBB296
S32D00010B80002BF4D12A4B1B697B6112E02649294800F048FA00BF274B1B6803F08003802B14BF01230023DBB201
S32D00010BA8002BF4D1214B1B697B611E4BD3F888311C4A43F01003C2F888311A4B9B68194A43F0100393607B696E
S32D00010BD09BB2184603F058FE0DA3D3E9002303F0CDFE02460B46104619460BA3D3E9002303F0EEFF02460B4661
S32D00010BF81046194604F0B6F90346BB60BB6818461837BD4680BD00BFA4703D0AD7A30A4000000000E0FFEF4016
S32D00010C204CBA0100A8B901001C16002000E100E000B0034000B00B4080B586B000AF78607B681B781A46234B05
S32D00010C4853F822303B617B681B781A46204B9B5CFB733B69DBB203F01F03DAB21D4B1A723B69DBB203F01F0392
S32D00010C70DAB21A4B5A72FB7B002B13D11749184800F0D0F900BF164B1B6803F08003802B14BF01230023DBB22F
S32D00010C98002BF4D1104B1B697B6112E00D490F4800F0BCF900BF0D4B1B6803F08003802B14BF01230023DBB2DC
S32D00010CC0002BF4D1074B1B697B617B6918461837BD4680BD4CBA0100A8B901002C16002000B0034000B00B40D9
S32D00010CE898B500AF204B5C221A701F4B10225A701D4B41F234225A801B4B45F278629A80194B10229A71184BA8
S32D00010D100722DA71164B4FF4C022DA60144B1F221A72134B1F225A721149124800F07AF90F49114800F076F9C2
S32D00010D380F4800F0D4F80D4800F0D1F80A490C4800F06CF90849094800F068F9094A064B14460FCB84E80F0029
S32D00010D60064B5C221A70054B0422DA7100BF98BD1C16002000B0034000B00B402C16002080B500AF064B1B68DC
S32D00010D880133054A136000F03DF8044B0122C3F80C2100BF80BD00BFC01600200070034080B500AF0C4B012205
S32D00010DB01A600C4800F01AF8094B0322C3F80821094BD3F88831084A43F01003C2F88831054B9B68044A43F030
S32D00010DD81003936000BF80BD00700340A086010000E100E080B483B000AF7860044A7B68C2F8003100BF0C3743
S32D00010E00BD4680BC704700BF0070034080B584B000AF184B1B68FB6023E0FB685B78FB71FB689B68184600F0A9
S32D00010E2827F80346BB71BB79002B13D0FB685B68012B0FDDFB689B681B69BB6007E0BB685B685A1CBB685A6062
S32D00010E50BB681B69BB60BB68002BF4D1FB68DB68FB60FB68002BD8D100BF00BF1037BD4680BD00BFBC160020B0
S32D00010E7880B584B000AF78607868FFF7D9FEF8607B689B695B78FB72FB7A002B0FD17B68DB68FA689A420ADD64
S32D00010EA07B689B6901225A707B685B685A1C7B685A60012313E0FB7A012B0FD17B689B68FA689A420ADA7B6813
S32D00010EC89B6900225A707B685B685A1C7B685A60012300E0002318461037BD4680BD80B485B000AF78607B6873
S32D00010EF01B6A23F040027B681A627B685B6A23F00B027B685A627B685B6A43F007027B685A627B685B6A43F0D5
S32D00010F1880027B685A6200BF7B681B6803F08003002B0CBF01230023DBB2002BF4D17B685B6A03F04003402BEB
S32D00010F400CBF01230023DBB2002B01D0012364E00023FB817B68DB6CFB817B689B6C9AB2FB891344FB817B68CA
S32D00010F685B6C9AB2FB891344FB817B681B6C9AB2FB891344FB817B68DB6B9AB2FB891344FB817B689B6B9AB2E2
S32D00010F90FB891344FB81FB895B08FB81FB896FEA43436FEA5343FB81FA897B68DA620023FB817B68DB6EFB81C1
S32D00010FB87B689B6E9AB2FB891344FB817B685B6E9AB2FB891344FB817B681B6E9AB2FB891344FB817B68DB6DF2
S32D00010FE09AB2FB891344FB817B689B6D9AB2FB891344FB81FB895B08FB81FB896FEA43436FEA5343FB81FA89FD
S32D000110087B681A637B685B6A23F080027B685A62002318461437BD4680BC704780B483B000AF786039603B6891
S32D000110301B781A467B689A603B685B781A467B68DA603B685B881A467B689A613B689B881A467B68DA613B6823
S32D000110589B791A467B681A623B68DB791A467B685A623B68DA687B681A653B681B7A1A467B681A603B685B7AEC
S32D000110801A467B685A6000BF0C37BD4680BC704780B483B000AF78607B6818460C37BD4680BC704780B582B07D
S32D000110A800AF786039607B68012B07D13B684FF6FF72934202D10348FFF7E6FF00BF0837BD4680BDC4160020B3
S32D000110D080B500AF4FF6FF710120FFF7E3FF80BD80B483B000AF78600B46FB707B68FA781A707B684FF4FA7207
S32D000110F85A807B6840F6C4129A807B68034A9A607B6818460C37BD4680BC7047000080BF2DE9904385B000AF36
S32D00011120786039604FF00001386804F01BFA0346002B02D04FF000033B603249386804F02FFA0346002B01D0A6
S32D000111482E4B3B607B689B681946386804F0FCF90346002B00D04BE07B683A689A607B685C887B689B881A467B
S32D000111707B685B88D31A184603F096FB4FF00002214B03F025FD02460B4690469946386803F09CFB02460B46E8
S32D000111984046494603F0EEFB02460B461046194603F0C0FE03469BB22344FB81FB897B73FB891B0A9BB23B73A9
S32D000111C07F211248FDF777FD05211048FDF773FD7B681B7819460D48FDF76DFD3B7B19460A48FDF768FD7B7B7E
S32D000111E819460848FDF763FDFF210648FDF75FFD00BF1437BD46BDE8908300BF000034430080664000B00E40F8
S32D0001121080B582B000AF7860B84B4FF48072DA60B74B4FF480729A64B54B4FF480721A64B34B4FF480725A6476
S32D00011238B14B4FF48072DA60B04B5B69AF4A43F008035361AE4B5B69AD4A43F480235361AB4B5B69AA4A43F44B
S32D0001126080335361A84B5B69A74A43F400335361A54B1B68A44A43F008031360A24B5B69A14A43F00803536192
S32D000112889E4B1B689D4A43F0080313609A4B4FF480725A62984B4FF480721A62954B4FF480721A61934B4FF418
S32D000112B080725A61914B4FF480729A618F4B4FF48072DA618D4B4FF480721A638B4B4FF480725A63894B4FF4A3
S32D000112D880729A63874B4FF48072DA63854B4FF480721A64834B4FF480725A64814B4FF480729A647F4B4FF464
S32D000113008072DA64814B4FF480721A607F4B4FF480729A607D4B4FF48072DA607B4B4FF480721A61784B5B69E6
S32D00011328774A43F440735361744B5B69734A43F47F2343F0F0035361734B5B69724A43F01D035361E22178681C
S32D0001135000F0AEFD1D21786800F050FE0221786800F04CFE0421786800F048FEE021786800F09EFD0121786891
S32D0001137800F040FE6420FFF759F8E021786800F093FD0321786800F035FE0121786800F08BFD0120FFF74AF8F2
S32D000113A0E621786800F084FD0121786800F026FEA021786800F022FEFF21786800F01EFEB021786800F074FDE1
S32D000113C81C21786800F016FE0F21786800F012FE0121786800F00EFE3F21786800F00AFE0021786800F006FE9A
S32D000113F0EF21786800F002FE0021786800F0FEFDB421786800F054FD0121786800F0F6FD9921786800F0F2FDAE
S32D000114180021786800F0EEFD4521786800F0EAFD0221786800F0E6FD0021786800F0E2FD0021786800F0DEFD3A
S32D000114400021786800F0DAFDB621786800F030FD0121786800F0D2FD0921786800F0CEFD0021786800F0CAFDA3
S32D000114680E21786800F0C6FD0221786800F0C2FD0021786800F0BEFD0021786800F0BAFDBA21786800F010FDD5
S32D000114900F21786800F0B2FD6420FEF7CBFF3A21786800F005FD6021786800F0A7FD2A21786800F0FDFC0021E4
S32D000114B8786800F09FFD0021786800F09BFD0121786800F097FD3F21786800F093FD2B21786800F0E9FC0021A8
S32D000114E0786800F08BFD0021786800F087FD0021786800F083FDEF2178680BE000B0044000A0044080F00F402D
S32D0001150840F00F4000C00440C0F00F4000F072FD3621786800F0C8FC0021786800F06AFDF021786800F0C0FCF3
S32D000115300421786800F062FDB821786800F0B8FC0F21786800F05AFD0121786800F056FD314B1B68304A43F093
S32D00011558080313606420FEF769FF3621786800F0A3FC0021786800F045FDF021786800F09BFC0421786800F09F
S32D000115803DFD0121786800F0C0F91E226F21786800F082F8AF225621786800F0DDF80021786800F00EFA012333
S32D000115A801221C49786800F02FFA2921786800F07BFC6420FEF73AFFBE21786800F074FC0E21786800F016FD1F
S32D000115D0F021786800F012FD0121786800F00EFD0021786800F00AFD0021786800F006FD0F21786800F002FD14
S32D000115F8786800F0A5FA0121786800F0DEF90021786800F0B3F900BF0837BD4680BD00BF40F00F4048BB01006F
S32D0001162080B582B000AF78607B680022DA617B6801221A627B680E225A607B681A229A607B6800225A617B6862
S32D0001164800229A617B684FF4A072DA607B68F0221A617B6800221A70786801F0FFF97B6818460837BD4680BD5C
S32D0001167080B582B000AF7860064B1B78002B05D1044B01221A707868FFF7C2FD00BF0837BD4680BD0C17002066
S32D0001169880B58AB002AFF860B9607A607E23009362237A68B968F86800F093FE40F24E733B610023FB613FE0EE
S32D000116C00023BB6131E0FB690133224AD35C002B06D1FF23FB75FF23BB75FF237B7512E0FB6901331B4AD35C62
S32D000116E8012B06D1D423FB750023BB7526237B7505E0B523FB75BA23BB75B0237B757B7DBA7DF97DF86800F0EB
S32D00011710D7F80246FB68DA61F86801F0A3F9F86801F0DCF8BB690133BB610A4AFB6913441B781A46BB69934274
S32D00011738C5DBFB690233FB61FA693B699A42BBDB00BF00BF2037BD4680BD00BF0800002080B58AB002AFF86000
S32D00011760B9607A602723009395237A68B968F86800F033FE40F2E6333B610023FB613FE00023BB6131E0FB6915
S32D000117880133224AD35C002B06D1FF23FB75FF23BB75FF237B7512E0FB6901331B4AD35C012B06D10023FB75B7
S32D000117B00023BB7500237B7505E0D423FB750023BB7526237B757B7DBA7DF97DF86800F077F80246FB68DA6182
S32D000117D8F86801F043F9F86801F07CF8BB690133BB610A4AFB6913441B781A46BB699342C5DBFB690233FB618C
S32D00011800FA693B699A42BBDB00BF00BF2037BD4680BD00BF5807002080B485B000AF78600B46FB70FB78062B9D
S32D0001182829D801A252F823F0551801004D1801005B180100631801006B18010071180100791801006FF07F430B
S32D00011850FB6014E00023FB6011E04FF47F03FB600DE04FF47F43FB6009E0FF23FB6006E04FF41903FB6002E056
S32D00011878044BFB6000BFFB6818461437BD4680BC704700BF9999990080B584B000AF786039603B681B0CFB738B
S32D000118A03B681B0ABB733B687B737B7BBA7BF97B786800F005F8034618461037BD4680BD80B487B000AF786006
S32D000118C8084611461A460346FB700B46BB7013467B70FB789B08DBB27B61BB789B08DBB23B617B789B08DBB2D7
S32D000118F0FB607B691A033B699B011A43FB68134318461C37BD4680BC704780B582B000AF78600B46FB70FB7853
S32D0001191819467868FFF77CFF03461946786800F004F800BF0837BD4680BD80B582B000AF786039603968786836
S32D00011940FFF7A6FF02467B681A62786801F08AF8786800F0EBFB00BF0837BD4680BD80B582B000AF7860786821
S32D0001196800F0E0FB00BF0837BD4680BD80B582B000AF78600B46FB70FB7819467868FFF747FF03461946786827
S32D0001199000F004F800BF0837BD4680BD80B582B000AF7860396039687868FFF771FF02467B681A62786801F018
S32D000119B855F800BF0837BD4680BD80B582B000AF78600B46FB70FB7819467868FFF720FF03461946786800F08C
S32D000119E004F800BF0837BD4680BD80B582B000AF7860396039687868FFF74AFF02467B68DA61786801F02EF8FA
S32D00011A0800BF0837BD4680BD80B586B000AFF860B9607A603B6000237B610EE07B69BA6813441B783A68796811
S32D00011A30F86800F011FE7B680C337B607B6901337B617B69BA6813441B78002BEAD100BF00BF1837BD4680BD54
S32D00011A5880B592B000AFF860B9607A603B6007F11403BA680749184604F0D4FC07F114013B687A68F868FFF7C8
S32D00011A80C7FF00BF4837BD4680BD00BF54BB010080B594B000AFF860B9607A603B60B86803F088FD0346BB6416
S32D00011AA8B86C03F069FB03461946B86803F0AEFA03461F49184603F0B3FB0346184603F075FD0346FB644FF08E
S32D00011AD00001B86803F046FD0346002B02D0FB6C5B42FB644FF00001B86803F03BFD0346002B0ED01149B86890
S32D00011AF803F052FD0346002B07D007F11400FB6CBA6C0D4904F086FC06E007F11400FB6CBA6C0A4904F07EFC8D
S32D00011B2007F114013B687A68F868FFF771FF00BF5037BD4680BD00BF00007A44000080BF58BB010064BB0100C8
S32D00011B4880B582B000AF7860FCF78EFF67210120FCF7F7FE00210220FCF7F3FEA0210320FCF7EFFE50210420EF
S32D00011B70FCF7EBFE20210520FCF7E7FE20210620FCF7E3FE77210720FCF7DFFE00210820FCF7DBFE0021092003
S32D00011B98FCF7D7FE00210A20FCF7D3FE04210B20FCF7CFFE7B684FF0FF32DA637B684FF0FF321A6400BF0837D8
S32D00011BC0BD4680BD0000000080B586B000AFF860B9607A600020FCF7DAFE0346FB75FB7D03F00203002B00F022
S32D00011BE8CC80FCF7EDFEE020FCF79EFE0220FEF71DFCFCF7F3FE0120FEF718FCFCF7E0FEA520FCF791FE01209E
S32D00011C10FEF710FCFCF7B3FE03461B02BB82FCF7AEFE03461A46BB8A1343BB82FCF7A7FE03461B027B82FCF74F
S32D00011C38A2FE03461A467B8A13437B82BB8A1B09BB827B8A1B097B82FCF7C8FEFB68DB6BB3F1FF3F34D1FB6864
S32D00011C601B6CB3F1FF3F2FD1BA8AFB68DA637A8AFB681A647B8AC3F57F630F337B82BB8A184602F011FE48A3B6
S32D00011C88D3E9002302F076FE02460B461046194603F068F90246BB681A607B8A184602F0FFFD41A3D3E900234D
S32D00011CB002F064FE02460B461046194603F056F902467B681A605AE0FB68DA6BBB8AD31A1946F86800F072F84F
S32D00011CD80346632B0CDCFB681A6C7B8AD31A1946F86800F067F80346632B01DC012300E00023002B2FD0BA8AEC
S32D00011D00FB68DA637A8AFB681A647B8AC3F57F630F337B82BB8A184602F0C6FD22A3D3E9002302F02BFE0246F2
S32D00011D280B461046194603F01DF90246BB681A607B8A184602F0B4FD1BA3D3E9002302F019FE02460B461046FD
S32D00011D50194603F00BF902467B681A600FE0BB68154A1A607B68144A1A60FB684FF0FF32DA63FB684FF0FF32E0
S32D00011D781A64002310E001230EE0BB680C4A1A607B680B4A1A60FB684FF0FF32DA63FB684FF0FF321A64002370
S32D00011DA018461837BD4680BD144001144001B43F1EE0011EE001AE3F000080BF80B483B000AF786039603B6836
S32D00011DC8002B02DA3B685B423B603B6818460C37BD4680BC704780B584B000AF786039600023FB60786800F0F9
S32D00011DF060FA11E07B6859697B689869FB683A6813441B780246786800F00CFC786800F064FAFB680133FB60C1
S32D00011E18FB683A6813441B78002BE7D100BF00BF1037BD4680BD80B582B000AF78600B46FB70786800F039FA17
S32D00011E407B6859697B689A69FB78786800F0EAFB786800F042FA00BF0837BD4680BD80B582B000AF78603960EF
S32D00011E68786800F022FA39687868FFF7B4FF786800F006FA00BF0837BD4680BD80B582B000AF78600B46FB707D
S32D00011E90786800F00EFAFB7819467868FFF7C7FF786800F0F1F900BF0837BD4680BD000080B483B000AF7860F7
S32D00011EB80B46FB704D4B1B684C4A23F0080313604B4B1B684A4A23F480231360484B1B68474A43F4803313601F
S32D00011EE0454B1B68444A23F440731360414B1B68404A23F4435323F0300313603E4B1A68FB785B0203F40073B1
S32D00011F083B4913430B603A4B1A68FB785B101B0203F48073364913430B60344B1A68FB789B101B0103F01003F8
S32D00011F30304913430B602F4B1A68FB78DB105B0103F020032B4913430B602A4B1A68FB781B119B0103F04003DF
S32D00011F58264913430B60254B1A68FB785B11DB01DBB2224913430B60204B1A68FB789B111B0303F480531D496A
S32D00011F8013430B601B4B1A6897F90330DB115BB25B0303F40053174913430B60164B1B68154A23F40033136004
S32D00011FA8134B1B68124A43F4003313600F4B1B680E4A43F0080313600D4B1B680C4A43F440731360094B1B68A5
S32D00011FD0084A43F4435343F030031360064B1B68054A43F48023136000BF0C37BD4680BC704700BF80F00F4004
S32D00011FF840F00F4080B483B000AF78600B46FB70464B1B68454A23F008031360444B1B68434A43F48033136061
S32D00012020414B1B68404A43F4802313603E4B1B683D4A23F4407313603A4B1B68394A23F4435323F030031360EA
S32D00012048374B1A68FB785B0203F40073344913430B60334B1A68FB785B101B0203F480732F4913430B602D4B57
S32D000120701A68FB789B101B0103F01003294913430B60284B1A68FB78DB105B0103F02003244913430B60234BEB
S32D000120981A68FB781B119B0103F040031F4913430B601E4B1A68FB785B11DB01DBB21B4913430B60194B1A68BF
S32D000120C0FB789B111B0303F48053164913430B60144B1A6897F90330DB115BB25B0303F40053104913430B606B
S32D000120E80F4B1B680E4A23F4003313600C4B1B680B4A43F400331360084B1B68074A43F008031360064B1B681F
S32D00012110054A23F48023136000BF0C37BD4680BC704700BF80F00F4040F00F4080B586B000AF78607B68002238
S32D000121385A617B6800229A617B681B6AFB60FB68FB72FB681B0ABB72FB681B0CDBB203F003037B722A2178684D
S32D00012160FFF7A6FE00217868FFF748FF00217868FFF744FF01217868FFF740FF3F217868FFF73CFF2B2178686A
S32D00012188FFF792FE00217868FFF734FF00217868FFF730FF00217868FFF72CFFEF217868FFF728FF2C217868F6
S32D000121B0FFF77EFE314B1B68304A23F4407313602F4B1B682E4A23F47F2323F0F00313602C4B1B682B4A23F0AF
S32D000121D81D031360274B1A687B681B6B254913430B60254B1A687B685B6B234913430B60224B1A687B689B6B19
S32D00012200204913430B601E4B1B681D4A23F0080313601A4B1B68194A43F48023136000237B6118E000233B6153
S32D000122280EE0144B1B68134A23F400331360114B1B68104A43F4003313603B6901333B613B69B3F5A07FECD3E9
S32D000122507B6901337B617B69EF2BE3D9084B1B68074A43F008031360044B1B68034A23F48023136000BF18377F
S32D00012278BD4680BD40F00F4080F00F40C0F00F4080B483B000AF78607B689B69002B07DD7B685B695A1C7B68D6
S32D000122A05A617B6800229A6100BF0C37BD4680BC704780B582B000AF78607B685A697B685B689A4205DB7B6883
S32D000122C800225A617868FFF72DFF00BF0837BD4680BD80B582B000AF78607B689B695A1C7B689A617B689A69BB
S32D000122F07B689B689A4205D17868FFF7C5FF7868FFF7D7FF00BF0837BD4680BD80B586B002AFF860B9607A603C
S32D000123180123009301237A68B968F86800F059F8F86800F0D7FA00BF1037BD4680BD80B485B000AF7860396027
S32D000123407B681B68FB603B681A687B681A603B68FA681A6000BF1437BD4680BC704780B586B002AFF860B9601F
S32D000123687A603B60BA683B681A447B68009313467A68B968F86800F0ABF8BA683B68D118BA683B68D0187A68AC
S32D00012390BB691344009303467A68F86800F09CF8BA683B68D1187A68BB69D0187A68BB6913440093BB6802460A
S32D000123B8F86800F08DF87A68BB691A447B680093BB68B968F86800F083F800BF1037BD4680BD80B588B000AFD6
S32D000123E0F860B9607A603B60FB681B78022B03D0FB681B78032B11D17B68FB61BA6AFB691344013BBB61FB6813
S32D00012408DA68BB68D31A3B613B683A69D31A01337B610DE0BB68FB613A68FB691344013BBB617B687B61BA6A70
S32D000124307B691344013B3B612A21F868FFF738FDFB691B0ADBB203F00F03DBB21946F868FFF7D4FDFB69DBB275
S32D000124581946F868FFF7CEFDBB691B0ADBB203F00F03DBB21946F868FFF7C4FDBB69DBB21946F868FFF7BEFDD6
S32D000124802B21F868FFF714FD7B691B0ADBB203F00F03DBB21946F868FFF7B0FD7B69DBB21946F868FFF7AAFD23
S32D000124A83B691B0ADBB203F00F03DBB21946F868FFF7A0FD3B69DBB21946F868FFF79AFD2C21F868FFF7F0FCBF
S32D000124D000BF2037BD4680BD90B58BB000AFF860B9607A603B603A68BB68D31A1946F868FFF764FCF861BA6B2D
S32D000124F87B68D31A1946F868FFF75CFCB861BA69FB699A42CCBF01230023FB75FB7D002B0CD03A1D07F1080341
S32D0001252011461846FFF707FF3B4607F138011846FFF701FFBA683B689A420CDD3A4607F1080311461846FFF71D
S32D00012548F6FE3B1D07F138011846FFF7F0FE3A68BB689A4206D1BB687A681946F868FFF7D1FE55E0BA6B7B6867
S32D00012570D31A184602F004FE04463A68BB68D31A184602F0FDFD03461946204602F000FF03463B617B68184692
S32D0001259802F0F2FD03467B62BB683B6234E0FB7D002B14D0786A02F08DF94FF000021A4B02F02AF802460B4605
S32D000125C01046194602F08AFC03463A6A1946F868FFF79CFE13E0786A02F078F94FF000020F4B02F015F8024669
S32D000125E80B461046194602F075FC03461A46396AF868FFF787FE3969786A02F009FD03467B623B6A01333B621C
S32D000126103B683A6A9A42C6DD2C37BD4690BD00BF0000E03F80B584B000AFF860B9607A60FB707A6813465B00E0
S32D0001263813449B00991CBA6813461B011344DA1CFB78F86800F004F800BF1037BD4680BD80B58EB002AFF86067
S32D00012660B9607A60FB70FB780A2B06D1F868FFF720FEF868FFF708FEF2E0FB787D2B02D8FB781F2B01D82023FE
S32D00012688FB70FB78203BFB70112300930C237A68B968F868FFF79DFEFA7813469B0013446F4AD35C3B75FA78CE
S32D000126B013469B00134401336B4AD35C7B75FA7813469B0013440233674AD35CBB75FA7813469B0013440333B3
S32D000126D8634AD35CFB75FA7813469B00134404335F4AD35C3B760023BB629FE0F86800F053F9F86800F0B6F8B1
S32D00012700002387F82F3000237B6234E007F114027B6A13441B7803F00103002B14BF01230023BB76BB7E002BE7
S32D0001272811D097F82F3083F00103DBB2002B03D0F86800F0CFF802E0F86800F093F8F86800F090F80DE097F889
S32D000127502F30002B03D0F86800F022F902E0F86800F084F8F86800F081F8BB7E87F82F307B6A01337B627B6A29
S32D00012778042BC7DD97F82F30002B03D0F86800F00BF902E0F86800F06DF8F86800F06AF8002387F82F300023B2
S32D000127A03B6241E007F114023B6A13441B7803F00103002B14BF01230023FB76FB7E002B11D097F82F3083F01C
S32D000127C80103DBB2002B03D0F86800F083F802E0F86800F047F8F86800F044F80DE097F82F30002B03D0F86852
S32D000127F000F0D6F802E0F86800F038F8F86800F035F8FB7E87F82F3007F114023B6A13441B785B08D9B207F143
S32D0001281814023B6A13440A461A703B6A01333B623B6A042BBADDBB6A0133BB62BB6A062B7FF75CAFF86800F027
S32D00012840AFF8002387F82F300123FB6105E0F86800F00CF8FB690133FB61FB69232BF6DD3037BD4680BD00BF29
S32D00012868400B002080B483B000AF7860174B1B68164A43F480331360154B1B68144A23F008031360114B1B6895
S32D00012890104A43F4802313600E4B1B680D4A23F4003313600B4B1B680A4A43F400331360094B1B68084A43F01C
S32D000128B808031360054B1B68044A23F48023136000BF0C37BD4680BC704700BF40F00F4080F00F4080B483B0C9
S32D000128E000AF78602B4B1B682A4A43F480331360294B1B68284A23F008031360254B1B68244A43F480231360D0
S32D00012908224B1B68214A23F440731360204B1B681F4A23F47F2323F0F00313601D4B1B681C4A23F01D03136088
S32D00012930184B1A687B685B6A164913430B60164B1A687B689B6A144913430B60134B1A687B68DB6A114913432A
